:030000000211D614
:03000B000200BE32
:03002B00020415B7
:03005B0002055942
:0300730002054F34
:1000800002030406080C10182030406080020304AC
:1000900006080C101820304080FF0406080C1018C9
:1000A0002030406080A0C000000001010003020277
:1000B000010505020D0505050D0604050202C2AF86
:1000C000C0D0C0E0205A25302F02E47330601A05FA
:1000D00060C37405952540F2956040EE758A78E519
:1000E000257003758A0002040E020401306306C203
:1000F00083C294C295C0F0E573541FF572F4852550
:10010000F0A485F071E57225F0D0F0F58AC25AE5C9
:1001100025F4700221F40561306013206A19758B93
:1001200000D0E0D0D0C283C294C295D2AF32C28395
:10013000C294C2950201E4D26EC26FE565601CC331
:10014000E5611495654014C26ED26FC3E561956494
:1001500050030201E47561000201E4206C14C283C3
:10016000C294C2957408D5E0FDD280D282D29702A3
:1001700001E4D26FC283C294C295E53D20E23420EF
:10018000E1127408D5E0FD207402D297307402D2D7
:10019000800201E420E0127408D5E0FD207402D250
:1001A00097307402D2800201E47408D5E0FDD28257
:1001B0000201E420E11F20E00A7408D5E0FDD282AC
:1001C0000201E47408D5E0FD207402D2803074028C
:1001D000D2970201E47408D5E0FD207402D2803089
:1001E0007402D297758B00D0E0D0D0C283C294C283
:1001F00095D2AF32D0E0D0D0D2AF328101E52560C8
:100200000A207402D283307402D295C2948101E52F
:10021000256002D294207402C295307402C2838198
:1002200001E525600A207402D295307402D2832041
:100230007402C283307402C2958101207402C280AC
:10024000307402C297E525600A207402D2833074AC
:1002500002D295207402C297307402C280C2948187
:1002600001207402C280307402C297207402C297C7
:10027000307402C2807406D5E0FDE525600A207462
:1002800002D283307402D295C2948101207402C2DA
:1002900080307402C297E525600A207402D2833050
:1002A0007402D295C282C2948101207402C280304D
:1002B0007402C297C2827406D5E0FDE525600A206B
:1002C0007402D283307402D295C2948101C282E555
:1002D000256002D294207402C280307402C297203A
:1002E0007402C295307402C2838101C282207402FA
:1002F000C280307402C2977406D5E0FDE525600225
:10030000D294207402C295307402C2838101C282E9
:10031000E5256002D294207402C297307402C28034
:10032000207402C295307402C2838101C28220749B
:1003300002C297307402C2807406D5E0FDE52560E4
:1003400002D294207402C295307402C283810120CB
:100350007402C297307402C280E525600A207402DC
:10036000D295307402D283C282207402C283307468
:1003700002C2958101207402C297307402C280C209
:10038000827406D5E0FDE525600A207402D295301E
:100390007402D283207402C283307402C295810138
:1003A000207402C297307402C280E525600A20746E
:1003B00002D295307402D283207402C2803074025B
:1003C000C297207402C283307402C29581012074E6
:1003D00002C297307402C280207402C2803074025C
:1003E000C2977406D5E0FDE525600A207402D29517
:1003F000307402D283207402C283307402C29581A9
:1004000001E571F4F58A758B00756000D25AD0E071
:10041000D0D0D2AF32C2AFC0D0C0E0D2D3C2CEE5CE
:1004200028600A740F552E6049152881727800796A
:1004300000E580307501F430E50278FF53DACF2013
:10044000750343DA2030750343DA10C2D8C269E578
:1004500080307501F430E50279FFC3E89970CE3041
:100460005903752818740F552E600375281888587D
:0E047000D268E529600415298185740F552E88
:10047E00600543DA01C2D8206802A117E558F8C218
:10048E0068740F552E60367982B70431C3E894F044
:10049E00400374F0F8E8C4540F28F87984B70302C7
:1004AE0081CBC313C3138721200802C313200A066E
:1004BE00C3C898F881CB28F8500374FFF8C3E895A9
:1004CE005F5003E55FF8E52C5406703D88223063DB
:1004DE000AC3E522955C4003855C227882B6042926
:1004EE00C3E5229524401278A096400DE52426F50A
:1004FE002450097524FF02050A852224852425C36C
:10050E00E524955C4003855C2520CF09D0E0D0D052
:10051E00C2D3D2AF32C2CF7801E5286008740F552E
:10052E002E70021528C3E55894014005755B00A195
:10053E0046E55B046002055BD0E0D0D0C2D3D2AFFB
:10054E0032C2AF53917FC258D2AF32C2AFC0D0C009
:10055E00E0C0F0D2D3A8FBA9FCC2D8306902A1BC7E
:10056E0053DACF20750343DA1030750343DA20D205
:10057E0069E580307501F420E502A190882689276F
:10058E00E13553DACF20750343DA2030750343DAB1
:10059E0010C2D8C269740F552E7002E11B7800E5A7
:1005AE0080307501F430E502E11B8858E11B53DA07
:1005BE00CF20750343DA2030750343DA10C2692069
:1005CE005902C16553DACF20750343DA1030750333
:1005DE0043DA20C2D8D26988538954C3E89551F8BA
:1005EE00E99552F9E4FB7AFAC3E89468E99401506C
:1005FE0008E4D2E3FB7A0FC138C3E894D0E9940241
:10060E005008E4D2E2FB7A1EC138C3E894A0E99404
:10061E00055008E4D2E1FB7A3CC138C3E89498E96E
:10062E0094085006E4D2E0FB7A78C3E89555FCE9CD
:10063E009556FD30E708ECF42401FCEDF4FD7557FA
:10064E00007008C3EC9A500375570188558956A857
:10065E0053A95488518952C3E89526F8E99527F98C
:10066E00307302C1FF307202C1F8E9C313F9E81307
:10067E00F8307102C1F8E9C313F9E813F8307002CB
:10068E00C1F8E9C313FDE813FC205918C3EC941C00
:10069E00ED9402400302071BED7009C3EC94C850A1
:1006AE000302073574002076037896E624FAFEE4FA
:1006BE003400FFC3EC9EFCED9FFD500678007900E0
:1006CE00C1FFC3EC94FFED9400400678FF7900C1A2
:1006DE00FFEC856CF0A4C5F0A2F733F87900400367
:1006EE0002070A78FF790002070AE9C313F9E81333
:1006FE00F8C3E894FFE99400400278FF8858D26866
:10070E00205902E11B740FF4552E4BF52E75281847
:10071E00740F552E700375280A305902E135740F87
:10072E00552E600353DAFE752906740F552E70038D
:10073E0075290AD0F0D0E0D0D0C2D3D2AF32790131
:10074E00E1647903E164790AE164791EE164796414
:10075E00E16479C8E1647817E4D5E0FDD8FAD9F6FA
:10076E00227A147B78E1877A107B8CE1877A0D7B75
:10077E00B4E1877A0B7BC8E187AC25752501790238
:10078E00B274E4C282D5E0FDE5256002D294D5E0D4
:10079E00FDC294D5E0FDD282D5E0FDE525600A20AC
:1007AE007402D283307402D295E56DD5E0FD2074CB
:1007BE0002C283307402C2957496D5E0FDD9C1EAA7
:1007CE00F8D5E0FDD8FBDBB1C2828C2522C37C00BC
:1007DE007D0075F00005F0EA33FAEB33FB50F6EBD3
:1007EE0013FBEA13FAC3E9FFE8FEE89AF8E99BF96E
:1007FE005004EFF9EEF8B3EC33FCED33FDD5F0DF3A
:10080E00EDF9ECF822E889F08A20D2D4F8A9F07B31
:10081E000030F70B7BFFF42401F8E9F43400F9E81B
:10082E008520F0A4ADF0F8E98520F0A4AFF0FEED40
:10083E002EF974003FFA7C04C3EA13FAE913F9E8BF
:10084E0013F8DCF48BF030F70AE8F42401F8E9F43D
:10085E003400F9E889F0C2D4F8A9F0227882B604FF
:0F086E00030208E9C3E55894014018E548702AD1
:10087D007805C37994B702027812C3E53B9400E57D
:10088D003C984013852224E4F53FF540F541F542AF
:10089D00F543F5480208E9754801C37994E79402D8
:1008AD00601BE523F43333F913F8E9540104F9E837
:1008BD0054FEC39440F8E99400F90208E5E523F4E9
:1008CD0033333333F913F8E954070404F9E854F8D2
:1008DD00C39440F8E99400F9883F894022E54860C7
:1008ED003BC3E53C13F9E53B13F8C3E53F98F8E549
:1008FD004099F9500CC3E89480E994FF4016020921
:10090D0025C3E8947FE994005003020925787F7987
:10091D0000020925788079FF8844894522E54860E1
:10092D0058E5442541F8E5453542F9854520E43043
:10093D000701F43543FA30E709C3EA94F040150294
:10094D000967C3EA940F500302096778FF79FF7AAC
:10095D000F020967780079007AF0C3E524955C50A1
:10096D0006E52460092180E54520E70D2180E54558
:10097D0030E706884189428A4322E548700302091F
:10098D00EA789EE6FAC3E54433F8E54533F91113E9
:10099D00E930E70BC3E89480E994FF401321C1C30C
:1009AD00E8947FE99400500221C1787F790021C13C
:1009BD00788079FFE820E715C3E52398F84009C34F
:1009CD00E8940140030209E878010209E8E8F424FB
:1009DD00012523F840030209E878FF884622E548FF
:1009ED007003020A4C789FE6FAA842A9431113E955
:1009FD0030E70CC3E89401E994FF4016020A23C3C3
:100A0D00E894FFE994005003020A2378FF7900026D
:100A1D000A23780179FFE920E715C3E54698F840E8
:100A2D0009C3E894014003020A4A7800020A4AE821
:100A3D00F424012546F84003020A4A78FF8824224F
:100A4D00020AE47883E6F520120F4975E890E5E88F
:100A5D0020ECEDA8BDA9BE120FDE756855756900B5
:100A6D00C3740013FD745513FC74552CFC74003DB8
:100A7D00FDECFAEDFBC3E89AE99B4014E5682455BB
:100A8D00F568E5693400F569EA2CFAEB3DFB80E584
:100A9D00AE68AF69C3E56913F9E56813F8C3E913E7
:100AAD00F9E813F8E56828F566E56939F5677A031D
:100ABD00C3E913F9E813F8DAF7AA201A7009756873
:100ACD0000756900020AE41AEA6008EE28FEEF39A3
:100ADD00FFDAF88E688F692275E890227883E6FF39
:100AED00E5E820ECF7A8BDA9BE056AC3E56A940840
:100AFD004052756A00E97007E56B601B020B18C365
:100B0D00E8956B6010E56B5006600C14020B240425
:100B1D0060F9020B24E56BF56BC3946DF8402175FC
:100B2D005CC0C3E89404F84017755C80C3E8940476
:100B3D00F8400D755C40C3E89404F84003755C0003
:100B4D0075BB0922C3E56AB4070375BB102230617A
:100B5D000278323062027878E52C54066021E8790B
:100B6D00A187F0A4C5F0A2F733F8C3E8955C400265
:100B7D00A85C882288248825306104C3E8F55E22AC
:100B8D00788FE6FFC3EF94055018C3EF94045020FF
:100B9D00C3EF94035028C3EF94025030C3EF940178
:100BAD0050387533A075340F75353C75360561F5C4
:100BBD007533C075341275354075360661F575336C
:100BCD00707534177535D075360761F575334C75FD
:100BDD00341D7535C475360961F5753328753423A3
:100BED007535B875360B61F585334F853450753BCA
:100BFD0000753C0822A84FA950020C0DA849A94A1E
:100C0D00759100C3E498F594E499F595759104D226
:100C1D005875C820A8CCA9CD75C824AA39AB3A8877
:100C2D0039893AC3E89AF8E99BF9AA3BAB3CC3EB87
:100C3D0013FDEA13FCC3ED13FDEC13FCC3EA9CFAA0
:100C4D00EB9DFBEA28FAEB39FB8A3B8B3C400122FA
:100C5D00753BFF753CFF223058028164759100C3CE
:0F0C6D00E4954BF594E4954CF595759104D258A8
:100C7C00227892E6FF7E10305B027F053063047FA2
:100C8C00037E00A93CA83B7A04C3E913F9E813F8E6
:100C9C00DAF7C3E89EF8E99400F94009C3E8940236
:100CAC00E9940050047802E4F9E9FBE8FAC3E9138B
:100CBC00FDE813FCC3EF9403602EEF20E00DE82C4D
:100CCC00F8E93DF9ECFAEDFB020CE1E828F8E9391A
:100CDC00F97A02E4FBC3EF9403400D8A4D8B4E88E6
:100CEC0049894A8C4B8D4C22884D894E8A498B4AB6
:100CFC008C4B8D4C22305802A101759100C3E495A8
:100D0C003BF594E4953CF595759104D25822753ECB
:100D1C0000752000020D29753E00752040D2AF05EC
:100D2C003E20580122759D00E53CC313C313F808FF
:100D3C006030306A06C313C313F808C3E8940A4042
:100D4C0002780A306D08C3E8940440027804C3E5C5
:100D5C003C9408400D759D02C3E53C94104003750E
:100D6C009D03205803D2AF22791E206D02790AD23E
:100D7C00AF0000C2AF205A0A793C206D02791430C2
:100D8C006FE03063027978C3E58B9920630240F7FA
:100D9C0040D0E59BF4F45440B52002A129D8C3D22D
:100DAC00AF22C25B789CE6146007E53E147002D259
:100DBC005B30630B0538205810753800020DD520B8
:100DCC0058071581158102173C22759100C3E495D3
:100DDC004DF594E4954EF595759104D25822AE25B7
:100DEC00305B4F78A3E6FFBF010BD25C752500C2C8
:100DFC0083C294C2959169305C037525003058020A
:100E0C00C103BF020BD25C752500C283C294C2958C
:100E1C0078A2B6010D9169305C037525003058023B
:100E2C00C123BF030BD25C752500C283C294C2954B
:100E3C00B1D6305C03752500305802C13E305B04DE
:100E4C00C25C8E2522C2AFC282206A03020E709051
:100E5C000375306E0F207402C297307402C2807416
:100E6C0006D5E0FD207402D280307402D297759FB3
:100E7C0043753D02D2AF22C2AF206A03020EA59089
:100E8C00032C306E17C282207402C297307402C2D7
:100E9C00807406D5E0FD020EA890020F207402C2E9
:100EAC0095307402C283305A06E5256002D2942034
:100EBC007403759F53307403759F33753D03D2AF24
:100ECC0022C2AF207402C280307402C297206A031F
:100EDC00020EEC9002EB306E07C2827406D5E0FD78
:100EEC00207402D297307402D280207403759F3321
:100EFC00307403759F53753D04D2AF22C2AF206A84
:100F0C0003020F2A9002AA306E17207402C280309E
:100F1C007402C297C2827406D5E0FD020F2D9001B7
:100F2C00FDC294305A0EE525600A207402D283303B
:100F3C007402D295759F43753D05D2AF22C2AF2086
:100F4C007402C297307402C280206A03020F709040
:100F5C000261306E0F207402C280307402C297742A
:100F6C0006D5E0FDD282207403759F53307403754F
:100F7C009F33753D06D2AF22C2AF206A03020FAE7B
:100F8C009003CE306E1F207402C280307402C29760
:100F9C00207402C297307402C2807406D5E0FD0240
:100FAC000FB1900221207402C283307402C29530BA
:100FBC005A0EE525600A207402D295307402D28351
:100FCC00207403759F33307403759F53753D01D2A4
:100FDC00AF229001FBC283C294C295C280C282C26E
:100FEC009722C3E54F9535E5509536500122789000
:100FFC00E6FFC3EF94055018C3EF9404501BC3EFE6
:10100C009403501EC3EF94025021C3EF940150245B
:10101C00C3E54F943CF8021049C3E54F9428F802FD
:10102C001049C3E54F941AF8021049C3E54F9412C6
:10103C00F8021049C3E54F940AF8021049E55094A0
:10104C0000F9884F895022305803021053227884BB
:10105C0076037885760478867609788F760378908F
:0E106C0076057895760278927603789B760D5D
:10107A007893760578877604789C76017888760165
:10108A007889760178827604788C7600788D760075
:10109A00788E76B478967625789776D0789876781A
:1010AA00789976C8789A7604789D7600227893E6BD
:1010BA00FF756409756501C3BF0209756405756525
:1010CA00010210FCC3BF03097564057565020210AD
:1010DA00FCC3BF04097564057565030210FCC3BF30
:1010EA000506756409756507C3BF0606756400754C
:1010FA0065007887E6FFC26CC3BF0302D26CC26B7D
:10110A00C3BF0402D26BC26A7418552D6002D26A38
:10111A00C26E6002D26ED26F6002C26FC2747888E9
:10112A00E630E102D274C2757889E630E102D275FE
:10113A00C3EF94026008758E01D26D02114D758E4F
:10114A0000C26D227880E61490008093789EF6782B
:10115A0081E61490008093789FF6120FDE22789B26
:10116A00E61490008D9378A0F6120FDE227886E6B8
:10117A001490009A9378A1F6120FDE22789CE61456
:10118A009000A79378A2F6789CE6149000AC937826
:10119A00A3F6120FDE22D281789DE66002C2812276
:1011AA007896E6FA7897E6FB3076047A007BFFC3F6
:1011BA00EB9AFCC3948250027C82756C00056CEC3D
:1011CA00856CF0A4C3E5F0948040F222C2D353D9CF
:1011DA00BF7581C043FF8012074C75EF0243B2030B
:1011EA00E5B324044002F5B37580F075A40F75F1D8
:1011FA003F75D4DF75904F75A5B075F2F575D500BA
:10120A0075A60175E241120FDEE4F8F6D8FD115A0F
:10121A0012176C11B7314E31683177318631A031EE
:10122A00AA7898866D8673120FDE758850758902C2
:10123A0075C82475910475D84012076012076F1299
:10124A00075812077512075812077B120758121C03
:10125A00CD12076012076012075C75A82275B802E2
:10126A0075E69075F610759B80759D0375D10E75A0
:10127A00BC5875BB0975BA1175E88012074CD2AF14
:10128A00120A4D43DA01C2D8C269120760753001E9
:10129A00D2597A05E55770027A05120750E558C304
:1012AA00940240EEE52E540F855A59F55AB559E283
:1012BA00DAE2C25953DACF20750343DA20307503D4
:1012CA0043DA10C2D8C26912075C12075078027456
:1012DA000F552E70027800C3E5589840EDC2AF1240
:1012EA00076F12076F12076FD2AF120760754700B8
:1012FA00120750788CE6C3940150030213C3E530F9
:10130A00C3940150030213C3740F552E6035C3E50D
:10131A005894FF50030213C3C2AF120781D2AF120F
:10132A00075CC3E558940150EFC2AF12076F12076A
:10133A005412076FD2AF12075CC3E55894FF40E915
:10134A00021D527F05D27631AA12075CC2AFC2765D
:10135A0031AAC3E558947FD2AF4068C2AF12078161
:10136A00D2AFDFE1C3E55894057897F61207601209
:10137A001808121CD57F0AD27631AA12075CC2AFAE
:10138A00C27631AAC3E558947FD2AF50E8C2AF12F1
:10139A00076F12075412076FD2AFDFDBE558240537
:1013AA007896F6120760121808121D0412075CC319
:1013BA00E55894FF40F6021D52C3E558954740038D
:1013CA0085584712075CC3E5589401400241FAC2A6
:1013DA00AF120781120781120781D2AF1207607517
:1013EA003000E4F531F5320531E531F47036053275
:1013FA00789AE67828146012785014600D78A01450
:10140A00600878F0146003753200C3E5329840141E
:10141A0015327899866DC2AF120781D2AF78988655
:10142A006D12075C120750E5287008740F552E706C
:10143A0002419AC3E558940640AD12075CE528704C
:10144A000302129A120FDEE4F522F523F524F5259C
:10145A00755CFF7885865FF53FF540F541F542F505
:0E146A0043F56AF548F52BF52CF55B120B8D5A
:10147800756A0875BB1012074C120AE5E5E820ECFE
:10148800FBA8BDA9BEE97001F8886B120AE9756A64
:101498000875BB107895E630E0030214E17887E61A
:1014A800FE760211B77887EEF6D261C2AF120B5BF7
:1014B80085225C85225DD2AFC26175250075620008
:1014C800756301D260D263753800120F49120F8418
:1014D800120C09120B8D0216107887E6FE76037837
:1014E80093E6FD760511B77887EEF67893EDF6D298
:1014F80060D261D26E120F49120F84120B5B120771
:101508004C120E5112074C12074C120E8312075040
:10151800120ECD120750120750120F08120754125C
:101528000F4912075012074CC261D262120AE51223
:101538000AE9120B5B756A0875BB10120F84120C4E
:1015480002120C7D120FEE1153120E51120C0212E0
:101558000C7D120FEE1153120E83120C02120C7D29
:10156800120FEE1153120ECD120C02120C7D120F37
:10157800EE1153120F08120C02120C7D120FEE110D
:1015880053120F49120C02120C7D120FEEC3E54FD5
:101598009535E5509536400C1153C3E558940150E4
:1015A8008B02173C1153C2627887E6FE760211B7A8
:1015B8007887EEF685225C855E5D855E257562001E
:1015C800756301D263753800C2AF207402C28030DF
:1015D8007402C297207402C297307402C280742DBC
:1015E800D5E0FDD2AF120F84120C09120C64120C54
:1015F8007D120D01756A0075BB0902161011B7122C
:101608000F84756A0075BB09121DCC120D23120DCB
:10161800AE120DD612086A120DEA120E51120C09FA
:10162800120C64120C7D120D01121DCC120D1A122F
:101638000DAE120DD61208EA120DEA120E83120C24
:1016480009120C64120C7D120D01121DCC120D230F
:10165800120DAE120DD612092A120DEA120ECD1273
:101668000C09120C64120C7D120D01121DCC120D06
:101678001A120DAE120DD6120987120DEA120F08B2
:10168800120C09120C64120C7D120D01121DCC12E1
:101698000D23120DAE120DD61209EB120DEA120F20
:1016A80049120C09120C64120C7D120D01121DCC8A
:1016B800120D1A120AE5120DAE120DD6120AE9120F
:1016C8000DEA120F84120C09120C64120C7D120D13
:1016D8000130632A755CFF755DFF756200756301F3
:1016E800C3E5389464400AC263D26475371402179C
:1016F80006C3E5589401400302161002173C3064F3
:1017080019E537147005C264021605F537C3E558A4
:101718009401400302161002173CC3E55B94825003
:1017280013740F552E7004E5286009C3E53C94F046
:101738005002C110120FDE7887E6FE760211B778E4
:1017480087EEF6E4F522F523F524F525F55FC2606A
:1017580012074C120FDE740F552E7006E528700222
:10176800419A61EC901A0D7820121C00E520B45AB9
:101778000CA3121C00E520B4A50302178D115A1200
:10178800180802180778827604901A077884121CC1
:1017980000A308121C00A308121C00A308121C00B6
:1017A800A308121C00A308121C00A308A308A3087E
:1017B800121C00A308A308A308121C00A308121CEB
:1017C80000A308A308121C00A308121C00A308A366
:1017D80008121C00A308121C00A308121C00A3086E
:1017E800121C00A308121C00A308121C00A3081254
:1017F8001C00A308121C00A308121C00901A212226
:10180800C2AF121C3F121C19901A00740A121C0550
:10181800A37403121C05A37410121C05901A0778F0
:1018280084121C04A308121C04A308121C04A30895
:10183800121C04A308121C04A308121C04A308A366
:1018480008A308121C04A308A308A308121C04A3D5
:1018580008121C04A308A308121C04A308121C04E1
:0E186800A308A308121C04A308121C04A30862
:10187600121C04A308121C04A308121C04A30812B9
:101886001C04A308121C04A308121C04A308121C9F
:0B18960004121C52121C30901A212278
:101A00000A0310FFFFFFFF0304090401015AA500A8
:101A1000FFFF0305FF0305FF0225D0FAFA040D01BD
:021A200000FFC5
:101A400023416C69676E424C33355023202020209F
:101A500023424C48454C4923463333302320202031
:101A60002020202020202020202020202020202076
:101C0000E493F622E6438F01538FFD75EF0275B71B
:101C1000A575B7F1F0538FFE22438F02438F0175F4
:101C2000EF0275B7A575B7F1901A0DF0538FFC222E
:101C3000901A0D745A9105901A0E74A59105227A86
:101C40003079D07820901A409100E520F709A3DA86
:101C5000F7227A3079D0901A40E7910509A3DAF992
:101C600022AB6EA86FBB01057984021CCABB0205BA
:101C70007985021CCABB03057995021CCABB040501
:101C80007986021CCABB0505798F021CCABB0605F2
:101C90007990021CCABB07057992021CCABB0805D1
:101CA000799B021CCABB09057993021CCABB0A05B1
:101CB0007987021CCABB0B05799C021CCABB0C05A8
:101CC0007988021CCA7989021CCAE8F7227C0512AD
:101CD0000760DCFB22C2AF12076F12077512077B89
:101CE00012078112075412076F12077512077B1231
:101CF000078112075412076F12077512077B12072C
:101D000081D2AF22C2AF12078112077B1207751270
:101D1000076F12075412078112077B12077512070B
:101D20006F12075412078112077B12077512076F93
:101D3000D2AF22AE6EAF6FC2AF12076F12076F1233
:101D4000076F120754DEF2120781120754DFF8D230
:101D5000AF2291D591CD91CD756E01756F017570E2
:101D600000B1337C05AD58120760C3ED955870F58E
:101D7000C3E55894014009C3E55894FF4032A18E51
:101D8000916112180891D5C2AF75EF1291CDDCD5D3
:101D90000570C3E5709403500280C691CD056FE5D0
:101DA0006E149000B193F808C3E56F98500280AEAE
:101DB00091CD91CD056EC3E56E940E5002809C12BC
:101DC000105A121808C2AF75EF1291CDE573C333E4
:101DD000F573E57433F57450066373016374F82288
:00000001FF
