:030000000211F5F5
:03000B000200C12F
:03002B00020400CC
:03005B0002055249
:030073000205483B
:1000800002030406080C10182030406080020304AC
:1000900006080C101820304080FF0406080C1018C9
:1000A0002030406080A0C000000001010003020277
:1000B000010D0D040506020D0505050D06040502DA
:1000C00002C2AFC0D0C0E0205A0D302F02E473301E
:1000D000600280F90203EC306306C283C294C295C9
:1000E000C0F0E573541FF572F48525F0A485F07116
:1000F000E57225F0D0F0F58AC25AE525F4700221A8
:10010000DF0561306013206A19758B00D0E0D0D014
:10011000C283C294C295D2AF32C283C294C2950246
:1001200001CFD26EC26FE565601CC3E561149565B1
:100130004014C26ED26FC3E561956450030201CFD3
:100140007561000201CF206C14C283C294C2957401
:1001500008D5E0FDD280D282D2970201CFD26FC201
:1001600083C294C295E53D20E23420E1127408D5A3
:10017000E0FD207402D297307402D2800201CF20B9
:10018000E0127408D5E0FD207402D297307402D2D8
:10019000800201CF7408D5E0FDD2820201CF20E1B8
:1001A0001F20E00A7408D5E0FDD2820201CF740856
:1001B000D5E0FD207402D280307402D2970201CFC4
:1001C0007408D5E0FD207402D280307402D2977595
:1001D0008B00D0E0D0D0C283C294C295D2AF32D0CF
:1001E000E0D0D0D2AF3261ECE525600A207402D2B3
:1001F00083307402D295C29461ECE5256002D294FA
:10020000207402C295307402C28361ECE525600A55
:10021000207402D295307402D283207402C28330DB
:100220007402C29561EC207402C280307402C297DD
:10023000E525600A207402D283307402D2952074BE
:1002400002C297307402C280C29461EC207402C270
:1002500080307402C297207402C297307402C28048
:100260007406D5E0FDE525600A207402D28330745F
:1002700002D295C29461EC207402C280307402C232
:1002800097E525600A207402D283307402D295C2A9
:1002900082C29461EC207402C280307402C297C2A0
:1002A000827406D5E0FDE525600A207402D2833011
:1002B0007402D295C29461ECC282E5256002D294A8
:1002C000207402C280307402C297207402C295303A
:1002D0007402C28361ECC282207402C28030740254
:1002E000C2977406D5E0FDE5256002D29420740221
:1002F000C295307402C28361ECC282E5256002D2ED
:1003000094207402C297307402C280207402C29595
:10031000307402C28361ECC282207402C2973074CE
:1003200002C2807406D5E0FDE5256002D2942074F7
:1003300002C295307402C28361EC207402C297300D
:100340007402C280E525600A207402D295307402DE
:10035000D283C282207402C283307402C29561ECDF
:10036000207402C297307402C280C2827406D5E043
:10037000FDE525600A207402D295307402D28320F4
:100380007402C283307402C29561EC207402C29779
:10039000307402C280E525600A207402D295307460
:1003A00002D283207402C280307402C29720740289
:1003B000C283307402C29561EC207402C29730741B
:1003C00002C280207402C280307402C2977406D5C3
:1003D000E0FDE525600A207402D295307402D283D4
:1003E000207402C283307402C29561ECE571F4F5A9
:1003F0008A758B00756000D25AD0E0D0D0D2AF326F
:10040000C2AFC0D0C0E0D2D3C2CEE528600A740F1C
:10041000552E60491528815D78007900E58030759A
:1004200001F430E50278FF53DACF20750343DA2078
:1004300030750343DA10C2D8C269E580307501F423
:1004400030E50279FFC3E89970CE3059037528185A
:10045000740F552E60037528188858D268E52960F6
:100460000415298170740F552E600543DA01C2D836
:0E047000206802A102E558F8C268740F552EEC
:10047E0060367982B70431C3E894F0400374F0F823
:10048E00E8C4540F28F87984B7030281B6C313C3A6
:10049E00138721200802C313200A06C3C898F881C7
:1004AE00B628F8500374FFF8C3E8955F5003E55F74
:1004BE00F8E52C5406703D882230630AC3E5229578
:1004CE005C4003855C227882B60429C3E52295241C
:1004DE00401278A096400DE52426F5245009752487
:1004EE00FF0204F5852224852425C3E524955C406E
:1004FE0003855C2520CF09D0E0D0D0C2D3D2AF3255
:10050E00C2CF7801E5286008740F552E70021528A9
:10051E00C3E55894014005755B00A131E55B0460AD
:10052E0002055BE55DC3240A5005755DFFA13FF52D
:10053E005DD0E0D0D0C2D3D2AF32C2AF53917FC222
:10054E0058D2AF32C2AFC0D0C0E0C0F0D2D3A8FBF9
:10055E00A9FCC2D8306902A1B553DACF2075034386
:10056E00DA1030750343DA20D269E580307501F474
:10057E0020E502A18988268927E12E53DACF20753E
:10058E000343DA2030750343DA10C2D8C269740F00
:10059E00552E7002E1147800E580307501F430E5D7
:1005AE0002E1148858E11453DACF20750343DA20A0
:1005BE0030750343DA10C269205902C15E53DACF97
:1005CE0020750343DA1030750343DA20C2D8D2699E
:1005DE0088538954C3E89551F8E99552F9E4FB7AAA
:1005EE00FAC3E89468E994015008E4D2E3FB7A0F69
:1005FE00C131C3E894D0E994025008E4D2E2FB7A08
:10060E001EC131C3E894A0E994055008E4D2E1FB81
:10061E007A3CC131C3E89498E994085006E4D2E0DC
:10062E00FB7A78C3E89555FCE99556FD30E708EC62
:10063E00F42401FCEDF4FD7557007008C3EC9A50DC
:10064E000375570188558956A853A9548851895264
:10065E00C3E89526F8E99527F9307302C1F8307290
:10066E0002C1F1E9C313F9E813F8307102C1F1E9DF
:10067E00C313F9E813F8307002C1F1E9C313FDE8B2
:10068E0013FC205918C3EC941CED9402400302078E
:10069E0014ED7009C3EC94C8500302072E740020A9
:1006AE0076037896E624FAFEE43400FFC3EC9EFC53
:1006BE00ED9FFD500678007900C1F8C3EC94FFED74
:1006CE009400400678FF7900C1F8EC856CF0A4C563
:1006DE00F0A2F733F87900400302070378FF7900A0
:1006EE00020703E9C313F9E813F8C3E894FFE9948A
:1006FE0000400278FF8858D268205902E114740F26
:10070E00F4552E4BF52E752818740F552E70037553
:10071E00280A305902E12E740F552E600353DAFE6B
:10072E00752906740F552E700375290AD0F0D0E086
:10073E00D0D0C2D3D2AF327901E15D7903E15D79D8
:10074E000AE15D791EE15D7964E15D79C8E15D786C
:10075E0017E4D5E0FDD8FAD9F6227A147B78E18039
:10076E007A107B8CE1807A0D7BB4E1807A0B7BC8AA
:10077E00E180AC257525017902B274E4C282D5E020
:10078E00FDE5256002D294D5E0FDC294D5E0FDD200
:10079E0082D5E0FDE525600A207402D28330740212
:1007AE00D295E56DD5E0FD207402C283307402C28D
:1007BE00957496D5E0FDD9C1EAF8D5E0FDD8FBDBFE
:1007CE00B1C2828C2522C37C007D0075F00005F03D
:1007DE00EA33FAEB33FB50F6EB13FBEA13FAC3E9F9
:1007EE00FFE8FEE89AF8E99BF95004EFF9EEF8B34A
:1007FE00EC33FCED33FDD5F0DFEDF9ECF822E889B2
:10080E00F08A20D2D4F8A9F07B0030F70B7BFFF4EE
:10081E002401F8E9F43400F9E88520F0A4ADF0F8ED
:10082E00E98520F0A4AFF0FEED2EF974003FFA7CBE
:10083E0004C3EA13FAE913F9E813F8DCF48BF03089
:10084E00F70AE8F42401F8E9F43400F9E889F0C273
:10085E00D4F8A9F0227882B604030208C0C3E55882
:0F086E0094014003020888852224E4F53FF540F9
:10087D00F541F542F543F5480208C07882E6FC756E
:10088D004801E522F523783879C7AA3BAB3CC3EB89
:10089D0013FBEA13FAEC146013C3EB13FBEA13FA20
:1008AD00EC14146007C3EB13FBEA13FA1207D48898
:1008BD003F894022E5486034C3E53F9523F8E54084
:1008CD009400F9500CC3E89480E994FF4016020897
:1008DD00F5C3E8947FE9940050030208F5787F7919
:1008ED00000208F5788079FF8844894522E5486043
:1008FD0058E5442541F8E5453542F9854520E43074
:10090D000701F43543FA30E709C3EA94F0401502C4
:10091D000937C3EA940F500302093778FF79FF7A3C
:10092D000F020937780079007AF0C3E524955C5001
:10093D0006E52460092150E54520E70D2150E545E8
:10094D0030E706884189428A4322E548700302094F
:10095D00BA789EE6FAC3E54433F8E54533F9110C50
:10096D00E930E70BC3E89480E994FF40132191C36C
:10097D00E8947FE9940050022191787F79002191CC
:10098D00788079FFE820E715C3E52398F84009C37F
:10099D00E8940140030209B878010209B8E8F4248B
:1009AD00012523F840030209B878FF884622E5485F
:1009BD007003020A1C789FE6FAA842A943110CE9BC
:1009CD0030E70CC3E89401E994FF40160209F3C324
:1009DD00E894FFE9940050030209F378FF790002CF
:1009ED0009F3780179FFE920E715C3E54698F8404A
:1009FD0009C3E894014003020A1A7800020A1AE8B2
:100A0D00F424012546F84003020A1A78FF882422AF
:100A1D007883E6F520120F5C75E890E5E820ECF0A0
:100A2D00A8BDA9BE120FF1756855756900C3740094
:100A3D0013FD745513FC74552CFC74003DFDECFA3C
:100A4D00EDFBC3E89AE99B4014E5682455F568E58C
:100A5D00693400F569EA2CFAEB3DFB80E5AE68AF31
:100A6D0069C3E56913F9E56813F8C3E913F9E813E8
:100A7D00F8E56828F566E56939F5677A03C3E91382
:100A8D00F9E813F8DAF7AA201A7009756800756984
:100A9D0000020AB11AEA6008EE28FEEF39FFDAF813
:100AAD008E688F692275E890227883E6FFE5E8204D
:100ABD00ECF7A8BDA9BE056AC3E56A940840527556
:100ACD006A00E97007E56B601B020AE5C3E8956BE8
:100ADD006010E56B5006600C14020AF10460F90217
:100AED000AF1E56BF56BC3946DF84021755CC0C3DD
:100AFD00E89404F84017755C80C3E89404F8400D41
:100B0D00755C40C3E89404F84003755C0075BB093F
:100B1D0022EFC39401601BC3E894FFE994035012C4
:100B2D00C3E89568E995695009E55C600C155C02B0
:100B3D000B46E55CF46002055CA85CC3E5249850A7
:100B4D0002A8248825C3E525955D400B855D25E527
:100B5D005DF46003855D5CC3E56AB4070375BB1086
:100B6D002230610278323062027878E52C540660CA
:100B7D0021E879A187F0A4C5F0A2F733F8C3E89571
:100B8D005C4002A85C882288248825306104C3E873
:100B9D00F55E22788FE6FFC3EF94055018C3EF94EE
:100BAD00045020C3EF94035028C3EF94025030C378
:100BBD00EF940150387533A075340F75353C75368B
:100BCD000581087533C0753412753540753606814B
:100BDD00087533707534177535D0753607810875FE
:100BED00334C75341D7535C4753609810875332838
:100BFD007534237535B875360B810885334F8534BB
:100C0D0050753B00753C0822A84FA950020C20A836
:100C1D0049A94A759100C3E498F594E499F5957541
:100C2D009104D25875C820A8CCA9CD75C824AA396D
:100C3D00AB3A8839893AC3E89AF8E99BF9AA3BABF4
:100C4D003CC3EB13FDEA13FCC3ED13FDEC13FCC326
:100C5D00EA9CFAEB9DFBEA28FAEB39FB8A3B8B3CCD
:0F0C6D00400122753BFF753CFF22305802817712
:100C7C00759100C3E4954BF594E4954CF5957591FD
:100C8C0004D258227892E6FF7E10305B027F05304A
:100C9C0063047F037E00A93CA83B7A04C3E913F9E3
:100CAC00E813F8DAF7C3E89EF8E99400F94009C3B1
:100CBC00E89402E9940050047802E4F9E9FBE8FABC
:100CCC00C3E913FDE813FCC3EF9403602EEF20E09F
:100CDC000DE82CF8E93DF9ECFAEDFB020CF4E828F0
:100CEC00F8E939F97A02E4FBC3EF9403400D8A4D1D
:100CFC008B4E8849894A8C4B8D4C22884D894E8A63
:100D0C00498B4A8C4B8D4C22305802A114759100A2
:100D1C00C3E4953BF594E4953CF595759104D25854
:100D2C0022753E00752000020D3C753E007520407A
:100D3C00D2AF053E20580122759D00E53CC313C37C
:100D4C0013F8086030306A06C313C313F808C3E8FD
:100D5C00940A4002780A306D08C3E8940440027883
:100D6C0004C3E53C9408400D759D02C3E53C94100A
:100D7C004003759D03205803D2AF22791E206D02CB
:100D8C00790AD2AF0000C2AF205A0A793C206D021A
:100D9C007914306FE03063027978C3E58B99206366
:100DAC000240F740D0E59BF4F45440B52002A13C3E
:100DBC00D8C3D2AF22C25B789CE6146007E53E1420
:100DCC007002D25B30630B05382058107538000266
:100DDC000DE82058071581158102175522759100D1
:100DEC00C3E4954DF594E4954EF595759104D25860
:100DFC0022AE25305B4F78A3E6FFBF010BD25C75AA
:100E0C002500C283C294C295917C305C0375250089
:100E1C00305802C116BF020BD25C752500C283C2CA
:100E2C0094C29578A2B6010D917C305C03752500B7
:100E3C00305802C136BF030BD25C752500C283C289
:100E4C0094C295B1E9305C03752500305802C1514C
:100E5C00305B04C25C8E2522C2AFC282206A0302C0
:100E6C000E83900360306E0F207402C297307402B0
:100E7C00C2807406D5E0FD207402D280307402D298
:100E8C0097759F43753D02D2AF22C2AF206A030211
:100E9C000EB8900317306E17C282207402C29730BE
:100EAC007402C2807406D5E0FD020EBB9001FA20DC
:100EBC007402C295307402C283305A06E525600272
:100ECC00D294207403759F53307403759F33753D12
:100EDC0003D2AF22C2AF207402C280307402C29718
:100EEC00206A03020EFF9002D6306E07C28274068F
:100EFC00D5E0FD207402D297307402D280207403A6
:100F0C00759F33307403759F53753D04D2AF22C265
:100F1C00AF206A03020F3D900295306E17207402C9
:100F2C00C280307402C297C2827406D5E0FD020FF3
:100F3C00409001E8C294305A0EE525600A207402F4
:100F4C00D283307402D295759F43753D05D2AF2282
:100F5C00C2AF207402C297307402C280206A0302AE
:100F6C000F8390024C306E0F207402C280307402DA
:100F7C00C2977406D5E0FDD282207403759F53305E
:100F8C007403759F33753D06D2AF22C2AF206A033E
:100F9C00020FC19003B9306E1F207402C2803074EE
:100FAC0002C297207402C297307402C2807406D5B4
:100FBC00E0FD020FC490020C207402C28330740254
:100FCC00C295305A0EE525600A207402D295307411
:100FDC0002D283207403759F33307403759F53754D
:100FEC003D01D2AF229001E6C283C294C295C28069
:100FFC00C282C29722C3E54F9535E5509536500114
:10100C00227890E6FFC3EF94055018C3EF94045078
:10101C001BC3EF9403501EC3EF94025021C3EF94F3
:10102C00015024C3E54F943CF802105CC3E54F9487
:10103C0028F802105CC3E54F941AF802105CC3E563
:10104C004F9412F802105CC3E54F940AF802105C3E
:10105C00E5509400F9884F895022305803021066ED
:0F106C00227880760778817607788276017884FB
:10107B0076037883760178867609788F7601789077
:10108B0076057895760278927603789B760D789331
:10109B00760678877602789C76027888760278894D
:1010AB00760178857600788C7600788D7600788E50
:1010BB0076B478967625789776D0789876787899EE
:1010CB0076C8789A7604789D7600227893E6FF7539
:1010DB006409756501C3BF02097564057565010275
:1010EB00111BC3BF030975640575650202111BC390
:1010FB00BF040975640575650302111BC3BF0506A3
:10110B00756409756507C3BF0606756400756500D0
:10111B007887E6FFC26CC3BF0302D26CC26BC3BF3E
:10112B000402D26BC26A7418552D6002D26AC26E69
:10113B006002D26ED26F6002C26FC2747888E630E2
:10114B00E102D274C2757889E630E102D275C3EF41
:10115B0094026008758E01D26D02116C758E00C2FF
:10116B006D227880E61490008093789EF67881E665
:10117B001490008093789FF6120FF122789BE6145F
:10118B0090008D9378A0F6120FF1227886E61490DA
:10119B00009A9378A1F6120FF122789CE614900036
:1011AB00A79378A2F6789CE6149000AC9378A3F6FC
:1011BB00120FF122D281789DE66002C281227896CD
:1011CB00E6FA7897E6FB3076047A007BFFC3EB9A5E
:1011DB00FCC3948250027C82756C00056CEC856CB0
:1011EB00F0A4C3E5F0948040F222C2D353D9BF756B
:1011FB0081C043FF8012074575EF0243B203E5B38D
:10120B0024044002F5B37580F075A40F75F13F759A
:10121B00D4DF75904F75A5B075F2F575D50075A631
:10122B000175E241120FF1E4F8F6D8FD116D1217BA
:10123B008511D6316D3187319631A531BF31C978E2
:10124B0098866D8673120FF175885075890275C873
:10125B002475910475D8401207591207681207516B
:10126B0012076E120751120774120751121CE51266
:10127B00075912075912075575A82275B80275E65A
:10128B009075F610759B80759D0375D10E75BC58C6
:10129B0075BB0975BA1175E880120745D2AF120AF2
:1012AB001D43DA01C2D8C269120759753001D259F0
:1012BB007A05E55770027A05120749E558C394027F
:1012CB0040EEE52E540F855A59F55AB559E2DAE23C
:1012DB00C25953DACF20750343DA2030750343DA52
:1012EB0010C2D8C2691207551207497802740F55FC
:1012FB002E70027800C3E5589840EDC2AF12076814
:10130B00120768120768D2AF120759754700120708
:10131B0049788CE6C3940150030213E2E530C39481
:10132B000150030213E2740F552E6035C3E5589438
:10133B00FF50030213E2C2AF12077AD2AF12075566
:10134B00C3E558940150EFC2AF12076812074D1254
:10135B000768D2AF120755C3E55894FF40E9021D49
:10136B006A7F05D27631C9120755C2AFC27631C931
:10137B00C3E558947FD2AF4068C2AF12077AD2AFA1
:10138B00DFE1C3E55894057897F612075912183424
:10139B00121CED7F0AD27631C9120755C2AFC27645
:1013AB0031C9C3E558947FD2AF50E8C2AF1207687A
:1013BB0012074D120768D2AFDFDBE558240578968C
:1013CB00F6120759121834121D1C120755C3E55893
:1013DB0094FF40F6021D6AC3E558954740038558B4
:1013EB0047120755C3E558940140026119C2AF1269
:1013FB00077A12077A12077AD2AF120759753000A3
:10140B00E4F531F5320531E531F470360532789A71
:10141B00E67828146012785014600D78A0146008D8
:10142B0078F0146003753200C3E53298401415321E
:10143B007899866DC2AF12077AD2AF7898866D1203
:10144B000755120749E5287008740F552E70024195
:10145B00B9C3E558940640AD120755E52870030251
:0E146B0012B9120FF1E4F522F523F524F52550
:10147900755CFF7885865FF53FF540F541F542F5E6
:1014890043F56AF548F52BF52CF55B120BA0756A47
:101499000875BB10120745120AB2E5E820ECFBA853
:1014A900BDA9BEE97001F8886B120AB6756A08759C
:1014B900BB107895E630E0030215007887E6FE76E2
:1014C9000211D67887EEF6D261C2AF120B6E852271
:1014D9005C85225DD2AFC2617525007562007563B6
:1014E90001D260D263753800120F5C120F97120C8B
:1014F9001C120BA00216297887E6FE76037893E67C
:10150900FD760511D67887EEF67893EDF6D260D29E
:1015190061D26E120F5C120F97120B6E12074512F1
:101529000E64120745120745120E96120749120E4C
:10153900E0120749120749120F1B12074D120F5CDF
:10154900120749120745C261D262120AB2120AB6DB
:10155900120B6E756A0875BB10120F97120C1512D3
:101569000C9011011166120E64120C15120C9011D7
:10157900011166120E96120C15120C9011011166CA
:10158900120EE0120C15120C9011011166120F1BAC
:10159900120C15120C9011011166120F5C120C1528
:1015A900120C901101C3E54F9535E5509536400C65
:1015B9001166C3E558940150910217551166C2622C
:1015C9007887E6FE760211D67887EEF685225C8565
:1015D9005E5D855E25756200756301D263753800AD
:1015E900C2AF207402C280307402C297207402C252
:1015F90097307402C280742DD5E0FDD2AF120F97D7
:10160900120C1C120C77120C90120D14756A0075CD
:10161900BB0902162911D6120F97756A0075BB0905
:10162900121DE4120D36120DC1120DE912086312D2
:101639000DFD120E64120C1C120C77120C90120D77
:1016490014121DE4120D2D120DC1120DE91208C15B
:10165900120DFD120E96120C1C120C77120C901220
:101669000D14121DE4120D36120DC1120DE91208E6
:10167900FA120DFD120EE0120C1C120C77120C90CE
:10168900120D14121DE4120D2D120DC1120DE912C5
:101699000957120DFD120F1B120C1C120C77120C9C
:1016A90090120D14121DE4120D36120DC1120DE91E
:1016B9001209BB120DFD120F5C120C1C120C7712D1
:1016C9000C90120D14121DE4120D2D120AB2120DF6
:1016D900C1120DE9120AB6120DFD120F97120C1C58
:1016E900120C77120C90120D1430632A855E5C85FA
:1016F9005E5D756200756301C3E5389464400AC292
:1017090063D26475371402171FC3E5589401400367
:10171900021629021755306419E537147005C26499
:1017290002161EF537C3E558940140030216290233
:101739001755C3E55B94FA5013740F552E7004E5E1
:10174900286009C3E53C94F05002C129120FF178D1
:1017590087E6FE760211D67887EEF6E4F522F523C0
:10176900F524F525F55FC260120745120FF1740FD4
:10177900552E7006E528700241B9810B901A0D7833
:1017890020121C00E520B4550CA3121C00E520B45E
:10179900AA030217A6116D121834021833901A03FE
:1017A9007880121C00A308121C00A308121C0090C8
:1017B9001A067883121C00A308121C00A308A308A8
:1017C900121C00A308121C00A308121C00A3081273
:1017D9001C00A308A308A308121C00A308A308124D
:1017E9001C00A308121C00A308121C00A308A308CC
:1017F900121C00A308121C00A308A308121C00A3B2
:1018090008121C00A308121C00A308121C00A3083C
:10181900121C00A308121C00A308121C00A3081222
:101829001C00A308121C00901A2122C2AF121C3FEF
:10183900121C19901A00740A121C05A37403121CB5
:1018490005A37410121C05901A037880121C04A3B6
:1018590008121C04A308121C04901A067883121C8F
:0F18690004A308121C04A308A308121C04A3085C
:10187800121C04A308121C04A308121C04A308A326
:1018880008A308121C04A308A308121C04A3081226
:101898001C04A308121C04A308A308121C04A30810
:1018A800121C04A308A308121C04A308121C04A3F6
:1018B80008121C04A308121C04A308121C04A30881
:1018C800121C04A308121C04A308121C04A3081267
:0C18D8001C04121C52121C30901A212219
:101A00000A03100909040103FF0902020155AA0093
:101A1000FFFF0105FF0306FF0225D02850040D0239
:021A200000FFC5
:101A400023416C69676E424C33355023202020209F
:101A500023424C48454C4923463333302320202031
:101A60002020202020202020202020202020202076
:101C0000E493F622E6438F01538FFD75EF0275B71B
:101C1000A575B7F1F0538FFE22438F02438F0175F4
:101C2000EF0275B7A575B7F1901A0DF0538FFC222E
:101C3000901A0D74559105901A0E74AA9105227A86
:101C40003079D07820901A409100E520F709A3DA86
:101C5000F7227A3079D0901A40E7910509A3DAF992
:101C600022AB6EA86FBB01057980021CE2BB0205A6
:101C70007981021CE2BB03057982021CE2BB0405E8
:101C80007984021CE2BB05057983021CE2BB0605D0
:101C90007995021CE2BB07057986021CE2BB0805A8
:101CA000798F021CE2BB09057990021CE2BB0A0590
:101CB0007992021CE2BB0B05799B021CE2BB0C056E
:101CC0007993021CE2BB0D057987021CE2BB0E056D
:101CD000799C021CE2BB0F057988021CE27989021B
:101CE0001CE2E8F7227C05120759DCFB22C2AF1286
:101CF000076812076E12077412077A12074D12074F
:101D00006812076E12077412077A12074D120768DD
:101D100012076E12077412077AD2AF22C2AF1207EF
:101D20007A12077412076E12076812074D12077AAB
:101D300012077412076E12076812074D12077A1203
:101D4000077412076E120768D2AF22AE6EAF6FC271
:101D5000AF12076812076812076812074DDEF21209
:101D6000077A12074DDFF8D2AF2291ED91E591E5A8
:101D7000756E01756F01757000B14B7C05AD581221
:101D80000759C3ED955870F5C3E55894014009C350
:101D9000E55894FF4032A1A6916112183491EDC22A
:101DA000AF75EF1291E5DCD50570C3E57094035073
:101DB0000280C691E5056FE56E149000B193F808B6
:101DC000C3E56F98500280AE91E591E5056EC3E5DD
:101DD0006E94115002809C12106D121834C2AF75AF
:101DE000EF1291E5E573C333F573E57433F5745081
:081DF000066373016374F8221D
:00000001FF
