:0300000002126782
:03000B000200C12F
:03002B00020400CC
:03005B000205AEED
:030073000205A4DF
:1000800002030406080C10182030406080020304AC
:1000900006080C101820304080FF0406080C1018C9
:1000A0002030406080A0C000000001010003020277
:1000B000010D0D040206020D0505050D06030502DE
:1000C00002C2AFC0D0C0E0205A0D302F02E473301E
:1000D000600280F90203EC306306C283C294C295C9
:1000E000C0F0E573541FF572F48525F0A485F07116
:1000F000E57225F0D0F0F58AC25AE525F4700221A8
:10010000DF0561306013206A19758B00D0E0D0D014
:10011000C283C294C295D2AF32C283C294C2950246
:1001200001CFD26EC26FE565601CC3E561149565B1
:100130004014C26ED26FC3E561956450030201CFD3
:100140007561000201CF206C14C283C294C2957401
:1001500008D5E0FDD280D282D2970201CFD26FC201
:1001600083C294C295E53D20E23420E1127408D5A3
:10017000E0FD207402D297307402D2800201CF20B9
:10018000E0127408D5E0FD207402D297307402D2D8
:10019000800201CF7408D5E0FDD2820201CF20E1B8
:1001A0001F20E00A7408D5E0FDD2820201CF740856
:1001B000D5E0FD207402D280307402D2970201CFC4
:1001C0007408D5E0FD207402D280307402D2977595
:1001D0008B00D0E0D0D0C283C294C295D2AF32D0CF
:1001E000E0D0D0D2AF3261ECE525600A207402D2B3
:1001F00083307402D295C29461ECE5256002D294FA
:10020000207402C295307402C28361ECE525600A55
:10021000207402D295307402D283207402C28330DB
:100220007402C29561EC207402C280307402C297DD
:10023000E525600A207402D283307402D2952074BE
:1002400002C297307402C280C29461EC207402C270
:1002500080307402C297207402C297307402C28048
:100260007406D5E0FDE525600A207402D28330745F
:1002700002D295C29461EC207402C280307402C232
:1002800097E525600A207402D283307402D295C2A9
:1002900082C29461EC207402C280307402C297C2A0
:1002A000827406D5E0FDE525600A207402D2833011
:1002B0007402D295C29461ECC282E5256002D294A8
:1002C000207402C280307402C297207402C295303A
:1002D0007402C28361ECC282207402C28030740254
:1002E000C2977406D5E0FDE5256002D29420740221
:1002F000C295307402C28361ECC282E5256002D2ED
:1003000094207402C297307402C280207402C29595
:10031000307402C28361ECC282207402C2973074CE
:1003200002C2807406D5E0FDE5256002D2942074F7
:1003300002C295307402C28361EC207402C297300D
:100340007402C280E525600A207402D295307402DE
:10035000D283C282207402C283307402C29561ECDF
:10036000207402C297307402C280C2827406D5E043
:10037000FDE525600A207402D295307402D28320F4
:100380007402C283307402C29561EC207402C29779
:10039000307402C280E525600A207402D295307460
:1003A00002D283207402C280307402C29720740289
:1003B000C283307402C29561EC207402C29730741B
:1003C00002C280207402C280307402C2977406D5C3
:1003D000E0FDE525600A207402D295307402D283D4
:1003E000207402C283307402C29561ECE571F4F5A9
:1003F0008A758B00756000D25AD0E0D0D0D2AF326F
:10040000C2AFC0D0C0E0D2D3C2CEE528600A740F1C
:10041000552E60491528815D78007900E58030759A
:1004200001F430E50278FF53DACF20750343DA2078
:1004300030750343DA10C2D8C269E580307501F423
:1004400030E50279FFC3E89970CE30590375284032
:10045000740F552E60037528408858D268E52960CE
:100460000415298170740F552E600543DA01C2D836
:0E04700020680281F5E558F8C268740F552E19
:10047E0060367982B70431C3E894F0400374F0F823
:10048E00E8C4540F28F87984B7030281B6C313C3A6
:10049E00138721200802C313200A06C3C898F881C7
:1004AE00B628F8500374FFF8C3E8955F5003E55F74
:1004BE00F8E52C54067030882230630AC3E5229585
:1004CE005C4003855C227882B6041CC3E522952429
:1004DE00401278A096400DE52426F5245009752487
:1004EE00FF0204F585222420CF09D0E0D0D0C2D35C
:1004FE00D2AF32C2CF7801E5286008740F552E7046
:10050E00021528C3E55894014005755B00A124E54A
:10051E005B046002055B7982B7020EE548601EC37C
:10052E00E522943240178547227982B7030FE548BA
:10053E00600BC3E52294324004798E8722C3E523F3
:10054E009522600840041523A15A0523D8C80562D8
:10055E00E56270021562D563347563017803C3E5F5
:10056E0062941E4028C3E562946450087801756356
:10057E000302058EC3E562949650057801756301FA
:10058E00E55DC3285005755DFFA19BF55DD0E0D0FC
:10059E00D0C2D3D2AF32C2AF53917FC258D2AF3294
:1005AE00C2AFC0D0C0E0C0F0D2D3A8FBA9FCC2D865
:1005BE00306902C11153DACF20750343DA1030755A
:1005CE000343DA20D269E580307501F420E502A1FB
:1005DE00E588268927E18A53DACF20750343DA208E
:1005EE0030750343DA10C2D8C269740F552E7002EB
:1005FE00E1707800E580307501F430E502E1708835
:10060E0058E17053DACF20750343DA203075034377
:10061E00DA10C269205902C1BA53DACF20750343EA
:10062E00DA1030750343DA20C2D8D2698853895460
:10063E00C3E89551F8E99552F9E4FB7AFAC3E894C8
:10064E0068E994015008E4D2E3FB7A0FC18DC3E848
:10065E0094D0E994025008E4D2E2FB7A1EC18DC315
:10066E00E894A0E994055008E4D2E1FB7A3CC18DF0
:10067E00C3E89498E994085006E4D2E0FB7A78C374
:10068E00E89555FCE99556FD30E708ECF42401FC9D
:10069E00EDF4FD7557007008C3EC9A5003755701C1
:1006AE0088558956A853A95488518952C3E895266E
:1006BE00F8E99527F9307302E154307202E14DE901
:1006CE00C313F9E813F8307102E14DE9C313F9E8E9
:1006DE0013F8307002E14DE9C313FDE813FC205905
:1006EE0018C3EC941CED94024003020770ED7009E0
:1006FE00C3EC94C8500302078A74002076037896E0
:10070E00E624FAFEE43400FFC3EC9EFCED9FFD50A0
:10071E000678007900E154C3EC94FFED9400400696
:10072E0078FF7900E154EC856CF0A4C5F0A2F733A4
:10073E00F87900400302075F78FF790002075FE94E
:10074E00C313F9E813F8C3E894FFE9940040027864
:10075E00FF8858D268205902E170740FF4552E4B61
:10076E00F52E752840740F552E700375280A3059D2
:10077E0002E18A740F552E600353DAFE7529207438
:10078E000F552E700375290AD0F0D0E0D0D0C2D309
:10079E00D2AF327901E1B97903E1B9790AE1B979D8
:1007AE001EE1B97964E1B979C8E1B97817E4D5E009
:1007BE00FDD8FAD9F6227A147B78E1DC7A107B8C9C
:1007CE00E1DC7A0D7BB4E1DC7A0B7BC8E1DCAC2595
:1007DE007525017902B274E4C282D5E0FDE525608B
:1007EE0002D294D5E0FDC294D5E0FDD282D5E0FDD3
:1007FE00E525600A207402D283307402D295E56D2D
:10080E00D5E0FD207402C283307402C2957496D571
:10081E00E0FDD9C1EAF8D5E0FDD8FBDBB1C2828C90
:10082E002522C37C007D0075F00005F0EA33FAEB5B
:10083E0033FB50F6EB13FBEA13FAC3E9FFE8FEE8CD
:10084E009AF8E99BF95004EFF9EEF8B3EC33FCEDAE
:10085E0033FDD5F0DFEDF9ECF822E889F08A20D2ED
:0F086E00D4F8A9F07B0030F70B7BFFF42401F8DE
:10087D00E9F43400F9E88520F0A4ADF0F8E985201D
:10088D00F0A4AFF0FEED2EF974003FFA7C04C3EA3C
:10089D0013FAE913F9E813F8DCF48BF030F70AE8F2
:1008AD00F42401F8E9F43400F9E889F0C2D4F8A988
:1008BD00F0227882B6040302093EC3E55894014044
:1008CD0018E548702A7805C37994B702027812C3E7
:1008DD00E53B9400E53C984013852224E4F53FF573
:1008ED0040F541F542F543F54802093E754801C30F
:1008FD007994E79402601BE523F43333F913F8E997
:10090D00540104F9E854FEC39440F8E99400F90247
:10091D00093AE523F433333333F913F8E954070473
:10092D0004F9E854F8C39440F8E99400F9883F8934
:10093D004022E548603BC3E53C13F9E53B13F8C3A2
:10094D00E53F98F8E54099F9500CC3E89480E99497
:10095D00FF401602097AC3E8947FE9940050030220
:10096D00097A787F790002097A788079FF8844893D
:10097D004522E5486058E5442541F8E5453542F9FD
:10098D00854520E4300701F43543FA30E709C3EA21
:10099D0094F040150209BCC3EA940F50030209BC40
:1009AD0078FF79FF7A0F0209BC780079007AF0C3DD
:1009BD00E524955C5006E524600921D5E54520E741
:1009CD000D21D5E54530E706884189428A4322E568
:1009DD00487003020A3F789EE6FAC3E54433F8E512
:1009ED004533F91168E930E70BC3E89480E994FFCA
:1009FD0040134116C3E8947FE994005002411678E4
:100A0D007F79004116788079FFE820E715C3E5234B
:100A1D0098F84009C3E894014003020A3D780102A9
:100A2D000A3DE8F424012523F84003020A3D78FF2E
:100A3D00884622E5487003020AA1789FE6FAA8428B
:100A4D00A9431168E930E70CC3E89401E994FF402C
:100A5D0016020A78C3E894FFE994005003020A785D
:100A6D0078FF7900020A78780179FFE920E715C34C
:100A7D00E54698F84009C3E894014003020A9F78BF
:100A8D0000020A9FE8F424012546F84003020A9F5C
:100A9D0078FF8824227883E6F520120FE175E8901F
:100AAD00E5E820ECF0A8BDA9BE1210767568557565
:100ABD006900C3740013FD745513FC74552CFC743C
:100ACD00003DFDECFAEDFBC3E89AE99B4014E568A7
:100ADD002455F568E5693400F569EA2CFAEB3DFB20
:100AED0080E5AE68AF69C3E56913F9E56813F8C32E
:100AFD00E913F9E813F8E56828F566E56939F5674E
:100B0D007A03C3E913F9E813F8DAF7AA201A700982
:100B1D00756800756900020B361AEA6008EE28FE4A
:100B2D00EF39FFDAF88E688F692275E890227883A5
:100B3D00E6FFE5E820ECF7A8BDA9BE056AC3E56AA6
:100B4D0094084052756A00E97007E56B601B020B53
:100B5D006AC3E8956B6010E56B5006600C14020BD0
:100B6D00760460F9020B76E56BF56BC3946DF84076
:100B7D0021755CC0C3E89404F84017755C80C3E828
:100B8D009404F8400D755C40C3E89404F840037577
:100B9D005C0075BB0922EFC39401601BC3E894FF91
:100BAD00E994035012C3E89568E995695009E55C2D
:100BBD00600C155C020BCBE55CF46002055CA85C77
:100BCD00C3E524985002A8248825C3E525955D40EA
:100BDD000B855D25E55DF46003855D5CC3E56AB459
:100BED00070375BB102230610278323062027850F3
:100BFD00E52C54066021E879A187F0A4C5F0A2F791
:100C0D0033F8C3E8955C4002A85C882288248825C7
:100C1D00306104C3E8F55E22788FE6FFC3EF9405DB
:100C2D005018C3EF94045020C3EF94035028C3EF22
:100C3D0094025030C3EF940150387533A075340FC2
:100C4D0075353C753605818D7533C0753412753526
:100C5D0040753606818D7533707534177535D075C1
:0D0C6D003607818D75334C75341D7535C407
:100C7A00753609818D7533287534237535B87536FF
:100C8A000B818D85334F853450753B00753C0822A6
:100C9A00A84FA950020CA5A849A94A759100C3E416
:100CAA0098F594E499F595759104D25875C820A8D9
:100CBA00CCA9CD75C824AA39AB3A8839893AC3E890
:100CCA009AF8E99BF9AA3BAB3CC3EB13FDEA13FC88
:100CDA00C3ED13FDEC13FCC3EA9CFAEB9DFBEA2877
:100CEA00FAEB39FB8A3B8B3C400122753BFF753C92
:100CFA00FF2230580281FC759100C3E4954BF594AC
:100D0A00E4954CF595759104D258227892E6FF7EC7
:100D1A0010305B027F053063047F037E00A93CA884
:100D2A003B7A04C3E913F9E813F8DAF7C3E89EF843
:100D3A00E99400F94009C3E89402E9940050047860
:100D4A0002E4F9E9FBE8FAC3E913FDE813FCC3EF8F
:100D5A009403602EEF20E00DE82CF8E93DF9ECFA57
:100D6A00EDFB020D79E828F8E939F97A02E4FBC3C8
:100D7A00EF9403400D8A4D8B4E8849894A8C4B8DDE
:100D8A004C22884D894E8A498B4A8C4B8D4C223095
:100D9A005802A199759100C3E4953BF594E4953CFA
:100DAA00F595759104D25822753E00752000020D02
:100DBA00C1753E00752040D2AF053E20580122750C
:100DCA009D00E53CC313C313F8086030306A06C3BC
:100DDA0013C313F808C3E8940A4002780A306D086E
:100DEA00C3E8940440027804C3E53C9408400D75B6
:100DFA009D02C3E53C94104003759D03205803D21D
:100E0A00AF22791E206D02790AD2AF0000C2AF204C
:100E1A005A0A793C206D027914306FE03063027906
:100E2A0078C3E58B9920630240F740D0E59BF4F440
:100E3A005440B52002A1C1D8C3D2AF22C25B789C6C
:100E4A00E6146007E53E147002D25B30630B053886
:100E5A00205810753800020E6D205807158115812B
:100E6A000217D122759100C3E4954DF594E4954E8D
:100E7A00F595759104D25822AE25305B4F78A3E6DA
:100E8A00FFBF010BD25C752500C283C294C295B123
:100E9A0001305C03752500305802C19BBF020BD29A
:100EAA005C752500C283C294C29578A2B6010DB1C1
:100EBA0001305C03752500305802C1BBBF030BD259
:100ECA005C752500C283C294C295D16E305C0375ED
:100EDA002500305802C1D6305B04C25C8E2522C27E
:100EEA00AFC282206A03020F08900360306E0F209F
:100EFA007402C297307402C2807406D5E0FD207471
:100F0A0002D280307402D297759F43753D02D2AFE8
:100F1A0022C2AF206A03020F3D900317306E17C238
:100F2A0082207402C297307402C2807406D5E0FD32
:100F3A00020F409001FA207402C295307402C283F3
:100F4A00305A06E5256002D294207403759F533007
:100F5A007403759F33753D03D2AF22C2AF2074026A
:100F6A00C280307402C297206A03020F849002D6AC
:100F7A00306E07C2827406D5E0FD207402D2973023
:100F8A007402D280207403759F33307403759F53A3
:100F9A00753D04D2AF22C2AF206A03020FC290028B
:100FAA0095306E17207402C280307402C297C282D2
:100FBA007406D5E0FD020FC59001E8C294305A0EBE
:100FCA00E525600A207402D283307402D295759F97
:100FDA0043753D05D2AF22C2AF207402C297307466
:100FEA0002C280206A0302100890024C306E0F2061
:100FFA007402C280307402C2977406D5E0FDD282B0
:10100A00207403759F53307403759F33753D06D260
:10101A00AF22C2AF206A030210469003B9306E1F96
:10102A00207402C280307402C297207402C29730C0
:10103A007402C2807406D5E0FD02104990020C20A9
:10104A007402C283307402C295305A0EE525600AD2
:10105A00207402D295307402D283207403759F33B0
:0F106A00307403759F53753D01D2AF229001E69C
:10107900C283C294C295C280C282C29722C3E54F7D
:101089009535E55095365001227890E6FFC3EF94E7
:10109900055018C3EF9404501BC3EF9403501EC3AB
:1010A900EF94025021C3EF94015024C3E54F943CBF
:1010B900F80210E1C3E54F9428F80210E1C3E54FA7
:1010C900941AF80210E1C3E54F9412F80210E1C333
:1010D900E54F940AF80210E1E5509400F9884F8928
:1010E90050223058030210EB2278807607788176F7
:1010F9000778827601789476017883760478867603
:1011090009788F76037890760178957602789276C9
:1011190003789B760D7893760178877602789C76AA
:1011290001788876017889760178857600788C76D9
:1011390000788D7600788E76B478967625789776CD
:10114900D078987678789976C8789A7604789D7662
:1011590000227893E6FF756409756501C3BF02092A
:101169007564057565010211A0C3BF03097564059E
:101179007565020211A0C3BF04097564057565038D
:101189000211A0C3BF0506756409756507C3BF06CB
:10119900067564007565007887E6FFC26CC3BF03F6
:1011A90002D26CC26BC26A7418552D6002D26AC22F
:1011B9006E6002D26ED26F6002C26FC2747888E626
:1011C90030E102D274C2757889E630E102D275C382
:1011D900EF94026008758E01D26D0211EB758E00D5
:1011E900C26D227880E61490008093789EF678810B
:1011F900E61490008093789FF6117622789BE61486
:1012090090008D9378A0F61176227886E6149000E6
:101219009A9378A1F6117622789CE6149000A79308
:1012290078A2F6789CE6149000AC9378A3F6117630
:1012390022227896E6FA7897E6FB3076047A007BE4
:10124900FFC3EB9AFCC3948250027C82756C000543
:101259006CEC856CF0A4C3E5F0948040F222C2D313
:1012690053D9BF7581C043FF801207A175EF0243AF
:10127900B203E5B324044002F5B37580F275A40DF9
:1012890075F13F75D4DF75904F75A5B075F2F0759E
:10129900D50075A60175E2411176E4F8F6D8FD117D
:1012A900F212181A315B31EC510551135121513A9F
:1012B900513B7898866D86731176758850758902C9
:1012C90075C82475910475D8401207B51207C41260
:1012D90007AD1207CA1207AD1207D01207AD121CCB
:1012E900E51207B51207B51207B175A82275B8023C
:1012F90075E69075F610759B80759D0375D10E7511
:10130900BC5875BB0975BA1175E8801207A1D2AF2F
:10131900120AA243DA01C2D8C2691207B5753001AF
:10132900D2597A05E55770027A051207A5E558C31F
:10133900940240EEE52E540F855A59F55AB559E2F3
:10134900DAE2C25953DACF20750343DA2030750344
:1013590043DA10C2D8C2691207B11207A57802741C
:101369000F552E70027800C3E5589840EDC2AF12B0
:1013790007C41207C41207C4D2AF1207B5754700D4
:101389001207A5788CE6C394015003021452E53084
:10139900C394015003021452740F552E6035C3E5EE
:1013A9005894FF5003021452C2AF1207D6D2AF129B
:1013B90007B1C3E558940150EFC2AF1207C4120731
:1013C900A91207C4D2AF1207B1C3E55894FF40E987
:1013D900021D6A7F05D276513B1207B1C2AFC276B0
:1013E900513BC3E558947FD2AF4068C2AF1207D6CC
:1013F900D2AFDFE1C3E55894057897F61207B51225
:1014090018CA121CED7F0AD276513B1207B1C2AF3E
:10141900C276513BC3E558947FD2AF50E8C2AF12B0
:1014290007C41207A91207C4D2AFDFDBE5582405A8
:101439007896F61207B51218CA121D1C1207B1C305
:10144900E55894FF40F6021D6AC3E55895474003E5
:101459008558471207B1C3E558940140026189C212
:0F146900AF1207D61207D61207D6D2AF1207B5A9
:10147800753000E4F531F5320531E531F4703605A3
:1014880032789AE67828146012785014600D78A0A3
:1014980014600878F0146003753200C3E532984090
:1014A8001415327899866DC2AF1207D6D2AF7898E4
:1014B800866D1207B11207A5E5287008740F552E1E
:1014C80070026129C3E558940640AD1207B1E528BA
:1014D80070030213291176E4F522F523F524F52586
:1014E800755CFF7885865FF53FF540F541F542F577
:1014F80043F56AF548F52BF52CF55B120C25756A52
:101508000875BB101207A1120B37E5E820ECFBA801
:10151800BDA9BEE97001F8886B120B3B756A0875A6
:10152800BB107895E630E00302156E7887E6FE7604
:1015380002315B7887EEF6D261C2AF120BF38522D7
:101548005C85225DD2AFC261752500756200756346
:1015580001D260D263753800120FE1111C120CA180
:10156800120C250216937887E6FE76037893E6FD3B
:101578007605315B7887EEF67893EDF6D260D26126
:10158800D26E120FE1111C120BF31207A1120EE911
:101598001207A11207A1120F1B1207A5120F65123D
:1015A80007A51207A5120FA01207A9120FE112072B
:1015B800A51207A1C261D262120B37120B3B120BA4
:1015C800F3756A0875BB10111C120C9A120D1511CF
:1015D8008611EB120EE9120C9A120D15118611EBF9
:1015E800120F1B120C9A120D15118611EB120F65B2
:1015F800120C9A120D15118611EB120FA0120C9AEB
:10160800120D15118611EB120FE1120C9A120D151D
:101618001186C3E54F9535E5509536400C11EBC35F
:10162800E558940150920217D111EBC2627887E60F
:10163800FE7602315B7887EEF685225C855E5D85F5
:101648005E25756200756301D263753800C2AF20EC
:101658007402C280307402C297207402C297307438
:1016680002C280742DD5E0FDD2AF111C120CA1125C
:101678000CFC120D15120D99756A0075BB0902163E
:1016880093315B111C756A0075BB09121DE4120DBC
:10169800BB120E46120E6E1208BF120E82120EE90F
:1016A800120CA1120CFC120D15120D99121DE41248
:1016B8000DB2120E46120E6E12093F120E82120F52
:1016C8001B120CA1120CFC120D15120D99121DE41F
:1016D800120DBB120E46120E6E12097F120E8212E6
:1016E8000F65120CA1120CFC120D15120D99121D8A
:1016F800E4120DB2120E46120E6E1209DC120E82A0
:10170800120FA0120CA1120CFC120D15120D991239
:101718001DE4120DBB120E46120E6E120A40120E76
:1017280082120FE1120CA1120CFC120D15120D9968
:10173800121DE4120DB2120B37120E46120E6E1263
:101748000B3B120E82111C120CA1120CFC120D156F
:10175800120D9930632A855E5C855E5D7562007541
:101768006301C3E5389464400AC263D264753714D0
:10177800021788C3E558940140030216930217D153
:10178800306419E537147005C264021689F537C349
:10179800E558940140030216930217D1C3E55B9400
:1017A80001400C855E5C855E5D7562FF756301C3F3
:1017B800E55B94FA5013740F552E7004E528600900
:1017C800C3E53C94F05002C19311767887E6FE7623
:1017D80002315B7887EEF6E4F522F523F524F5254A
:1017E800F55FC2601207A11176740F552E7006E5D9
:1017F80028700261297895E630E009121CE5121C70
:10180800E5121CE5788DE6C39401400302136302D8
:10181800147B901A0D7820121C00E520B4A50CA3A7
:10182800121C00E520B45A0302183C1210F21218D8
:10183800CA0218C9901A037880121C00A308121C47
:1018480000A308121C00A308121C00A308A308A3E5
:1018580008121C00A308121C00A308121C00A308ED
:0E186800121C00A308A308A308121C00A3086A
:10187600121C00A308121C00A308121C00A30812C5
:101886001C00A308A308121C00A308121C00A3082E
:10189600121C00A308121C00A308121C00A30812A5
:1018A6001C00A308121C00A308121C00A308121C8B
:1018B60000A308121C00A308121C00A308121C0097
:1018C600901A2122C2AF121C3F121C19901A0074E2
:1018D6000A121C05A37403121C05A37410121C051E
:1018E600901A037880121C04A308121C04A3081281
:1018F6001C04A308121C04A308A308A308121C04B2
:10190600A308121C04A308121C04A308121C04A397
:1019160008A308A308121C04A308121C04A3081297
:101926001C04A308121C04A308121C04A308A30881
:10193600121C04A308121C04A308121C04A30812F8
:101946001C04A308121C04A308121C04A308121CDE
:1019560004A308121C04A308121C04A308121C04E6
:10196600A308121C04A308121C04121C52121C30D9
:04197600901A212280
:101A00000A031007070104FFFF09020101A55A009C
:101A100000B40301FF0301010225D078C8040D01C1
:021A200000FFC5
:101A400023416C69676E424C333558232020202097
:101A500023424C48454C4923463333302320202031
:101A60002020202020202020202020202020202076
:101C0000E493F622E6438F01538FFD75EF0275B71B
:101C1000A575B7F1F0538FFE22438F02438F0175F4
:101C2000EF0275B7A575B7F1901A0DF0538FFC222E
:101C3000901A0D74A59105901A0E745A9105227A86
:101C40003079D07820901A409100E520F709A3DA86
:101C5000F7227A3079D0901A40E7910509A3DAF992
:101C600022AB6EA86FBB01057980021CE2BB0205A6
:101C70007981021CE2BB03057982021CE2BB0405E8
:101C80007994021CE2BB05057983021CE2BB0605C0
:101C90007995021CE2BB07057986021CE2BB0805A8
:101CA000798F021CE2BB09057990021CE2BB0A0590
:101CB0007992021CE2BB0B05799B021CE2BB0C056E
:101CC0007993021CE2BB0D057987021CE2BB0E056D
:101CD000799C021CE2BB0F057988021CE27989021B
:101CE0001CE2E8F7227C051207B5DCFB22C2AF122A
:101CF00007C41207CA1207D01207D61207A9120783
:101D0000C41207CA1207D01207D61207A91207C4B5
:101D10001207CA1207D01207D6D2AF22C2AF1207DB
:101D2000D61207D01207CA1207C41207A91207D683
:101D30001207D01207CA1207C41207A91207D61237
:101D400007D01207CA1207C4D2AF22AE6EAF6FC25D
:101D5000AF1207C41207C41207C41207A9DEF21299
:101D600007D61207A9DFF8D2AF2291ED91E591E5F0
:101D7000756E01756F01757000B14B7C05AD581221
:101D800007B5C3ED955870F5C3E55894014009C3F4
:101D9000E55894FF4032A1A691611218CA91EDC294
:101DA000AF75EF1291E5DCD50570C3E57094035073
:101DB0000280C691E5056FE56E149000B193F808B6
:101DC000C3E56F98500280AE91E591E5056EC3E5DD
:101DD0006E94115002809C1210F21218CAC2AF7594
:101DE000EF1291E5E573C333F573E57433F5745081
:081DF000066373016374F8221D
:00000001FF
