:030000000211ECFE
:03000B000200C12F
:03002B00020400CC
:03005B0002055249
:030073000205483B
:1000800002030406080C10182030406080020304AC
:1000900006080C101820304080FF0406080C1018C9
:1000A0002030406080A0C000000001010003020277
:1000B000010D0D040506020D0505050D06040502DA
:1000C00002C2AFC0D0C0E0205A0D302F02E473301E
:1000D000600280F90203EC306306C290C291C292C2
:1000E000C0F0E573541FF572F48525F0A485F07116
:1000F000E57225F0D0F0F58AC25AE525F4700221A8
:10010000DF0561306013206A19758B00D0E0D0D014
:10011000C290C291C292D2AF32C290C291C2920238
:1001200001CFD26EC26FE565601CC3E561149565B1
:100130004014C26ED26FC3E561956450030201CFD3
:100140007561000201CF206C14C290C291C29274FA
:1001500001D5E0FDC293C294C2950201CFD26FC215
:1001600090C291C292E53D20E23420E1127401D5A3
:10017000E0FD207402C295307402C2930201CF20C8
:10018000E0127401D5E0FD207402C295307402C201
:10019000930201CF7401D5E0FDC2940201CF20E1AA
:1001A0001F20E00A7401D5E0FDC2940201CF740162
:1001B000D5E0FD207402C293307402C2950201CFD3
:1001C0007401D5E0FD207402C293307402C29575AB
:1001D0008B00D0E0D0D0C290C291C292D2AF32D0C8
:1001E000E0D0D0D2AF3261ECE525600A207402D2B3
:1001F00090307402D292C29161ECE5256002D291F6
:10020000207402C292307402C29061ECE525600A4B
:10021000207402D292307402D290207402C29030C4
:100220007402C29261EC207402D293307402D295AF
:10023000E525600A207402D290307402D2922074B4
:1002400002D295307402D293C29161EC207402D232
:1002500093307402D295207402D295307402D293F6
:100260007405D5E0FDE525600A207402D290307453
:1002700002D292C29161EC207402D293307402D205
:1002800095E525600A207402D290307402D292D291
:1002900094C29161EC207402D293307402D295D250
:1002A000947405D5E0FDE525600A207402D29030F3
:1002B0007402D292C29161ECD294E5256002D2918F
:1002C000207402D293307402D295207402C292300C
:1002D0007402C29061ECD294207402D29330740202
:1002E000D2957405D5E0FDE5256002D29120740217
:1002F000C292307402C29061ECD294E5256002D2C1
:1003000091207402D295307402D293207402C2926A
:10031000307402C29061ECD294207402D295307491
:1003200002D2937405D5E0FDE5256002D2912074D8
:1003300002C292307402C29061EC207402D29530F5
:100340007402D293E525600A207402D292307402BE
:10035000D290D294207402C290307402C29261ECA6
:10036000207402D295307402D293D2947405D5E0F1
:10037000FDE525600A207402D292307402D29020EA
:100380007402C290307402C29261EC207402D29561
:10039000307402D293E525600A207402D292307440
:1003A00002D290207402D293307402D2952074024B
:1003B000C290307402C29261EC207402D295307403
:1003C00002D293207402D293307402D2957405D570
:1003D000E0FDE525600A207402D292307402D290CA
:1003E000207402C290307402C29261ECE571F4F59F
:1003F0008A758B00756000D25AD0E0D0D0D2AF326F
:10040000C2AFC0D0C0E0D2D3C2CEE528600A740F1C
:10041000552E60491528815D78007900E58030759A
:1004200001F430E60278FF53DACF20750343DA2077
:1004300030750343DA10C2D8C269E580307501F423
:1004400030E60279FFC3E89970CE30590375281859
:10045000740F552E60037528188858D268E52960F6
:100460000415298170740F552E600543DA01C2D836
:0E047000206802A102E558F8C268740F552EEC
:10047E0060367982B70431C3E894F0400374F0F823
:10048E00E8C4540F28F87984B7030281B6C313C3A6
:10049E00138721200802C313200A06C3C898F881C7
:1004AE00B628F8500374FFF8C3E8955F5003E55F74
:1004BE00F8E52C5406703D882230630AC3E5229578
:1004CE005C4003855C227882B60429C3E52295241C
:1004DE00401278A096400DE52426F5245009752487
:1004EE00FF0204F5852224852425C3E524955C406E
:1004FE0003855C2520CF09D0E0D0D0C2D3D2AF3255
:10050E00C2CF7801E5286008740F552E70021528A9
:10051E00C3E55894014005755B00A131E55B0460AD
:10052E0002055BE55DC3240A5005755DFFA13FF52D
:10053E005DD0E0D0D0C2D3D2AF32C2AF53917FC222
:10054E0058D2AF32C2AFC0D0C0E0C0F0D2D3A8FBF9
:10055E00A9FCC2D8306902A1B553DACF2075034386
:10056E00DA1030750343DA20D269E580307501F474
:10057E0020E602A18988268927E12E53DACF20753D
:10058E000343DA2030750343DA10C2D8C269740F00
:10059E00552E7002E1147800E580307501F430E6D6
:1005AE0002E1148858E11453DACF20750343DA20A0
:1005BE0030750343DA10C269205902C15E53DACF97
:1005CE0020750343DA1030750343DA20C2D8D2699E
:1005DE0088538954C3E89551F8E99552F9E4FB7AAA
:1005EE00FAC3E89468E994015008E4D2E3FB7A0F69
:1005FE00C131C3E894D0E994025008E4D2E2FB7A08
:10060E001EC131C3E894A0E994055008E4D2E1FB81
:10061E007A3CC131C3E89498E994085006E4D2E0DC
:10062E00FB7A78C3E89555FCE99556FD30E708EC62
:10063E00F42401FCEDF4FD7557007008C3EC9A50DC
:10064E000375570188558956A853A9548851895264
:10065E00C3E89526F8E99527F9307302C1F8307290
:10066E0002C1F1E9C313F9E813F8307102C1F1E9DF
:10067E00C313F9E813F8307002C1F1E9C313FDE8B2
:10068E0013FC205918C3EC941CED9402400302078E
:10069E0014ED7009C3EC94C8500302072E740020A9
:1006AE0076037896E624FAFEE43400FFC3EC9EFC53
:1006BE00ED9FFD500678007900C1F8C3EC94FFED74
:1006CE009400400678FF7900C1F8EC856CF0A4C563
:1006DE00F0A2F733F87900400302070378FF7900A0
:1006EE00020703E9C313F9E813F8C3E894FFE9948A
:1006FE0000400278FF8858D268205902E114740F26
:10070E00F4552E4BF52E752818740F552E70037553
:10071E00280A305902E12E740F552E600353DAFE6B
:10072E00752906740F552E700375290AD0F0D0E086
:10073E00D0D0C2D3D2AF327901E15D7903E15D79D8
:10074E000AE15D791EE15D7964E15D79C8E15D786C
:10075E0017E4D5E0FDD8FAD9F6227A147B78E18039
:10076E007A107B8CE1807A0D7BB4E1807A0B7BC8AA
:10077E00E180AC257525017902B274E4D294D5E0FE
:10078E00FDE5256002D291D5E0FDC291D5E0FDC216
:10079E0094D5E0FDE525600A207402D290307402F3
:1007AE00D292E56DD5E0FD207402C290307402C283
:1007BE00927496D5E0FDD9C1EAF8D5E0FDD8FBDB01
:1007CE00B1D2948C2522C37C007D0075F00005F01B
:1007DE00EA33FAEB33FB50F6EB13FBEA13FAC3E9F9
:1007EE00FFE8FEE89AF8E99BF95004EFF9EEF8B34A
:1007FE00EC33FCED33FDD5F0DFEDF9ECF822E889B2
:10080E00F08A20D2D4F8A9F07B0030F70B7BFFF4EE
:10081E002401F8E9F43400F9E88520F0A4ADF0F8ED
:10082E00E98520F0A4AFF0FEED2EF974003FFA7CBE
:10083E0004C3EA13FAE913F9E813F8DCF48BF03089
:10084E00F70AE8F42401F8E9F43400F9E889F0C273
:10085E00D4F8A9F0227882B604030208C0C3E55882
:0F086E0094014003020888852224E4F53FF540F9
:10087D00F541F542F543F5480208C07882E6FC756E
:10088D004801E522F523783879C7AA3BAB3CC3EB89
:10089D0013FBEA13FAEC146013C3EB13FBEA13FA20
:1008AD00EC14146007C3EB13FBEA13FA1207D48898
:1008BD003F894022E5486034C3E53F9523F8E54084
:1008CD009400F9500CC3E89480E994FF4016020897
:1008DD00F5C3E8947FE9940050030208F5787F7919
:1008ED00000208F5788079FF8844894522E5486043
:1008FD0058E5442541F8E5453542F9854520E43074
:10090D000701F43543FA30E709C3EA94F0401502C4
:10091D000937C3EA940F500302093778FF79FF7A3C
:10092D000F020937780079007AF0C3E524955C5001
:10093D0006E52460092150E54520E70D2150E545E8
:10094D0030E706884189428A4322E548700302094F
:10095D00BA789EE6FAC3E54433F8E54533F9110C50
:10096D00E930E70BC3E89480E994FF40132191C36C
:10097D00E8947FE9940050022191787F79002191CC
:10098D00788079FFE820E715C3E52398F84009C37F
:10099D00E8940140030209B878010209B8E8F4248B
:1009AD00012523F840030209B878FF884622E5485F
:1009BD007003020A1C789FE6FAA842A943110CE9BC
:1009CD0030E70CC3E89401E994FF40160209F3C324
:1009DD00E894FFE9940050030209F378FF790002CF
:1009ED0009F3780179FFE920E715C3E54698F8404A
:1009FD0009C3E894014003020A1A7800020A1AE8B2
:100A0D00F424012546F84003020A1A78FF882422AF
:100A1D007883E6F520120F5C75E890E5E820ECF0A0
:100A2D00A8BDA9BE120FF1756880756902C3740265
:100A3D0013FD748013FC74802CFC74023DFDECFAE4
:100A4D00EDFBC3E89AE99B4014E5682480F568E561
:100A5D00693402F569EA2CFAEB3DFB80E5AE68AF2F
:100A6D0069C3E56913F9E56813F8C3E913F9E813E8
:100A7D00F8E56828F566E56939F5677A03C3E91382
:100A8D00F9E813F8DAF7AA201A7009756800756984
:100A9D0000020AB11AEA6008EE28FEEF39FFDAF813
:100AAD008E688F692275E890227883E6FFE5E8204D
:100ABD00ECF7A8BDA9BE056AC3E56A940840527556
:100ACD006A00E97007E56B601B020AE5C3E8956BE8
:100ADD006010E56B5006600C14020AF10460F90217
:100AED000AF1E56BF56BC394F6F84021755CC0C354
:100AFD00E89406F84017755C80C3E89406F8400D3D
:100B0D00755C40C3E89406F84003755C0075BB0E38
:100B1D0022EFC39401601BC3E894FFE994035012C4
:100B2D00C3E89568E995695009E55C600C155C02B0
:100B3D000B46E55CF46002055CA85CC3E5249850A7
:100B4D0002A8248825C3E525955D400B855D25E527
:100B5D005DF46003855D5CC3E56AB4070375BB1086
:100B6D002230610278323062027878E52C540660CA
:100B7D0021E879A187F0A4C5F0A2F733F8C3E89571
:100B8D005C4002A85C882288248825306104C3E873
:100B9D00F55E22788FE6FFC3EF94055018C3EF94EE
:100BAD00045020C3EF94035028C3EF94025030C378
:100BBD00EF940150387533A075340F75353C75368B
:100BCD000581087533C0753412753540753606814B
:100BDD00087533707534177535D0753607810875FE
:100BED00334C75341D7535C4753609810875332838
:100BFD007534237535B875360B810885334F8534BB
:100C0D0050753B00753C0822A84FA950020C20A836
:100C1D0049A94A759100C3E498F594E499F5957541
:100C2D009104D25875C820A8CCA9CD75C824AA396D
:100C3D00AB3A8839893AC3E89AF8E99BF9AA3BABF4
:100C4D003CC3EB13FDEA13FCC3ED13FDEC13FCC326
:100C5D00EA9CFAEB9DFBEA28FAEB39FB8A3B8B3CCD
:0F0C6D00400122753BFF753CFF22305802817712
:100C7C00759100C3E4954BF594E4954CF5957591FD
:100C8C0004D258227892E6FF7E10305B027F05304A
:100C9C0063047F037E00A93CA83B7A04C3E913F9E3
:100CAC00E813F8DAF7C3E89EF8E99400F94009C3B1
:100CBC00E89402E9940050047802E4F9E9FBE8FABC
:100CCC00C3E913FDE813FCC3EF9403602EEF20E09F
:100CDC000DE82CF8E93DF9ECFAEDFB020CF4E828F0
:100CEC00F8E939F97A02E4FBC3EF9403400D8A4D1D
:100CFC008B4E8849894A8C4B8D4C22884D894E8A63
:100D0C00498B4A8C4B8D4C22305802A114759100A2
:100D1C00C3E4953BF594E4953CF595759104D25854
:100D2C0022753E00752000020D3C753E007520407A
:100D3C00D2AF053E20580122759D00E53CC313C37C
:100D4C0013F8086030306A06C313C313F808C3E8FD
:100D5C00940A4002780A306D08C3E8940440027883
:100D6C0004C3E53C9408400D759D02C3E53C94100A
:100D7C004003759D03205803D2AF22790A206D02DF
:100D8C007904D2AF0000C2AF205A0A790F206D024D
:100D9C007905306FE03063027978C3E58B99206375
:100DAC000240F740D0E59BF4F45440B52002A13C3E
:100DBC00D8C3D2AF22C25B789CE6146007E53E1420
:100DCC007002D25B30630B05382058107538000266
:100DDC000DE82058071581158102174C22759100DA
:100DEC00C3E4954DF594E4954EF595759104D25860
:100DFC0022AE25305B4F78A3E6FFBF010BD25C75AA
:100E0C002500C290C291C292917C305C0375250082
:100E1C00305802C116BF020BD25C752500C290C2BD
:100E2C0091C29278A2B6010D917C305C03752500BD
:100E3C00305802C136BF030BD25C752500C290C27C
:100E4C0091C292B1E9305C03752500305802C15152
:100E5C00305B04C25C8E2522C2AFD294206A03029E
:100E6C000E83900360306E0F207402D295307402A2
:100E7C00D2937405D5E0FD207402C293307402C283
:100E8C0095759F11753D02D2AF22C2AF206A030245
:100E9C000EB8900317306E17D294207402D295308E
:100EAC007402D2937405D5E0FD020EBB9001FA20BA
:100EBC007402C292307402C290305A06E525600268
:100ECC00D291207403759F01307403759F21753D79
:100EDC0003D2AF22C2AF207402D293307402D295E7
:100EEC00206A03020EFF9002D6306E07D29474056E
:100EFC00D5E0FD207402C295307402C293207403B5
:100F0C00759F21307403759F01753D04D2AF22C2C9
:100F1C00AF206A03020F3D900295306E17207402C9
:100F2C00D293307402D295D2947405D5E0FD020FA1
:100F3C00409001E8C291305A0EE525600A207402F7
:100F4C00D290307402D292759F11753D05D2AF22AA
:100F5C00C2AF207402D295307402D293206A03027D
:100F6C000F8390024C306E0F207402D293307402B7
:100F7C00D2957405D5E0FDC294207403759F0130A1
:100F8C007403759F21753D06D2AF22C2AF206A0350
:100F9C00020FC19003B9306E1F207402D2933074CB
:100FAC0002D295207402D295307402D2937405D576
:100FBC00E0FD020FC490020C207402C29030740247
:100FCC00C292305A0EE525600A207402D292307417
:100FDC0002D290207403759F21307403759F0175A4
:100FEC003D01D2AF229001E6C290C291C292D2933F
:100FFC00D294D29522C3E54F9535E55095365001E4
:10100C00227890E6FFC3EF94055018C3EF94045078
:10101C001BC3EF9403501EC3EF94025021C3EF94F3
:10102C00015024C3E54F943CF802105CC3E54F9487
:10103C0028F802105CC3E54F941AF802105CC3E563
:10104C004F9412F802105CC3E54F940AF802105C3E
:10105C00E5509400F9884F895022305803021066ED
:0F106C00227880760778817607788276017884FB
:10107B007603788376017886760B788F7601789075
:10108B0076057895760278927603789B760D789331
:10109B00760678877602789C76027888760278894D
:1010AB00760178857600788C7600788D7600788E50
:1010BB0076B478967625789776D0789876787899EE
:1010CB0076C8789A7604789D7600227893E6FF7539
:1010DB006409756501C3BF02097564057565010275
:1010EB00111BC3BF030975640575650202111BC390
:1010FB00BF040975640575650302111BC3BF0506A3
:10110B00756409756507C3BF0606756400756500D0
:10111B007887E6FFC26CC3BF0302D26CC26BC3BF3E
:10112B000402D26BC26A7418552D6002D26AC26E69
:10113B006002D26ED26F6002C26FC2747888E630E2
:10114B00E102D274C2757889E630E102D275C3EF41
:10115B0094026008758E01D26D02116C758E00C2FF
:10116B006D227880E61490008093789EF67881E665
:10117B001490008093789FF6120FF122789BE6145F
:10118B0090008D9378A0F6120FF1227886E61490DA
:10119B00009A9378A1F6120FF122789CE614900036
:1011AB00A79378A2F6789CE6149000AC9378A3F6FC
:1011BB00120FF122227896E6FA7897E6FB30760446
:1011CB007A007BFFC3EB9AFCC3948250027C82753E
:1011DB006C00056CEC856CF0A4C3E5F0948040F2D8
:1011EB0022C2D353D9BF7581C043FF801207457507
:1011FB00EF0043B203E5B324044002F5B37580FF5F
:10120B0075A40075F1D075D4BF75907875A53F7531
:10121B00F2BF75D54075A60175E241120FF1E4F8E6
:10122B00F6D8FD116D12177C11D6316D31873196C1
:10123B0031A531BF31C07898866D8673120FF17569
:10124B00885075890275C82475910475D8401207AA
:10125B005912076812075112076E120751120774C1
:10126B00120751121CE5120759120759120755752F
:10127B00A82275B80275E69075F610759B80759D62
:10128B000375D10775BC5875BB0E75BA1175E8801F
:10129B00120745D2AF120A1D43DA01C2D8C2691236
:1012AB000759753001D2597A05E55770027A051244
:1012BB000749E558C3940240EEE52E540F855A5961
:1012CB00F55AB559E2DAE2C25953DACF2075034326
:1012DB00DA2030750343DA10C2D8C26912075512EF
:1012EB0007497802740F552E70027800C3E55898A1
:1012FB0040EDC2AF120768120768120768D2AF122F
:10130B000759754700120749788CE6C394015003BF
:10131B000213D9E530C3940150030213D9740F554E
:10132B002E6035C3E55894FF50030213D9C2AF1298
:10133B00077AD2AF120755C3E558940150EFC2AFED
:10134B0012076812074D120768D2AF120755C3E593
:10135B005894FF40E9021D6A7F05D27631C012070F
:10136B0055C2AFC27631C0C3E558947FD2AF406847
:10137B00C2AF12077AD2AFDFE1C3E5589405789775
:10138B00F612075912182B121CED7F0AD27631C0B8
:10139B00120755C2AFC27631C0C3E558947FD2AFA6
:1013AB0050E8C2AF12076812074D120768D2AFDFC1
:1013BB00DBE55824057896F612075912182B121DE7
:1013CB001C120755C3E55894FF40F6021D6AC3E58E
:1013DB005895474003855847120755C3E558940164
:1013EB0040026110C2AF12077A12077A12077AD243
:1013FB00AF120759753000E4F531F5320531E5319F
:10140B00F470360532789AE6782814601278501406
:10141B00600D78A014600878F0146003753200C377
:10142B00E53298401415327899866DC2AF12077A5F
:10143B00D2AF7898866D120755120749E5287008C8
:10144B00740F552E700241B0C3E558940640AD128F
:10145B000755E52870030212B0120FF1E4F522F5DF
:0E146B0023F524F525755CFF7885865FF53F37
:10147900F540F541F542F543F56AF548F52BF52CAC
:10148900F55B120BA0756A0875BB10120745120AA5
:10149900B2E5E820ECFBA8BDA9BEE97001F8886BAC
:1014A900120AB6756A0875BB107895E630E0030232
:1014B90014F77887E6FE760211D67887EEF6D261C0
:1014C900C2AF120B6E85225C85225DD2AFC26175F7
:1014D9002500756200756301D260D2637538001208
:1014E9000F5C120F97120C1C120BA00216207887A2
:1014F900E6FE76037893E6FD760511D67887EEF653
:101509007893EDF6D260D261D26E120F5C120F970A
:10151900120B6E120745120E641207451207451287
:101529000E96120749120EE0120749120749120FC7
:101539001B12074D120F5C120749120745C261D2EF
:1015490062120AB2120AB6120B6E756A0875BB10DE
:10155900120F97120C15120C9011011166120E64DC
:10156900120C15120C9011011166120E96120C151F
:10157900120C9011011166120EE0120C15120C904A
:1015890011011166120F1B120C15120C9011011189
:1015990066120F5C120C15120C901101C3E54F95E0
:1015A90035E5509536400C1166C3E55894015091C4
:1015B90002174C1166C2627887E6FE760211D67868
:1015C90087EEF685225C855E5D855E257562007510
:1015D9006301D263753800C2AF207402D2933074AC
:1015E90002D295207402D295307402D293742DD50B
:1015F900E0FDD2AF120F97120C1C120C77120C904F
:10160900120D14756A0075BB0E02162011D6120F41
:1016190097756A0075BB0E121DE4120D36120DC1C5
:10162900120DE9120863120DFD120E64120C1C1240
:101639000C77120C90120D14121DE4120D2D120DBF
:10164900C1120DE91208C1120DFD120E96120C1CE1
:10165900120C77120C90120D14121DE4120D361291
:101669000DC1120DE91208FA120DFD120EE0120C4D
:101679001C120C77120C90120D14121DE4120D2D70
:10168900120DC1120DE9120957120DFD120F1B128D
:101699000C1C120C77120C90120D14121DE4120D71
:1016A90036120DC1120DE91209BB120DFD120F5CA4
:1016B900120C1C120C77120C90120D14121DE4124C
:1016C9000D2D120AB2120DC1120DE9120AB6120D30
:1016D900FD120F97120C1C120C77120C90120D149C
:1016E90030632A855E5C855E5D756200756301C342
:1016F900E5389464400AC263D26475371402171638
:10170900C3E5589401400302162002174C306419AE
:10171900E537147005C264021615F537C3E5589408
:1017290001400302162002174CC3E55B94FA5013DB
:10173900740F552E7004E5286009C3E53C94F050F8
:1017490002C120120FF17887E6FE760211D678875A
:10175900EEF6E4F522F523F524F525F55FC26012CE
:101769000745120FF1740F552E7006E528700241D6
:10177900B08102901A0D7820121C00E520B4550C96
:10178900A3121C00E520B4AA0302179D116D1218BB
:101799002B02182A901A037880121C00A308121C25
:1017A90000A308121C00901A067883121C00A308D3
:1017B900121C00A308A308121C00A308121C00A3F2
:1017C90008121C00A308121C00A308A308A30812EE
:1017D9001C00A308A308121C00A308121C00A308DC
:1017E900121C00A308A308121C00A308121C00A3C2
:1017F90008A308121C00A308121C00A308121C004D
:10180900A308121C00A308121C00A308121C00A3A1
:1018190008121C00A308121C00A308121C00901A2D
:101829002122C2AF121C3F121C19901A00740A120D
:101839001C05A37403121C05A37410121C05901A2D
:10184900037880121C04A308121C04A308121C04A8
:10185900901A067883121C04A308121C04A308A377
:0F18690008121C04A308121C04A308121C04A3D9
:1018780008121C04A308A308A308121C04A308A3A5
:1018880008121C04A308121C04A308121C04A308B1
:10189800A308121C04A308121C04A308A308121C02
:1018A80004A308121C04A308121C04A308121C0495
:1018B800A308121C04A308121C04A308121C04A3E6
:1018C80008121C04A308121C04121C52121C30908B
:0318D8001A2122B0
:101A00000A03100909040103FF0B02020155AA0091
:101A1000FFFF0105FF0306FF0225D02850040D0239
:021A200000FFC5
:101A40002344503341232020202020202020202008
:101A500023424C48454C4923463333302320202031
:101A60002020202020202020202020202020202076
:101C0000E493F622E6438F01538FFD75EF0275B71B
:101C1000A575B7F1F0538FFE22438F02438F0175F4
:101C2000EF0275B7A575B7F1901A0DF0538FFC222E
:101C3000901A0D74559105901A0E74AA9105227A86
:101C40003079D07820901A409100E520F709A3DA86
:101C5000F7227A3079D0901A40E7910509A3DAF992
:101C600022AB6EA86FBB01057980021CE2BB0205A6
:101C70007981021CE2BB03057982021CE2BB0405E8
:101C80007984021CE2BB05057983021CE2BB0605D0
:101C90007995021CE2BB07057986021CE2BB0805A8
:101CA000798F021CE2BB09057990021CE2BB0A0590
:101CB0007992021CE2BB0B05799B021CE2BB0C056E
:101CC0007993021CE2BB0D057987021CE2BB0E056D
:101CD000799C021CE2BB0F057988021CE27989021B
:101CE0001CE2E8F7227C05120759DCFB22C2AF1286
:101CF000076812076E12077412077A12074D12074F
:101D00006812076E12077412077A12074D120768DD
:101D100012076E12077412077AD2AF22C2AF1207EF
:101D20007A12077412076E12076812074D12077AAB
:101D300012077412076E12076812074D12077A1203
:101D4000077412076E120768D2AF22AE6EAF6FC271
:101D5000AF12076812076812076812074DDEF21209
:101D6000077A12074DDFF8D2AF2291ED91E591E5A8
:101D7000756E01756F01757000B14B7C05AD581221
:101D80000759C3ED955870F5C3E55894014009C350
:101D9000E55894FF4032A1A6916112182B91EDC233
:101DA000AF75EF1091E5DCD50570C3E57094035075
:101DB0000280C691E5056FE56E149000B193F808B6
:101DC000C3E56F98500280AE91E591E5056EC3E5DD
:101DD0006E94115002809C12106D12182BC2AF75B8
:101DE000EF1091E5E573C333F573E57433F5745083
:081DF000066373016374F8221D
:00000001FF
