:030000000211CD1D
:03000B000200BE32
:03002B00020415B7
:03005B0002055942
:0300730002054F34
:1000800002030406080C10182030406080020304AC
:1000900006080C101820304080FF0406080C1018C9
:1000A0002030406080A0C000000001010003020277
:1000B000010505020D0505050D0604050202C2AF86
:1000C000C0D0C0E0205A25302F02E47330601A05FA
:1000D00060C37405952540F2956040EE758A78E519
:1000E000257003758A0002040E020401306306D2F3
:1000F00092D291D290C0F0E573541FF572F4852529
:10010000F0A485F071E57225F0D0F0F58AC25AE5C9
:1001100025F4700221F40561306013206A19758B93
:1001200000D0E0D0D0D292D291D290D2AF32D2923F
:10013000D291D2900201E4D26EC26FE565601CC319
:10014000E5611495654014C26ED26FC3E561956494
:1001500050030201E47561000201E4206C14D292A4
:10016000D291D2907406D5E0FDD293D294D295026A
:1001700001E4D26FD292D291D290E53D20E23420B8
:10018000E1127406D5E0FD207402D295307402D2DB
:10019000930201E420E0127406D5E0FD207402D23F
:1001A00095307402D2930201E47406D5E0FDD29436
:1001B0000201E420E11F20E00A7406D5E0FDD2949C
:1001C0000201E47406D5E0FD207402D2933074027B
:1001D000D2950201E47406D5E0FD207402D293307A
:1001E0007402D295758B00D0E0D0D0D292D291D249
:1001F00090D2AF32D0E0D0D0D2AF328101E52560CD
:100200000A207402C292307402C290D2918101E538
:10021000256002C291207402D290307402D2928181
:1002200001E525600A207402C290307402C2922057
:100230007402D292307402D2908101207402C2936F
:10024000307402C295E525600A207402C2923074AF
:1002500002C290207402C295307402C293D291817E
:1002600001207402C293307402C295207402C295B8
:10027000307402C2937406D5E0FDE525600A20744F
:1002800002C292307402C290D2918101207402C2E3
:1002900093307402C295E525600A207402C2923040
:1002A0007402C290C294D2918101207402C2933030
:1002B0007402C295C2947406D5E0FDE525600A205B
:1002C0007402C292307402C290D2918101C294E54C
:1002D000256002C291207402C293307402C295203C
:1002E0007402D290307402D2928101C294207402BE
:1002F000C293307402C2957406D5E0FDE525600214
:10030000C291207402D290307402D2928101C294C0
:10031000E5256002C291207402C295307402C29336
:10032000207402D290307402D2928101C29420745F
:1003300002C295307402C2937406D5E0FDE52560D3
:1003400002C291207402D290307402D292810120B4
:100350007402C295307402C293E525600A207402CB
:10036000C290307402C292C294207402D29230744D
:1003700002D2908101207402C295307402C293C2ED
:10038000947406D5E0FDE525600A207402C2903021
:100390007402C292207402D292307402D29081010F
:1003A000207402C295307402C293E525600A20745D
:1003B00002C290307402C292207402C2933074025E
:1003C000C295207402D292307402D29081012074BE
:1003D00002C295307402C293207402C29330740238
:1003E000C2957406D5E0FDE525600A207402C2902E
:1003F000307402C292207402D292307402D2908180
:1004000001E571F4F58A758B00756000D25AD0E071
:10041000D0D0D2AF32C2AFC0D0C0E0D2D3C2CEE5CE
:1004200028600A740F552E6049152881727800796A
:1004300000E580307501F430E40278FF53DACF2014
:10044000750343DA2030750343DA10C2D8C269E578
:1004500080307501F430E40279FFC3E89970CE3042
:100460005903752818740F552E600375281888587D
:0E047000D268E529600415298185740F552E88
:10047E00600543DA01C2D8206802A117E558F8C218
:10048E0068740F552E60367982B70431C3E894F044
:10049E00400374F0F8E8C4540F28F87984B70302C7
:1004AE0081CBC313C3138721200802C313200A066E
:1004BE00C3C898F881CB28F8500374FFF8C3E895A9
:1004CE005F5003E55FF8E52C5406703D88223063DB
:1004DE000AC3E522955C4003855C227882B6042926
:1004EE00C3E5229524401278A096400DE52426F50A
:1004FE002450097524FF02050A852224852425C36C
:10050E00E524955C4003855C2520CF09D0E0D0D052
:10051E00C2D3D2AF32C2CF7801E5286008740F552E
:10052E002E70021528C3E55894014005755B00A195
:10053E0046E55B046002055BD0E0D0D0C2D3D2AFFB
:10054E0032C2AF53917FC258D2AF32C2AFC0D0C009
:10055E00E0C0F0D2D3A8FBA9FCC2D8306902A1BC7E
:10056E0053DACF20750343DA1030750343DA20D205
:10057E0069E580307501F420E402A1908826892770
:10058E00E13553DACF20750343DA2030750343DAB1
:10059E0010C2D8C269740F552E7002E11B7800E5A7
:1005AE0080307501F430E402E11B8858E11B53DA08
:1005BE00CF20750343DA2030750343DA10C2692069
:1005CE005902C16553DACF20750343DA1030750333
:1005DE0043DA20C2D8D26988538954C3E89551F8BA
:1005EE00E99552F9E4FB7AFAC3E89468E99401506C
:1005FE0008E4D2E3FB7A0FC138C3E894D0E9940241
:10060E005008E4D2E2FB7A1EC138C3E894A0E99404
:10061E00055008E4D2E1FB7A3CC138C3E89498E96E
:10062E0094085006E4D2E0FB7A78C3E89555FCE9CD
:10063E009556FD30E708ECF42401FCEDF4FD7557FA
:10064E00007008C3EC9A500375570188558956A857
:10065E0053A95488518952C3E89526F8E99527F98C
:10066E00307302C1FF307202C1F8E9C313F9E81307
:10067E00F8307102C1F8E9C313F9E813F8307002CB
:10068E00C1F8E9C313FDE813FC205918C3EC941C00
:10069E00ED9402400302071BED7009C3EC94C850A1
:1006AE000302073574002076037896E624FAFEE4FA
:1006BE003400FFC3EC9EFCED9FFD500678007900E0
:1006CE00C1FFC3EC94FFED9400400678FF7900C1A2
:1006DE00FFEC856CF0A4C5F0A2F733F87900400367
:1006EE0002070A78FF790002070AE9C313F9E81333
:1006FE00F8C3E894FFE99400400278FF8858D26866
:10070E00205902E11B740FF4552E4BF52E75281847
:10071E00740F552E700375280A305902E135740F87
:10072E00552E600353DAFE752906740F552E70038D
:10073E0075290AD0F0D0E0D0D0C2D3D2AF32790131
:10074E00E1647903E164790AE164791EE164796414
:10075E00E16479C8E1647817E4D5E0FDD8FAD9F6FA
:10076E00227A147B78E1877A107B8CE1877A0D7B75
:10077E00B4E1877A0B7BC8E187AC25752501790238
:10078E00B274E4C294D5E0FDE5256002C291D5E0D5
:10079E00FDD291D5E0FDD294D5E0FDE525600A208D
:1007AE007402C292307402C290E56DD5E0FD2074E1
:1007BE0002D292307402D2907496D5E0FDD9C1EA7D
:1007CE00F8D5E0FDD8FBDBB1C2948C2522C37C00AA
:1007DE007D0075F00005F0EA33FAEB33FB50F6EBD3
:1007EE0013FBEA13FAC3E9FFE8FEE89AF8E99BF96E
:1007FE005004EFF9EEF8B3EC33FCED33FDD5F0DF3A
:10080E00EDF9ECF822E889F08A20D2D4F8A9F07B31
:10081E000030F70B7BFFF42401F8E9F43400F9E81B
:10082E008520F0A4ADF0F8E98520F0A4AFF0FEED40
:10083E002EF974003FFA7C04C3EA13FAE913F9E8BF
:10084E0013F8DCF48BF030F70AE8F42401F8E9F43D
:10085E003400F9E889F0C2D4F8A9F0227882B604FF
:0F086E00030208E9C3E55894014018E548702AD1
:10087D007805C37994B702027812C3E53B9400E57D
:10088D003C984013852224E4F53FF540F541F542AF
:10089D00F543F5480208E9754801C37994E79402D8
:1008AD00601BE523F43333F913F8E9540104F9E837
:1008BD0054FEC39440F8E99400F90208E5E523F4E9
:1008CD0033333333F913F8E954070404F9E854F8D2
:1008DD00C39440F8E99400F9883F894022E54860C7
:1008ED003BC3E53C13F9E53B13F8C3E53F98F8E549
:1008FD004099F9500CC3E89480E994FF4016020921
:10090D0025C3E8947FE994005003020925787F7987
:10091D0000020925788079FF8844894522E54860E1
:10092D0058E5442541F8E5453542F9854520E43043
:10093D000701F43543FA30E709C3EA94F040150294
:10094D000967C3EA940F500302096778FF79FF7AAC
:10095D000F020967780079007AF0C3E524955C50A1
:10096D0006E52460092180E54520E70D2180E54558
:10097D0030E706884189428A4322E548700302091F
:10098D00EA789EE6FAC3E54433F8E54533F91113E9
:10099D00E930E70BC3E89480E994FF401321C1C30C
:1009AD00E8947FE99400500221C1787F790021C13C
:1009BD00788079FFE820E715C3E52398F84009C34F
:1009CD00E8940140030209E878010209E8E8F424FB
:1009DD00012523F840030209E878FF884622E548FF
:1009ED007003020A4C789FE6FAA842A9431113E955
:1009FD0030E70CC3E89401E994FF4016020A23C3C3
:100A0D00E894FFE994005003020A2378FF7900026D
:100A1D000A23780179FFE920E715C3E54698F840E8
:100A2D0009C3E894014003020A4A7800020A4AE821
:100A3D00F424012546F84003020A4A78FF8824224F
:100A4D00020AE47883E6F520120F4975E890E5E88F
:100A5D0020ECEDA8BDA9BE120FDE7568AF7569005B
:100A6D00C3740013FD74AF13FC74AF2CFC74003D04
:100A7D00FDECFAEDFBC3E89AE99B4014E56824AF61
:100A8D00F568E5693400F569EA2CFAEB3DFB80E584
:100A9D00AE68AF69C3E56913F9E56813F8C3E913E7
:100AAD00F9E813F8E56828F566E56939F5677A031D
:100ABD00C3E913F9E813F8DAF7AA201A7009756873
:100ACD0000756900020AE41AEA6008EE28FEEF39A3
:100ADD00FFDAF88E688F692275E890227883E6FF39
:100AED00E5E820ECF7A8BDA9BE056AC3E56A940840
:100AFD004052756A00E97007E56B601B020B18C365
:100B0D00E8956B6010E56B5006600C14020B240425
:100B1D0060F9020B24E56BF56BC39458F840217511
:100B2D005CC0C3E89404F84017755C80C3E8940476
:100B3D00F8400D755C40C3E89404F84003755C0003
:100B4D0075BB0322C3E56AB4070375BB1022306180
:100B5D000278323062027878E52C54066021E8790B
:100B6D00A187F0A4C5F0A2F733F8C3E8955C400265
:100B7D00A85C882288248825306104C3E8F55E22AC
:100B8D00788FE6FFC3EF94055018C3EF94045020FF
:100B9D00C3EF94035028C3EF94025030C3EF940178
:100BAD0050387533A075340F75353C75360561F5C4
:100BBD007533C075341275354075360661F575336C
:100BCD00707534177535D075360761F575334C75FD
:100BDD00341D7535C475360961F5753328753423A3
:100BED007535B875360B61F585334F853450753BCA
:100BFD0000753C0822A84FA950020C0DA849A94A1E
:100C0D00759100C3E498F594E499F595759104D226
:100C1D005875C820A8CCA9CD75C824AA39AB3A8877
:100C2D0039893AC3E89AF8E99BF9AA3BAB3CC3EB87
:100C3D0013FDEA13FCC3ED13FDEC13FCC3EA9CFAA0
:100C4D00EB9DFBEA28FAEB39FB8A3B8B3C400122FA
:100C5D00753BFF753CFF223058028164759100C3CE
:0F0C6D00E4954BF594E4954CF595759104D258A8
:100C7C00227892E6FF7E10305B027F053063047FA2
:100C8C00037E00A93CA83B7A04C3E913F9E813F8E6
:100C9C00DAF7C3E89EF8E99400F94009C3E8940236
:100CAC00E9940050047802E4F9E9FBE8FAC3E9138B
:100CBC00FDE813FCC3EF9403602EEF20E00DE82C4D
:100CCC00F8E93DF9ECFAEDFB020CE1E828F8E9391A
:100CDC00F97A02E4FBC3EF9403400D8A4D8B4E88E6
:100CEC0049894A8C4B8D4C22884D894E8A498B4AB6
:100CFC008C4B8D4C22305802A101759100C3E495A8
:100D0C003BF594E4953CF595759104D25822753ECB
:100D1C0000752000020D29753E00752040D2AF05EC
:100D2C003E20580122759D00E53CC313C313F808FF
:100D3C006030306A06C313C313F808C3E8940A4042
:100D4C0002780A306D08C3E8940440027804C3E5C5
:100D5C003C9408400D759D02C3E53C94104003750E
:100D6C009D03205803D2AF22791E206D02790AD23E
:100D7C00AF0000C2AF205A0A793C206D02791430C2
:100D8C006FE03063027978C3E58B9920630240F7FA
:100D9C0040D0E59BF4F45440B52002A129D8C3D22D
:100DAC00AF22C25B789CE6146007E53E147002D259
:100DBC005B30630B0538205810753800020DD520B8
:100DCC0058071581158102173922759100C3E495D6
:100DDC004DF594E4954EF595759104D25822AE25B7
:100DEC00305B4F78A3E6FFBF010BD25C752500D2B8
:100DFC0092D291D2909169305C03752500305802E3
:100E0C00C103BF020BD25C752500D292D291D29055
:100E1C0078A2B6010D9169305C037525003058023B
:100E2C00C123BF030BD25C752500D292D291D29014
:100E3C00B1D6305C03752500305802C13E305B04DE
:100E4C00C25C8E2522C2AFC294206A03020E70903F
:100E5C000375306E0F207402C295307402C2937405
:100E6C0006D5E0FD207402D293307402D295759FA2
:100E7C0010753D02D2AF22C2AF206A03020EA590BC
:100E8C00032C306E17C294207402C295307402C2C7
:100E9C00937406D5E0FD020EA890020F207402D2C6
:100EAC0090307402D292305A06E5256002C291202D
:100EBC007403759F20307403759F00753D03D2AF8A
:100ECC0022C2AF207402C293307402C295206A030E
:100EDC00020EEC9002EB306E07C2947406D5E0FD66
:100EEC00207402D295307402D293207403759F0043
:100EFC00307403759F20753D04D2AF22C2AF206AB7
:100F0C0003020F2A9002AA306E17207402C293308B
:100F1C007402C295C2947406D5E0FD020F2D9001A7
:100F2C00FDD291305A0EE525600A207402C292302F
:100F3C007402C290759F10753D05D2AF22C2AF20CE
:100F4C007402C295307402C293206A03020F70902F
:100F5C000261306E0F207402C293307402C2957419
:100F6C0006D5E0FDD294207403759F203074037570
:100F7C009F00753D06D2AF22C2AF206A03020FAEAE
:100F8C009003CE306E1F207402C293307402C2954F
:100F9C00207402C295307402C2937406D5E0FD022F
:100FAC000FB1900221207402D292307402D2903090
:100FBC005A0EE525600A207402C290307402C29267
:100FCC00207403759F00307403759F20753D01D20A
:100FDC00AF229001FBD292D291D290C293C294C212
:100FEC009522C3E54F9535E5509536500122789002
:100FFC00E6FFC3EF94055018C3EF9404501BC3EFE6
:10100C009403501EC3EF94025021C3EF940150245B
:10101C00C3E54F943CF8021049C3E54F9428F802FD
:10102C001049C3E54F941AF8021049C3E54F9412C6
:10103C00F8021049C3E54F940AF8021049E55094A0
:10104C0000F9884F895022305803021053227884BB
:10105C0076037885760478867609788F760378908F
:0E106C0076057895760278927603789B760D5D
:10107A007893760578877604789C76017888760165
:10108A007889760178827604788C7600788D760075
:10109A00788E76B478967625789776D0789876781A
:1010AA00789976C8789A7604789D7600227893E6BD
:1010BA00FF756409756501C3BF0209756405756525
:1010CA00010210FCC3BF03097564057565020210AD
:1010DA00FCC3BF04097564057565030210FCC3BF30
:1010EA000506756409756507C3BF0606756400754C
:1010FA0065007887E6FFC26CC3BF0302D26CC26B7D
:10110A00C3BF0402D26BC26A7418552D6002D26A38
:10111A00C26E6002D26ED26F6002C26FC2747888E9
:10112A00E630E102D274C2757889E630E102D275FE
:10113A00C3EF94026008758E01D26D02114D758E4F
:10114A0000C26D227880E61490008093789EF6782B
:10115A0081E61490008093789FF6120FDE22789B26
:10116A00E61490008D9378A0F6120FDE227886E6B8
:10117A001490009A9378A1F6120FDE22789CE61456
:10118A009000A79378A2F6789CE6149000AC937826
:10119A00A3F6120FDE22227896E6FA7897E6FB305B
:1011AA0076047A007BFFC3EB9AFCC3948250027CDC
:1011BA0082756C00056CEC856CF0A4C3E5F0948034
:1011CA0040F222C2D353D9BF7581C043FF801207B0
:1011DA004C75EF0243B203E5B324044002F5B3753C
:1011EA0080FF75A40075F1D475D4EF75908775A545
:1011FA004075F2FF75D5BF75A60175E24275DB46EB
:10120A0075EA02120FDEE4F8F6D8FD115A121769D0
:10121A0011B7314E31683177318631A031A17898D2
:10122A00866D8673120FDE75885075890275C8241B
:10123A0075910475D84012076012076F1207581289
:10124A00077512075812077B120758121CCD12078E
:10125A006012076012075C75A82275B80275E690DD
:10126A0075F610759B80759D0375D10E75BC587502
:10127A00BB0375BA1175E88012074CD2AF120A4D3A
:10128A0043DA01C2D8C269120760753001D2597AAD
:10129A0005E55770027A05120750E558C3940240D3
:1012AA00EEE52E540F855A59F55AB559E2DAE2C2DB
:1012BA005953DACF20750343DA2030750343DA1025
:1012CA00C2D8C26912075C1207507802740F552EF1
:1012DA0070027800C3E5589840EDC2AF12076F124A
:1012EA00076F12076FD2AF120760754700120750D7
:1012FA00788CE6C3940150030213C0E530C394010D
:10130A0050030213C0740F552E6035C3E55894FF7D
:10131A0050030213C0C2AF120781D2AF12075CC3D7
:10132A00E558940150EFC2AF12076F120754120723
:10133A006FD2AF12075CC3E55894FF40E9021D5211
:10134A007F05D27631A112075CC2AFC27631A1C342
:10135A00E558947FD2AF4068C2AF120781D2AFDF9F
:10136A00E1C3E55894057897F6120760121805123A
:10137A001CD57F0AD27631A112075CC2AFC2763180
:10138A00A1C3E558947FD2AF50E8C2AF12076F12DB
:10139A00075412076FD2AFDFDBE55824057896F6BB
:1013AA00120760121805121D0412075CC3E558944F
:1013BA00FF40F6021D52C3E558954740038558473A
:1013CA0012075CC3E5589401400241F7C2AF120705
:1013DA0081120781120781D2AF120760753000E4CB
:1013EA00F531F5320531E531F470360532789AE691
:1013FA007828146012785014600D78A01460087868
:10140A00F0146003753200C3E5329840141532783F
:10141A0099866DC2AF120781D2AF7898866D12078E
:10142A005C120750E5287008740F552E7002419718
:10143A00C3E558940640AD12075CE5287003021212
:10144A0097120FDEE4F522F523F524F525755CFFE6
:10145A007885865FF53FF540F541F542F543F56A33
:0E146A00F548F52BF52CF55B120B8D756A0815
:1014780075BB1012074C120AE5E5E820ECFBA8BD85
:10148800A9BEE97001F8886B120AE9756A0875BB8C
:10149800107895E630E0030214DE7887E6FE7602DF
:1014A80011B77887EEF6D261C2AF120B5B85225C6A
:1014B80085225DD2AFC26175250075620075630132
:1014C800D260D263753800120F49120F84120C09CA
:1014D800120B8D02160D7887E6FE76037893E6FDEB
:1014E800760511B77887EEF67893EDF6D260D2617B
:1014F800D26E120F49120F84120B5B12074C120E98
:101508005112074C12074C120E83120750120ECDBF
:10151800120750120750120F08120754120F4912DF
:10152800075012074CC261D262120AE5120AE91288
:101538000B5B756A0875BB10120F84120C02120C33
:101548007D120FEE1153120E51120C02120C7D1265
:101558000FEE1153120E83120C02120C7D120FEEB5
:101568001153120ECD120C02120C7D120FEE1153F4
:10157800120F08120C02120C7D120FEE1153120FEB
:1015880049120C02120C7D120FEEC3E54F9535E59A
:10159800509536400C1153C3E5589401508B0217EF
:1015A800391153C2627887E6FE760211B77887EE62
:1015B800F685225C855E5D855E2575620075630132
:1015C800D263753800C2AF207402C293307402C26D
:1015D80095207402C295307402C293742DD5E0FD33
:1015E800D2AF120F84120C09120C64120C7D120D6A
:1015F80001756A0075BB0302160D11B7120F8475C9
:101608006A0075BB03121DCC120D23120DAE120D0C
:10161800D612086A120DEA120E51120C09120C6445
:10162800120C7D120D01121DCC120D1A120DAE12E4
:101638000DD61208EA120DEA120E83120C09120CCA
:1016480064120C7D120D01121DCC120D23120DAE69
:10165800120DD612092A120DEA120ECD120C091219
:101668000C64120C7D120D01121DCC120D1A120DF4
:10167800AE120DD6120987120DEA120F08120C09C4
:10168800120C64120C7D120D01121DCC120D2312C6
:101698000DAE120DD61209EB120DEA120F49120CFB
:1016A80009120C64120C7D120D01121DCC120D1AB8
:1016B800120AE5120DAE120DD6120AE9120DEA123F
:1016C8000F84120C09120C64120C7D120D01306388
:1016D8002A755CFF755DFF756200756301C3E538A7
:1016E8009464400AC263D264753714021703C3E5D1
:1016F800589401400302160D021739306419E53772
:10170800147005C264021602F537C3E55894014007
:101718000302160D021739C3E55B94825013740F48
:10172800552E7004E5286009C3E53C94F05002C1C9
:101738000D120FDE7887E6FE760211B77887EEF68F
:10174800E4F522F523F524F525F55FC26012074C70
:10175800120FDE740F552E7006E52870024197614E
:10176800E9901A0D7820121C00E520B45A0CA31237
:101778001C00E520B4A50302178A115A12180502A5
:10178800180478827604901A077884121C00A3083B
:10179800121C00A308121C00A308121C00A30812A4
:1017A8001C00A308121C00A308A308A308121C000D
:1017B800A308A308A308121C00A308121C00A3086E
:1017C800A308121C00A308121C00A308A308121CDB
:1017D80000A308121C00A308121C00A308121C0076
:1017E800A308121C00A308121C00A308121C00A3C3
:1017F80008121C00A308121C00901A2122C2AF1262
:101808001C3F121C19901A00740A121C05A37403B9
:10181800121C05A37410121C05901A077884121C58
:1018280004A308121C04A308121C04A308121C0415
:10183800A308121C04A308121C04A308A308A308E5
:10184800121C04A308A308A308121C04A308121C52
:1018580004A308A308121C04A308121C04A308A3C9
:0F18680008121C04A308121C04A308121C04A3DA
:1018770008121C04A308121C04A308121C04A308C2
:10188700121C04A308121C04A308121C04121C52E5
:07189700121C30901A2122FF
:101A00000A0310FFFFFFFF0304090401015AA500A8
:101A1000FFFF0305FF0305FF0225D0FAFA040D01BD
:021A200000FFC5
:101A400023484B696E673335412320202020202016
:101A500023424C48454C4923463333302320202031
:101A60002020202020202020202020202020202076
:101C0000E493F622E6438F01538FFD75EF0275B71B
:101C1000A575B7F1F0538FFE22438F02438F0175F4
:101C2000EF0275B7A575B7F1901A0DF0538FFC222E
:101C3000901A0D745A9105901A0E74A59105227A86
:101C40003079D07820901A409100E520F709A3DA86
:101C5000F7227A3079D0901A40E7910509A3DAF992
:101C600022AB6EA86FBB01057984021CCABB0205BA
:101C70007985021CCABB03057995021CCABB040501
:101C80007986021CCABB0505798F021CCABB0605F2
:101C90007990021CCABB07057992021CCABB0805D1
:101CA000799B021CCABB09057993021CCABB0A05B1
:101CB0007987021CCABB0B05799C021CCABB0C05A8
:101CC0007988021CCA7989021CCAE8F7227C0512AD
:101CD0000760DCFB22C2AF12076F12077512077B89
:101CE00012078112075412076F12077512077B1231
:101CF000078112075412076F12077512077B12072C
:101D000081D2AF22C2AF12078112077B1207751270
:101D1000076F12075412078112077B12077512070B
:101D20006F12075412078112077B12077512076F93
:101D3000D2AF22AE6EAF6FC2AF12076F12076F1233
:101D4000076F120754DEF2120781120754DFF8D230
:101D5000AF2291D591CD91CD756E01756F017570E2
:101D600000B1337C05AD58120760C3ED955870F58E
:101D7000C3E55894014009C3E55894FF4032A18E51
:101D8000916112180591D5C2AF75EF1291CDDCD5D6
:101D90000570C3E5709403500280C691CD056FE5D0
:101DA0006E149000B193F808C3E56F98500280AEAE
:101DB00091CD91CD056EC3E56E940E5002809C12BC
:101DC000105A121805C2AF75EF1291CDE573C333E7
:101DD000F573E57433F57450066373016374F82288
:00000001FF
