:0300000002126782
:03000B000200C12F
:03002B00020400CC
:03005B000205AEED
:030073000205A4DF
:1000800002030406080C10182030406080020304AC
:1000900006080C101820304080FF0406080C1018C9
:1000A0002030406080A0C000000001010003020277
:1000B000010D0D040206020D0505050D06030502DE
:1000C00002C2AFC0D0C0E0205A0D302F02E473301E
:1000D000600280F90203EC306306D292D291D29092
:1000E000C0F0E573541FF572F48525F0A485F07116
:1000F000E57225F0D0F0F58AC25AE525F4700221A8
:10010000DF0561306013206A19758B00D0E0D0D014
:10011000D292D291D290D2AF32D292D291D29002D8
:1001200001CFD26EC26FE565601CC3E561149565B1
:100130004014C26ED26FC3E561956450030201CFD3
:100140007561000201CF206C14D292D291D29074CA
:1001500006D5E0FDD293D294D2950201CFD26FD2D0
:1001600092D291D290E53D20E23420E1127406D57E
:10017000E0FD207402D295307402D2930201CF20A8
:10018000E0127406D5E0FD207402D295307402D2DC
:10019000930201CF7406D5E0FDD2940201CF20E195
:1001A0001F20E00A7406D5E0FDD2940201CF740648
:1001B000D5E0FD207402D293307402D2950201CFB3
:1001C0007406D5E0FD207402D293307402D2957586
:1001D0008B00D0E0D0D0D292D291D290D2AF32D098
:1001E000E0D0D0D2AF3261ECE525600A207402C2C3
:1001F00092307402C290D29161ECE5256002C29106
:10020000207402D290307402D29261ECE525600A2B
:10021000207402C290307402C292207402D29230D2
:100220007402D29061EC207402C293307402C295C1
:10023000E525600A207402C292307402C2902074D4
:1002400002C295307402C293D29161EC207402C252
:1002500093307402C295207402C295307402C29326
:100260007406D5E0FDE525600A207402C292307460
:1002700002C290D29161EC207402C293307402C227
:1002800095E525600A207402C292307402C290C2C1
:1002900094D29161EC207402C293307402C295C270
:1002A000947406D5E0FDE525600A207402C2923000
:1002B0007402C290D29161ECC294E5256002C291B1
:1002C000207402C293307402C295207402D290301E
:1002D0007402D29261ECC294207402C29330740210
:1002E000C2957406D5E0FDE5256002C29120740236
:1002F000D290307402D29261ECC294E5256002C2C1
:1003000091207402C295307402C293207402D2907C
:10031000307402D29261ECC294207402C29530749F
:1003200002C2937406D5E0FDE5256002C2912074F7
:1003300002D290307402D29261EC207402C29530E5
:100340007402C293E525600A207402C290307402E0
:10035000C292C294207402D292307402D29061ECA4
:10036000207402C295307402C293C2947406D5E020
:10037000FDE525600A207402C290307402C292200A
:100380007402D292307402D29061EC207402C29551
:10039000307402C293E525600A207402C290307462
:1003A00002C292207402C293307402C29520740279
:1003B000D292307402D29061EC207402C2953074F3
:1003C00002C293207402C293307402C2957406D59F
:1003D000E0FDE525600A207402C290307402C292EA
:1003E000207402D292307402D29061ECE571F4F57F
:1003F0008A758B00756000D25AD0E0D0D0D2AF326F
:10040000C2AFC0D0C0E0D2D3C2CEE528600A740F1C
:10041000552E60491528815D78007900E58030759A
:1004200001F430E40278FF53DACF20750343DA2079
:1004300030750343DA10C2D8C269E580307501F423
:1004400030E40279FFC3E89970CE30590375284033
:10045000740F552E60037528408858D268E52960CE
:100460000415298170740F552E600543DA01C2D836
:0E04700020680281F5E558F8C268740F552E19
:10047E0060367982B70431C3E894F0400374F0F823
:10048E00E8C4540F28F87984B7030281B6C313C3A6
:10049E00138721200802C313200A06C3C898F881C7
:1004AE00B628F8500374FFF8C3E8955F5003E55F74
:1004BE00F8E52C54067030882230630AC3E5229585
:1004CE005C4003855C227882B6041CC3E522952429
:1004DE00401278A096400DE52426F5245009752487
:1004EE00FF0204F585222420CF09D0E0D0D0C2D35C
:1004FE00D2AF32C2CF7801E5286008740F552E7046
:10050E00021528C3E55894014005755B00A124E54A
:10051E005B046002055B7982B7020EE548601EC37C
:10052E00E522943240178547227982B7030FE548BA
:10053E00600BC3E52294324004798E8722C3E523F3
:10054E009522600840041523A15A0523D8C80562D8
:10055E00E56270021562D563347563017803C3E5F5
:10056E0062941E4028C3E562946450087801756356
:10057E000302058EC3E562949650057801756301FA
:10058E00E55DC3285005755DFFA19BF55DD0E0D0FC
:10059E00D0C2D3D2AF32C2AF53917FC258D2AF3294
:1005AE00C2AFC0D0C0E0C0F0D2D3A8FBA9FCC2D865
:1005BE00306902C11153DACF20750343DA1030755A
:1005CE000343DA20D269E580307501F420E402A1FC
:1005DE00E588268927E18A53DACF20750343DA208E
:1005EE0030750343DA10C2D8C269740F552E7002EB
:1005FE00E1707800E580307501F430E402E1708836
:10060E0058E17053DACF20750343DA203075034377
:10061E00DA10C269205902C1BA53DACF20750343EA
:10062E00DA1030750343DA20C2D8D2698853895460
:10063E00C3E89551F8E99552F9E4FB7AFAC3E894C8
:10064E0068E994015008E4D2E3FB7A0FC18DC3E848
:10065E0094D0E994025008E4D2E2FB7A1EC18DC315
:10066E00E894A0E994055008E4D2E1FB7A3CC18DF0
:10067E00C3E89498E994085006E4D2E0FB7A78C374
:10068E00E89555FCE99556FD30E708ECF42401FC9D
:10069E00EDF4FD7557007008C3EC9A5003755701C1
:1006AE0088558956A853A95488518952C3E895266E
:1006BE00F8E99527F9307302E154307202E14DE901
:1006CE00C313F9E813F8307102E14DE9C313F9E8E9
:1006DE0013F8307002E14DE9C313FDE813FC205905
:1006EE0018C3EC941CED94024003020770ED7009E0
:1006FE00C3EC94C8500302078A74002076037896E0
:10070E00E624FAFEE43400FFC3EC9EFCED9FFD50A0
:10071E000678007900E154C3EC94FFED9400400696
:10072E0078FF7900E154EC856CF0A4C5F0A2F733A4
:10073E00F87900400302075F78FF790002075FE94E
:10074E00C313F9E813F8C3E894FFE9940040027864
:10075E00FF8858D268205902E170740FF4552E4B61
:10076E00F52E752840740F552E700375280A3059D2
:10077E0002E18A740F552E600353DAFE7529207438
:10078E000F552E700375290AD0F0D0E0D0D0C2D309
:10079E00D2AF327901E1B97903E1B9790AE1B979D8
:1007AE001EE1B97964E1B979C8E1B97817E4D5E009
:1007BE00FDD8FAD9F6227A147B78E1DC7A107B8C9C
:1007CE00E1DC7A0D7BB4E1DC7A0B7BC8E1DCAC2595
:1007DE007525017902B274E4C294D5E0FDE5256079
:1007EE0002C291D5E0FDD291D5E0FDD294D5E0FDC7
:1007FE00E525600A207402C292307402C290E56D43
:10080E00D5E0FD207402D292307402D2907496D547
:10081E00E0FDD9C1EAF8D5E0FDD8FBDBB1C2948C7E
:10082E002522C37C007D0075F00005F0EA33FAEB5B
:10083E0033FB50F6EB13FBEA13FAC3E9FFE8FEE8CD
:10084E009AF8E99BF95004EFF9EEF8B3EC33FCEDAE
:10085E0033FDD5F0DFEDF9ECF822E889F08A20D2ED
:0F086E00D4F8A9F07B0030F70B7BFFF42401F8DE
:10087D00E9F43400F9E88520F0A4ADF0F8E985201D
:10088D00F0A4AFF0FEED2EF974003FFA7C04C3EA3C
:10089D0013FAE913F9E813F8DCF48BF030F70AE8F2
:1008AD00F42401F8E9F43400F9E889F0C2D4F8A988
:1008BD00F0227882B6040302093EC3E55894014044
:1008CD0018E548702A7805C37994B702027812C3E7
:1008DD00E53B9400E53C984013852224E4F53FF573
:1008ED0040F541F542F543F54802093E754801C30F
:1008FD007994E79402601BE523F43333F913F8E997
:10090D00540104F9E854FEC39440F8E99400F90247
:10091D00093AE523F433333333F913F8E954070473
:10092D0004F9E854F8C39440F8E99400F9883F8934
:10093D004022E548603BC3E53C13F9E53B13F8C3A2
:10094D00E53F98F8E54099F9500CC3E89480E99497
:10095D00FF401602097AC3E8947FE9940050030220
:10096D00097A787F790002097A788079FF8844893D
:10097D004522E5486058E5442541F8E5453542F9FD
:10098D00854520E4300701F43543FA30E709C3EA21
:10099D0094F040150209BCC3EA940F50030209BC40
:1009AD0078FF79FF7A0F0209BC780079007AF0C3DD
:1009BD00E524955C5006E524600921D5E54520E741
:1009CD000D21D5E54530E706884189428A4322E568
:1009DD00487003020A3F789EE6FAC3E54433F8E512
:1009ED004533F91168E930E70BC3E89480E994FFCA
:1009FD0040134116C3E8947FE994005002411678E4
:100A0D007F79004116788079FFE820E715C3E5234B
:100A1D0098F84009C3E894014003020A3D780102A9
:100A2D000A3DE8F424012523F84003020A3D78FF2E
:100A3D00884622E5487003020AA1789FE6FAA8428B
:100A4D00A9431168E930E70CC3E89401E994FF402C
:100A5D0016020A78C3E894FFE994005003020A785D
:100A6D0078FF7900020A78780179FFE920E715C34C
:100A7D00E54698F84009C3E894014003020A9F78BF
:100A8D0000020A9FE8F424012546F84003020A9F5C
:100A9D0078FF8824227883E6F520120FE175E8901F
:100AAD00E5E820ECF0A8BDA9BE1210767568AF750B
:100ABD006900C3740013FD74AF13FC74AF2CFC7488
:100ACD00003DFDECFAEDFBC3E89AE99B4014E568A7
:100ADD0024AFF568E5693400F569EA2CFAEB3DFBC6
:100AED0080E5AE68AF69C3E56913F9E56813F8C32E
:100AFD00E913F9E813F8E56828F566E56939F5674E
:100B0D007A03C3E913F9E813F8DAF7AA201A700982
:100B1D00756800756900020B361AEA6008EE28FE4A
:100B2D00EF39FFDAF88E688F692275E890227883A5
:100B3D00E6FFE5E820ECF7A8BDA9BE056AC3E56AA6
:100B4D0094084052756A00E97007E56B601B020B53
:100B5D006AC3E8956B6010E56B5006600C14020BD0
:100B6D00760460F9020B76E56BF56BC39458F8408B
:100B7D0021755CC0C3E89404F84017755C80C3E828
:100B8D009404F8400D755C40C3E89404F840037577
:100B9D005C0075BB0322EFC39401601BC3E894FF97
:100BAD00E994035012C3E89568E995695009E55C2D
:100BBD00600C155C020BCBE55CF46002055CA85C77
:100BCD00C3E524985002A8248825C3E525955D40EA
:100BDD000B855D25E55DF46003855D5CC3E56AB459
:100BED00070375BB102230610278323062027850F3
:100BFD00E52C54066021E879A187F0A4C5F0A2F791
:100C0D0033F8C3E8955C4002A85C882288248825C7
:100C1D00306104C3E8F55E22788FE6FFC3EF9405DB
:100C2D005018C3EF94045020C3EF94035028C3EF22
:100C3D0094025030C3EF940150387533A075340FC2
:100C4D0075353C753605818D7533C0753412753526
:100C5D0040753606818D7533707534177535D075C1
:0D0C6D003607818D75334C75341D7535C407
:100C7A00753609818D7533287534237535B87536FF
:100C8A000B818D85334F853450753B00753C0822A6
:100C9A00A84FA950020CA5A849A94A759100C3E416
:100CAA0098F594E499F595759104D25875C820A8D9
:100CBA00CCA9CD75C824AA39AB3A8839893AC3E890
:100CCA009AF8E99BF9AA3BAB3CC3EB13FDEA13FC88
:100CDA00C3ED13FDEC13FCC3EA9CFAEB9DFBEA2877
:100CEA00FAEB39FB8A3B8B3C400122753BFF753C92
:100CFA00FF2230580281FC759100C3E4954BF594AC
:100D0A00E4954CF595759104D258227892E6FF7EC7
:100D1A0010305B027F053063047F037E00A93CA884
:100D2A003B7A04C3E913F9E813F8DAF7C3E89EF843
:100D3A00E99400F94009C3E89402E9940050047860
:100D4A0002E4F9E9FBE8FAC3E913FDE813FCC3EF8F
:100D5A009403602EEF20E00DE82CF8E93DF9ECFA57
:100D6A00EDFB020D79E828F8E939F97A02E4FBC3C8
:100D7A00EF9403400D8A4D8B4E8849894A8C4B8DDE
:100D8A004C22884D894E8A498B4A8C4B8D4C223095
:100D9A005802A199759100C3E4953BF594E4953CFA
:100DAA00F595759104D25822753E00752000020D02
:100DBA00C1753E00752040D2AF053E20580122750C
:100DCA009D00E53CC313C313F8086030306A06C3BC
:100DDA0013C313F808C3E8940A4002780A306D086E
:100DEA00C3E8940440027804C3E53C9408400D75B6
:100DFA009D02C3E53C94104003759D03205803D21D
:100E0A00AF22791E206D02790AD2AF0000C2AF204C
:100E1A005A0A793C206D027914306FE03063027906
:100E2A0078C3E58B9920630240F740D0E59BF4F440
:100E3A005440B52002A1C1D8C3D2AF22C25B789C6C
:100E4A00E6146007E53E147002D25B30630B053886
:100E5A00205810753800020E6D205807158115812B
:100E6A000217D722759100C3E4954DF594E4954E87
:100E7A00F595759104D25822AE25305B4F78A3E6DA
:100E8A00FFBF010BD25C752500D292D291D290B1EC
:100E9A0001305C03752500305802C19BBF020BD29A
:100EAA005C752500D292D291D29078A2B6010DB18A
:100EBA0001305C03752500305802C1BBBF030BD259
:100ECA005C752500D292D291D290D16E305C0375B6
:100EDA002500305802C1D6305B04C25C8E2522C27E
:100EEA00AFC294206A03020F08900360306E0F208D
:100EFA007402C295307402C2937406D5E0FD207460
:100F0A0002D293307402D295759F10753D02D2AF0A
:100F1A0022C2AF206A03020F3D900317306E17C238
:100F2A0094207402C295307402C2937406D5E0FD0F
:100F3A00020F409001FA207402D290307402D292C9
:100F4A00305A06E5256002C291207403759F20304D
:100F5A007403759F00753D03D2AF22C2AF2074029D
:100F6A00C293307402C295206A03020F849002D69B
:100F7A00306E07C2947406D5E0FD207402D2953013
:100F8A007402D293207403759F00307403759F20F6
:100F9A00753D04D2AF22C2AF206A03020FC290028B
:100FAA0095306E17207402C293307402C295C294AF
:100FBA007406D5E0FD020FC59001E8D291305A0EB1
:100FCA00E525600A207402C292307402C290759FAD
:100FDA0010753D05D2AF22C2AF207402C29530749B
:100FEA0002C293206A0302100890024C306E0F204E
:100FFA007402C293307402C2957406D5E0FDD2948D
:10100A00207403759F20307403759F00753D06D2C6
:10101A00AF22C2AF206A030210469003B9306E1F96
:10102A00207402C293307402C295207402C29530B1
:10103A007402C2937406D5E0FD02104990020C2096
:10104A007402D292307402D290305A0EE525600AA8
:10105A00207402C290307402C292207403759F00F9
:0F106A00307403759F20753D01D2AF229001E6CF
:10107900D292D291D290C293C294C29522C3E54F23
:101089009535E55095365001227890E6FFC3EF94E7
:10109900055018C3EF9404501BC3EF9403501EC3AB
:1010A900EF94025021C3EF94015024C3E54F943CBF
:1010B900F80210E1C3E54F9428F80210E1C3E54FA7
:1010C900941AF80210E1C3E54F9412F80210E1C333
:1010D900E54F940AF80210E1E5509400F9884F8928
:1010E90050223058030210EB2278807607788176F7
:1010F9000778827601789476017883760478867603
:101109000A788F76037890760178957602789276C8
:1011190003789B760D7893760178877602789C76AA
:1011290001788876017889760178857600788C76D9
:1011390000788D7600788E76B478967625789776CD
:10114900D078987678789976C8789A7604789D7662
:1011590000227893E6FF756409756501C3BF02092A
:101169007564057565010211A0C3BF03097564059E
:101179007565020211A0C3BF04097564057565038D
:101189000211A0C3BF0506756409756507C3BF06CB
:10119900067564007565007887E6FFC26CC3BF03F6
:1011A90002D26CC26BC26A7418552D6002D26AC22F
:1011B9006E6002D26ED26F6002C26FC2747888E626
:1011C90030E102D274C2757889E630E102D275C382
:1011D900EF94026008758E01D26D0211EB758E00D5
:1011E900C26D227880E61490008093789EF678810B
:1011F900E61490008093789FF6117622789BE61486
:1012090090008D9378A0F61176227886E6149000E6
:101219009A9378A1F6117622789CE6149000A79308
:1012290078A2F6789CE6149000AC9378A3F6117630
:1012390022227896E6FA7897E6FB3076047A007BE4
:10124900FFC3EB9AFCC3948250027C82756C000543
:101259006CEC856CF0A4C3E5F0948040F222C2D313
:1012690053D9BF7581C043FF801207A175EF0243AF
:10127900B203E5B324044002F5B37580FF75A400F9
:1012890075F1D475D4EF75908775A54075F2FF7522
:10129900D5BF75A60175E24275DB4675EA0211767E
:1012A900E4F8F6D8FD11F2121821315B31EC510541
:1012B90051135121513A513B7898866D86731176B5
:1012C90075885075890275C82475910475D84012BE
:1012D90007B51207C41207AD1207CA1207AD1207E4
:1012E900D01207AD121CE51207B51207B51207B1E6
:1012F90075A82275B80275E69075F610759B80750C
:101309009D0375D10E75BC5875BB0375BA1175E887
:10131900801207A1D2AF120AA243DA01C2D8C26968
:101329001207B5753001D2597A05E55770027A0569
:101339001207A5E558C3940240EEE52E540F855ACD
:1013490059F55AB559E2DAE2C25953DACF20750391
:1013590043DA2030750343DA10C2D8C2691207B1E3
:101369001207A57802740F552E70027800C3E5584C
:101379009840EDC2AF1207C41207C41207C4D2AF16
:101389001207B57547001207A5788CE6C39401507A
:1013990003021458E530C394015003021458740F22
:1013A900552E6035C3E55894FF5003021458C2AF57
:1013B9001207D6D2AF1207B1C3E558940150EFC254
:1013C900AF1207C41207A91207C4D2AF1207B1C3DB
:1013D900E55894FF40E9021D6A7F05D276513B1218
:1013E90007B1C2AFC276513BC3E558947FD2AF4033
:1013F90068C2AF1207D6D2AFDFE1C3E558940578CA
:1014090097F61207B51218D1121CED7F0AD2765140
:101419003B1207B1C2AFC276513BC3E558947FD2A4
:10142900AF50E8C2AF1207C41207A91207C4D2AF5E
:10143900DFDBE55824057896F61207B51218D112A4
:101449001D1C1207B1C3E55894FF40F6021D6AC37B
:10145900E558954740038558471207B1C3E55894A5
:0D146900014002618FC2AF1207D61207D6F4
:101476001207D6D2AF1207B5753000E4F531F53252
:101486000531E531F470360532789AE6782814602D
:1014960012785014600D78A014600878F014600378
:1014A600753200C3E53298401415327899866DC2BC
:1014B600AF1207D6D2AF7898866D1207B11207A57C
:1014C600E5287008740F552E7002612FC3E55894F5
:1014D6000640AD1207B1E528700302132F1176E41A
:1014E600F522F523F524F525755CFF7885865FF5ED
:1014F6003FF540F541F542F543F56AF548F52BF51C
:101506002CF55B120C25756A0875BB101207A11223
:101516000B37E5E820ECFBA8BDA9BEE97001F88809
:101526006B120B3B756A0875BB107895E630E003C5
:101536000215747887E6FE7602315B7887EEF6D27E
:1015460061C2AF120BF385225C85225DD2AFC26108
:10155600752500756200756301D260D26375380027
:10156600120FE1111C120CA1120C25021699788794
:10157600E6FE76037893E6FD7605315B7887EEF630
:101586007893EDF6D260D261D26E120FE1111C1281
:101596000BF31207A1120EE91207A11207A1120FEF
:1015A6001B1207A5120F651207A51207A5120FA099
:1015B6001207A9120FE11207A51207A1C261D26292
:1015C600120B37120B3B120BF3756A0875BB101121
:1015D6001C120C9A120D15118611EB120EE9120C43
:1015E6009A120D15118611EB120F1B120C9A120D81
:1015F60015118611EB120F65120C9A120D15118634
:1016060011EB120FA0120C9A120D15118611EB1286
:101616000FE1120C9A120D151186C3E54F9535E5AB
:10162600509536400C11EBC3E558940150920217C1
:10163600D711EBC2627887E6FE7602315B7887EED9
:10164600F685225C855E5D855E25756200756301A3
:10165600D263753800C2AF207402C293307402C2DE
:1016660095207402C295307402C293742DD5E0FDA4
:10167600D2AF111C120CA1120CFC120D15120D99F1
:10168600756A0075BB03021699315B111C756A00F9
:1016960075BB03121DE4120DBB120E46120E6E121E
:1016A60008BF120E82120EE9120CA1120CFC120DCA
:1016B60015120D99121DE4120DB2120E46120E6E7F
:1016C60012093F120E82120F1B120CA1120CFC12F1
:1016D6000D15120D99121DE4120DBB120E46120EB7
:1016E6006E12097F120E82120F65120CA1120CFCEB
:1016F600120D15120D99121DE4120DB2120E46129C
:101706000E6E1209DC120E82120FA0120CA1120C20
:10171600FC120D15120D99121DE4120DBB120E4688
:10172600120E6E120A40120E82120FE1120CA11254
:101736000CFC120D15120D99121DE4120DB2120BAE
:1017460037120E46120E6E120B3B120E82111C122F
:101756000CA1120CFC120D15120D9930632A855E30
:101766005C855E5D756200756301C3E5389464400F
:101776000AC263D26475371402178EC3E558940102
:1017860040030216990217D7306419E5371470051D
:10179600C26402168FF537C3E5589401400302165A
:1017A600990217D7C3E55B9401400C855E5C855EA4
:1017B6005D7562FF756301C3E55B94FA5013740FA0
:1017C600552E7004E5286009C3E53C94F05002C12B
:1017D6009911767887E6FE7602315B7887EEF6E435
:1017E600F522F523F524F525F55FC2601207A11150
:1017F60076740F552E7007E528700302132F78951F
:10180600E630E009121CE5121CE5121CE5788DE6AF
:10181600C394014003021369021481901A0D7820C3
:10182600121C00E520B4A50CA3121C00E520B45A36
:10183600030218431210F21218D10218D0901A039C
:101846007880121C00A308121C00A308121C00A317
:1018560008121C00A308A308A308121C00A3081260
:0F1866001C00A308121C00A308121C00A308A357
:1018750008A308121C00A308121C00A308121C00D0
:10188500A308121C00A308121C00A308A308121C1D
:1018950000A308121C00A308121C00A308121C00B8
:1018A500A308121C00A308121C00A308121C00A305
:1018B50008121C00A308121C00A308121C00A30890
:1018C500121C00A308121C00901A2122C2AF121C80
:1018D5003F121C19901A00740A121C05A3740312F6
:1018E5001C05A37410121C05901A037880121C04A1
:1018F500A308121C04A308121C04A308121C04A3A9
:1019050008A308A308121C04A308121C04A30812A8
:101915001C04A308121C04A308A308A308121C0492
:10192500A308121C04A308121C04A308121C04A378
:1019350008121C04A308A308121C04A308121C0403
:10194500A308121C04A308121C04A308121C04A358
:1019550008121C04A308121C04A308121C04A308E3
:10196500121C04A308121C04A308121C04A30812C9
:0C1975001C04121C52121C30901A21227B
:101A00000A031007070104FFFF0A020101A55A009B
:101A100000B40301FF0301010225D078C8040D01C1
:021A200000FFC5
:101A400023484B696E67323041232020202020201C
:101A500023424C48454C4923463333302320202031
:101A60002020202020202020202020202020202076
:101C0000E493F622E6438F01538FFD75EF0275B71B
:101C1000A575B7F1F0538FFE22438F02438F0175F4
:101C2000EF0275B7A575B7F1901A0DF0538FFC222E
:101C3000901A0D74A59105901A0E745A9105227A86
:101C40003079D07820901A409100E520F709A3DA86
:101C5000F7227A3079D0901A40E7910509A3DAF992
:101C600022AB6EA86FBB01057980021CE2BB0205A6
:101C70007981021CE2BB03057982021CE2BB0405E8
:101C80007994021CE2BB05057983021CE2BB0605C0
:101C90007995021CE2BB07057986021CE2BB0805A8
:101CA000798F021CE2BB09057990021CE2BB0A0590
:101CB0007992021CE2BB0B05799B021CE2BB0C056E
:101CC0007993021CE2BB0D057987021CE2BB0E056D
:101CD000799C021CE2BB0F057988021CE27989021B
:101CE0001CE2E8F7227C051207B5DCFB22C2AF122A
:101CF00007C41207CA1207D01207D61207A9120783
:101D0000C41207CA1207D01207D61207A91207C4B5
:101D10001207CA1207D01207D6D2AF22C2AF1207DB
:101D2000D61207D01207CA1207C41207A91207D683
:101D30001207D01207CA1207C41207A91207D61237
:101D400007D01207CA1207C4D2AF22AE6EAF6FC25D
:101D5000AF1207C41207C41207C41207A9DEF21299
:101D600007D61207A9DFF8D2AF2291ED91E591E5F0
:101D7000756E01756F01757000B14B7C05AD581221
:101D800007B5C3ED955870F5C3E55894014009C3F4
:101D9000E55894FF4032A1A691611218D191EDC28D
:101DA000AF75EF1291E5DCD50570C3E57094035073
:101DB0000280C691E5056FE56E149000B193F808B6
:101DC000C3E56F98500280AE91E591E5056EC3E5DD
:101DD0006E94115002809C1210F21218D1C2AF758D
:101DE000EF1291E5E573C333F573E57433F5745081
:081DF000066373016374F8221D
:00000001FF
