:0300000002126683
:03000B000200C12F
:03002B00020400CC
:03005B000205AEED
:030073000205A4DF
:1000800002030406080C10182030406080020304AC
:1000900006080C101820304080FF0406080C1018C9
:1000A0002030406080A0C000000001010003020277
:1000B000010D0D040206020D0505050D06030502DE
:1000C00002C2AFC0D0C0E0205A0D302F02E473301E
:1000D000600280F90203EC306306D297D295D29386
:1000E000C0F0E573541FF572F48525F0A485F07116
:1000F000E57225F0D0F0F58AC25AE525F4700221A8
:10010000DF0561306013206A19758B00D0E0D0D014
:10011000D297D295D293D2AF32D297D295D29302C0
:1001200001CFD26EC26FE565601CC3E561149565B1
:100130004014C26ED26FC3E561956450030201CFD3
:100140007561000201CF206C14D297D295D29374BE
:1001500006D5E0FDD296D294D2920201CFD26FD2D0
:1001600097D295D293E53D20E23420E1127406D572
:10017000E0FD207402D292307402D2960201CF20A8
:10018000E0127406D5E0FD207402D292307402D2DF
:10019000960201CF7406D5E0FDD2940201CF20E192
:1001A0001F20E00A7406D5E0FDD2940201CF740648
:1001B000D5E0FD207402D296307402D2920201CFB3
:1001C0007406D5E0FD207402D296307402D2927586
:1001D0008B00D0E0D0D0D297D295D293D2AF32D08C
:1001E000E0D0D0D2AF3261ECE525600A207402C2C3
:1001F00097307402C293D29561ECE5256002C295F6
:10020000207402D293307402D29761ECE525600A23
:10021000207402C293307402C297207402D29730C5
:100220007402D29361EC207402C296307402C292BE
:10023000E525600A207402C297307402C2932074CC
:1002400002C292307402C296D29561EC207402C24E
:1002500096307402C292207402C292307402C29626
:100260007406D5E0FDE525600A207402C29730745B
:1002700002C293D29561EC207402C296307402C21D
:1002800092E525600A207402C297307402C293C2BC
:1002900094D29561EC207402C296307402C292C26C
:1002A000947406D5E0FDE525600A207402C29730FB
:1002B0007402C293D29561ECC294E5256002C295A6
:1002C000207402C296307402C292207402D293301B
:1002D0007402D29761ECC294207402C29630740208
:1002E000C2927406D5E0FDE5256002C29520740235
:1002F000D293307402D29761ECC294E5256002C2B9
:1003000095207402C292307402C296207402D29375
:10031000307402D29761ECC294207402C29230749D
:1003200002C2967406D5E0FDE5256002C2952074F0
:1003300002D293307402D29761EC207402C29230E0
:100340007402C296E525600A207402C293307402DA
:10035000C297C294207402D297307402D29361EC97
:10036000207402C292307402C296C2947406D5E020
:10037000FDE525600A207402C293307402C2972002
:100380007402D297307402D29361EC207402C2924C
:10039000307402C296E525600A207402C29330745C
:1003A00002C297207402C296307402C29220740274
:1003B000D297307402D29361EC207402C2923074EE
:1003C00002C296207402C296307402C2927406D59C
:1003D000E0FDE525600A207402C293307402C297E2
:1003E000207402D297307402D29361ECE571F4F577
:1003F0008A758B00756000D25AD0E0D0D0D2AF326F
:10040000C2AFC0D0C0E0D2D3C2CEE528600A740F1C
:10041000552E60491528815D78007900E58030759A
:1004200001F430E50278FF53DACF20750343DA2078
:1004300030750343DA10C2D8C269E580307501F423
:1004400030E50279FFC3E89970CE30590375284032
:10045000740F552E60037528408858D268E52960CE
:100460000415298170740F552E600543DA01C2D836
:0E04700020680281F5E558F8C268740F552E19
:10047E0060367982B70431C3E894F0400374F0F823
:10048E00E8C4540F28F87984B7030281B6C313C3A6
:10049E00138721200802C313200A06C3C898F881C7
:1004AE00B628F8500374FFF8C3E8955F5003E55F74
:1004BE00F8E52C54067030882230630AC3E5229585
:1004CE005C4003855C227882B6041CC3E522952429
:1004DE00401278A096400DE52426F5245009752487
:1004EE00FF0204F585222420CF09D0E0D0D0C2D35C
:1004FE00D2AF32C2CF7801E5286008740F552E7046
:10050E00021528C3E55894014005755B00A124E54A
:10051E005B046002055B7982B7020EE548601EC37C
:10052E00E522943240178547227982B7030FE548BA
:10053E00600BC3E52294324004798E8722C3E523F3
:10054E009522600840041523A15A0523D8C80562D8
:10055E00E56270021562D563347563017803C3E5F5
:10056E0062941E4028C3E562946450087801756356
:10057E000302058EC3E562949650057801756301FA
:10058E00E55DC3285005755DFFA19BF55DD0E0D0FC
:10059E00D0C2D3D2AF32C2AF53917FC258D2AF3294
:1005AE00C2AFC0D0C0E0C0F0D2D3A8FBA9FCC2D865
:1005BE00306902C11153DACF20750343DA1030755A
:1005CE000343DA20D269E580307501F420E502A1FB
:1005DE00E588268927E18A53DACF20750343DA208E
:1005EE0030750343DA10C2D8C269740F552E7002EB
:1005FE00E1707800E580307501F430E502E1708835
:10060E0058E17053DACF20750343DA203075034377
:10061E00DA10C269205902C1BA53DACF20750343EA
:10062E00DA1030750343DA20C2D8D2698853895460
:10063E00C3E89551F8E99552F9E4FB7AFAC3E894C8
:10064E0068E994015008E4D2E3FB7A0FC18DC3E848
:10065E0094D0E994025008E4D2E2FB7A1EC18DC315
:10066E00E894A0E994055008E4D2E1FB7A3CC18DF0
:10067E00C3E89498E994085006E4D2E0FB7A78C374
:10068E00E89555FCE99556FD30E708ECF42401FC9D
:10069E00EDF4FD7557007008C3EC9A5003755701C1
:1006AE0088558956A853A95488518952C3E895266E
:1006BE00F8E99527F9307302E154307202E14DE901
:1006CE00C313F9E813F8307102E14DE9C313F9E8E9
:1006DE0013F8307002E14DE9C313FDE813FC205905
:1006EE0018C3EC941CED94024003020770ED7009E0
:1006FE00C3EC94C8500302078A74002076037896E0
:10070E00E624FAFEE43400FFC3EC9EFCED9FFD50A0
:10071E000678007900E154C3EC94FFED9400400696
:10072E0078FF7900E154EC856CF0A4C5F0A2F733A4
:10073E00F87900400302075F78FF790002075FE94E
:10074E00C313F9E813F8C3E894FFE9940040027864
:10075E00FF8858D268205902E170740FF4552E4B61
:10076E00F52E752840740F552E700375280A3059D2
:10077E0002E18A740F552E600353DAFE7529207438
:10078E000F552E700375290AD0F0D0E0D0D0C2D309
:10079E00D2AF327901E1B97903E1B9790AE1B979D8
:1007AE001EE1B97964E1B979C8E1B97817E4D5E009
:1007BE00FDD8FAD9F6227A147B78E1DC7A107B8C9C
:1007CE00E1DC7A0D7BB4E1DC7A0B7BC8E1DCAC2595
:1007DE007525017902B274E4C294D5E0FDE5256079
:1007EE0002C295D5E0FDD295D5E0FDD294D5E0FDBF
:1007FE00E525600A207402C297307402C293E56D3B
:10080E00D5E0FD207402D297307402D2937496D53F
:10081E00E0FDD9C1EAF8D5E0FDD8FBDBB1C2948C7E
:10082E002522C37C007D0075F00005F0EA33FAEB5B
:10083E0033FB50F6EB13FBEA13FAC3E9FFE8FEE8CD
:10084E009AF8E99BF95004EFF9EEF8B3EC33FCEDAE
:10085E0033FDD5F0DFEDF9ECF822E889F08A20D2ED
:0F086E00D4F8A9F07B0030F70B7BFFF42401F8DE
:10087D00E9F43400F9E88520F0A4ADF0F8E985201D
:10088D00F0A4AFF0FEED2EF974003FFA7C04C3EA3C
:10089D0013FAE913F9E813F8DCF48BF030F70AE8F2
:1008AD00F42401F8E9F43400F9E889F0C2D4F8A988
:1008BD00F0227882B6040302093EC3E55894014044
:1008CD0018E548702A7805C37994B702027812C3E7
:1008DD00E53B9400E53C984013852224E4F53FF573
:1008ED0040F541F542F543F54802093E754801C30F
:1008FD007994E79402601BE523F43333F913F8E997
:10090D00540104F9E854FEC39440F8E99400F90247
:10091D00093AE523F433333333F913F8E954070473
:10092D0004F9E854F8C39440F8E99400F9883F8934
:10093D004022E548603BC3E53C13F9E53B13F8C3A2
:10094D00E53F98F8E54099F9500CC3E89480E99497
:10095D00FF401602097AC3E8947FE9940050030220
:10096D00097A787F790002097A788079FF8844893D
:10097D004522E5486058E5442541F8E5453542F9FD
:10098D00854520E4300701F43543FA30E709C3EA21
:10099D0094F040150209BCC3EA940F50030209BC40
:1009AD0078FF79FF7A0F0209BC780079007AF0C3DD
:1009BD00E524955C5006E524600921D5E54520E741
:1009CD000D21D5E54530E706884189428A4322E568
:1009DD00487003020A3F789EE6FAC3E54433F8E512
:1009ED004533F91168E930E70BC3E89480E994FFCA
:1009FD0040134116C3E8947FE994005002411678E4
:100A0D007F79004116788079FFE820E715C3E5234B
:100A1D0098F84009C3E894014003020A3D780102A9
:100A2D000A3DE8F424012523F84003020A3D78FF2E
:100A3D00884622E5487003020AA1789FE6FAA8428B
:100A4D00A9431168E930E70CC3E89401E994FF402C
:100A5D0016020A78C3E894FFE994005003020A785D
:100A6D0078FF7900020A78780179FFE920E715C34C
:100A7D00E54698F84009C3E894014003020A9F78BF
:100A8D0000020A9FE8F424012546F84003020A9F5C
:100A9D0078FF8824227883E6F520120FE075E89020
:100AAD00E5E820ECF0A8BDA9BE1210757568557566
:100ABD006900C3740013FD745513FC74552CFC743C
:100ACD00003DFDECFAEDFBC3E89AE99B4014E568A7
:100ADD002455F568E5693400F569EA2CFAEB3DFB20
:100AED0080E5AE68AF69C3E56913F9E56813F8C32E
:100AFD00E913F9E813F8E56828F566E56939F5674E
:100B0D007A03C3E913F9E813F8DAF7AA201A700982
:100B1D00756800756900020B361AEA6008EE28FE4A
:100B2D00EF39FFDAF88E688F692275E890227883A5
:100B3D00E6FFE5E820ECF7A8BDA9BE056AC3E56AA6
:100B4D0094084052756A00E97007E56B601B020B53
:100B5D006AC3E8956B6010E56B5006600C14020BD0
:100B6D00760460F9020B76E56BF56BC3946DF84076
:100B7D0021755CC0C3E89404F84017755C80C3E828
:100B8D009404F8400D755C40C3E89404F840037577
:100B9D005C0075BB0822EFC39401601BC3E894FF92
:100BAD00E994035012C3E89568E995695009E55C2D
:100BBD00600C155C020BCBE55CF46002055CA85C77
:100BCD00C3E524985002A8248825C3E525955D40EA
:100BDD000B855D25E55DF46003855D5CC3E56AB459
:100BED00070375BB102230610278323062027850F3
:100BFD00E52C54066021E879A187F0A4C5F0A2F791
:100C0D0033F8C3E8955C4002A85C882288248825C7
:100C1D00306104C3E8F55E22788FE6FFC3EF9405DB
:100C2D005018C3EF94045020C3EF94035028C3EF22
:100C3D0094025030C3EF940150387533A075340FC2
:100C4D0075353C753605818D7533C0753412753526
:100C5D0040753606818D7533707534177535D075C1
:0D0C6D003607818D75334C75341D7535C407
:100C7A00753609818D7533287534237535B87536FF
:100C8A000B818D85334F853450753B00753C0822A6
:100C9A00A84FA950020CA5A849A94A759100C3E416
:100CAA0098F594E499F595759104D25875C820A8D9
:100CBA00CCA9CD75C824AA39AB3A8839893AC3E890
:100CCA009AF8E99BF9AA3BAB3CC3EB13FDEA13FC88
:100CDA00C3ED13FDEC13FCC3EA9CFAEB9DFBEA2877
:100CEA00FAEB39FB8A3B8B3C400122753BFF753C92
:100CFA00FF2230580281FC759100C3E4954BF594AC
:100D0A00E4954CF595759104D258227892E6FF7EC7
:100D1A0010305B027F053063047F037E00A93CA884
:100D2A003B7A04C3E913F9E813F8DAF7C3E89EF843
:100D3A00E99400F94009C3E89402E9940050047860
:100D4A0002E4F9E9FBE8FAC3E913FDE813FCC3EF8F
:100D5A009403602EEF20E00DE82CF8E93DF9ECFA57
:100D6A00EDFB020D79E828F8E939F97A02E4FBC3C8
:100D7A00EF9403400D8A4D8B4E8849894A8C4B8DDE
:100D8A004C22884D894E8A498B4A8C4B8D4C223095
:100D9A005802A199759100C3E4953BF594E4953CFA
:100DAA00F595759104D25822753E00752000020D02
:100DBA00C1753E00752040D2AF053E20580122750C
:100DCA009D00E53CC313C313F8086030306A06C3BC
:100DDA0013C313F808C3E8940A4002780A306D086E
:100DEA00C3E8940440027804C3E53C9408400D75B6
:100DFA009D02C3E53C94104003759D03205803D21D
:100E0A00AF227918206D027908D2AF0000C2AF2054
:100E1A005A0A7914206D027907306FE0306302793B
:100E2A0078C3E58B9920630240F740D0E59BF454E0
:100E3A0040B52002A1C1D8C4D2AF22C25B789CE6D9
:100E4A00146007E53E147002D25B30630B0538204C
:100E5A005810753800020E6C20580715811581024A
:100E6A0017D022759100C3E4954DF594E4954EF59B
:100E7A0095759104D25822AE25305B4F78A3E6FFD0
:100E8A00BF010BD25C752500D297D295D293B101DE
:100E9A00305C03752500305802C19ABF020BD25C40
:100EAA00752500D297D295D29378A2B6010DB101D9
:100EBA00305C03752500305802C1BABF030BD25CFF
:100ECA00752500D297D295D293D16D305C037525E2
:100EDA0000305802C1D5305B04C25C8E2522C2AFF5
:100EEA00C294206A03020F07900360306E0F2074C9
:100EFA0002C292307402C2967406D5E0FD207402D2
:100F0A00D296307402D292759F10753D02D2AF22EA
:100F1A00C2AF206A03020F3C900317306E17C294C7
:100F2A00207402C292307402C2967406D5E0FD02A1
:100F3A000F3F9001FA207402D293307402D2973094
:100F4A005A06E5256002C295207403759F13307412
:100F5A0003759F11753D03D2AF22C2AF207402C23E
:100F6A0096307402C292206A03020F839002D6302E
:100F7A006E07C2947406D5E0FD207402D2923074D2
:100F8A0002D296207403759F11307403759F1375EE
:100F9A003D04D2AF22C2AF206A03020FC19002956C
:100FAA00306E17207402C296307402C292C29474D0
:100FBA0006D5E0FD020FC49001E8D295305A0EE53D
:100FCA0025600A207402C297307402C293759F107A
:100FDA00753D05D2AF22C2AF207402C292307402AC
:100FEA00C296206A0302100790024C306E0F2074DA
:100FFA0002C296307402C2927406D5E0FDD29420E1
:10100A007403759F13307403759F11753D06D2AF33
:10101A0022C2AF206A030210459003B9306E1F2026
:10102A007402C296307402C292207402C292307460
:10103A0002C2967406D5E0FD02104890020C207494
:10104A0002D297307402D293305A0EE525600A20F4
:10105A007402C293307402C297207403759F1130D0
:0E106A007403759F13753D01D2AF229001E60D
:10107800D297D295D293C296C294C29222C3E54F18
:101088009535E55095365001227890E6FFC3EF94E8
:10109800055018C3EF9404501BC3EF9403501EC3AC
:1010A800EF94025021C3EF94015024C3E54F943CC0
:1010B800F80210E0C3E54F9428F80210E0C3E54FAA
:1010C800941AF80210E0C3E54F9412F80210E0C336
:1010D800E54F940AF80210E0E5509400F9884F892A
:1010E80050223058030210EA2278807607788176F9
:1010F8000778827601789476017883760478867604
:101108000A788F76037890760178957602789276C9
:1011180003789B760D7893760178877602789C76AB
:1011280001788876017889760178857600788C76DA
:1011380000788D7600788E76B478967625789776CE
:10114800D078987678789976C8789A7604789D7663
:1011580000227893E6FF756409756501C3BF02092B
:1011680075640575650102119FC3BF0309756405A0
:1011780075650202119FC3BF04097564057565038F
:1011880002119FC3BF0506756409756507C3BF06CD
:10119800067564007565007887E6FFC26CC3BF03F7
:1011A80002D26CC26BC26A7418552D6002D26AC230
:1011B8006E6002D26ED26F6002C26FC2747888E627
:1011C80030E102D274C2757889E630E102D275C383
:1011D800EF94026008758E01D26D0211EA758E00D7
:1011E800C26D227880E61490008093789EF678810C
:1011F800E61490008093789FF6117522789BE61488
:1012080090008D9378A0F61175227886E6149000E8
:101218009A9378A1F6117522789CE6149000A7930A
:1012280078A2F6789CE6149000AC9378A3F6117532
:1012380022227896E6FA7897E6FB3076047A007BE5
:10124800FFC3EB9AFCC3948250027C82756C000544
:101258006CEC856CF0A4C3E5F0948040F222C2D314
:1012680053D9BF7581C043FF801207A175EF0243B0
:10127800B203E5B324044002F5B37580FF75A400FA
:1012880075F1B275D4DF7590A975A5FC75F2FC757A
:10129800D50175A60175E2411175E4F8F6D8FD117E
:1012A800F1121819315A31EB5104511251205139A8
:1012B800513A7898866D86731175758850758902CC
:1012C80075C82475910475D8401207B51207C41261
:1012D80007AD1207CA1207AD1207D01207AD121CCC
:1012E800E51207B51207B51207B175A82275B8023D
:1012F80075E69075F610759B80759D0375D10E7512
:10130800BC5875BB0875BA1175E8801207A1D2AF31
:10131800120AA243DA01C2D8C2691207B5753001B0
:10132800D2597A05E55770027A051207A5E558C320
:10133800940240EEE52E540F855A59F55AB559E2F4
:10134800DAE2C25953DACF20750343DA2030750345
:1013580043DA10C2D8C2691207B11207A57802741D
:101368000F552E70027800C3E5589840EDC2AF12B1
:1013780007C41207C41207C4D2AF1207B5754700D5
:101388001207A5788CE6C394015003021451E53086
:10139800C394015003021451740F552E6035C3E5F0
:1013A8005894FF5003021451C2AF1207D6D2AF129D
:1013B80007B1C3E558940150EFC2AF1207C4120732
:1013C800A91207C4D2AF1207B1C3E55894FF40E988
:1013D800021D6A7F05D276513A1207B1C2AFC276B2
:1013E800513AC3E558947FD2AF4068C2AF1207D6CE
:1013F800D2AFDFE1C3E55894057897F61207B51226
:1014080018C9121CED7F0AD276513A1207B1C2AF41
:10141800C276513AC3E558947FD2AF50E8C2AF12B2
:1014280007C41207A91207C4D2AFDFDBE5582405A9
:101438007896F61207B51218C9121D1C1207B1C307
:10144800E55894FF40F6021D6AC3E55895474003E6
:101458008558471207B1C3E558940140026188C214
:0F146800AF1207D61207D61207D6D2AF1207B5AA
:10147700753000E4F531F5320531E531F4703605A4
:1014870032789AE67828146012785014600D78A0A4
:1014970014600878F0146003753200C3E532984091
:1014A7001415327899866DC2AF1207D6D2AF7898E5
:1014B700866D1207B11207A5E5287008740F552E1F
:1014C70070026128C3E558940640AD1207B1E528BC
:1014D70070030213281175E4F522F523F524F52589
:1014E700755CFF7885865FF53FF540F541F542F578
:1014F70043F56AF548F52BF52CF55B120C25756A53
:101507000875BB101207A1120B37E5E820ECFBA802
:10151700BDA9BEE97001F8886B120B3B756A0875A7
:10152700BB107895E630E00302156D7887E6FE7606
:1015370002315A7887EEF6D261C2AF120BF38522D9
:101547005C85225DD2AFC261752500756200756347
:1015570001D260D263753800120FE0111B120CA183
:10156700120C250216927887E6FE76037893E6FD3D
:101577007605315A7887EEF67893EDF6D260D26128
:10158700D26E120FE0111B120BF31207A1120EE815
:101597001207A11207A1120F1A1207A5120F641240
:1015A70007A51207A5120F9F1207A9120FE012072E
:1015B700A51207A1C261D262120B37120B3B120BA5
:1015C700F3756A0875BB10111B120C9A120D1511D1
:1015D7008511EA120EE8120C9A120D15118511EAFF
:1015E700120F1A120C9A120D15118511EA120F64B7
:1015F700120C9A120D15118511EA120F9F120C9AEF
:10160700120D15118511EA120FE0120C9A120D1521
:101617001185C3E54F9535E5509536400C11EAC362
:10162700E558940150920217D011EAC2627887E612
:10163700FE7602315A7887EEF685225C855E5D85F7
:101647005E25756200756301D263753800C2AF20ED
:101657007402C296307402C292207402C29230742D
:1016670002C296742DD5E0FDD2AF111B120CA11248
:101677000CFC120D15120D99756A0075BB08021640
:1016870092315A111B756A0075BB08121DE4120DC1
:10169700BB120E45120E6D1208BF120E81120EE814
:1016A700120CA1120CFC120D15120D99121DE41249
:1016B7000DB2120E45120E6D12093F120E81120F56
:1016C7001A120CA1120CFC120D15120D99121DE421
:1016D700120DBB120E45120E6D12097F120E8112EA
:1016E7000F64120CA1120CFC120D15120D99121D8C
:1016F700E4120DB2120E45120E6D1209DC120E81A4
:10170700120F9F120CA1120CFC120D15120D99123B
:101717001DE4120DBB120E45120E6D120A40120E79
:1017270081120FE0120CA1120CFC120D15120D996B
:10173700121DE4120DB2120B37120E45120E6D1266
:101747000B3B120E81111B120CA1120CFC120D1572
:10175700120D9930632A855E5C855E5D7562007542
:101767006301C3E5389464400AC263D264753714D1
:10177700021787C3E558940140030216920217D057
:10178700306419E537147005C264021688F537C34B
:10179700E558940140030216920217D0C3E55B9403
:1017A70001400C855E5C855E5D7562FF756301C3F4
:1017B700E55B94FA5013740F552E7004E528600901
:1017C700C3E53C94F05002C19211757887E6FE7626
:1017D70002315A7887EEF6E4F522F523F524F5254C
:1017E700F55FC2601207A11175740F552E7006E5DB
:1017F70028700261287895E630E009121CE5121C72
:10180700E5121CE5788DE6C39401400302136202DA
:10181700147A901A0D7820121C00E520B4A50CA3A9
:10182700121C00E520B45A0302183B1210F11218DB
:10183700C90218C8901A037880121C00A308121C4A
:1018470000A308121C00A308121C00A308A308A3E6
:1018570008121C00A308121C00A308121C00A308EE
:0E186700121C00A308A308A308121C00A3086B
:10187500121C00A308121C00A308121C00A30812C6
:101885001C00A308A308121C00A308121C00A3082F
:10189500121C00A308121C00A308121C00A30812A6
:1018A5001C00A308121C00A308121C00A308121C8C
:1018B50000A308121C00A308121C00A308121C0098
:1018C500901A2122C2AF121C3F121C19901A0074E3
:1018D5000A121C05A37403121C05A37410121C051F
:1018E500901A037880121C04A308121C04A3081282
:1018F5001C04A308121C04A308A308A308121C04B3
:10190500A308121C04A308121C04A308121C04A398
:1019150008A308A308121C04A308121C04A3081298
:101925001C04A308121C04A308121C04A308A30882
:10193500121C04A308121C04A308121C04A30812F9
:101945001C04A308121C04A308121C04A308121CDF
:1019550004A308121C04A308121C04A308121C04E7
:10196500A308121C04A308121C04121C52121C30DA
:04197500901A212281
:101A00000A031007070104FFFF0A020101A55A009B
:101A100000B40301FF0301010225D078C8040D01C1
:021A200000FFC5
:101A400023536B7977616C6B6572323041232020B0
:101A500023424C48454C4923463333302320202031
:101A60002020202020202020202020202020202076
:101C0000E493F622E6438F01538FFD75EF0275B71B
:101C1000A575B7F1F0538FFE22438F02438F0175F4
:101C2000EF0275B7A575B7F1901A0DF0538FFC222E
:101C3000901A0D74A59105901A0E745A9105227A86
:101C40003079D07820901A409100E520F709A3DA86
:101C5000F7227A3079D0901A40E7910509A3DAF992
:101C600022AB6EA86FBB01057980021CE2BB0205A6
:101C70007981021CE2BB03057982021CE2BB0405E8
:101C80007994021CE2BB05057983021CE2BB0605C0
:101C90007995021CE2BB07057986021CE2BB0805A8
:101CA000798F021CE2BB09057990021CE2BB0A0590
:101CB0007992021CE2BB0B05799B021CE2BB0C056E
:101CC0007993021CE2BB0D057987021CE2BB0E056D
:101CD000799C021CE2BB0F057988021CE27989021B
:101CE0001CE2E8F7227C051207B5DCFB22C2AF122A
:101CF00007C41207CA1207D01207D61207A9120783
:101D0000C41207CA1207D01207D61207A91207C4B5
:101D10001207CA1207D01207D6D2AF22C2AF1207DB
:101D2000D61207D01207CA1207C41207A91207D683
:101D30001207D01207CA1207C41207A91207D61237
:101D400007D01207CA1207C4D2AF22AE6EAF6FC25D
:101D5000AF1207C41207C41207C41207A9DEF21299
:101D600007D61207A9DFF8D2AF2291ED91E591E5F0
:101D7000756E01756F01757000B14B7C05AD581221
:101D800007B5C3ED955870F5C3E55894014009C3F4
:101D9000E55894FF4032A1A691611218C991EDC295
:101DA000AF75EF1291E5DCD50570C3E57094035073
:101DB0000280C691E5056FE56E149000B193F808B6
:101DC000C3E56F98500280AE91E591E5056EC3E5DD
:101DD0006E94115002809C1210F11218C9C2AF7596
:101DE000EF1291E5E573C333F573E57433F5745081
:081DF000066373016374F8221D
:00000001FF
