:0300000002126F7A
:03000B000200C12F
:03002B00020400CC
:03005B000205AEED
:030073000205A4DF
:1000800002030406080C10182030406080020304AC
:1000900006080C101820304080FF0406080C1018C9
:1000A0002030406080A0C000000001010003020277
:1000B000010D0D040206020D0505050D06030502DE
:1000C00002C2AFC0D0C0E0205A0D302F02E473301E
:1000D000600280F90203EC306306C2B1C287C281BC
:1000E000C0F0E573541FF572F48525F0A485F07116
:1000F000E57225F0D0F0F58AC25AE525F4700221A8
:10010000DF0561306013206A19758B00D0E0D0D014
:10011000C2B1C287C281D2AF32C2B1C287C281022C
:1001200001CFD26EC26FE565601CC3E561149565B1
:100130004014C26ED26FC3E561956450030201CFD3
:100140007561000201CF206C14C2B1C287C28174F4
:1001500006D5E0FDD282D286D2800201CFD26FC214
:10016000B1C287C281E53D20E23420E1127406D598
:10017000E0FD207402D280307402D2820201CF20CE
:10018000E0127406D5E0FD207402D280307402D2F1
:10019000820201CF7406D5E0FDD2860201CF20E1B4
:1001A0001F20E00A7406D5E0FDD2860201CF740656
:1001B000D5E0FD207402D282307402D2800201CFD9
:1001C0007406D5E0FD207402D282307402D28075AC
:1001D0008B00D0E0D0D0C2B1C287C281D2AF32D0C2
:1001E000E0D0D0D2AF3261ECE525600A207402D2B3
:1001F000B1307402D281C28761ECE5256002D287FA
:10020000207402C281307402C2B161ECE525600A3B
:10021000207402D281307402D2B1207402C2B13093
:100220007402C28161EC207402C282307402C28006
:10023000E525600A207402D2B1307402D2812074A4
:1002400002C280307402C282C28761EC207402C292
:1002500082307402C280207402C280307402C28272
:100260007406D5E0FDE525600A207402D2B1307431
:1002700002D281C28761EC207402C282307402C251
:1002800080E525600A207402D2B1307402D281C2A6
:1002900086C28761EC207402C282307402C280C2BE
:1002A000867406D5E0FDE525600A207402D2B130DF
:1002B0007402D281C28761ECC286E5256002D287D2
:1002C000207402C282307402C280207402C2813063
:1002D0007402C2B161ECC286207402C28230740220
:1002E000C2807406D5E0FDE5256002D28720740245
:1002F000C281307402C2B161ECC286E5256002D2CF
:1003000087207402C280307402C282207402C281CB
:10031000307402C2B161ECC286207402C2803074B3
:1003200002C2827406D5E0FDE5256002D287207402
:1003300002C281307402C2B161EC207402C280300A
:100340007402C282E525600A207402D281307402F0
:10035000D2B1C286207402C2B1307402C28161EC93
:10036000207402C280307402C282C2867406D5E054
:10037000FDE525600A207402D281307402D2B120DA
:100380007402C2B1307402C28161EC207402C28076
:10039000307402C282E525600A207402D281307472
:1003A00002D2B1207402C282307402C28020740270
:1003B000C2B1307402C28161EC207402C280307418
:1003C00002C282207402C282307402C2807406D5D6
:1003D000E0FDE525600A207402D281307402D2B1BA
:1003E000207402C2B1307402C28161ECE571F4F58F
:1003F0008A758B00756000D25AD0E0D0D0D2AF326F
:10040000C2AFC0D0C0E0D2D3C2CEE528600A740F1C
:10041000552E60491528815D78007900E58030759A
:1004200001F430E50278FF53DACF20750343DA2078
:1004300030750343DA10C2D8C269E580307501F423
:1004400030E50279FFC3E89970CE30590375284032
:10045000740F552E60037528408858D268E52960CE
:100460000415298170740F552E600543DA01C2D836
:0E04700020680281F5E558F8C268740F552E19
:10047E0060367982B70431C3E894F0400374F0F823
:10048E00E8C4540F28F87984B7030281B6C313C3A6
:10049E00138721200802C313200A06C3C898F881C7
:1004AE00B628F8500374FFF8C3E8955F5003E55F74
:1004BE00F8E52C54067030882230630AC3E5229585
:1004CE005C4003855C227882B6041CC3E522952429
:1004DE00401278A096400DE52426F5245009752487
:1004EE00FF0204F585222420CF09D0E0D0D0C2D35C
:1004FE00D2AF32C2CF7801E5286008740F552E7046
:10050E00021528C3E55894014005755B00A124E54A
:10051E005B046002055B7982B7020EE548601EC37C
:10052E00E522943240178547227982B7030FE548BA
:10053E00600BC3E52294324004798E8722C3E523F3
:10054E009522600840041523A15A0523D8C80562D8
:10055E00E56270021562D563347563017803C3E5F5
:10056E0062941E4028C3E562946450087801756356
:10057E000302058EC3E562949650057801756301FA
:10058E00E55DC3285005755DFFA19BF55DD0E0D0FC
:10059E00D0C2D3D2AF32C2AF53917FC258D2AF3294
:1005AE00C2AFC0D0C0E0C0F0D2D3A8FBA9FCC2D865
:1005BE00306902C11153DACF20750343DA1030755A
:1005CE000343DA20D269E580307501F420E502A1FB
:1005DE00E588268927E18A53DACF20750343DA208E
:1005EE0030750343DA10C2D8C269740F552E7002EB
:1005FE00E1707800E580307501F430E502E1708835
:10060E0058E17053DACF20750343DA203075034377
:10061E00DA10C269205902C1BA53DACF20750343EA
:10062E00DA1030750343DA20C2D8D2698853895460
:10063E00C3E89551F8E99552F9E4FB7AFAC3E894C8
:10064E0068E994015008E4D2E3FB7A0FC18DC3E848
:10065E0094D0E994025008E4D2E2FB7A1EC18DC315
:10066E00E894A0E994055008E4D2E1FB7A3CC18DF0
:10067E00C3E89498E994085006E4D2E0FB7A78C374
:10068E00E89555FCE99556FD30E708ECF42401FC9D
:10069E00EDF4FD7557007008C3EC9A5003755701C1
:1006AE0088558956A853A95488518952C3E895266E
:1006BE00F8E99527F9307302E154307202E14DE901
:1006CE00C313F9E813F8307102E14DE9C313F9E8E9
:1006DE0013F8307002E14DE9C313FDE813FC205905
:1006EE0018C3EC941CED94024003020770ED7009E0
:1006FE00C3EC94C8500302078A74002076037896E0
:10070E00E624FAFEE43400FFC3EC9EFCED9FFD50A0
:10071E000678007900E154C3EC94FFED9400400696
:10072E0078FF7900E154EC856CF0A4C5F0A2F733A4
:10073E00F87900400302075F78FF790002075FE94E
:10074E00C313F9E813F8C3E894FFE9940040027864
:10075E00FF8858D268205902E170740FF4552E4B61
:10076E00F52E752840740F552E700375280A3059D2
:10077E0002E18A740F552E600353DAFE7529207438
:10078E000F552E700375290AD0F0D0E0D0D0C2D309
:10079E00D2AF327901E1B97903E1B9790AE1B979D8
:1007AE001EE1B97964E1B979C8E1B97817E4D5E009
:1007BE00FDD8FAD9F6227A147B78E1DC7A107B8C9C
:1007CE00E1DC7A0D7BB4E1DC7A0B7BC8E1DCAC2595
:1007DE007525017902B274E4C286D5E0FDE5256087
:1007EE0002D287D5E0FDC287D5E0FDD286D5E0FDE9
:1007FE00E525600A207402D2B1307402D281E56D13
:10080E00D5E0FD207402C2B1307402C2817496D557
:10081E00E0FDD9C1EAF8D5E0FDD8FBDBB1C2868C8C
:10082E002522C37C007D0075F00005F0EA33FAEB5B
:10083E0033FB50F6EB13FBEA13FAC3E9FFE8FEE8CD
:10084E009AF8E99BF95004EFF9EEF8B3EC33FCEDAE
:10085E0033FDD5F0DFEDF9ECF822E889F08A20D2ED
:0F086E00D4F8A9F07B0030F70B7BFFF42401F8DE
:10087D00E9F43400F9E88520F0A4ADF0F8E985201D
:10088D00F0A4AFF0FEED2EF974003FFA7C04C3EA3C
:10089D0013FAE913F9E813F8DCF48BF030F70AE8F2
:1008AD00F42401F8E9F43400F9E889F0C2D4F8A988
:1008BD00F0227882B6040302093EC3E55894014044
:1008CD0018E548702A7805C37994B702027812C3E7
:1008DD00E53B9400E53C984013852224E4F53FF573
:1008ED0040F541F542F543F54802093E754801C30F
:1008FD007994E79402601BE523F43333F913F8E997
:10090D00540104F9E854FEC39440F8E99400F90247
:10091D00093AE523F433333333F913F8E954070473
:10092D0004F9E854F8C39440F8E99400F9883F8934
:10093D004022E548603BC3E53C13F9E53B13F8C3A2
:10094D00E53F98F8E54099F9500CC3E89480E99497
:10095D00FF401602097AC3E8947FE9940050030220
:10096D00097A787F790002097A788079FF8844893D
:10097D004522E5486058E5442541F8E5453542F9FD
:10098D00854520E4300701F43543FA30E709C3EA21
:10099D0094F040150209BCC3EA940F50030209BC40
:1009AD0078FF79FF7A0F0209BC780079007AF0C3DD
:1009BD00E524955C5006E524600921D5E54520E741
:1009CD000D21D5E54530E706884189428A4322E568
:1009DD00487003020A3F789EE6FAC3E54433F8E512
:1009ED004533F91168E930E70BC3E89480E994FFCA
:1009FD0040134116C3E8947FE994005002411678E4
:100A0D007F79004116788079FFE820E715C3E5234B
:100A1D0098F84009C3E894014003020A3D780102A9
:100A2D000A3DE8F424012523F84003020A3D78FF2E
:100A3D00884622E5487003020AA1789FE6FAA8428B
:100A4D00A9431168E930E70CC3E89401E994FF402C
:100A5D0016020A78C3E894FFE994005003020A785D
:100A6D0078FF7900020A78780179FFE920E715C34C
:100A7D00E54698F84009C3E894014003020A9F78BF
:100A8D0000020A9FE8F424012546F84003020A9F5C
:100A9D0078FF8824227883E6F520120FE075E89020
:100AAD00E5E820ECF0A8BDA9BE1210757568557566
:100ABD006900C3740013FD745513FC74552CFC743C
:100ACD00003DFDECFAEDFBC3E89AE99B4014E568A7
:100ADD002455F568E5693400F569EA2CFAEB3DFB20
:100AED0080E5AE68AF69C3E56913F9E56813F8C32E
:100AFD00E913F9E813F8E56828F566E56939F5674E
:100B0D007A03C3E913F9E813F8DAF7AA201A700982
:100B1D00756800756900020B361AEA6008EE28FE4A
:100B2D00EF39FFDAF88E688F692275E890227883A5
:100B3D00E6FFE5E820ECF7A8BDA9BE056AC3E56AA6
:100B4D0094084052756A00E97007E56B601B020B53
:100B5D006AC3E8956B6010E56B5006600C14020BD0
:100B6D00760460F9020B76E56BF56BC394A8F8403B
:100B7D0021755CC0C3E89405F84017755C80C3E827
:100B8D009405F8400D755C40C3E89405F840037575
:100B9D005C0075BB0622EFC39401601BC3E894FF94
:100BAD00E994035012C3E89568E995695009E55C2D
:100BBD00600C155C020BCBE55CF46002055CA85C77
:100BCD00C3E524985002A8248825C3E525955D40EA
:100BDD000B855D25E55DF46003855D5CC3E56AB459
:100BED00070375BB1E2230610278323062027850E5
:100BFD00E52C54066021E879A187F0A4C5F0A2F791
:100C0D0033F8C3E8955C4002A85C882288248825C7
:100C1D00306104C3E8F55E22788FE6FFC3EF9405DB
:100C2D005018C3EF94045020C3EF94035028C3EF22
:100C3D0094025030C3EF940150387533A075340FC2
:100C4D0075353C753605818D7533C0753412753526
:100C5D0040753606818D7533707534177535D075C1
:0D0C6D003607818D75334C75341D7535C407
:100C7A00753609818D7533287534237535B87536FF
:100C8A000B818D85334F853450753B00753C0822A6
:100C9A00A84FA950020CA5A849A94A759100C3E416
:100CAA0098F594E499F595759104D25875C820A8D9
:100CBA00CCA9CD75C824AA39AB3A8839893AC3E890
:100CCA009AF8E99BF9AA3BAB3CC3EB13FDEA13FC88
:100CDA00C3ED13FDEC13FCC3EA9CFAEB9DFBEA2877
:100CEA00FAEB39FB8A3B8B3C400122753BFF753C92
:100CFA00FF2230580281FC759100C3E4954BF594AC
:100D0A00E4954CF595759104D258227892E6FF7EC7
:100D1A0010305B027F053063047F037E00A93CA884
:100D2A003B7A04C3E913F9E813F8DAF7C3E89EF843
:100D3A00E99400F94009C3E89402E9940050047860
:100D4A0002E4F9E9FBE8FAC3E913FDE813FCC3EF8F
:100D5A009403602EEF20E00DE82CF8E93DF9ECFA57
:100D6A00EDFB020D79E828F8E939F97A02E4FBC3C8
:100D7A00EF9403400D8A4D8B4E8849894A8C4B8DDE
:100D8A004C22884D894E8A498B4A8C4B8D4C223095
:100D9A005802A199759100C3E4953BF594E4953CFA
:100DAA00F595759104D25822753E00752000020D02
:100DBA00C1753E00752040D2AF053E20580122750C
:100DCA009D00E53CC313C313F8086030306A06C3BC
:100DDA0013C313F808C3E8940A4002780A306D086E
:100DEA00C3E8940440027804C3E53C9408400D75B6
:100DFA009D02C3E53C94104003759D03205803D21D
:100E0A00AF22791E206D02790AD2AF0000C2AF204C
:100E1A005A0A793C206D027914306FE03063027906
:100E2A0078C3E58B9920630240F740D0E59BF454E0
:100E3A0040B52002A1C1D8C4D2AF22C25B789CE6D9
:100E4A00146007E53E147002D25B30630B0538204C
:100E5A005810753800020E6C20580715811581024A
:100E6A0017EB22759100C3E4954DF594E4954EF580
:100E7A0095759104D25822AE25305B4F78A3E6FFD0
:100E8A00BF010BD25C752500C2B1C287C281B10114
:100E9A00305C03752500305802C19ABF020BD25C40
:100EAA00752500C2B1C287C28178A2B6010DB1010F
:100EBA00305C03752500305802C1BABF030BD25CFF
:100ECA00752500C2B1C287C281D16D305C03752518
:100EDA0000305802C1D5305B04C25C8E2522C2AFF5
:100EEA00C286206A03020F07900360306E0F2074D7
:100EFA0002C280307402C2827406D5E0FD207402F8
:100F0A00D282307402D280759F02753D02D2AF221E
:100F1A00C2AF206A03020F3C900317306E17C286D5
:100F2A00207402C280307402C2827406D5E0FD02C7
:100F3A000F3F9001FA207402C281307402C2B130AC
:100F4A005A06E5256002D287207403759F03307420
:100F5A0003759F01753D03D2AF22C2AF207402C24E
:100F6A0082307402C280206A03020F839002D63054
:100F7A006E07C2867406D5E0FD207402D2803074F2
:100F8A0002D282207403759F01307403759F037522
:100F9A003D04D2AF22C2AF206A03020FC19002956C
:100FAA00306E17207402C282307402C280C2867404
:100FBA0006D5E0FD020FC49001E8C287305A0EE55B
:100FCA0025600A207402D2B1307402D281759F0260
:100FDA00753D05D2AF22C2AF207402C280307402BE
:100FEA00C282206A0302100790024C306E0F2074EE
:100FFA0002C282307402C2807406D5E0FDD2862015
:10100A007403759F03307403759F01753D06D2AF53
:10101A0022C2AF206A030210459003B9306E1F2026
:10102A007402C282307402C280207402C280307498
:10103A0002C2827406D5E0FD02104890020C2074A8
:10104A0002C2B1307402C281305A0EE525600A200C
:10105A007402D281307402D2B1207403759F0130B8
:0E106A007403759F03753D01D2AF229001E61D
:10107800C2B1C287C281C282C286C28022C3E54F82
:101088009535E55095365001227890E6FFC3EF94E8
:10109800055018C3EF9404501BC3EF9403501EC3AC
:1010A800EF94025021C3EF94015024C3E54F943CC0
:1010B800F80210E0C3E54F9428F80210E0C3E54FAA
:1010C800941AF80210E0C3E54F9412F80210E0C336
:1010D800E54F940AF80210E0E5509400F9884F892A
:1010E80050223058030210EA2278807607788176F9
:1010F8000778827601789476017883760478867604
:1011080009788F76037890760178957602789276CA
:1011180003789B760D7893760178877602789C76AB
:1011280001788876017889760178857600788C76DA
:1011380000788D7600788E76B478967625789776CE
:10114800D078987678789976C8789A7604789D7663
:1011580000227893E6FF756409756501C3BF02092B
:1011680075640575650102119FC3BF0309756405A0
:1011780075650202119FC3BF04097564057565038F
:1011880002119FC3BF0506756409756507C3BF06CD
:10119800067564007565007887E6FFC26CC3BF03F7
:1011A80002D26CC26BC26A7418552D6002D26AC230
:1011B8006E6002D26ED26F6002C26FC2747888E627
:1011C80030E102D274C2757889E630E102D275C383
:1011D800EF94026008758E01D26D0211EA758E00D7
:1011E800C26D227880E61490008093789EF678810C
:1011F800E61490008093789FF6117522789BE61488
:1012080090008D9378A0F61175227886E6149000E8
:101218009A9378A1F6117522789CE6149000A7930A
:1012280078A2F6789CE6149000AC9378A3F6117532
:1012380022C2B3789DE66002D2B3227896E6FA78A5
:1012480097E6FB3076047A007BFFC3EB9AFCC394E5
:101258008250027C82756C00056CEC856CF0A4C32E
:10126800E5F0948040F222C2D353D9BF7581C043C0
:10127800FF801207A175EF0243B203E5B3240440CF
:1012880002F5B375803875A4C775F1FF75D4DF759D
:1012980090FF75A50075F20075D50075A0FF75A6BD
:1012A8000075F30075D60075B0E475A71B75F4FFDB
:1012B80075E2411175E4F8F6D8FD11F112183631CE
:1012C8005A31EB51045112512051395143789886C3
:1012D8006D8673117575885075890275C824759166
:1012E8000475D8401207B51207C41207AD1207CA11
:1012F8001207AD1207D01207AD121CE51207B5127E
:1013080007B51207B175A82275B80275E69075F68B
:1013180010759B80759D0375D10E75BC5875BB06FD
:1013280075BA1F75E8801207A1D2AF120AA243DA74
:1013380001C2D8C2691207B5753001D2597A05E5DC
:101348005770027A051207A5E558C3940240EEE5E6
:101358002E540F855A59F55AB559E2DAE2C2595353
:10136800DACF20750343DA2030750343DA10C2D888
:10137800C2691207B11207A57802740F552E7002C0
:101388007800C3E5589840EDC2AF1207C41207C4ED
:101398001207C4D2AF1207B57547001207A5788C9B
:1013A800E6C39401500302146CE530C39401500362
:1013B80002146C740F552E6035C3E55894FF500322
:1013C80002146CC2AF1207D6D2AF1207B1C3E558E8
:1013D800940150EFC2AF1207C41207A91207C4D272
:1013E800AF1207B1C3E55894FF40E9021D6A7F05B3
:1013F800D27651431207B1C2AFC2765143C3E55802
:10140800947FD2AF4068C2AF1207D6D2AFDFE1C334
:10141800E55894057897F61207B51218E6121CEDF0
:101428007F0AD27651431207B1C2AFC2765143C385
:10143800E558947FD2AF50E8C2AF1207C41207A98B
:101448001207C4D2AFDFDBE55824057896F61207F9
:10145800B51218E6121D1C1207B1C3E55894FF40D7
:0E146800F6021D6AC3E55895474003855847B4
:101476001207B1C3E5589401400261A3C2AF120737
:10148600D61207D61207D6D2AF1207B5753000E4CA
:10149600F531F5320531E531F470360532789AE6E4
:1014A6007828146012785014600D78A014600878BB
:1014B600F0146003753200C3E53298401415327893
:1014C60099866DC2AF1207D6D2AF7898866D12078D
:1014D600B11207A5E5287008740F552E70026143F6
:1014E600C3E558940640AD1207B1E5287003021310
:1014F600431175E4F522F523F524F525755CFF788F
:1015060085865FF53FF540F541F542F543F56AF509
:1015160048F52BF52CF55B120C25756A0875BB1E74
:101526001207A1120B37E5E820ECFBA8BDA9BEE91E
:101536007001F8886B120B3B756A0875BB1E7895AF
:10154600E630E0030215887887E6FE7602315A789F
:1015560087EEF6D261C2AF120BF385225C85225D5F
:10156600D2AFC261752500756200756301D260D283
:1015760063753800120FE0111B120CA1120C250224
:1015860016AD7887E6FE76037893E6FD7605315A42
:101596007887EEF67893EDF6D260D261D26E120FAE
:1015A600E0111B120BF31207A1120EE81207A1128B
:1015B60007A1120F1A1207A5120F641207A5120728
:1015C600A5120F9F1207A9120FE01207A51207A175
:1015D600C261D262120B37120B3B120BF3756A080B
:1015E60075BB1E111B120C9A120D15118511EA12EC
:1015F6000EE8120C9A120D15118511EA120F1A1225
:101606000C9A120D15118511EA120F64120C9A121A
:101616000D15118511EA120F9F120C9A120D151154
:101626008511EA120FE0120C9A120D151185C3E509
:101636004F9535E5509536400C11EAC3E5589401AF
:1016460050920217EB11EAC2627887E6FE76023103
:101656005A7887EEF685225C855E5D855E25756225
:1016660000756301D263753800C2AF207402C2826E
:10167600307402C280207402C280307402C2827446
:101686002DD5E0FDD2AF111B120CA1120CFC120DD0
:1016960015120D99756A0075BB060216AD315A1101
:1016A6001B756A0075BB06121DE4120DBB120E45B2
:1016B600120E6D1208BF120E81120EE8120CA11244
:1016C6000CFC120D15120D99121DE4120DB2120E1C
:1016D60045120E6D12093F120E81120F1A120CA13D
:1016E600120CFC120D15120D99121DE4120DBB12EF
:1016F6000E45120E6D12097F120E81120F64120C26
:10170600A1120CFC120D15120D99121DE4120DB248
:10171600120E45120E6D1209DC120E81120F9F1267
:101726000CA1120CFC120D15120D99121DE4120DCE
:10173600BB120E45120E6D120A40120E81120FE0F8
:10174600120CA1120CFC120D15120D99121DE412A9
:101756000DB2120B37120E45120E6D120B3B120E06
:1017660081111B120CA1120CFC120D15120D9930D1
:10177600632A855E5C855E5D756200756301C3E5FF
:10178600389464400AC263D2647537140217A2C340
:10179600E558940140030216AD0217EB306419E5D3
:1017A60037147005C2640216A3F537C3E5589401D1
:1017B60040030216AD0217EBC3E55B9401400C85AE
:1017C6005E5C855E5D7562FF756301C3E55B94FAD9
:1017D6005013740F552E7004E5286009C3E53C9438
:1017E600F05002C1AD11757887E6FE7602315A785F
:1017F60087EEF6E4F522F523F524F525F55FC260BC
:101806001207A1121075740F552E7007E528700384
:101816000213437895E630E009121CE5121CE51226
:101826001CE5788DE6C39401400302137D021495EE
:10183600901A0D7820121C00E520B4A50CA3121CEA
:1018460000E520B45A030218581210F11218E602E5
:1018560018E5901A037880121C00A308121C00A336
:0F18660008121C00A308121C00A308A308A30863
:10187500121C00A308121C00A308121C00A30812C6
:101885001C00A308A308A308121C00A308121C002F
:10189500A308121C00A308121C00A308121C00A315
:1018A50008A308121C00A308121C00A308121C00A0
:1018B500A308121C00A308121C00A308121C00A3F5
:1018C50008121C00A308121C00A308121C00A30880
:1018D500121C00A308121C00A308121C00901A2158
:1018E50022C2AF121C3F121C19901A00740A121C56
:1018F50005A37403121C05A37410121C05901A038A
:101905007880121C04A308121C04A308121C04A34B
:1019150008121C04A308A308A308121C04A3081298
:101925001C04A308121C04A308121C04A308A30882
:10193500A308121C04A308121C04A308121C04A368
:1019450008121C04A308121C04A308A308121C04F3
:10195500A308121C04A308121C04A308121C04A348
:1019650008121C04A308121C04A308121C04A308D3
:10197500121C04A308121C04A308121C04A30812B9
:101985001C04A308121C04121C52121C30901A21AC
:01199500222F
:101A00000A031007070104FFFF09020101A55A009C
:101A100000B40301FF0301010225D078C8040D01C1
:021A200000FFC5
:101A4000235467794B463430412320202020202026
:101A500023424C48454C4923463331302320202033
:101A60002020202020202020202020202020202076
:101C0000E493F622E6438F01538FFD75EF0275B71B
:101C1000A575B7F1F0538FFE22438F02438F0175F4
:101C2000EF0275B7A575B7F1901A0DF0538FFC222E
:101C3000901A0D74A59105901A0E745A9105227A86
:101C40003079D07820901A409100E520F709A3DA86
:101C5000F7227A3079D0901A40E7910509A3DAF992
:101C600022AB6EA86FBB01057980021CE2BB0205A6
:101C70007981021CE2BB03057982021CE2BB0405E8
:101C80007994021CE2BB05057983021CE2BB0605C0
:101C90007995021CE2BB07057986021CE2BB0805A8
:101CA000798F021CE2BB09057990021CE2BB0A0590
:101CB0007992021CE2BB0B05799B021CE2BB0C056E
:101CC0007993021CE2BB0D057987021CE2BB0E056D
:101CD000799C021CE2BB0F057988021CE27989021B
:101CE0001CE2E8F7227C051207B5DCFB22C2AF122A
:101CF00007C41207CA1207D01207D61207A9120783
:101D0000C41207CA1207D01207D61207A91207C4B5
:101D10001207CA1207D01207D6D2AF22C2AF1207DB
:101D2000D61207D01207CA1207C41207A91207D683
:101D30001207D01207CA1207C41207A91207D61237
:101D400007D01207CA1207C4D2AF22AE6EAF6FC25D
:101D5000AF1207C41207C41207C41207A9DEF21299
:101D600007D61207A9DFF8D2AF2291ED91E591E5F0
:101D7000756E01756F01757000B14B7C05AD581221
:101D800007B5C3ED955870F5C3E55894014009C3F4
:101D9000E55894FF4032A1A691611218E691EDC278
:101DA000AF75EF1291E5DCD50570C3E57094035073
:101DB0000280C691E5056FE56E149000B193F808B6
:101DC000C3E56F98500280AE91E591E5056EC3E5DD
:101DD0006E94115002809C1210F11218E6C2AF7579
:101DE000EF1291E5E573C333F573E57433F5745081
:081DF000066373016374F8221D
:00000001FF
