:0300000002126287
:03000B000200C12F
:03002B000203E0ED
:03005B0002058E0D
:03007300020584FF
:1000800002030406080C10182030406080020304AC
:1000900006080C101820304080FF0406080C1018C9
:1000A0002030406080A0C000000001010003020277
:1000B000010D0D040206020D0505050D06030502DE
:1000C00002C2AFC0D0C0E0205A0D302F02E473301E
:1000D000600280F90203CC306306C293C295C297D6
:1000E000C0F0E573541FF572F48525F0A485F07116
:1000F000E57225F0D0F0F58AC25AE525F4700221A8
:10010000BF0561306013206A19758B00D0E0D0D034
:10011000C293C295C297D2AF32C293C295C2970220
:1001200001AFD26EC26FE565601CC3E561149565D1
:100130004014C26ED26FC3E561956450030201AFF3
:100140007561000201AF206C14C293C295C297740E
:100150000AD5E0FDD292D294D2960201AFC293C2E8
:1001600095C297E53D20E22520E10D207402D29250
:10017000307402D2960201AF20E005D2940201AFA2
:10018000207402D296307402D2920201AF20E1159F
:1001900020E00D207402D292307402D2960201AF98
:1001A000D2940201AF207402D296307402D29275BA
:1001B0008B00D0E0D0D0C293C295C297D2AF32D0DC
:1001C000E0D0D0D2AF3261CCE525600A207402D2F3
:1001D00093307402D297C29561CCE5256002D29526
:1001E000207402C297307402C29361CCE525600A84
:1001F000207402D297307402D293207402C29330DA
:100200007402C29761CC207402C292307402C2960A
:10021000E525600A207402D293307402D2972074CC
:1002200002C296307402C292C29561CC207402C29E
:1002300092307402C296207402C296307402C29246
:10024000740AD5E0FDE525600A207402D29330746B
:1002500002D297C29561CC207402C292307402C25D
:1002600096E525600A207402D293307402D297C2B8
:1002700094C29561CC207402C292307402C296C2BC
:1002800094740AD5E0FDE525600A207402D293300B
:100290007402D297C29561CCC294E5256002D295D2
:1002A000207402C292307402C296207402C2973047
:1002B0007402C29361CCC294207402C29230740260
:1002C000C296740AD5E0FDE5256002D2952074023D
:1002D000C297307402C29361CCC294E5256002D209
:1002E00095207402C296307402C292207402C297A2
:1002F000307402C29361CCC294207402C2963074EE
:1003000002C292740AD5E0FDE5256002D295207400
:1003100002C297307402C29361CC207402C296303C
:100320007402C292E525600A207402D297307402EA
:10033000D293C294207402C293307402C29761CCEB
:10034000207402C296307402C292C294740AD5E03C
:10035000FDE525600A207402D297307402D2932002
:100360007402C293307402C29761CC207402C296A8
:10037000307402C292E525600A207402D29730746C
:1003800002D293207402C292307402C29620740288
:10039000C293307402C29761CC207402C29630744A
:1003A00002C292207402C292307402C296740AD5BC
:1003B000E0FDE525600A207402D297307402D293E2
:1003C000207402C293307402C29761CCE571F4F5D7
:1003D0008A758B00756000D25AD0E0D0D0D2AF328F
:1003E000C2AFC0D0C0E0D2D3C2CEE528600A740F3D
:1003F000552E60491528813D78007900E5803075DB
:1004000001F430E30278FF53DACF20750343DA209A
:1004100030750343DA10C2D8C269E580307501F443
:1004200030E30279FFC3E89970CE30590375284054
:10043000740F552E60037528408858D268E52960EE
:100440000415298150740F552E600543DA01C2D876
:1004500020680281D5E558F8C268740F552E6036C1
:100460007982B70431C3E894F0400374F0F8E8C42B
:0F047000540F28F87984B703028196C313C3137E
:10047F008721200802C313200A06C3C898F8819663
:10048F0028F8500374FFF8C3E8955F5003E55FF851
:10049F00E52C54067030882230630AC3E522955C40
:1004AF004003855C227882B6041CC3E52295244064
:1004BF001278A096400DE52426F52450097524FFE7
:1004CF000204D585222420CF09D0E0D0D0C2D3D2C8
:1004DF00AF32C2CF7801E5286008740F552E700235
:1004EF001528C3E55894014005755B00A104E55B31
:1004FF00046002055B7982B7020EE548601EC3E512
:10050F0022943240178547227982B7030FE548605E
:10051F000BC3E52294324004798E8722C3E52395DD
:10052F0022600840041523A13A0523D8C80562E5C7
:10053F006270021562D563347563017803C3E56297
:10054F0094304028C3E56294A05008780175630386
:10055F0002056EC3E56294F050057801756301E5FD
:10056F005DC3285005755DFFA17BF55DD0E0D0D050
:10057F00C2D3D2AF32C2AF53917FC258D2AF32C2C1
:10058F00AFC0D0C0E0C0F0D2D3A8FBA9FCC2D83016
:10059F006902A1F153DACF20750343DA10307503E6
:1005AF0043DA20D269E580307501F420E302A1C55A
:1005BF0088268927E16A53DACF20750343DA203082
:1005CF00750343DA10C2D8C269740F552E7002E159
:1005DF00507800E580307501F430E302E15088581F
:1005EF00E15053DACF20750343DA2030750343DA35
:1005FF0010C269205902C19A53DACF20750343DA2A
:10060F001030750343DA20C2D8D26988538954C396
:10061F00E89551F8E99552F9E4FB7AFAC3E8946842
:10062F00E994015008E4D2E3FB7A0FC16DC3E8945B
:10063F00D0E994025008E4D2E2FB7A1EC16DC3E800
:10064F0094A0E994055008E4D2E1FB7A3CC16DC354
:10065F00E89498E994085006E4D2E0FB7A78C3E86E
:10066F009555FCE99556FD30E708ECF42401FCEDB7
:10067F00F4FD7557007008C3EC9A50037557018845
:10068F00558956A853A95488518952C3E89526F81D
:10069F00E99527F9307302E134307202E12DE9C395
:1006AF0013F9E813F8307102E12DE9C313F9E813D8
:1006BF00F8307002E12DE9C313FDE813FC2059183F
:1006CF00C3EC941CED94024003020750ED7009C374
:1006DF00EC94C8500302076A74002076037896E6FC
:1006EF0024FAFEE43400FFC3EC9EFCED9FFD5006A0
:1006FF0078007900E134C3EC94FFED940040067864
:10070F00FF7900E134EC856CF0A4C5F0A2F733F863
:10071F007900400302073F78FF790002073FE9C3E2
:10072F0013F9E813F8C3E894FFE99400400278FF47
:10073F008858D268205902E150740FF4552E4BF5AA
:10074F002E752840740F552E700375280A305902E4
:10075F00E16A740F552E600353DAFE752920740F6A
:10076F00552E700375290AD0F0D0E0D0D0C2D3D265
:10077F00AF327901E1997903E199790AE199791E0B
:10078F00E1997964E19979C8E1997817E4D5E0FDA9
:10079F00D8FAD9F6227A147B78E1BC7A107B8CE1F7
:1007AF00BC7A0D7BB4E1BC7A0B7BC8E1BCAC257580
:1007BF0025017902B274E4C294D5E0FDE52560020B
:1007CF00D295D5E0FDC295D5E0FDD294D5E0FDE5FB
:1007DF0025600A207402D293307402D297E56DD54A
:1007EF00E0FD207402C293307402C2977496D5E074
:1007FF00FDD9C1EAF8D5E0FDD8FBDBB1C2948C2559
:10080F0022C37C007D0075F00005F0EA33FAEB336C
:10081F00FB50F6EB13FBEA13FAC3E9FFE8FEE89A85
:10082F00F8E99BF95004EFF9EEF8B3EC33FCED3334
:10083F00FDD5F0DFEDF9ECF822E889F08A20D2D46B
:10084F00F8A9F07B0030F70B7BFFF42401F8E9F4F3
:10085F003400F9E88520F0A4ADF0F8E98520F0A484
:0F086F00AFF0FEED2EF974003FFA7C04C3EA13DC
:10087E00FAE913F9E813F8DCF48BF030F70AE8F430
:10088E002401F8E9F43400F9E889F0C2D4F8A9F0AB
:10089E00227882B6040302091EC3E558940140185B
:1008AE00E548702A7805C37994B702027812C3E539
:1008BE003B9400E53C984013852224E4F53FF54037
:1008CE00F541F542F543F54802091E754801C37915
:1008DE0094E79402601BE523F43333F913F8E954DB
:1008EE000104F9E854FEC39440F8E99400F90209B2
:1008FE001AE523F433333333F913F8E954070404B8
:10090E00F9E854F8C39440F8E99400F9883F894017
:10091E0022E548603BC3E53C13F9E53B13F8C3E51C
:10092E003F98F8E54099F9500CC3E89480E994FF9C
:10093E00401602095AC3E8947FE994005003020955
:10094E005A787F790002095A788079FF8844894560
:10095E0022E5486058E5442541F8E5453542F985DC
:10096E004520E4300701F43543FA30E709C3EA9431
:10097E00F0401502099CC3EA940F500302099C78BB
:10098E00FF79FF7A0F02099C780079007AF0C3E5AF
:10099E0024955C5006E524600921B5E54520E70D58
:1009AE0021B5E54530E706884189428A4322E5486C
:1009BE007003020A1F789EE6FAC3E54433F8E54554
:1009CE0033F91148E930E70BC3E89480E994FF400E
:1009DE001321F6C3E8947FE99400500221F6787F44
:1009EE00790021F6788079FFE820E715C3E5239892
:1009FE00F84009C3E894014003020A1D7801020A77
:100A0E001DE8F424012523F84003020A1D78FF880F
:100A1E004622E5487003020A81789FE6FAA842A9A9
:100A2E00431148E930E70CC3E89401E994FF4016FE
:100A3E00020A58C3E894FFE994005003020A58785A
:100A4E00FF7900020A58780179FFE920E715C3E51E
:100A5E004698F84009C3E894014003020A7F7800E3
:100A6E00020A7FE8F424012546F84003020A7F7843
:100A7E00FF8824227883E6F520120FD975E890E5D9
:100A8E00E820ECF0A8BDA9BE12107175683075692A
:100A9E0000C3740013FD743013FC74302CFC74000E
:100AAE003DFDECFAEDFBC3E89AE99B4014E56824A2
:100ABE0030F568E5693400F569EA2CFAEB3DFB8008
:100ACE00E5AE68AF69C3E56913F9E56813F8C3E9E4
:100ADE0013F9E813F8E56828F566E56939F5677ADC
:100AEE0003C3E913F9E813F8DAF7AA201A700975A7
:100AFE006800756900020B161AEA6008EE28FEEF10
:100B0E0039FFDAF88E688F692275E890227883E6CD
:100B1E00FFE5E820ECF7A8BDA9BE056AC3E56A9417
:100B2E00084052756A00E97007E56B601B020B4ABC
:100B3E00C3E8956B6010E56B5006600C14020B5603
:100B4E000460F9020B56E56BF56BC394A8F84021CF
:100B5E00755CC0C3E89405F84017755C80C3E894D3
:100B6E0005F8400D755C40C3E89405F84003755CCC
:100B7E000075BB0122EFC39401601BC3E894FFE92B
:100B8E0094035012C3E89568E995695009E55C60D5
:100B9E000C155C020BABE55CF46002055CA85CC353
:100BAE00E524985002A8248825C3E525955D400BC1
:100BBE00855D25E55DF46003855D5CC3E56AB4077C
:100BCE000375BB1E2230610278323062027850E526
:100BDE002C54066021E879A187F0A4C5F0A2F73362
:100BEE00F8C3E8955C4002A85C88228824882530EA
:100BFE006104C3E8F55E22788FE6FFC3EF940550DB
:100C0E0018C3EF94045020C3EF94035028C3EF94FD
:100C1E00025030C3EF940150387533A075340F7500
:100C2E00353C753605816D7533C07534127535409A
:100C3E00753606816D7533707534177535D075360A
:100C4E0007816D75334C75341D7535C47536098144
:100C5E006D7533287534237535B875360B816D85F2
:0E0C6E00334F853450753B00753C0822A84F6B
:100C7C00A950020C85A849A94A759100C3E498F5BE
:100C8C0094E499F595759104D25875C820A8CCA90F
:100C9C00CD75C824AA39AB3A8839893AC3E89AF891
:100CAC00E99BF9AA3BAB3CC3EB13FDEA13FCC3ED88
:100CBC0013FDEC13FCC3EA9CFAEB9DFBEA28FAEB60
:100CCC0039FB8A3B8B3C400122753BFF753CFF2274
:100CDC0030580281DC759100C3E4954BF594E49592
:100CEC004CF595759104D258227892E6FF7E10301F
:100CFC005B027F053063047F037E00A93CA83B7A2E
:100D0C0004C3E913F9E813F8DAF7C3E89EF8E99499
:100D1C0000F94009C3E89402E9940050047802E415
:100D2C00F9E9FBE8FAC3E913FDE813FCC3EF9403FC
:100D3C00602EEF20E00DE82CF8E93DF9ECFAEDFB24
:100D4C00020D59E828F8E939F97A02E4FBC3EF946B
:100D5C0003400D8A4D8B4E8849894A8C4B8D4C2211
:100D6C00884D894E8A498B4A8C4B8D4C22305802C7
:100D7C00A179759100C3E4953BF594E4953CF59508
:100D8C00759104D25822753E00752000020DA17594
:100D9C003E00752040D2AF053E20580122759D00C3
:100DAC00759C00E53CC313C313F8086036306A0623
:100DBC00C313C313F808C3E8940A4002780A306DD1
:100DCC0008C3E8940440027804C3E53C940840133B
:100DDC00759D02759C02C3E53C94104006759D03FD
:100DEC00759C03205803D2AF22791E206D02790A1C
:100DFC00D2AF0000C2AF205A0A793C206D027914A0
:100E0C00306FE03063027978C3E58B9940D5E59E6D
:100E1C007005E59B020E25E59AF45440B52002A11D
:100E2C00A1D8C0D2AF22C25B789CE6146007E53E25
:100E3C00147002D25B30630B0538205810753800E3
:100E4C00020E59205807158115810217E42275915D
:100E5C0000C3E4954DF594E4954EF595759104D247
:100E6C005822AE25305B4F78A3E6FFBF010BD25C56
:100E7C00752500C293C295C29791E1305C0375252C
:100E8C0000305802C187BF020BD25C752500C2939B
:100E9C00C295C29778A2B6010D91E1305C0375251D
:100EAC0000305802C1A7BF030BD25C752500C2935A
:100EBC00C295C297D15A305C03752500305802C1D7
:100ECC00C2305B04C25C8E2522C2AFC294206A037E
:100EDC00020EF790031A206C12306E0F207402C2AF
:100EEC0096307402C292740AD5E0FD207402D2923C
:100EFC00307402D296759F33759E00753D02D2AF49
:100F0C0022C2AF206A03020F2F9002D9306E17C293
:100F1C0094207402C296307402C292740AD5E0FD19
:100F2C00020F329001DA207402C297307402C2931D
:100F3C00305A06E5256002D295207403759E233045
:100F4C007403759E22753D03D2AF22C2AF2074028A
:100F5C00C292307402C296206A03020F79900298F2
:100F6C00206C0A306E07C294740AD5E0FD2074021E
:100F7C00D296307402D292207403759E2230740380
:100F8C00759E23753D04D2AF22C2AF206A03020FB7
:100F9C00B7900257306E17207402C292307402C29E
:100FAC0096C294740AD5E0FD020FBA9001C8C2959E
:100FBC00305A0EE525600A207402D293307402D2A6
:100FCC0097759F33759E00753D05D2AF22C2AF2039
:100FDC007402C296307402C292206A03021003900B
:100FEC000206206C12306E0F207402C29230740212
:100FFC00C296740AD5E0FDD294207403759E2330FA
:10100C007403759E22753D06D2AF22C2AF206A03CF
:10101C0002104190036B306E1F207402C292307428
:10102C0002C296207402C296307402C292740AD51F
:10103C00E0FD0210449001EC207402C29330740263
:10104C00C297305A0EE525600A207402D29730748C
:10105C0002D293207403759E22307403759E2375FF
:0E106C003D01D2AF229001C6C293C295C29739
:10107A00C292C294C29622C3E54F9535E550953681
:10108A005001227890E6FFC3EF94055018C3EF94FD
:10109A0004501BC3EF9403501EC3EF94025021C3A4
:1010AA00EF94015024C3E54F943CF80210DCC3E5E9
:1010BA004F9428F80210DCC3E54F941AF80210DCAA
:1010CA00C3E54F9412F80210DCC3E54F940AF80204
:1010DA0010DCE5509400F9884F89502230580302F9
:1010EA0010E622788076077881760778827601780A
:1010FA009476017883760478867607788F760378F3
:10110A009076017895760278927603789B760D78B8
:10111A0093760178877602789C76017888760178CA
:10112A0089760178857600788C7600788D760078D5
:10113A008E76B478967625789776D0789876787879
:10114A009976C8789A7604789D7600227893E6FF95
:10115A00756409756501C3BF020975640575650182
:10116A0002119BC3BF030975640575650202119BD1
:10117A00C3BF040975640575650302119BC3BF05E6
:10118A0006756409756507C3BF060675640075654B
:10119A00007887E6FFC26CC3BF0302D26CC26BC27F
:1011AA006A7418552D6002D26AC26E6002D26ED27B
:1011BA006F6002C26FC2747888E630E102D274C2EC
:1011CA00757889E630E102D275C3EF94026008753A
:1011DA008E01D26D0211E6758E00C26D227880E60C
:1011EA001490008093789EF67881E614900080939C
:1011FA00789FF6117122789BE61490008D9378A05F
:10120A00F61171227886E61490009A9378A1F61165
:10121A007122789CE6149000A79378A2F6789CE64F
:10122A00149000AC9378A3F6117122227896E6FA0C
:10123A007897E6FB3076047A007BFFC3EB9AFCC30F
:10124A00948250027C82756C00056CEC856CF0A46B
:10125A00C3E5F0948040F222C2D353D9BF7581C04E
:10126A0043FF8012078175EF0243B203E5B32404FA
:10127A004002F5B37580FF75A40075F1FE75D4F7C9
:10128A0075900275A5FC75F2FC75D50075A0FD7503
:10129A00A60275F30275D60075B0FF75A70175F43D
:1012AA00FF75E2411171E4F8F6D8FD11ED12182F1D
:1012BA00315631E75100510E511C5135513678984B
:1012CA00866D8673117175885075890275C8247583
:1012DA00910475D8401207951207A412078D1207B8
:1012EA00AA12078D1207B012078D121CE512079574
:1012FA0012079512079175A82275B80275E69075BE
:10130A00F610759B80759D03759A80759C0375D13F
:10131A000E75BC5875BB0175BA1F75E88012078136
:10132A00D2AF120A8243DA01C2D8C269120795758E
:10133A003001D2597A05E55770027A05120785E518
:10134A0058C3940240EEE52E540F855A59F55AB502
:10135A0059E2DAE2C25953DACF20750343DA203070
:10136A00750343DA10C2D8C2691207911207857849
:10137A0002740F552E70027800C3E5589840EDC2EA
:10138A00AF1207A41207A41207A4D2AF12079575C9
:10139A004700120785788CE6C3940150030214654E
:1013AA00E530C394015003021465740F552E60355D
:1013BA00C3E55894FF5003021465C2AF1207B6D2B0
:1013CA00AF120791C3E558940150EFC2AF1207A4B8
:1013DA001207891207A4D2AF120791C3E55894FFE6
:1013EA0040E9021D6A7F05D2765136120791C2AFD3
:1013FA00C2765136C3E558947FD2AF4068C2AF1265
:10140A0007B6D2AFDFE1C3E55894057897F612071D
:10141A00951218DF121CED7F0AD276513612079107
:10142A00C2AFC2765136C3E558947FD2AF50E8C2F4
:10143A00AF1207A41207891207A4D2AFDFDBE5585F
:10144A0024057896F61207951218DF121D1C12074A
:10145A0091C3E55894FF40F6021D6AC3E5589547C3
:0F146A004003855847120791C3E558940140028B
:10147900619CC2AF1207B61207B61207B6D2AF12F5
:101489000795753000E4F531F5320531E531F47031
:10149900360532789AE67828146012785014600D6F
:1014A90078A014600878F0146003753200C3E5323F
:1014B90098401415327899866DC2AF1207B6D2AF2B
:1014C9007898866D120791120785E5287008740FC0
:1014D900552E7002613CC3E558940640AD12079140
:1014E900E528700302133C1171E4F522F523F52474
:1014F900F525755CFF7885865FF53FF540F541F583
:1015090042F543F56AF548F52BF52CF55B120C0508
:10151900756A0875BB1E120781120B17E5E820ECE6
:10152900FBA8BDA9BEE97001F8886B120B1B756A8F
:101539000875BB1E7895E630E0030215817887E6C9
:10154900FE760231567887EEF6D261C2AF120BD31E
:1015590085225C85225DD2AFC26175250075620066
:10156900756301D260D263753800120FD911171251
:101579000C81120C050216A67887E6FE760378938D
:10158900E6FD760531567887EEF67893EDF6D2606A
:10159900D261D26E120FD91117120BD31207811211
:1015A9000ED5120781120781120F0D120785120F2E
:1015B90057120785120785120F95120789120FD93D
:1015C900120785120781C261D262120B17120B1B17
:1015D900120BD3756A0875BB1E1117120C7A120CFF
:1015E900F5118111E6120ED5120C7A120CF5118142
:1015F90011E6120F0D120C7A120CF5118111E61277
:101609000F57120C7A120CF5118111E6120F95126F
:101619000C7A120CF5118111E6120FD9120C7A12FB
:101629000CF51181C3E54F9535E5509536400C1100
:10163900E6C3E558940150920217E411E6C26278B4
:1016490087E6FE760231567887EEF685225C855E5E
:101659005D855E25756200756301D263753800C2C8
:10166900AF207402C292307402C296207402C296EC
:10167900307402C292742DD5E0FDD2AF1117120C4D
:1016890081120CDC120CF5120D79756A0075BB011B
:101699000216A631561117756A0075BB01121DE4B1
:1016A900120D9B120E32120E5A12089F120E6E1252
:1016B9000ED5120C81120CDC120CF5120D79121DCB
:1016C900E4120D92120E32120E5A12091F120E6EE8
:1016D900120F0D120C81120CDC120CF5120D79127D
:1016E9001DE4120D9B120E32120E5A12095F120ED0
:1016F9006E120F57120C81120CDC120CF5120D79B7
:10170900121DE4120D92120E32120E5A1209BC1257
:101719000E6E120F95120C81120CDC120CF5120DC3
:1017290079121DE4120D9B120E32120E5A120A2062
:10173900120E6E120FD9120C81120CDC120CF5125A
:101749000D79121DE4120D92120B17120E32120EA0
:101759005A120B1B120E6E1117120C81120CDC128D
:101769000CF5120D7930632A855E5C855E5D7562C4
:1017790000756301C3E5389464400AC263D2647595
:10178900371402179BC3E558940140030216A602B9
:1017990017E4306419E537147005C26402169CF524
:1017A90037C3E558940140030216A60217E4C3E5BE
:1017B9005B9401400C855E5C855E5D7562FF7563B7
:1017C90001C3E55B94FA5013740F552E7004E52894
:1017D9006009C3E53C94F05002C1A611717887E60F
:1017E900FE760231567887EEF6E4F522F523F524E4
:1017F900F525F55FC260120781121071740F552E1D
:101809007007E528700302133C7895E630E0091269
:101819001CE5121CE5121CE5788DE6C39401400312
:1018290002137602148E901A0D7820121C00E520FE
:10183900B4A50CA3121C00E520B45A0302185112D6
:1018490010ED1218DF0218DE901A037880121C00BE
:10185900A308121C00A308121C00A308121C00A351
:0F18690008A308A308121C00A308121C00A30860
:10187800121C00A308121C00A308A308A308121C2A
:1018880000A308121C00A308121C00A308121C00C5
:10189800A308121C00A308A308121C00A308121C0A
:1018A80000A308121C00A308121C00A308121C00A5
:1018B800A308121C00A308121C00A308121C00A3F2
:1018C80008121C00A308121C00A308121C00A3087D
:1018D800121C00901A2122C2AF121C3F121C199030
:1018E8001A00740A121C05A37403121C05A37410B1
:1018F800121C05901A037880121C04A308121C04F9
:10190800A308121C04A308121C04A308A308A30814
:10191800121C04A308121C04A308121C04A3081216
:101928001C04A308A308A308121C04A308121C047F
:10193800A308121C04A308121C04A308121C04A365
:1019480008A308121C04A308121C04A308121C04F0
:10195800A308121C04A308121C04A308121C04A345
:1019680008121C04A308121C04A308121C04A308D0
:10197800121C04A308121C04A308121C04121C52F3
:07198800121C30901A21220D
:101A00000A031007070104FFFF07020101A55A009E
:101A100000B40301FF0301010225D078C8040D01C1
:021A200000FFC5
:101A4000235467794B4631323041485623202020B9
:101A500023424C48454C4923463331302320202033
:101A60002020202020202020202020202020202076
:101C0000E493F622E6438F01538FFD75EF0275B71B
:101C1000A575B7F1F0538FFE22438F02438F0175F4
:101C2000EF0275B7A575B7F1901A0DF0538FFC222E
:101C3000901A0D74A59105901A0E745A9105227A86
:101C40003079D07820901A409100E520F709A3DA86
:101C5000F7227A3079D0901A40E7910509A3DAF992
:101C600022AB6EA86FBB01057980021CE2BB0205A6
:101C70007981021CE2BB03057982021CE2BB0405E8
:101C80007994021CE2BB05057983021CE2BB0605C0
:101C90007995021CE2BB07057986021CE2BB0805A8
:101CA000798F021CE2BB09057990021CE2BB0A0590
:101CB0007992021CE2BB0B05799B021CE2BB0C056E
:101CC0007993021CE2BB0D057987021CE2BB0E056D
:101CD000799C021CE2BB0F057988021CE27989021B
:101CE0001CE2E8F7227C05120795DCFB22C2AF124A
:101CF00007A41207AA1207B01207B6120789120723
:101D0000A41207AA1207B01207B61207891207A475
:101D10001207AA1207B01207B6D2AF22C2AF12073B
:101D2000B61207B01207AA1207A41207891207B643
:101D30001207B01207AA1207A41207891207B612D7
:101D400007B01207AA1207A4D2AF22AE6EAF6FC2BD
:101D5000AF1207A41207A41207A4120789DEF21219
:101D600007B6120789DFF8D2AF2291ED91E591E530
:101D7000756E01756F01757000B14B7C05AD581221
:101D80000795C3ED955870F5C3E55894014009C314
:101D9000E55894FF4032A1A691611218DF91EDC27F
:101DA000AF75EF1291E5DCD50570C3E57094035073
:101DB0000280C691E5056FE56E149000B193F808B6
:101DC000C3E56F98500280AE91E591E5056EC3E5DD
:101DD0006E94115002809C1210ED1218DFC2AF7584
:101DE000EF1291E5E573C333F573E57433F5745081
:081DF000066373016374F8221D
:00000001FF
