:030000000211CA20
:03000B000200BE32
:03002B000203F5D8
:03005B0002053962
:0300730002052F54
:1000800002030406080C10182030406080020304AC
:1000900006080C101820304080FF0406080C1018C9
:1000A0002030406080A0C000000001010003020277
:1000B000010505020D0505050D0603050202C2AF87
:1000C000C0D0C0E0205A25302F02E47330601A05FA
:1000D00060C37405952540F2956040EE758A78E519
:1000E000257003758A000203EE0203E1306306C245
:1000F00093C295C297C0F0E573541FF572F485253D
:10010000F0A485F071E57225F0D0F0F58AC25AE5C9
:1001100025F4700221D40561306013206A19758BB3
:1001200000D0E0D0D0C293C295C297D2AF32C29372
:10013000C295C2970201C4D26EC26FE565601CC34E
:10014000E5611495654014C26ED26FC3E561956494
:1001500050030201C47561000201C4206C14C293F3
:10016000C295C297740AD5E0FDD292D294D296027B
:1001700001C4C293C295C297E53D20E22520E10D5E
:10018000207402D292307402D2960201C420E0059B
:10019000D2940201C4207402D296307402D2920228
:1001A00001C420E11520E00D207402D292307402C7
:1001B000D2960201C4D2940201C4207402D29630B5
:1001C0007402D292758B00D0E0D0D0C293C295C297
:1001D00097D2AF32D0E0D0D0D2AF3261E1E5256026
:1001E0000A207402D293307402D297C29561E1E57D
:1001F000256002D295207402C297307402C29361C6
:10020000E1E525600A207402D297307402D293206F
:100210007402C293307402C29761E1207402C292E8
:10022000307402C296E525600A207402D2933074BD
:1002300002D297207402C296307402C292C29561B3
:10024000E1207402C292307402C296207402C296F7
:10025000307402C292740AD5E0FDE525600A20746C
:1002600002D293307402D297C29561E1207402C227
:1002700092307402C296E525600A207402D293304F
:100280007402D297C294C29561E1207402C2923086
:100290007402C296C294740AD5E0FDE525600A2076
:1002A0007402D293307402D297C29561E1C294E590
:1002B000256002D295207402C292307402C2962048
:1002C0007402C297307402C29361E1C29420740236
:1002D000C292307402C296740AD5E0FDE525600230
:1002E000D295207402C297307402C29361E1C29425
:1002F000E5256002D295207402C296307402C29243
:10030000207402C297307402C29361E1C2942074D7
:1003100002C296307402C292740AD5E0FDE52560EF
:1003200002D295207402C297307402C29361E12018
:100330007402C296307402C292E525600A207402EB
:10034000D297307402D293C294207402C293307454
:1003500002C29761E1207402C296307402C292C256
:1003600094740AD5E0FDE525600A207402D2973026
:100370007402D293207402C293307402C29761E176
:10038000207402C296307402C292E525600A20747D
:1003900002D297307402D293207402C29230740257
:1003A000C296207402C293307402C29761E1207435
:1003B00002C296307402C292207402C29230740259
:1003C000C296740AD5E0FDE525600A207402D29732
:1003D000307402D293207402C293307402C29761C7
:1003E000E1E571F4F58A758B00756000D25AD0E0B2
:1003F000D0D0D2AF32C2AFC0D0C0E0D2D3C2CEE5EF
:1004000028600A740F552E604915288152780079AA
:1004100000E580307501F430E30278FF53DACF2035
:10042000750343DA2030750343DA10C2D8C269E598
:1004300080307501F430E30279FFC3E89970CE3063
:100440005903752818740F552E600375281888589D
:10045000D268E529600415298165740F552E600561
:1004600043DA01C2D820680281F7E558F8C26874FF
:0E0470000F552E60367982B70431C3E894F040
:10047E00400374F0F8E8C4540F28F87984B70302E7
:10048E0081ABC313C3138721200802C313200A06AE
:10049E00C3C898F881AB28F8500374FFF8C3E895E9
:1004AE005F5003E55FF8E52C5406703D88223063FB
:1004BE000AC3E522955C4003855C227882B6042946
:1004CE00C3E5229524401278A096400DE52426F52A
:1004DE002450097524FF0204EA852224852425C3AD
:1004EE00E524955C4003855C2520CF09D0E0D0D073
:1004FE00C2D3D2AF32C2CF7801E5286008740F554F
:10050E002E70021528C3E55894014005755B00A1B5
:10051E0026E55B046002055BD0E0D0D0C2D3D2AF3B
:10052E0032C2AF53917FC258D2AF32C2AFC0D0C029
:10053E00E0C0F0D2D3A8FBA9FCC2D8306902A19CBE
:10054E0053DACF20750343DA1030750343DA20D225
:10055E0069E580307501F420E302A17088268927B1
:10056E00E11553DACF20750343DA2030750343DAF1
:10057E0010C2D8C269740F552E7002C1FB7800E507
:10058E0080307501F430E302C1FB8858C1FB53DAA9
:10059E00CF20750343DA2030750343DA10C2692089
:1005AE005902C14553DACF20750343DA1030750373
:1005BE0043DA20C2D8D26988538954C3E89551F8DA
:1005CE00E99552F9E4FB7AFAC3E89468E99401508C
:1005DE0008E4D2E3FB7A0FC118C3E894D0E9940281
:1005EE005008E4D2E2FB7A1EC118C3E894A0E99445
:1005FE00055008E4D2E1FB7A3CC118C3E89498E9AF
:10060E0094085006E4D2E0FB7A78C3E89555FCE9ED
:10061E009556FD30E708ECF42401FCEDF4FD75571A
:10062E00007008C3EC9A500375570188558956A877
:10063E0053A95488518952C3E89526F8E99527F9AC
:10064E00307302C1DF307202C1D8E9C313F9E81367
:10065E00F8307102C1D8E9C313F9E813F83070020B
:10066E00C1D8E9C313FDE813FC205918C3EC941C40
:10067E00ED940240030206FBED7009C3EC94C850E2
:10068E000302071574002076037896E624FAFEE43A
:10069E003400FFC3EC9EFCED9FFD50067800790000
:1006AE00C1DFC3EC94FFED9400400678FF7900C1E2
:1006BE00DFEC856CF0A4C5F0A2F733F879004003A7
:1006CE000206EA78FF79000206EAE9C313F9E81395
:1006DE00F8C3E894FFE99400400278FF8858D26886
:1006EE00205902C1FB740FF4552E4BF52E752818A8
:1006FE00740F552E700375280A305902E115740FC8
:10070E00552E600353DAFE752906740F552E7003AD
:10071E0075290AD0F0D0E0D0D0C2D3D2AF32790151
:10072E00E1447903E144790AE144791EE1447964B4
:10073E00E14479C8E1447817E4D5E0FDD8FAD9F65A
:10074E00227A147B78E1677A107B8CE1677A0D7BD5
:10075E00B4E1677A0B7BC8E167AC25752501790298
:10076E00B274E4C294D5E0FDE5256002D295D5E0E1
:10077E00FDC295D5E0FDD294D5E0FDE525600A20B9
:10078E007402D293307402D297E56DD5E0FD2074D9
:10079E0002C293307402C2977496D5E0FDD9C1EAB5
:1007AE00F8D5E0FDD8FBDBB1C2948C2522C37C00CA
:1007BE007D0075F00005F0EA33FAEB33FB50F6EBF3
:1007CE0013FBEA13FAC3E9FFE8FEE89AF8E99BF98E
:1007DE005004EFF9EEF8B3EC33FCED33FDD5F0DF5A
:1007EE00EDF9ECF822E889F08A20D2D4F8A9F07B52
:1007FE000030F70B7BFFF42401F8E9F43400F9E83C
:10080E008520F0A4ADF0F8E98520F0A4AFF0FEED60
:10081E002EF974003FFA7C04C3EA13FAE913F9E8DF
:10082E0013F8DCF48BF030F70AE8F42401F8E9F45D
:10083E003400F9E889F0C2D4F8A9F0227882B6041F
:10084E00030208C9C3E55894014018E548702A7898
:10085E0005C37994B702027812C3E53B9400E53CD8
:0F086E00984013852224E4F53FF540F541F5420B
:10087D00F543F5480208C9754801C37994E7940218
:10088D00601BE523F43333F913F8E9540104F9E857
:10089D0054FEC39440F8E99400F90208C5E523F429
:1008AD0033333333F913F8E954070404F9E854F8F2
:1008BD00C39440F8E99400F9883F894022E54860E7
:1008CD003BC3E53C13F9E53B13F8C3E53F98F8E569
:1008DD004099F9500CC3E89480E994FF4016020941
:1008ED0005C3E8947FE994005003020905787F79E8
:1008FD0000020905788079FF8844894522E5486022
:10090D0058E5442541F8E5453542F9854520E43063
:10091D000701F43543FA30E709C3EA94F0401502B4
:10092D000947C3EA940F500302094778FF79FF7A0C
:10093D000F020947780079007AF0C3E524955C50E1
:10094D0006E52460092160E54520E70D2160E545B8
:10095D0030E706884189428A4322E548700302093F
:10096D00CB789EE6FAC3E54433F8E54533F9120733
:10097D00F3E930E70BC3E89480E994FF401321A21B
:10098D00C3E8947FE99400500221A2787F79002179
:10099D00A2788079FFE820E715C3E52398F8400990
:1009AD00C3E8940140030209C978010209C9E8F4BA
:1009BD0024012523F840030209C978FF884622E562
:1009CD00487003020A2E789FE6FAA842A94312073F
:1009DD00F3E930E70CC3E89401E994FF4016020AED
:1009ED0005C3E894FFE994005003020A0578FF79E6
:1009FD0000020A05780179FFE920E715C3E546985D
:100A0D00F84009C3E894014003020A2C7800020A59
:100A1D002CE8F424012546F84003020A2C78FF88BF
:100A2D002422020AC67883E6F520120F4375E8905A
:100A3D00E5E820ECEDA8BDA9BE120FDB7568307599
:100A4D006900C3740013FD743013FC74302CFC74F6
:100A5D00003DFDECFAEDFBC3E89AE99B4014E56817
:100A6D002430F568E5693400F569EA2CFAEB3DFBB5
:100A7D0080E5AE68AF69C3E56913F9E56813F8C39E
:100A8D00E913F9E813F8E56828F566E56939F567BE
:100A9D007A03C3E913F9E813F8DAF7AA201A7009F3
:100AAD00756800756900020AC61AEA6008EE28FE2C
:100ABD00EF39FFDAF88E688F692275E89022788316
:100ACD00E6FFE5E820ECF7A8BDA9BE056AC3E56A17
:100ADD0094084052756A00E97007E56B601B020AC5
:100AED00FAC3E8956B6010E56B5006600C14020BB1
:100AFD00060460F9020B06E56BF56BC394A8F8408C
:100B0D0021755CC0C3E89405F84017755C80C3E897
:100B1D009405F8400D755C40C3E89405F8400375E5
:100B2D005C0075BB0122C3E56AB4070375BB1E22C9
:100B3D0030610278323062027878E52C54066021FB
:100B4D00E879A187F0A4C5F0A2F733F8C3E8955C66
:100B5D004002A85C882288248825306104C3E8F50A
:100B6D005E22788FE6FFC3EF94055018C3EF94040F
:100B7D005020C3EF94035028C3EF94025030C3EFBD
:100B8D00940150387533A075340F75353C753605A5
:100B9D0061D77533C075341275354075360661D71A
:100BAD007533707534177535D075360761D7753354
:100BBD004C75341D7535C475360961D77533287577
:100BCD0034237535B875360B61D785334F85345061
:100BDD00753B00753C0822A84FA950020BEFA849A0
:100BED00A94A759100C3E498F594E499F59575912A
:100BFD0004D25875C820A8CCA9CD75C824AA39AB84
:100C0D003A8839893AC3E89AF8E99BF9AA3BAB3C93
:100C1D00C3EB13FDEA13FCC3ED13FDEC13FCC3EAA8
:100C2D009CFAEB9DFBEA28FAEB39FB8A3B8B3C40A7
:100C3D000122753BFF753CFF2230580281467591AC
:100C4D0000C3E4954BF594E4954CF595759104D25C
:100C5D0058227892E6FF7E10305B027F05306304E8
:0F0C6D007F037E00A93CA83B7A04C3E913F9E892
:100C7C0013F8DAF7C3E89EF8E99400F94009C3E8E1
:100C8C009402E9940050047802E4F9E9FBE8FAC311
:100C9C00E913FDE813FCC3EF9403602EEF20E00D85
:100CAC00E82CF8E93DF9ECFAEDFB020CC3E828F866
:100CBC00E939F97A02E4FBC3EF9403400D8A4D8BBA
:100CCC004E8849894A8C4B8D4C22884D894E8A49D5
:100CDC008B4A8C4B8D4C2230580281E3759100C3AA
:100CEC00E4953BF594E4953CF595759104D2582226
:100CFC00753E00752000020D0B753E00752040D22C
:100D0C00AF053E20580122759D00759C00E53CC343
:100D1C0013C313F8086036306A06C313C313F808FC
:100D2C00C3E8940A4002780A306D08C3E894044082
:100D3C00027804C3E53C94084013759D02759C022F
:100D4C00C3E53C94104006759D03759C0320580325
:100D5C00D2AF22791E206D02790AD2AF0000C2AF49
:100D6C00205A0A793C206D027914306FE03063020E
:100D7C007978C3E58B9940D5E59E7005E59B020D0E
:100D8C008FE59AF45440B52002A10BD8C0D2AF2203
:100D9C00C25B789CE6146007E53E147002D25B30AF
:100DAC00630B0538205810753800020DC320580706
:100DBC001581158102174822759100C3E4954DF5F4
:100DCC0094E4954EF595759104D25822AE25305B7E
:100DDC004F78A3E6FFBF010BD25C752500C293C20E
:100DEC0095C297914B305C03752500305802A1F1E8
:100DFC00BF020BD25C752500C293C295C29778A234
:100E0C00B6010D914B305C03752500305802C111B1
:100E1C00BF030BD25C752500C293C295C297B1C4B7
:100E2C00305C03752500305802C12C305B04C25C69
:100E3C008E2522C2AFC294206A03020E6190032F4A
:100E4C00206C12306E0F207402C296307402C29263
:100E5C00740AD5E0FD207402D292307402D29675D9
:100E6C009F33759E00753D02D2AF22C2AF206A033C
:100E7C00020E999002EE306E17C294207402C29644
:100E8C00307402C292740AD5E0FD020E9C9001EF00
:100E9C00207402C297307402C293305A06E5256062
:100EAC0002D295207403759E23307403759E2275AF
:100EBC003D03D2AF22C2AF207402C292307402C280
:100ECC0096206A03020EE39002AD206C0A306E0786
:100EDC00C294740AD5E0FD207402D296307402D20A
:100EEC0092207403759E22307403759E23753D0405
:100EFC00D2AF22C2AF206A03020F2190026C306E77
:100F0C0017207402C292307402C296C294740AD52D
:100F1C00E0FD020F249001DDC295305A0EE52560EC
:100F2C000A207402D293307402D297759F33759E47
:100F3C0000753D05D2AF22C2AF207402C296307448
:100F4C0002C292206A03020F6D90021B206C1230B9
:100F5C006E0F207402C292307402C296740AD5E0ED
:100F6C00FDD294207403759E23307403759E2275F4
:100F7C003D06D2AF22C2AF206A03020FAB900380B2
:100F8C00306E1F207402C292307402C2962074021A
:100F9C00C296307402C292740AD5E0FD020FAE9074
:100FAC000201207402C293307402C297305A0EE5CB
:100FBC0025600A207402D297307402D293207403F5
:100FCC00759E22307403759E23753D01D2AF22901D
:100FDC0001DBC293C295C297C292C294C29622C33D
:100FEC00E54F9535E55095365001227890E6FFC3D4
:100FFC00EF94055018C3EF9404501BC3EF940350A7
:10100C001EC3EF94025021C3EF94015024C3E54F4B
:10101C00943CF8021046C3E54F9428F8021046C3DE
:10102C00E54F941AF8021046C3E54F9412F80210DB
:10103C0046C3E54F940AF8021046E5509400F9882F
:10104C004F8950223058030210502278847603784E
:10105C0085760478867607788F760378907605788F
:0F106C0095760278927603789B760D78937605C9
:10107B0078877603789C7601788876017889760173
:10108B0078827604788C7600788D7600788E76B4BC
:10109B0078967625789776D078987678789976C8FA
:1010AB00789A7604789D7600227893E6FF7564092A
:1010BB00756501C3BF02097564057565010210F9F9
:1010CB00C3BF03097564057565020210F9C3BF043C
:1010DB00097564057565030210F9C3BF05067564D0
:1010EB0009756507C3BF06067564007565007887CB
:1010FB00E6FFC26CC3BF0302D26CC26BC3BF040258
:10110B00D26BC26A7418552D6002D26AC26E60022D
:10111B00D26ED26F6002C26FC2747888E630E10281
:10112B00D274C2757889E630E102D275C3EF9402AE
:10113B006008758E01D26D02114A758E00C26D2248
:10114B007880E61490008093789EF67881E6149070
:10115B00008093789FF6120FDB22789BE6149000A9
:10116B008D9378A0F6120FDB227886E61490009A06
:10117B009378A1F6120FDB22789CE6149000A793CC
:10118B0078A2F6789CE6149000AC9378A3F6120F35
:10119B00DB22227896E6FA7897E6FB3076047A0023
:1011AB007BFFC3EB9AFCC3948250027C82756C006C
:1011BB00056CEC856CF0A4C3E5F0948040F222C280
:1011CB00D353D9BF7581C043FF8012072C75EF0233
:1011DB0043B203E5B324044002F5B37580FF75A455
:1011EB000075F1FE75D4F775900275A5FC75F2FCD0
:1011FB0075D50075A0FD75A60275F30275D6007541
:10120B00B0FF75A70175F4FF75E241120FDBE4F82F
:10121B00F6D8FD115712177811B4314B3165317473
:10122B003183319D319E7898866D8673120FDB75F5
:10123B00885075890275C82475910475D8401207BA
:10124B004012074F12073812075512073812075B67
:10125B00120738121CCD12074012074012073C75BB
:10126B00A82275B80275E69075F610759B80759D72
:10127B0003759A80759C0375D10E75BC5875BB01AF
:10128B0075BA1F75E88012072CD2AF120A2F43DAFA
:10129B0001C2D8C269120740753001D2597A05E5EF
:1012AB005770027A05120730E558C3940240EEE5F9
:1012BB002E540F855A59F55AB559E2DAE2C25953F1
:1012CB00DACF20750343DA2030750343DA10C2D826
:1012DB00C26912073C1207307802740F552E700248
:1012EB007800C3E5589840EDC2AF12074F12074F75
:1012FB0012074FD2AF120740754700120730788C98
:10130B00E6C3940150030213CFE530C3940150039D
:10131B000213CF740F552E6035C3E55894FF50035D
:10132B000213CFC2AF120761D2AF12073CC3E5580D
:10133B00940150EFC2AF12074F12073412074FD26E
:10134B00AF12073CC3E55894FF40E9021D527F05DD
:10135B00D276319E12073CC2AFC276319EC3E5589E
:10136B00947FD2AF4068C2AF120761D2AFDFE1C347
:10137B00E55894057897F6120740121814121CD5ED
:10138B007F0AD276319E12073CC2AFC276319EC322
:10139B00E558947FD2AF50E8C2AF12074F12073413
:1013AB0012074FD2AFDFDBE55824057896F612070C
:1013BB0040121814121D0412073CC3E55894FF4049
:1013CB00F6021D52C3E5589547400385584712074F
:1013DB003CC3E558940140026106C2AF120761128B
:1013EB000761120761D2AF120740753000E4F53187
:1013FB00F5320531E531F470360532789AE6782806
:10140B00146012785014600D78A014600878F014F2
:10141B006003753200C3E532984014153278998613
:10142B006DC2AF120761D2AF7898866D12073C126E
:10143B000730E5287008740F552E700241A6C3E5DE
:10144B0058940640AD12073CE52870030212A61211
:10145B000FDBE4F522F523F524F525755CFF788584
:0E146B00865FF53FF540F541F542F543F56A21
:10147900F548F52BF52CF55B120B6F756A0875BBF2
:101489001E12072C120AC7E5E820ECFBA8BDA9BE6D
:10149900E97001F8886B120ACB756A0875BB1E786A
:1014A90095E630E0030214ED7887E6FE760211B482
:1014B9007887EEF6D261C2AF120B3D85225C852298
:1014C9005DD2AFC261752500756200756301D26096
:1014D900D263753800120F43120F81120BEB120BF6
:1014E9006F02161C7887E6FE76037893E6FD76058B
:1014F90011B47887EEF67893EDF6D260D261D26EA8
:10150900120F43120F81120B3D12072C120E3F12BC
:10151900072C12072C120E77120730120EC1120770
:1015290030120730120EFF120734120F4312073020
:1015390012072CC261D262120AC7120ACB120B3DE2
:10154900756A0875BB1E120F81120BE4120C5F122B
:101559000FEB1150120E3F120BE4120C5F120FEB3E
:101569001150120E77120BE4120C5F120FEB11508F
:10157900120EC1120BE4120C5F120FEB1150120E76
:10158900FF120BE4120C5F120FEB1150120F4312F2
:101599000BE4120C5F120FEBC3E54F9535E550953F
:1015A90036400C1150C3E5589401508B021748116D
:1015B90050C2627887E6FE760211B47887EEF68526
:1015C900225C855E5D855E25756200756301D26367
:1015D900753800C2AF207402C292307402C29620DC
:1015E9007402C296307402C292742DD5E0FDD2AF56
:1015F900120F81120BEB120C46120C5F120CE375E1
:101609006A0075BB0102161C11B4120F81756A00BC
:1016190075BB01121DCC120D05120D9C120DC412C1
:10162900084A120DD8120E3F120BEB120C46120C7F
:101639005F120CE3121DCC120CFC120D9C120DC48E
:101649001208CA120DD8120E77120BEB120C4612A1
:101659000C5F120CE3121DCC120D05120D9C120D1C
:10166900C412090A120DD8120EC1120BEB120C4644
:10167900120C5F120CE3121DCC120CFC120D9C1201
:101689000DC4120967120DD8120EFF120BEB120CC2
:1016990046120C5F120CE3121DCC120D05120D9CA3
:1016A900120DC41209CC120DD8120F43120BEB12F2
:1016B9000C46120C5F120CE3121DCC120CFC120A20
:1016C900C7120D9C120DC4120ACB120DD8120F812C
:1016D900120BEB120C46120C5F120CE330632A75E5
:1016E9005CFF755DFF756200756301C3E53894643D
:1016F900400AC263D264753714021712C3E55894BD
:1017090001400302161C021748306419E5371470AA
:1017190005C264021611F537C3E558940140030266
:10172900161C021748C3E55B94825013740F552E9B
:101739007004E5286009C3E53C94F05002C11C120D
:101749000FDB7887E6FE760211B47887EEF6E4F5CA
:1017590022F523F524F525F55FC26012072C120F37
:10176900DB740F552E7006E528700241A661F890CA
:101779001A0D7820121C00E520B45A0CA3121C0083
:10178900E520B4A50302179911571218140218136A
:1017990078827604901A077884121C00A308121C18
:1017A90000A308121C00A308121C00A308121C00A5
:1017B900A308121C00A308A308A308121C00A3086D
:1017C900A308A308121C00A308121C00A308A3085D
:1017D900121C00A308121C00A308A308121C00A3D2
:1017E90008121C00A308121C00A308121C00A3085D
:1017F900121C00A308121C00A308121C00A3081243
:101809001C00A308121C00901A2122C2AF121C3F0F
:10181900121C19901A00740A121C05A37403121CD5
:1018290005A37410121C05901A077884121C04A3CE
:1018390008121C04A308121C04A308121C04A30800
:10184900121C04A308121C04A308A308A308121C51
:1018590004A308A308A308121C04A308121C04A3C8
:0F18690008A308121C04A308121C04A308A30858
:10187800121C04A308121C04A308121C04A30812B7
:101888001C04A308121C04A308121C04A308121C9D
:1018980004A308121C04A308121C04121C52121CD4
:0518A80030901A21221E
:101A00000A0310FFFFFFFF0304070301015AA500AB
:101A1000FFFF0305FF0305FF0225D0FAFA040D01BD
:021A200000FFC5
:101A4000235467794B4631323041485623202020B9
:101A500023424C48454C4923463331302320202033
:101A60002020202020202020202020202020202076
:101C0000E493F622E6438F01538FFD75EF0275B71B
:101C1000A575B7F1F0538FFE22438F02438F0175F4
:101C2000EF0275B7A575B7F1901A0DF0538FFC222E
:101C3000901A0D745A9105901A0E74A59105227A86
:101C40003079D07820901A409100E520F709A3DA86
:101C5000F7227A3079D0901A40E7910509A3DAF992
:101C600022AB6EA86FBB01057984021CCABB0205BA
:101C70007985021CCABB03057995021CCABB040501
:101C80007986021CCABB0505798F021CCABB0605F2
:101C90007990021CCABB07057992021CCABB0805D1
:101CA000799B021CCABB09057993021CCABB0A05B1
:101CB0007987021CCABB0B05799C021CCABB0C05A8
:101CC0007988021CCA7989021CCAE8F7227C0512AD
:101CD0000740DCFB22C2AF12074F12075512075B09
:101CE00012076112073412074F12075512075B12D1
:101CF000076112073412074F12075512075B1207CC
:101D000061D2AF22C2AF12076112075B12075512F0
:101D1000074F12073412076112075B1207551207AB
:101D20004F12073412076112075B12075512074F53
:101D3000D2AF22AE6EAF6FC2AF12074F12074F1273
:101D4000074F120734DEF2120761120734DFF8D2B0
:101D5000AF2291D591CD91CD756E01756F017570E2
:101D600000B1337C05AD58120740C3ED955870F5AE
:101D7000C3E55894014009C3E55894FF4032A18E51
:101D8000916112181491D5C2AF75EF1291CDDCD5C7
:101D90000570C3E5709403500280C691CD056FE5D0
:101DA0006E149000B193F808C3E56F98500280AEAE
:101DB00091CD91CD056EC3E56E940E5002809C12BC
:101DC0001057121814C2AF75EF1291CDE573C333DB
:101DD000F573E57433F57450066373016374F82288
:00000001FF
