:030000000211EBFF
:03000B000200C12F
:03002B00020400CC
:03005B0002055249
:030073000205483B
:1000800002030406080C10182030406080020304AC
:1000900006080C101820304080FF0406080C1018C9
:1000A0002030406080A0C000000001010003020277
:1000B000010D0D040506020D0505050D06040502DA
:1000C00002C2AFC0D0C0E0205A0D302F02E473301E
:1000D000600280F90203EC306306C2B1C287C281BC
:1000E000C0F0E573541FF572F48525F0A485F07116
:1000F000E57225F0D0F0F58AC25AE525F4700221A8
:10010000DF0561306013206A19758B00D0E0D0D014
:10011000C2B1C287C281D2AF32C2B1C287C281022C
:1001200001CFD26EC26FE565601CC3E561149565B1
:100130004014C26ED26FC3E561956450030201CFD3
:100140007561000201CF206C14C2B1C287C28174F4
:1001500006D5E0FDD282D286D2800201CFD26FC214
:10016000B1C287C281E53D20E23420E1127406D598
:10017000E0FD207402D280307402D2820201CF20CE
:10018000E0127406D5E0FD207402D280307402D2F1
:10019000820201CF7406D5E0FDD2860201CF20E1B4
:1001A0001F20E00A7406D5E0FDD2860201CF740656
:1001B000D5E0FD207402D282307402D2800201CFD9
:1001C0007406D5E0FD207402D282307402D28075AC
:1001D0008B00D0E0D0D0C2B1C287C281D2AF32D0C2
:1001E000E0D0D0D2AF3261ECE525600A207402D2B3
:1001F000B1307402D281C28761ECE5256002D287FA
:10020000207402C281307402C2B161ECE525600A3B
:10021000207402D281307402D2B1207402C2B13093
:100220007402C28161EC207402C282307402C28006
:10023000E525600A207402D2B1307402D2812074A4
:1002400002C280307402C282C28761EC207402C292
:1002500082307402C280207402C280307402C28272
:100260007406D5E0FDE525600A207402D2B1307431
:1002700002D281C28761EC207402C282307402C251
:1002800080E525600A207402D2B1307402D281C2A6
:1002900086C28761EC207402C282307402C280C2BE
:1002A000867406D5E0FDE525600A207402D2B130DF
:1002B0007402D281C28761ECC286E5256002D287D2
:1002C000207402C282307402C280207402C2813063
:1002D0007402C2B161ECC286207402C28230740220
:1002E000C2807406D5E0FDE5256002D28720740245
:1002F000C281307402C2B161ECC286E5256002D2CF
:1003000087207402C280307402C282207402C281CB
:10031000307402C2B161ECC286207402C2803074B3
:1003200002C2827406D5E0FDE5256002D287207402
:1003300002C281307402C2B161EC207402C280300A
:100340007402C282E525600A207402D281307402F0
:10035000D2B1C286207402C2B1307402C28161EC93
:10036000207402C280307402C282C2867406D5E054
:10037000FDE525600A207402D281307402D2B120DA
:100380007402C2B1307402C28161EC207402C28076
:10039000307402C282E525600A207402D281307472
:1003A00002D2B1207402C282307402C28020740270
:1003B000C2B1307402C28161EC207402C280307418
:1003C00002C282207402C282307402C2807406D5D6
:1003D000E0FDE525600A207402D281307402D2B1BA
:1003E000207402C2B1307402C28161ECE571F4F58F
:1003F0008A758B00756000D25AD0E0D0D0D2AF326F
:10040000C2AFC0D0C0E0D2D3C2CEE528600A740F1C
:10041000552E60491528815D78007900E58030759A
:1004200001F430E50278FF53DACF20750343DA2078
:1004300030750343DA10C2D8C269E580307501F423
:1004400030E50279FFC3E89970CE3059037528185A
:10045000740F552E60037528188858D268E52960F6
:100460000415298170740F552E600543DA01C2D836
:0E047000206802A102E558F8C268740F552EEC
:10047E0060367982B70431C3E894F0400374F0F823
:10048E00E8C4540F28F87984B7030281B6C313C3A6
:10049E00138721200802C313200A06C3C898F881C7
:1004AE00B628F8500374FFF8C3E8955F5003E55F74
:1004BE00F8E52C5406703D882230630AC3E5229578
:1004CE005C4003855C227882B60429C3E52295241C
:1004DE00401278A096400DE52426F5245009752487
:1004EE00FF0204F5852224852425C3E524955C406E
:1004FE0003855C2520CF09D0E0D0D0C2D3D2AF3255
:10050E00C2CF7801E5286008740F552E70021528A9
:10051E00C3E55894014005755B00A131E55B0460AD
:10052E0002055BE55DC3240A5005755DFFA13FF52D
:10053E005DD0E0D0D0C2D3D2AF32C2AF53917FC222
:10054E0058D2AF32C2AFC0D0C0E0C0F0D2D3A8FBF9
:10055E00A9FCC2D8306902A1B553DACF2075034386
:10056E00DA1030750343DA20D269E580307501F474
:10057E0020E502A18988268927E12E53DACF20753E
:10058E000343DA2030750343DA10C2D8C269740F00
:10059E00552E7002E1147800E580307501F430E5D7
:1005AE0002E1148858E11453DACF20750343DA20A0
:1005BE0030750343DA10C269205902C15E53DACF97
:1005CE0020750343DA1030750343DA20C2D8D2699E
:1005DE0088538954C3E89551F8E99552F9E4FB7AAA
:1005EE00FAC3E89468E994015008E4D2E3FB7A0F69
:1005FE00C131C3E894D0E994025008E4D2E2FB7A08
:10060E001EC131C3E894A0E994055008E4D2E1FB81
:10061E007A3CC131C3E89498E994085006E4D2E0DC
:10062E00FB7A78C3E89555FCE99556FD30E708EC62
:10063E00F42401FCEDF4FD7557007008C3EC9A50DC
:10064E000375570188558956A853A9548851895264
:10065E00C3E89526F8E99527F9307302C1F8307290
:10066E0002C1F1E9C313F9E813F8307102C1F1E9DF
:10067E00C313F9E813F8307002C1F1E9C313FDE8B2
:10068E0013FC205918C3EC941CED9402400302078E
:10069E0014ED7009C3EC94C8500302072E740020A9
:1006AE0076037896E624FAFEE43400FFC3EC9EFC53
:1006BE00ED9FFD500678007900C1F8C3EC94FFED74
:1006CE009400400678FF7900C1F8EC856CF0A4C563
:1006DE00F0A2F733F87900400302070378FF7900A0
:1006EE00020703E9C313F9E813F8C3E894FFE9948A
:1006FE0000400278FF8858D268205902E114740F26
:10070E00F4552E4BF52E752818740F552E70037553
:10071E00280A305902E12E740F552E600353DAFE6B
:10072E00752906740F552E700375290AD0F0D0E086
:10073E00D0D0C2D3D2AF327901E15D7903E15D79D8
:10074E000AE15D791EE15D7964E15D79C8E15D786C
:10075E0017E4D5E0FDD8FAD9F6227A147B78E18039
:10076E007A107B8CE1807A0D7BB4E1807A0B7BC8AA
:10077E00E180AC257525017902B274E4C286D5E01C
:10078E00FDE5256002D287D5E0FDC287D5E0FDD21A
:10079E0086D5E0FDE525600A207402D2B1307402E0
:1007AE00D281E56DD5E0FD207402C2B1307402C273
:1007BE00817496D5E0FDD9C1EAF8D5E0FDD8FBDB12
:1007CE00B1C2868C2522C37C007D0075F00005F039
:1007DE00EA33FAEB33FB50F6EB13FBEA13FAC3E9F9
:1007EE00FFE8FEE89AF8E99BF95004EFF9EEF8B34A
:1007FE00EC33FCED33FDD5F0DFEDF9ECF822E889B2
:10080E00F08A20D2D4F8A9F07B0030F70B7BFFF4EE
:10081E002401F8E9F43400F9E88520F0A4ADF0F8ED
:10082E00E98520F0A4AFF0FEED2EF974003FFA7CBE
:10083E0004C3EA13FAE913F9E813F8DCF48BF03089
:10084E00F70AE8F42401F8E9F43400F9E889F0C273
:10085E00D4F8A9F0227882B604030208C0C3E55882
:0F086E0094014003020888852224E4F53FF540F9
:10087D00F541F542F543F5480208C07882E6FC756E
:10088D004801E522F523783879C7AA3BAB3CC3EB89
:10089D0013FBEA13FAEC146013C3EB13FBEA13FA20
:1008AD00EC14146007C3EB13FBEA13FA1207D48898
:1008BD003F894022E5486034C3E53F9523F8E54084
:1008CD009400F9500CC3E89480E994FF4016020897
:1008DD00F5C3E8947FE9940050030208F5787F7919
:1008ED00000208F5788079FF8844894522E5486043
:1008FD0058E5442541F8E5453542F9854520E43074
:10090D000701F43543FA30E709C3EA94F0401502C4
:10091D000937C3EA940F500302093778FF79FF7A3C
:10092D000F020937780079007AF0C3E524955C5001
:10093D0006E52460092150E54520E70D2150E545E8
:10094D0030E706884189428A4322E548700302094F
:10095D00BA789EE6FAC3E54433F8E54533F9110C50
:10096D00E930E70BC3E89480E994FF40132191C36C
:10097D00E8947FE9940050022191787F79002191CC
:10098D00788079FFE820E715C3E52398F84009C37F
:10099D00E8940140030209B878010209B8E8F4248B
:1009AD00012523F840030209B878FF884622E5485F
:1009BD007003020A1C789FE6FAA842A943110CE9BC
:1009CD0030E70CC3E89401E994FF40160209F3C324
:1009DD00E894FFE9940050030209F378FF790002CF
:1009ED0009F3780179FFE920E715C3E54698F8404A
:1009FD0009C3E894014003020A1A7800020A1AE8B2
:100A0D00F424012546F84003020A1A78FF882422AF
:100A1D007883E6F520120F5B75E890E5E820ECF0A1
:100A2D00A8BDA9BE120FF0756855756900C3740095
:100A3D0013FD745513FC74552CFC74003DFDECFA3C
:100A4D00EDFBC3E89AE99B4014E5682455F568E58C
:100A5D00693400F569EA2CFAEB3DFB80E5AE68AF31
:100A6D0069C3E56913F9E56813F8C3E913F9E813E8
:100A7D00F8E56828F566E56939F5677A03C3E91382
:100A8D00F9E813F8DAF7AA201A7009756800756984
:100A9D0000020AB11AEA6008EE28FEEF39FFDAF813
:100AAD008E688F692275E890227883E6FFE5E8204D
:100ABD00ECF7A8BDA9BE056AC3E56A940840527556
:100ACD006A00E97007E56B601B020AE5C3E8956BE8
:100ADD006010E56B5006600C14020AF10460F90217
:100AED000AF1E56BF56BC394A8F84021755CC0C3A2
:100AFD00E89405F84017755C80C3E89405F8400D3F
:100B0D00755C40C3E89405F84003755C0075BB0641
:100B1D0022EFC39401601BC3E894FFE994035012C4
:100B2D00C3E89568E995695009E55C600C155C02B0
:100B3D000B46E55CF46002055CA85CC3E5249850A7
:100B4D0002A8248825C3E525955D400B855D25E527
:100B5D005DF46003855D5CC3E56AB4070375BB1E78
:100B6D002230610278323062027878E52C540660CA
:100B7D0021E879A187F0A4C5F0A2F733F8C3E89571
:100B8D005C4002A85C882288248825306104C3E873
:100B9D00F55E22788FE6FFC3EF94055018C3EF94EE
:100BAD00045020C3EF94035028C3EF94025030C378
:100BBD00EF940150387533A075340F75353C75368B
:100BCD000581087533C0753412753540753606814B
:100BDD00087533707534177535D0753607810875FE
:100BED00334C75341D7535C4753609810875332838
:100BFD007534237535B875360B810885334F8534BB
:100C0D0050753B00753C0822A84FA950020C20A836
:100C1D0049A94A759100C3E498F594E499F5957541
:100C2D009104D25875C820A8CCA9CD75C824AA396D
:100C3D00AB3A8839893AC3E89AF8E99BF9AA3BABF4
:100C4D003CC3EB13FDEA13FCC3ED13FDEC13FCC326
:100C5D00EA9CFAEB9DFBEA28FAEB39FB8A3B8B3CCD
:0F0C6D00400122753BFF753CFF22305802817712
:100C7C00759100C3E4954BF594E4954CF5957591FD
:100C8C0004D258227892E6FF7E10305B027F05304A
:100C9C0063047F037E00A93CA83B7A04C3E913F9E3
:100CAC00E813F8DAF7C3E89EF8E99400F94009C3B1
:100CBC00E89402E9940050047802E4F9E9FBE8FABC
:100CCC00C3E913FDE813FCC3EF9403602EEF20E09F
:100CDC000DE82CF8E93DF9ECFAEDFB020CF4E828F0
:100CEC00F8E939F97A02E4FBC3EF9403400D8A4D1D
:100CFC008B4E8849894A8C4B8D4C22884D894E8A63
:100D0C00498B4A8C4B8D4C22305802A114759100A2
:100D1C00C3E4953BF594E4953CF595759104D25854
:100D2C0022753E00752000020D3C753E007520407A
:100D3C00D2AF053E20580122759D00E53CC313C37C
:100D4C0013F8086030306A06C313C313F808C3E8FD
:100D5C00940A4002780A306D08C3E8940440027883
:100D6C0004C3E53C9408400D759D02C3E53C94100A
:100D7C004003759D03205803D2AF22791E206D02CB
:100D8C00790AD2AF0000C2AF205A0A793C206D021A
:100D9C007914306FE03063027978C3E58B99206366
:100DAC000240F740D0E59BF45440B52002A13CD85A
:100DBC00C4D2AF22C25B789CE6146007E53E147087
:100DCC0002D25B30630B0538205810753800020DC9
:100DDC00E72058071581158102175D22759100C314
:100DEC00E4954DF594E4954EF595759104D2582201
:100DFC00AE25305B4F78A3E6FFBF010BD25C7525A7
:100E0C0000C2B1C287C281917C305C037525003071
:100E1C005802C115BF020BD25C752500C2B1C28746
:100E2C00C28178A2B6010D917C305C03752500302F
:100E3C005802C135BF030BD25C752500C2B1C28705
:100E4C00C281B1E8305C03752500305802C15030C6
:100E5C005B04C25C8E2522C2AFC286206A03020EDE
:100E6C0082900360306E0F207402C280307402C214
:100E7C00827406D5E0FD207402D282307402D280D6
:100E8C00759F02753D02D2AF22C2AF206A03020EDB
:100E9C00B7900317306E17C286207402C28030746C
:100EAC0002C2827406D5E0FD020EBA9001FA2074DB
:100EBC0002C281307402C2B1305A06E5256002D2FA
:100ECC0087207403759F03307403759F01753D0370
:100EDC00D2AF22C2AF207402C282307402C2802010
:100EEC006A03020EFE9002D6306E07C2867406D5D7
:100EFC00E0FD207402D280307402D282207403751B
:100F0C009F01307403759F03753D04D2AF22C2AFAD
:100F1C00206A03020F3C900295306E17207402C2B7
:100F2C0082307402C280C2867406D5E0FD020F3F87
:100F3C009001E8C287305A0EE525600A207402D26F
:100F4C00B1307402D281759F02753D05D2AF22C2B9
:100F5C00AF207402C280307402C282206A03020F76
:100F6C008290024C306E0F207402C282307402C226
:100F7C00807406D5E0FDD286207403759F0330740F
:100F8C0003759F01753D06D2AF22C2AF206A0302E2
:100F9C000FC09003B9306E1F207402C282307402ED
:100FAC00C280207402C280307402C2827406D5E002
:100FBC00FD020FC390020C207402C2B1307402C245
:100FCC0081305A0EE525600A207402D281307402F9
:100FDC00D2B1207403759F01307403759F03753D66
:100FEC0001D2AF229001E6C2B1C287C281C282C2D5
:100FFC0086C28022C3E54F9535E5509536500122C7
:10100C007890E6FFC3EF94055018C3EF9404501B7F
:10101C00C3EF9403501EC3EF94025021C3EF94010D
:10102C005024C3E54F943CF802105BC3E54F942861
:10103C00F802105BC3E54F941AF802105BC3E54F3E
:10104C009412F802105BC3E54F940AF802105BE5AA
:10105C00509400F9884F89502230580302106522B1
:0E106C0078807607788176077882760178841E
:10107A0076037883760178867609788F7601789078
:10108A0076057895760278927603789B760D789332
:10109A00760678877602789C76027888760278894E
:1010AA00760178857600788C7600788D7600788E51
:1010BA0076B478967625789776D0789876787899EF
:1010CA0076C8789A7604789D7600227893E6FF753A
:1010DA006409756501C3BF02097564057565010276
:1010EA00111AC3BF030975640575650202111AC393
:1010FA00BF040975640575650302111AC3BF0506A5
:10110A00756409756507C3BF0606756400756500D1
:10111A007887E6FFC26CC3BF0302D26CC26BC3BF3F
:10112A000402D26BC26A7418552D6002D26AC26E6A
:10113A006002D26ED26F6002C26FC2747888E630E3
:10114A00E102D274C2757889E630E102D275C3EF42
:10115A0094026008758E01D26D02116B758E00C201
:10116A006D227880E61490008093789EF67881E666
:10117A001490008093789FF6120FF022789BE61461
:10118A0090008D9378A0F6120FF0227886E61490DC
:10119A00009A9378A1F6120FF022789CE614900038
:1011AA00A79378A2F6789CE6149000AC9378A3F6FD
:1011BA00120FF022227896E6FA7897E6FB30760448
:1011CA007A007BFFC3EB9AFCC3948250027C82753F
:1011DA006C00056CEC856CF0A4C3E5F0948040F2D9
:1011EA0022C2D353D9BF7581C043FF801207457508
:1011FA00EF0243B203E5B324044002F5B375803825
:10120A0075A4C775F1FF75D4DF7590FF75A50075D4
:10121A00F20075D50075A0FF75A60075F30075D6A6
:10122A000075B0E475A71B75F4FF75E241120FF063
:10123A00E4F8F6D8FD116C12178D11D5316C318690
:10124A00319531A431BE31BF7898866D8673120FFD
:10125A00F075885075890275C82475910475D8404F
:10126A0012075912076812075112076E1207511214
:10127A000774120751121CE512075912075912076F
:10128A005575A82275B80275E69075F610759B809B
:10129A00759D0375D10E75BC5875BB0675BA1F7559
:1012AA00E880120745D2AF120A1D43DA01C2D8C23A
:1012BA0069120759753001D2597A05E55770027AD1
:1012CA0005120749E558C3940240EEE52E540F85EE
:1012DA005A59F55AB559E2DAE2C25953DACF2075AA
:1012EA000343DA2030750343DA10C2D8C269120701
:1012FA00551207497802740F552E70027800C3E51B
:10130A00589840EDC2AF120768120768120768D2F0
:10131A00AF120759754700120749788CE6C3940142
:10132A0050030213EAE530C3940150030213EA742E
:10133A000F552E6035C3E55894FF50030213EAC2D5
:10134A00AF12077AD2AF120755C3E558940150EF8E
:10135A00C2AF12076812074D120768D2AF120755BB
:10136A00C3E55894FF40E9021D6A7F05D27631BF72
:10137A00120755C2AFC27631BFC3E558947FD2AFC8
:10138A004068C2AF12077AD2AFDFE1C3E5589405CD
:10139A007897F612075912183C121CED7F0AD2767A
:1013AA0031BF120755C2AFC27631BFC3E558947F29
:1013BA00D2AF50E8C2AF12076812074D120768D2BF
:1013CA00AFDFDBE55824057896F612075912183C68
:1013DA00121D1C120755C3E55894FF40F6021D6AF8
:1013EA00C3E55895474003855847120755C3E55842
:1013FA00940140026121C2AF12077A12077A1207DA
:10140A007AD2AF120759753000E4F531F532053159
:10141A00E531F470360532789AE678281460127845
:10142A005014600D78A014600878F01460037532C7
:10143A0000C3E53298401415327899866DC2AF120E
:10144A00077AD2AF7898866D120755120749E528B0
:10145A007008740F552E700241C1C3E558940640B6
:0F146A00AD120755E52870030212C1120FF0E40E
:10147900F522F523F524F525755CFF7885865FF55A
:101489003FF540F541F542F543F56AF548F52BF589
:101499002CF55B120BA0756A0875BB1E1207451265
:1014A9000AB2E5E820ECFBA8BDA9BEE97001F888FD
:1014B9006B120AB6756A0875BB1E7895E630E003AB
:1014C9000215087887E6FE760211D57887EEF6D2FE
:1014D90061C2AF120B6E85225C85225DD2AFC261FB
:1014E900752500756200756301D260D26375380095
:1014F900120F5B120F96120C1C120BA002163178F8
:1015090087E6FE76037893E6FD760511D57887EEB2
:10151900F67893EDF6D260D261D26E120F5B120F9C
:1015290096120B6E120745120E63120745120745F4
:10153900120E95120749120EDF12074912074912B6
:101549000F1A12074D120F5B120749120745C261A4
:10155900D262120AB2120AB6120B6E756A0875BB0C
:101569001E120F96120C15120C9011001165120E15
:1015790063120C15120C9011001165120E95120CC4
:1015890015120C9011001165120EDF120C15120CB8
:101599009011001165120F1A120C15120C901100FE
:1015A9001165120F5B120C15120C901100C3E54F57
:1015B9009535E5509536400C1165C3E558940150B1
:1015C9009102175D1165C2627887E6FE760211D530
:1015D9007887EEF685225C855E5D855E25756200FD
:1015E900756301D263753800C2AF207402C28230BC
:1015F9007402C280207402C280307402C282742DC7
:10160900D5E0FDD2AF120F96120C1C120C77120CFA
:1016190090120D14756A0075BB0602163111D512A8
:101629000F96756A0075BB06121DE4120D36120D70
:10163900C0120DE8120863120DFC120E63120C1C85
:10164900120C77120C90120D14121DE4120D2D12AA
:101659000DC0120DE81208C1120DFC120E95120CE4
:101669001C120C77120C90120D14121DE4120D3677
:10167900120DC0120DE81208FA120DFC120EDF123B
:101689000C1C120C77120C90120D14121DE4120D81
:101699002D120DC0120DE8120957120DFC120F1A66
:1016A900120C1C120C77120C90120D14121DE4125C
:1016B9000D36120DC0120DE81209BB120DFC120FE6
:1016C9005B120C1C120C77120C90120D14121DE4F3
:1016D900120D2D120AB2120DC0120DE8120AB6121D
:1016E9000DFC120F96120C1C120C77120C90120D95
:1016F9001430632A855E5C855E5D756200756301E1
:10170900C3E5389464400AC263D26475371402177A
:1017190027C3E5589401400302163102175D30646E
:1017290019E537147005C264021626F537C3E55862
:101739009401400302163102175DC3E55B94FA5028
:1017490013740F552E7004E5286009C3E53C94F025
:101759005002C131120FF07887E6FE760211D57872
:1017690087EEF6E4F522F523F524F525F55FC26049
:10177900120745120FF0740F552E7006E5287002F6
:1017890041C18113901A0D7820121C00E520B4552F
:101799000CA3121C00E520B4AA030217AE116C12A7
:1017A900183C02183B901A037880121C00A30812F7
:1017B9001C00A308121C00901A067883121C00A3AF
:1017C90008121C00A308A308121C00A308121C007D
:1017D900A308121C00A308121C00A308A308A3084D
:1017E900121C00A308A308121C00A308121C00A3C2
:1017F90008121C00A308A308121C00A308121C004D
:10180900A308A308121C00A308121C00A308121C99
:1018190000A308121C00A308121C00A308121C0034
:10182900A308121C00A308121C00A308121C009094
:101839001A2122C2AF121C3F121C19901A00740AF5
:10184900121C05A37403121C05A37410121C059025
:101859001A037880121C04A308121C04A308121C82
:0F18690004901A067883121C04A308121C04A30F
:1018780008A308121C04A308121C04A308121C04C1
:10188800A308121C04A308A308A308121C04A30895
:10189800A308121C04A308121C04A308121C04A306
:1018A80008A308121C04A308121C04A308A3081206
:1018B8001C04A308121C04A308121C04A308121C6D
:1018C80004A308121C04A308121C04A308121C0475
:1018D800A308121C04A308121C04121C52121C3068
:0418E800901A21220F
:101A00000A03100909040103FF0902020155AA0093
:101A1000FFFF0105FF0306FF0225D02850040D0239
:021A200000FFC5
:101A4000235475726E696779343041232020202039
:101A500023424C48454C4923463331302320202033
:101A60002020202020202020202020202020202076
:101C0000E493F622E6438F01538FFD75EF0275B71B
:101C1000A575B7F1F0538FFE22438F02438F0175F4
:101C2000EF0275B7A575B7F1901A0DF0538FFC222E
:101C3000901A0D74559105901A0E74AA9105227A86
:101C40003079D07820901A409100E520F709A3DA86
:101C5000F7227A3079D0901A40E7910509A3DAF992
:101C600022AB6EA86FBB01057980021CE2BB0205A6
:101C70007981021CE2BB03057982021CE2BB0405E8
:101C80007984021CE2BB05057983021CE2BB0605D0
:101C90007995021CE2BB07057986021CE2BB0805A8
:101CA000798F021CE2BB09057990021CE2BB0A0590
:101CB0007992021CE2BB0B05799B021CE2BB0C056E
:101CC0007993021CE2BB0D057987021CE2BB0E056D
:101CD000799C021CE2BB0F057988021CE27989021B
:101CE0001CE2E8F7227C05120759DCFB22C2AF1286
:101CF000076812076E12077412077A12074D12074F
:101D00006812076E12077412077A12074D120768DD
:101D100012076E12077412077AD2AF22C2AF1207EF
:101D20007A12077412076E12076812074D12077AAB
:101D300012077412076E12076812074D12077A1203
:101D4000077412076E120768D2AF22AE6EAF6FC271
:101D5000AF12076812076812076812074DDEF21209
:101D6000077A12074DDFF8D2AF2291ED91E591E5A8
:101D7000756E01756F01757000B14B7C05AD581221
:101D80000759C3ED955870F5C3E55894014009C350
:101D9000E55894FF4032A1A6916112183C91EDC222
:101DA000AF75EF1291E5DCD50570C3E57094035073
:101DB0000280C691E5056FE56E149000B193F808B6
:101DC000C3E56F98500280AE91E591E5056EC3E5DD
:101DD0006E94115002809C12106C12183CC2AF75A8
:101DE000EF1291E5E573C333F573E57433F5745081
:081DF000066373016374F8221D
:00000001FF
