:030000000211CC1E
:03000B000200BE32
:03002B00020415B7
:03005B0002055942
:0300730002054F34
:1000800002030406080C10182030406080020304AC
:1000900006080C101820304080FF0406080C1018C9
:1000A0002030406080A0C000000001010003020277
:1000B000010505020D0505050D0604050202C2AF86
:1000C000C0D0C0E0205A25302F02E47330601A05FA
:1000D00060C37405952540F2956040EE758A78E519
:1000E000257003758A0002040E020401306306C203
:1000F000B1C287C281C0F0E573541FF572F4852543
:10010000F0A485F071E57225F0D0F0F58AC25AE5C9
:1001100025F4700221F40561306013206A19758B93
:1001200000D0E0D0D0C2B1C287C281D2AF32C2B15A
:10013000C287C2810201E4D26EC26FE565601CC352
:10014000E5611495654014C26ED26FC3E561956494
:1001500050030201E47561000201E4206C14C2B195
:10016000C287C2817406D5E0FDD282D286D28002D7
:1001700001E4D26FC2B1C287C281E53D20E23420E2
:10018000E1127406D5E0FD207402D280307402D2F0
:10019000820201E420E0127406D5E0FD207402D250
:1001A00080307402D2820201E47406D5E0FDD2866A
:1001B0000201E420E11F20E00A7406D5E0FDD286AA
:1001C0000201E47406D5E0FD207402D2823074028C
:1001D000D2800201E47406D5E0FD207402D28230A0
:1001E0007402D280758B00D0E0D0D0C2B1C287C279
:1001F00081D2AF32D0E0D0D0D2AF328101E52560DC
:100200000A207402D2B1307402D281C2878101E522
:10021000256002D287207402C281307402C2B1818B
:1002200001E525600A207402D281307402D2B12027
:100230007402C2B1307402C2818101207402C28290
:10024000307402C280E525600A207402D2B1307495
:1002500002D281207402C280307402C282C28781BD
:1002600001207402C282307402C280207402C280F3
:10027000307402C2827406D5E0FDE525600A207460
:1002800002D2B1307402D281C2878101207402C2CD
:1002900082307402C280E525600A207402D2B13037
:1002A0007402D281C286C2878101207402C2823068
:1002B0007402C280C2867406D5E0FDE525600A207E
:1002C0007402D2B1307402D281C2878101C286E544
:1002D000256002D287207402C282307402C280205C
:1002E0007402C281307402C2B18101C286207402DC
:1002F000C282307402C2807406D5E0FDE52560023A
:10030000D287207402C281307402C2B18101C286D8
:10031000E5256002D287207402C280307402C28256
:10032000207402C281307402C2B18101C28620747D
:1003300002C280307402C2827406D5E0FDE52560F9
:1003400002D287207402C281307402C2B1810120BE
:100350007402C280307402C282E525600A207402F1
:10036000D281307402D2B1C286207402C2B130741C
:1003700002C2818101207402C280307402C282C232
:10038000867406D5E0FDE525600A207402D281302E
:100390007402D2B1207402C2B1307402C2818101F0
:1003A000207402C280307402C282E525600A207483
:1003B00002D281307402D2B1207402C2823074023F
:1003C000C280207402C2B1307402C28181012074E3
:1003D00002C280307402C282207402C2823074026F
:1003E000C2807406D5E0FDE525600A207402D28142
:1003F000307402D2B1207402C2B1307402C2818161
:1004000001E571F4F58A758B00756000D25AD0E071
:10041000D0D0D2AF32C2AFC0D0C0E0D2D3C2CEE5CE
:1004200028600A740F552E6049152881727800796A
:1004300000E580307501F430E50278FF53DACF2013
:10044000750343DA2030750343DA10C2D8C269E578
:1004500080307501F430E50279FFC3E89970CE3041
:100460005903752818740F552E600375281888587D
:0E047000D268E529600415298185740F552E88
:10047E00600543DA01C2D8206802A117E558F8C218
:10048E0068740F552E60367982B70431C3E894F044
:10049E00400374F0F8E8C4540F28F87984B70302C7
:1004AE0081CBC313C3138721200802C313200A066E
:1004BE00C3C898F881CB28F8500374FFF8C3E895A9
:1004CE005F5003E55FF8E52C5406703D88223063DB
:1004DE000AC3E522955C4003855C227882B6042926
:1004EE00C3E5229524401278A096400DE52426F50A
:1004FE002450097524FF02050A852224852425C36C
:10050E00E524955C4003855C2520CF09D0E0D0D052
:10051E00C2D3D2AF32C2CF7801E5286008740F552E
:10052E002E70021528C3E55894014005755B00A195
:10053E0046E55B046002055BD0E0D0D0C2D3D2AFFB
:10054E0032C2AF53917FC258D2AF32C2AFC0D0C009
:10055E00E0C0F0D2D3A8FBA9FCC2D8306902A1BC7E
:10056E0053DACF20750343DA1030750343DA20D205
:10057E0069E580307501F420E502A190882689276F
:10058E00E13553DACF20750343DA2030750343DAB1
:10059E0010C2D8C269740F552E7002E11B7800E5A7
:1005AE0080307501F430E502E11B8858E11B53DA07
:1005BE00CF20750343DA2030750343DA10C2692069
:1005CE005902C16553DACF20750343DA1030750333
:1005DE0043DA20C2D8D26988538954C3E89551F8BA
:1005EE00E99552F9E4FB7AFAC3E89468E99401506C
:1005FE0008E4D2E3FB7A0FC138C3E894D0E9940241
:10060E005008E4D2E2FB7A1EC138C3E894A0E99404
:10061E00055008E4D2E1FB7A3CC138C3E89498E96E
:10062E0094085006E4D2E0FB7A78C3E89555FCE9CD
:10063E009556FD30E708ECF42401FCEDF4FD7557FA
:10064E00007008C3EC9A500375570188558956A857
:10065E0053A95488518952C3E89526F8E99527F98C
:10066E00307302C1FF307202C1F8E9C313F9E81307
:10067E00F8307102C1F8E9C313F9E813F8307002CB
:10068E00C1F8E9C313FDE813FC205918C3EC941C00
:10069E00ED9402400302071BED7009C3EC94C850A1
:1006AE000302073574002076037896E624FAFEE4FA
:1006BE003400FFC3EC9EFCED9FFD500678007900E0
:1006CE00C1FFC3EC94FFED9400400678FF7900C1A2
:1006DE00FFEC856CF0A4C5F0A2F733F87900400367
:1006EE0002070A78FF790002070AE9C313F9E81333
:1006FE00F8C3E894FFE99400400278FF8858D26866
:10070E00205902E11B740FF4552E4BF52E75281847
:10071E00740F552E700375280A305902E135740F87
:10072E00552E600353DAFE752906740F552E70038D
:10073E0075290AD0F0D0E0D0D0C2D3D2AF32790131
:10074E00E1647903E164790AE164791EE164796414
:10075E00E16479C8E1647817E4D5E0FDD8FAD9F6FA
:10076E00227A147B78E1877A107B8CE1877A0D7B75
:10077E00B4E1877A0B7BC8E187AC25752501790238
:10078E00B274E4C286D5E0FDE5256002D287D5E0DD
:10079E00FDC287D5E0FDD286D5E0FDE525600A20B5
:1007AE007402D2B1307402D281E56DD5E0FD2074B1
:1007BE0002C2B1307402C2817496D5E0FDD9C1EA8D
:1007CE00F8D5E0FDD8FBDBB1C2868C2522C37C00B8
:1007DE007D0075F00005F0EA33FAEB33FB50F6EBD3
:1007EE0013FBEA13FAC3E9FFE8FEE89AF8E99BF96E
:1007FE005004EFF9EEF8B3EC33FCED33FDD5F0DF3A
:10080E00EDF9ECF822E889F08A20D2D4F8A9F07B31
:10081E000030F70B7BFFF42401F8E9F43400F9E81B
:10082E008520F0A4ADF0F8E98520F0A4AFF0FEED40
:10083E002EF974003FFA7C04C3EA13FAE913F9E8BF
:10084E0013F8DCF48BF030F70AE8F42401F8E9F43D
:10085E003400F9E889F0C2D4F8A9F0227882B604FF
:0F086E00030208E9C3E55894014018E548702AD1
:10087D007805C37994B702027812C3E53B9400E57D
:10088D003C984013852224E4F53FF540F541F542AF
:10089D00F543F5480208E9754801C37994E79402D8
:1008AD00601BE523F43333F913F8E9540104F9E837
:1008BD0054FEC39440F8E99400F90208E5E523F4E9
:1008CD0033333333F913F8E954070404F9E854F8D2
:1008DD00C39440F8E99400F9883F894022E54860C7
:1008ED003BC3E53C13F9E53B13F8C3E53F98F8E549
:1008FD004099F9500CC3E89480E994FF4016020921
:10090D0025C3E8947FE994005003020925787F7987
:10091D0000020925788079FF8844894522E54860E1
:10092D0058E5442541F8E5453542F9854520E43043
:10093D000701F43543FA30E709C3EA94F040150294
:10094D000967C3EA940F500302096778FF79FF7AAC
:10095D000F020967780079007AF0C3E524955C50A1
:10096D0006E52460092180E54520E70D2180E54558
:10097D0030E706884189428A4322E548700302091F
:10098D00EA789EE6FAC3E54433F8E54533F91113E9
:10099D00E930E70BC3E89480E994FF401321C1C30C
:1009AD00E8947FE99400500221C1787F790021C13C
:1009BD00788079FFE820E715C3E52398F84009C34F
:1009CD00E8940140030209E878010209E8E8F424FB
:1009DD00012523F840030209E878FF884622E548FF
:1009ED007003020A4C789FE6FAA842A9431113E955
:1009FD0030E70CC3E89401E994FF4016020A23C3C3
:100A0D00E894FFE994005003020A2378FF7900026D
:100A1D000A23780179FFE920E715C3E54698F840E8
:100A2D0009C3E894014003020A4A7800020A4AE821
:100A3D00F424012546F84003020A4A78FF8824224F
:100A4D00020AE47883E6F520120F4875E890E5E890
:100A5D0020ECEDA8BDA9BE120FDD756855756900B6
:100A6D00C3740013FD745513FC74552CFC74003DB8
:100A7D00FDECFAEDFBC3E89AE99B4014E5682455BB
:100A8D00F568E5693400F569EA2CFAEB3DFB80E584
:100A9D00AE68AF69C3E56913F9E56813F8C3E913E7
:100AAD00F9E813F8E56828F566E56939F5677A031D
:100ABD00C3E913F9E813F8DAF7AA201A7009756873
:100ACD0000756900020AE41AEA6008EE28FEEF39A3
:100ADD00FFDAF88E688F692275E890227883E6FF39
:100AED00E5E820ECF7A8BDA9BE056AC3E56A940840
:100AFD004052756A00E97007E56B601B020B18C365
:100B0D00E8956B6010E56B5006600C14020B240425
:100B1D0060F9020B24E56BF56BC394A8F8402175C1
:100B2D005CC0C3E89405F84017755C80C3E8940574
:100B3D00F8400D755C40C3E89405F84003755C0002
:100B4D0075BB0622C3E56AB4070375BB1E2230616F
:100B5D000278323062027878E52C54066021E8790B
:100B6D00A187F0A4C5F0A2F733F8C3E8955C400265
:100B7D00A85C882288248825306104C3E8F55E22AC
:100B8D00788FE6FFC3EF94055018C3EF94045020FF
:100B9D00C3EF94035028C3EF94025030C3EF940178
:100BAD0050387533A075340F75353C75360561F5C4
:100BBD007533C075341275354075360661F575336C
:100BCD00707534177535D075360761F575334C75FD
:100BDD00341D7535C475360961F5753328753423A3
:100BED007535B875360B61F585334F853450753BCA
:100BFD0000753C0822A84FA950020C0DA849A94A1E
:100C0D00759100C3E498F594E499F595759104D226
:100C1D005875C820A8CCA9CD75C824AA39AB3A8877
:100C2D0039893AC3E89AF8E99BF9AA3BAB3CC3EB87
:100C3D0013FDEA13FCC3ED13FDEC13FCC3EA9CFAA0
:100C4D00EB9DFBEA28FAEB39FB8A3B8B3C400122FA
:100C5D00753BFF753CFF223058028164759100C3CE
:0F0C6D00E4954BF594E4954CF595759104D258A8
:100C7C00227892E6FF7E10305B027F053063047FA2
:100C8C00037E00A93CA83B7A04C3E913F9E813F8E6
:100C9C00DAF7C3E89EF8E99400F94009C3E8940236
:100CAC00E9940050047802E4F9E9FBE8FAC3E9138B
:100CBC00FDE813FCC3EF9403602EEF20E00DE82C4D
:100CCC00F8E93DF9ECFAEDFB020CE1E828F8E9391A
:100CDC00F97A02E4FBC3EF9403400D8A4D8B4E88E6
:100CEC0049894A8C4B8D4C22884D894E8A498B4AB6
:100CFC008C4B8D4C22305802A101759100C3E495A8
:100D0C003BF594E4953CF595759104D25822753ECB
:100D1C0000752000020D29753E00752040D2AF05EC
:100D2C003E20580122759D00E53CC313C313F808FF
:100D3C006030306A06C313C313F808C3E8940A4042
:100D4C0002780A306D08C3E8940440027804C3E5C5
:100D5C003C9408400D759D02C3E53C94104003750E
:100D6C009D03205803D2AF22791E206D02790AD23E
:100D7C00AF0000C2AF205A0A793C206D02791430C2
:100D8C006FE03063027978C3E58B9920630240F7FA
:100D9C0040D0E59BF45440B52002A129D8C4D2AF71
:100DAC0022C25B789CE6146007E53E147002D25BAD
:100DBC0030630B0538205810753800020DD42058BC
:100DCC00071581158102174422759100C3E4954DD6
:100DDC00F594E4954EF595759104D25822AE2530D4
:100DEC005B4F78A3E6FFBF010BD25C752500C2B147
:100DFC00C287C2819169305C03752500305802C1ED
:100E0C0002BF020BD25C752500C2B1C287C28178C9
:100E1C00A2B6010D9169305C03752500305802C1F2
:100E2C0022BF030BD25C752500C2B1C287C281B14F
:100E3C00D5305C03752500305802C13D305B04C2CF
:100E4C005C8E2522C2AFC286206A03020E6F90030D
:100E5C0075306E0F207402C280307402C282740628
:100E6C00D5E0FD207402D282307402D280759F02CC
:100E7C00753D02D2AF22C2AF206A03020EA49003CA
:100E8C002C306E17C286207402C280307402C2826B
:100E9C007406D5E0FD020EA790020F207402C281E9
:100EAC00307402C2B1305A06E5256002D287207434
:100EBC0003759F03307403759F01753D03D2AF22F8
:100ECC00C2AF207402C282307402C280206A030254
:100EDC000EEB9002EB306E07C2867406D5E0FD2057
:100EEC007402D280307402D282207403759F013058
:100EFC007403759F03753D04D2AF22C2AF206A0301
:100F0C00020F299002AA306E17207402C28230742C
:100F1C0002C280C2867406D5E0FD020F2C9001FD42
:100F2C00C287305A0EE525600A207402D2B13074A3
:100F3C0002D281759F02753D05D2AF22C2AF2074DB
:100F4C0002C280307402C282206A03020F6F9002C8
:100F5C0061306E0F207402C282307402C28074063B
:100F6C00D5E0FDD286207403759F03307403759F02
:100F7C0001753D06D2AF22C2AF206A03020FAD90BD
:100F8C0003CE306E1F207402C282307402C28020E5
:100F9C007402C280307402C2827406D5E0FD020F66
:100FAC00B0900221207402C2B1307402C281305A56
:100FBC000EE525600A207402D281307402D2B12071
:100FCC007403759F01307403759F03753D01D2AF97
:100FDC00229001FBC2B1C287C281C282C286C2808A
:100FEC0022C3E54F9535E55095365001227890E6B1
:100FFC00FFC3EF94055018C3EF9404501BC3EF9438
:10100C0003501EC3EF94025021C3EF94015024C32C
:10101C00E54F943CF8021048C3E54F9428F80210B1
:10102C0048C3E54F941AF8021048C3E54F9412F8E0
:10103C00021048C3E54F940AF8021048E55094009A
:10104C00F9884F8950223058030210522278847646
:10105C00037885760478867609788F76037890768F
:0F106C00057895760278927603789B760D7893C7
:10107B00760578877604789C76017888760178896E
:10108B00760178827604788C7600788D7600788E6F
:10109B0076B478967625789776D07898767878990E
:1010AB0076C8789A7604789D7600227893E6FF7559
:1010BB006409756501C3BF02097564057565010295
:1010CB0010FBC3BF03097564057565020210FBC3F2
:1010DB00BF04097564057565030210FBC3BF0506E4
:1010EB00756409756507C3BF0606756400756500F1
:1010FB007887E6FFC26CC3BF0302D26CC26BC3BF5F
:10110B000402D26BC26A7418552D6002D26AC26E89
:10111B006002D26ED26F6002C26FC2747888E63002
:10112B00E102D274C2757889E630E102D275C3EF61
:10113B0094026008758E01D26D02114C758E00C23F
:10114B006D227880E61490008093789EF67881E685
:10115B001490008093789FF6120FDD22789BE61493
:10116B0090008D9378A0F6120FDD227886E614900E
:10117B00009A9378A1F6120FDD22789CE61490006A
:10118B00A79378A2F6789CE6149000AC9378A3F61C
:10119B00120FDD22227896E6FA7897E6FB3076047A
:1011AB007A007BFFC3EB9AFCC3948250027C82755E
:1011BB006C00056CEC856CF0A4C3E5F0948040F2F8
:1011CB0022C2D353D9BF7581C043FF8012074C7520
:1011DB00EF0243B203E5B324044002F5B375803844
:1011EB0075A4C775F1FF75D4DF7590FF75A50075F4
:1011FB00F20075D50075A0FF75A60075F30075D6C6
:10120B000075B0E475A71B75F4FF75E241120FDD95
:10121B00E4F8F6D8FD115912177411B6314D316738
:10122B0031763185319F31A07898866D8673120F98
:10123B00DD75885075890275C82475910475D84081
:10124B0012076012076F1207581207751207581210
:10125B00077B120758121CCD12076012076012078A
:10126B005C75A82275B80275E69075F610759B80B3
:10127B00759D0375D10E75BC5875BB0675BA1F7578
:10128B00E88012074CD2AF120A4D43DA01C2D8C222
:10129B0069120760753001D2597A05E55770027AE9
:1012AB0005120750E558C3940240EEE52E540F8506
:1012BB005A59F55AB559E2DAE2C25953DACF2075C9
:1012CB000343DA2030750343DA10C2D8C269120720
:1012DB005C1207507802740F552E70027800C3E52C
:1012EB00589840EDC2AF12076F12076F12076FD2FB
:1012FB00AF120760754700120750788CE6C3940154
:10130B0050030213CBE530C3940150030213CB748B
:10131B000F552E6035C3E55894FF50030213CBC213
:10132B00AF120781D2AF12075CC3E558940150EF9F
:10133B00C2AF12076F12075412076FD2AF12075CBE
:10134B00C3E55894FF40E9021D527F05D27631A0C8
:10135B0012075CC2AFC27631A0C3E558947FD2AFFF
:10136B004068C2AF120781D2AFDFE1C3E5589405E5
:10137B007897F6120760121810121CD57F0AD276D6
:10138B0031A012075CC2AFC27631A0C3E558947F7F
:10139B00D2AF50E8C2AF12076F12075412076FD2C9
:1013AB00AFDFDBE55824057896F6120760121810AC
:1013BB00121D0412075CC3E55894FF40F6021D5240
:1013CB00C3E5589547400385584712075CC3E5585A
:1013DB00940140026102C2AF12078112078112070A
:1013EB0081D2AF120760753000E4F531F53205316B
:1013FB00E531F470360532789AE678281460127865
:10140B005014600D78A014600878F01460037532E6
:10141B0000C3E53298401415327899866DC2AF122D
:10142B000781D2AF7898866D12075C120750E528BA
:10143B007008740F552E700241A2C3E558940640F4
:10144B00AD12075CE52870030212A2120FDDE4F562
:10145B0022F523F524F525755CFF7885865FF53F2E
:0E146B00F540F541F542F543F56AF548F52BDD
:10147900F52CF55B120B8D756A0875BB1E12074CAE
:10148900120AE5E5E820ECFBA8BDA9BEE97001F860
:10149900886B120AE9756A0875BB1E7895E630E013
:1014A900030214E97887E6FE760211B67887EEF62C
:1014B900D261C2AF120B5B85225C85225DD2AFC2BD
:1014C90061752500756200756301D260D263753854
:1014D90000120F48120F83120C09120B8D021618F5
:1014E9007887E6FE76037893E6FD760511B6788768
:1014F900EEF67893EDF6D260D261D26E120F4812F1
:101509000F83120B5B12074C120E5012074C120775
:101519004C120E82120750120ECC120750120750AD
:10152900120F07120754120F4812075012074CC224
:1015390061D262120AE5120AE9120B5B756A087533
:10154900BB1E120F83120C02120C7D120FED1152E9
:10155900120E50120C02120C7D120FED1152120EC6
:1015690082120C02120C7D120FED1152120ECC12C6
:101579000C02120C7D120FED1152120F07120C0200
:10158900120C7D120FED1152120F48120C02120C9F
:101599007D120FEDC3E54F9535E5509536400C1199
:1015A90052C3E5589401508B0217441152C2627814
:1015B90087E6FE760211B67887EEF685225C855EAF
:1015C9005D855E25756200756301D263753800C259
:1015D900AF207402C282307402C280207402C280B9
:1015E900307402C282742DD5E0FDD2AF120F83127E
:1015F9000C09120C64120C7D120D01756A0075BB81
:101609000602161811B6120F83756A0075BB061209
:101619001DCC120D23120DAD120DD512086A120D33
:10162900E9120E50120C09120C64120C7D120D01F4
:10163900121DCC120D1A120DAD120DD51208EA1297
:101649000DE9120E82120C09120C64120C7D120D96
:1016590001121DCC120D23120DAD120DD512092A3E
:10166900120DE9120ECC120C09120C64120C7D1227
:101679000D01121DCC120D1A120DAD120DD5120944
:1016890087120DE9120F07120C09120C64120C7D56
:10169900120D01121DCC120D23120DAD120DD51212
:1016A90009EB120DE9120F48120C09120C64120C05
:1016B9007D120D01121DCC120D1A120AE5120DAD83
:1016C900120DD5120AE9120DE9120F83120C091233
:1016D9000C64120C7D120D0130632A755CFF755D77
:1016E900FF756200756301C3E5389464400AC263FB
:1016F900D26475371402170EC3E5589401400302EA
:101709001618021744306419E537147005C26402CB
:10171900160DF537C3E55894014003021618021750
:1017290044C3E55B94825013740F552E7004E52869
:101739006009C3E53C94F05002C118120FDD7887A7
:10174900E6FE760211B67887EEF6E4F522F523F582
:1017590024F525F55FC26012074C120FDD740F5591
:101769002E7006E528700241A261F4901A0D7820C6
:10177900121C00E520B45A0CA3121C00E520B4A5E4
:1017890003021795115912181002180F788276045E
:10179900901A077884121C00A308121C00A30812CF
:1017A9001C00A308121C00A308121C00A308121C89
:1017B90000A308A308A308121C00A308A308A308F0
:1017C900121C00A308121C00A308A308121C00A3E2
:1017D90008121C00A308A308121C00A308121C006D
:1017E900A308121C00A308121C00A308121C00A3C2
:1017F90008121C00A308121C00A308121C00A3084D
:10180900121C00901A2122C2AF121C3F121C1990FF
:101819001A00740A121C05A37403121C05A3741080
:10182900121C05901A077884121C04A308121C04C0
:10183900A308121C04A308121C04A308121C04A365
:1018490008121C04A308A308A308121C04A308A3D4
:1018590008A308121C04A308121C04A308A3081255
:0F1869001C04A308121C04A308A308121C04A348
:1018780008121C04A308121C04A308121C04A308C1
:10188800121C04A308121C04A308121C04A30812A7
:101898001C04A308121C04121C52121C30901A219A
:0118A800221D
:101A00000A0310FFFFFFFF0304090401015AA500A8
:101A1000FFFF0305FF0305FF0225D0FAFA040D01BD
:021A200000FFC5
:101A4000235475726E696779343041232020202039
:101A500023424C48454C4923463331302320202033
:101A60002020202020202020202020202020202076
:101C0000E493F622E6438F01538FFD75EF0275B71B
:101C1000A575B7F1F0538FFE22438F02438F0175F4
:101C2000EF0275B7A575B7F1901A0DF0538FFC222E
:101C3000901A0D745A9105901A0E74A59105227A86
:101C40003079D07820901A409100E520F709A3DA86
:101C5000F7227A3079D0901A40E7910509A3DAF992
:101C600022AB6EA86FBB01057984021CCABB0205BA
:101C70007985021CCABB03057995021CCABB040501
:101C80007986021CCABB0505798F021CCABB0605F2
:101C90007990021CCABB07057992021CCABB0805D1
:101CA000799B021CCABB09057993021CCABB0A05B1
:101CB0007987021CCABB0B05799C021CCABB0C05A8
:101CC0007988021CCA7989021CCAE8F7227C0512AD
:101CD0000760DCFB22C2AF12076F12077512077B89
:101CE00012078112075412076F12077512077B1231
:101CF000078112075412076F12077512077B12072C
:101D000081D2AF22C2AF12078112077B1207751270
:101D1000076F12075412078112077B12077512070B
:101D20006F12075412078112077B12077512076F93
:101D3000D2AF22AE6EAF6FC2AF12076F12076F1233
:101D4000076F120754DEF2120781120754DFF8D230
:101D5000AF2291D591CD91CD756E01756F017570E2
:101D600000B1337C05AD58120760C3ED955870F58E
:101D7000C3E55894014009C3E55894FF4032A18E51
:101D8000916112181091D5C2AF75EF1291CDDCD5CB
:101D90000570C3E5709403500280C691CD056FE5D0
:101DA0006E149000B193F808C3E56F98500280AEAE
:101DB00091CD91CD056EC3E56E940E5002809C12BC
:101DC0001059121810C2AF75EF1291CDE573C333DD
:101DD000F573E57433F57450066373016374F82288
:00000001FF
