:030000000211D119
:03000B000200C12F
:03002B000203E0ED
:03005B0002053269
:030073000205285B
:1000800002030406080C10182030406080020304AC
:1000900006080C101820304080FF0406080C1018C9
:1000A0002030406080A0C000000001010003020277
:1000B000010D0D040506020D0505050D06030502DB
:1000C00002C2AFC0D0C0E0205A0D302F02E473301E
:1000D000600280F90203CC306306D297D295D293A6
:1000E000C0F0E573541FF572F48525F0A485F07116
:1000F000E57225F0D0F0F58AC25AE525F4700221A8
:10010000BF0561306013206A19758B00D0E0D0D034
:10011000D297D295D293D2AF32D297D295D29302C0
:1001200001AFD26EC26FE565601CC3E561149565D1
:100130004014C26ED26FC3E561956450030201AFF3
:100140007561000201AF206C14D297D295D29374DE
:1001500001D5E0FDD296D294D2920201AFD297D2CD
:1001600095D293E53D20E22520E10D207402D29640
:10017000307402D2940201AF20E005D2920201AFA6
:10018000207402D294307402D2960201AF20E1159D
:1001900020E00D207402D296307402D2940201AF96
:1001A000D2920201AF207402D294307402D29675BA
:1001B0008B00D0E0D0D0D297D295D293D2AF32D0AC
:1001C000E0D0D0D2AF3261CCE525600A207402C203
:1001D00097307402C295D29361CCE5256002C29338
:1001E000207402D295307402D29761CCE525600A62
:1001F000207402C295307402C297207402D29730E4
:100200007402D29561CC207402C296307402C294FA
:10021000E525600A207402C297307402C2952074EA
:1002200002C294307402C296D29361CC207402C28E
:1002300096307402C294207402C294307402C29642
:100240007428D5E0FDE525600A207402C297307459
:1002500002C295D29361CC207402C296307402C25D
:1002600094E525600A207402C297307402C295C2D8
:1002700092D29361CC207402C296307402C294C2AE
:10028000927428D5E0FDE525600A207402C29730FB
:100290007402C295D29361CCC292E5256002C293EA
:1002A000207402C296307402C294207402D2953037
:1002B0007402D29761CCC292207402C2963074024A
:1002C000C2947428D5E0FDE5256002C29320740233
:1002D000D295307402D29761CCC292E5256002C2F9
:1002E00093207402C294307402C296207402D29594
:1002F000307402D29761CCC292207402C2943074DE
:1003000002C2967428D5E0FDE5256002C2932074F0
:1003100002D295307402D29761CC207402C294301C
:100320007402C296E525600A207402C295307402F8
:10033000C297C292207402D297307402D29561CCD7
:10034000207402C294307402C296C2927428D5E01E
:10035000FDE525600A207402C295307402C2972020
:100360007402D297307402D29561CC207402C29488
:10037000307402C296E525600A207402C29530747A
:1003800002C297207402C296307402C29420740292
:10039000D297307402D29561CC207402C29430742A
:1003A00002C296207402C296307402C2947428D598
:1003B000E0FDE525600A207402C295307402C29700
:1003C000207402D297307402D29561CCE571F4F5B5
:1003D0008A758B00756000D25AD0E0D0D0D2AF328F
:1003E000C2AFC0D0C0E0D2D3C2CEE528600A740F3D
:1003F000552E60491528813D78007900E5803075DB
:1004000001F430E50278FF53DACF20750343DA2098
:1004100030750343DA10C2D8C269E580307501F443
:1004200030E50279FFC3E89970CE3059037528187A
:10043000740F552E60037528188858D268E5296016
:100440000415298150740F552E600543DA01C2D876
:1004500020680281E2E558F8C268740F552E6036B4
:100460007982B70431C3E894F0400374F0F8E8C42B
:0F047000540F28F87984B703028196C313C3137E
:10047F008721200802C313200A06C3C898F8819663
:10048F0028F8500374FFF8C3E8955F5003E55FF851
:10049F00E52C5406703D882230630AC3E522955C33
:1004AF004003855C227882B60429C3E52295244057
:1004BF001278A096400DE52426F52450097524FFE7
:1004CF000204D5852224852425C3E524955C4003A9
:1004DF00855C2520CF09D0E0D0D0C2D3D2AF32C2B5
:1004EF00CF7801E5286008740F552E70021528C3C8
:1004FF00E55894014005755B00A111E55B046002AE
:10050F00055BE55DC3240A5005755DFFA11FF55D11
:10051F00D0E0D0D0C2D3D2AF32C2AF53917FC25846
:10052F00D2AF32C2AFC0D0C0E0C0F0D2D3A8FBA9C7
:10053F00FCC2D8306902A19553DACF20750343DA94
:10054F001030750343DA20D269E580307501F4204D
:10055F00E502A16988268927E10E53DACF207503BA
:10056F0043DA2030750343DA10C2D8C269740F55CD
:10057F002E7002C1F47800E580307501F430E50289
:10058F00C1F48858C1F453DACF20750343DA203011
:10059F00750343DA10C269205902C13E53DACF20E6
:1005AF00750343DA1030750343DA20C2D8D2698855
:1005BF00538954C3E89551F8E99552F9E4FB7AFA57
:1005CF00C3E89468E994015008E4D2E3FB7A0FC1C1
:1005DF0011C3E894D0E994025008E4D2E2FB7A1EEA
:1005EF00C111C3E894A0E994055008E4D2E1FB7A65
:1005FF003CC111C3E89498E994085006E4D2E0FB9B
:10060F007A78C3E89555FCE99556FD30E708ECF488
:10061F002401FCEDF4FD7557007008C3EC9A5003EC
:10062F0075570188558956A853A95488518952C3C3
:10063F00E89526F8E99527F9307302C1D830720290
:10064F00C1D1E9C313F9E813F8307102C1D1E9C37D
:10065F0013F9E813F8307002C1D1E9C313FDE813A1
:10066F00FC205918C3EC941CED940240030206F4CD
:10067F00ED7009C3EC94C8500302070E7400207686
:10068F00037896E624FAFEE43400FFC3EC9EFCEDFB
:10069F009FFD500678007900C1D8C3EC94FFED940C
:1006AF0000400678FF7900C1D8EC856CF0A4C5F046
:1006BF00A2F733F8790040030206E378FF790002CE
:1006CF0006E3E9C313F9E813F8C3E894FFE99400CC
:1006DF00400278FF8858D268205902C1F4740FF491
:1006EF00552E4BF52E752818740F552E700375283F
:1006FF000A305902E10E740F552E600353DAFE755E
:10070F002906740F552E700375290AD0F0D0E0D04A
:10071F00D0C2D3D2AF327901E13D7903E13D790AFD
:10072F00E13D791EE13D7964E13D79C8E13D7817FE
:10073F00E4D5E0FDD8FAD9F6227A147B78E1607A15
:10074F00107B8CE1607A0D7BB4E1607A0B7BC8E1A2
:10075F0060AC257525017902B274E4C292D5E0FD33
:10076F00E5256002C293D5E0FDD293D5E0FDD2928C
:10077F00D5E0FDE525600A207402C297307402C2ED
:10078F0095E56DD5E0FD207402D297307402D295B5
:10079F007496D5E0FDD9C1EAF8D5E0FDD8FBDBB101
:1007AF00C2928C2522C37C007D0075F00005F0EA13
:1007BF0033FAEB33FB50F6EB13FBEA13FAC3E9FF03
:1007CF00E8FEE89AF8E99BF95004EFF9EEF8B3EC7C
:1007DF0033FCED33FDD5F0DFEDF9ECF822E889F0CD
:1007EF008A20D2D4F8A9F07B0030F70B7BFFF424DA
:1007FF0001F8E9F43400F9E88520F0A4ADF0F8E948
:10080F008520F0A4AFF0FEED2EF974003FFA7C04C2
:10081F00C3EA13FAE913F9E813F8DCF48BF030F7B5
:10082F000AE8F42401F8E9F43400F9E889F0C2D4B5
:10083F00F8A9F0227882B604030208A0C3E5589401
:10084F00014003020868852224E4F53FF540F54195
:10085F00F542F543F5480208A07882E6FC75480199
:0F086F00E522F523783879C7AA3BAB3CC3EB13DE
:10087E00FBEA13FAEC146013C3EB13FBEA13FAEC66
:10088E0014146007C3EB13FBEA13FA1207B4883F84
:10089E00894022E5486034C3E53F9523F8E540944E
:1008AE0000F9500CC3E89480E994FF40160208D575
:1008BE00C3E8947FE9940050030208D5787F79004D
:1008CE000208D5788079FF8844894522E54860582A
:1008DE00E5442541F8E5453542F9854520E43007E4
:1008EE0001F43543FA30E709C3EA94F040150209E2
:1008FE0017C3EA940F500302091778FF79FF7A0F96
:10090E00020917780079007AF0C3E524955C500649
:10091E00E52460092130E54520E70D2130E545301D
:10092E00E706884189428A4322E548700302099B03
:10093E00789EE6FAC3E54433F8E54533F91207EC41
:10094E00E930E70BC3E89480E994FF40132172C3AA
:10095E00E8947FE9940050022172787F7900217229
:10096E00788079FFE820E715C3E52398F84009C39E
:10097E00E8940140030209997801020999E8F424E8
:10098E00012523F8400302099978FF884622E5489D
:10099E0070030209FE789FE6FAA842A9431207ECFB
:1009AE00E930E70CC3E89401E994FF40160209D53B
:1009BE00C3E894FFE9940050030209D578FF79004B
:1009CE000209D5780179FFE920E715C3E54698F8C5
:1009DE004009C3E8940140030209FC78000209FCB7
:1009EE00E8F424012546F840030209FC78FF882428
:1009FE00227883E6F520120F3E75E890E5E820ECAC
:100A0E00F0A8BDA9BE120FD6756855756900C374DE
:100A1E000013FD745513FC74552CFC74003DFDEC55
:100A2E00FAEDFBC3E89AE99B4014E5682455F56896
:100A3E00E5693400F569EA2CFAEB3DFB80E5AE681A
:100A4E00AF69C3E56913F9E56813F8C3E913F9E86B
:100A5E0013F8E56828F566E56939F5677A03C3E9A1
:100A6E0013F9E813F8DAF7AA201A700975680075F9
:100A7E006900020A931AEA6008EE28FEEF39FFDADF
:100A8E00F88E688F692275E890227883E6FFE5E894
:100A9E0020ECF7A8BDA9BE056AC3E56A94084052CA
:100AAE00756A00E97007E56B601B020AC7C3E8951B
:100ABE006B6010E56B5006600C14020AD30460F9EB
:100ACE00020AD3E56BF56BC3946DF84021755CC0DB
:100ADE00C3E89404F84017755C80C3E89404F840AA
:100AEE000D755C40C3E89404F84003755C0075BB5B
:100AFE000822EFC39401601BC3E894FFE9940350EE
:100B0E0012C3E89568E995695009E55C600C155CBF
:100B1E00020B28E55CF46002055CA85CC3E5249832
:100B2E005002A8248825C3E525955D400B855D25DB
:100B3E00E55DF46003855D5CC3E56AB4070375BBD0
:100B4E00102230610278323062027878E52C540639
:100B5E006021E879A187F0A4C5F0A2F733F8C3E8C5
:100B6E00955C4002A85C882288248825306104C3E5
:100B7E00E8F55E22788FE6FFC3EF94055018C3EFB9
:100B8E0094045020C3EF94035028C3EF94025030C6
:100B9E00C3EF940150387533A075340F75353C751D
:100BAE00360561EA7533C0753412753540753606F3
:100BBE0061EA7533707534177535D075360761EA8D
:100BCE0075334C75341D7535C475360961EA753348
:100BDE00287534237535B875360B61EA85334F8524
:100BEE003450753B00753C0822A84FA950020C02E8
:100BFE00A849A94A759100C3E498F594E499F5952E
:100C0E00759104D25875C820A8CCA9CD75C824AA50
:100C1E0039AB3A8839893AC3E89AF8E99BF9AA3B85
:100C2E00AB3CC3EB13FDEA13FCC3ED13FDEC13FC5D
:100C3E00C3EA9CFAEB9DFBEA28FAEB39FB8A3B8B65
:100C4E003C400122753BFF753CFF22305802815912
:100C5E00759100C3E4954BF594E4954CF59575911B
:0F0C6E0004D258227892E6FF7E10305B027F0599
:100C7D003063047F037E00A93CA83B7A04C3E913CB
:100C8D00F9E813F8DAF7C3E89EF8E99400F940099A
:100C9D00C3E89402E9940050047802E4F9E9FBE812
:100CAD00FAC3E913FDE813FCC3EF9403602EEF20A4
:100CBD00E00DE82CF8E93DF9ECFAEDFB020CD6E875
:100CCD0028F8E939F97A02E4FBC3EF9403400D8A61
:100CDD004D8B4E8849894A8C4B8D4C22884D894EBF
:100CED008A498B4A8C4B8D4C2230580281F6759176
:100CFD0000C3E4953BF594E4953CF595759104D2CC
:100D0D005822753E00752000020D1E753E0075209F
:100D1D0040D2AF053E20580122759D00E53CC3131E
:100D2D00C313F8086030306A06C313C313F808C341
:100D3D00E8940A4002780A306D08C3E89404400232
:100D4D007804C3E53C9408400D759D02C3E53C94C1
:100D5D00104003759D03205803D2AF227918206DE2
:100D6D00027908D2AF0000C2AF205A0A7914206D63
:100D7D00027907306FE03063027978C3E58B9940D3
:100D8D00D5E59BF45440B52002A11ED8C9D2AF229F
:100D9D00C25B789CE6146007E53E147002D25B30AE
:100DAD00630B0538205810753800020DC420580704
:100DBD001581158102173722759100C3E4954DF504
:100DCD0094E4954EF595759104D25822AE25305B7D
:100DDD004F78A3E6FFBF010BD25C752500D297D2E9
:100DED0095D293915E305C03752500305802A1F2C7
:100DFD00BF020BD25C752500D297D295D29378A203
:100E0D00B6010D915E305C03752500305802C1129C
:100E1D00BF030BD25C752500D297D295D293B1C585
:100E2D00305C03752500305802C12D305B04C25C67
:100E3D008E2522C2AFC292206A03020E6290031A5F
:100E4D00206C12306E0F207402C294307402C29660
:100E5D007428D5E0FD207402D296307402D29475B8
:100E6D009F13753D02D2AF22C2AF206A03020E97C7
:100E7D009002D9306E17C292207402C2943074025F
:100E8D00C2967428D5E0FD020E9A9001DA20740204
:100E9D00D295307402D297305A06E5256002C2937E
:100EAD00207403759F10307403759F11753D03D227
:100EBD00AF22C2AF207402C296307402C294206A6F
:100ECD0003020EE1900298206C0A306E07C29274F4
:100EDD0028D5E0FD207402D294307402D29620748D
:100EED0003759F11307403759F10753D04D2AF22A9
:100EFD00C2AF206A03020F1F900257306E17207485
:100F0D0002C296307402C294C2927428D5E0FD02DA
:100F1D000F229001C8D293305A0EE525600A207435
:100F2D0002C297307402C295759F13753D05D2AFFD
:100F3D0022C2AF207402C294307402C296206A039A
:100F4D00020F68900206206C12306E0F207402C2E0
:100F5D0096307402C2947428D5E0FDD292207403A9
:100F6D00759F10307403759F11753D06D2AF22C267
:100F7D00AF206A03020FA690036B306E1F20740220
:100F8D00C296307402C294207402C294307402C2AC
:100F9D00967428D5E0FD020FA99001EC207402D2C1
:100FAD0097307402D295305A0EE525600A207402EE
:100FBD00C295307402C297207403759F113074036B
:100FCD00759F10753D01D2AF229001C6D297D29573
:100FDD00D293C296C294C29222C3E54F9535E55085
:100FED0095365001227890E6FFC3EF94055018C353
:100FFD00EF9404501BC3EF9403501EC3EF940250A3
:10100D0021C3EF94015024C3E54F943CF8021041E5
:10101D00C3E54F9428F8021041C3E54F941AF80226
:10102D001041C3E54F9412F8021041C3E54F940AE5
:10103D00F8021041E5509400F9884F89502230583C
:10104D000302104B227880760778817607788276B6
:10105D000178847603788376017886760B788F769F
:0F106D0001789076057895760278927603789BD5
:10107C00760D7893760678877602789C7602788857
:10108C0076027889760178857600788C7600788D72
:10109C007600788E76B478967625789776D0789890
:1010AC007678789976C8789A7604789D7600227846
:1010BC0093E6FF756409756501C3BF020975640584
:1010CC00756501021100C3BF0309756405756502DE
:1010DC00021100C3BF040975640575650302110094
:1010EC00C3BF0506756409756507C3BF060675643D
:1010FC00007565007887E6FFC26CC3BF0302D26C33
:10110C00C26BC3BF0402D26BC26A7418552D600245
:10111C00D26AC26E6002D26ED26F6002C26FC274AB
:10112C007888E630E102D274C2757889E630E10243
:10113C00D275C3EF94026008758E01D26D02115105
:10114C00758E00C26D227880E61490008093789E94
:10115C00F67881E61490008093789FF6120FD622D1
:10116C00789BE61490008D9378A0F6120FD6227817
:10117C0086E61490009A9378A1F6120FD622789CEA
:10118C00E6149000A79378A2F6789CE6149000AC35
:10119C009378A3F6120FD622227896E6FA7897E681
:1011AC00FB3076047A007BFFC3EB9AFCC39482502D
:1011BC00027C82756C00056CEC856CF0A4C3E5F0C8
:1011CC00948040F222C2D353D9BF7581C043FF80B3
:1011DC0012072575EF0243B203E5B324044002F570
:1011EC00B37580FF75A40075F1B275D4DF7590A945
:1011FC0075A5FC75F2FE75D50175A60175E2411257
:10120C000FD6E4F8F6D8FD115212176711BB315204
:10121C00316C317B318A31A431A57898866D867317
:10122C00120FD675885075890275C824759104758E
:10123C00D84012073912074812073112074E12070D
:10124C0031120754120731121CE5120739120739F3
:10125C0012073575A82275B80275E69075F61075EB
:10126C009B80759D0375D10E75BC5875BB0875BAFE
:10127C001175E880120725D2AF1209FF43DA01C2BB
:10128C00D8C269120739753001D2597A05E5577001
:10129C00027A05120729E558C3940240EEE52E5454
:1012AC000F855A59F55AB559E2DAE2C25953DACFD9
:1012BC0020750343DA2030750343DA10C2D8C269B3
:1012CC001207351207297802740F552E7002780018
:1012DC00C3E5589840EDC2AF1207481207481207F1
:1012EC0048D2AF120739754700120729788CE6C32C
:1012FC00940150030213BEE530C394015003021352
:10130C00BE740F552E6035C3E55894FF500302137D
:10131C00BEC2AF12075AD2AF120735C3E5589401BB
:10132C0050EFC2AF12074812072D120748D2AF1266
:10133C000735C3E55894FF40E9021D6A7F05D27654
:10134C0031A5120735C2AFC27631A5C3E558947FDB
:10135C00D2AF4068C2AF12075AD2AFDFE1C3E55833
:10136C0094057897F6120739121816121CED7F0A9D
:10137C00D27631A5120735C2AFC27631A5C3E55876
:10138C00947FD2AF50E8C2AF12074812072D120754
:10139C0048D2AFDFDBE55824057896F612073912F0
:1013AC001816121D1C120735C3E55894FF40F6029F
:1013BC001D6AC3E55895474003855847120735C346
:1013CC00E5589401400241F5C2AF12075A12075A70
:1013DC0012075AD2AF120739753000E4F531F532E5
:1013EC000531E531F470360532789AE678281460C8
:1013FC0012785014600D78A014600878F014600313
:10140C00753200C3E53298401415327899866DC256
:10141C00AF12075AD2AF7898866D1207351207298A
:10142C00E5287008740F552E70024195C3E5589449
:10143C000640AD120735E5287003021295120FD63F
:10144C00E4F522F523F524F525755CFF7885865F98
:10145C00F53FF540F541F542F543F56AF548F52BB6
:0D146C00F52CF55B120B82756A0875BB103C
:10147900120725120A94E5E820ECFBA8BDA9BEE9EC
:101489007001F8886B120A98756A0875BB1078950F
:10149900E630E0030214DC7887E6FE760211BB78B9
:1014A90087EEF6D261C2AF120B5085225C85225DB0
:1014B900D2AFC261752500756200756301D260D231
:1014C90063753800120F3E120F7C120BFE120B824D
:1014D90002160B7887E6FE76037893E6FD7605110A
:1014E900BB7887EEF67893EDF6D260D261D26E12B0
:1014F9000F3E120F7C120B50120725120E401207D5
:1015090025120725120E75120729120EBF12072977
:10151900120729120EFD12072D120F3E120729126A
:101529000725C261D262120A94120A98120B5075E9
:101539006A0875BB10120F7C120BF7120C72120F8E
:10154900E6114B120E40120BF7120C72120FE61134
:101559004B120E75120BF7120C72120FE6114B1289
:101569000EBF120BF7120C72120FE6114B120EFD81
:10157900120BF7120C72120FE6114B120F3E120BDF
:10158900F7120C72120FE6C3E54F9535E550953603
:10159900400C114BC3E5589401508B021737114B7E
:1015A900C2627887E6FE760211BB7887EEF685225D
:1015B9005C855E5D855E25756200756301D2637524
:1015C9003800C2AF207402C296307402C2942074EB
:1015D90002C294307402C296742DD5E0FDD2AF12C6
:1015E9000F7C120BFE120C59120C72120CF6756A52
:1015F9000075BB0802160B11BB120F7C756A0075CA
:10160900BB08121DE4120D18120D9D120DC512080A
:1016190043120DD9120E40120BFE120C59120C7204
:10162900120CF6121DE4120D0F120D9D120DC512AA
:1016390008A1120DD9120E75120BFE120C59120CBB
:1016490072120CF6121DE4120D18120D9D120DC521
:101659001208DA120DD9120EBF120BFE120C591212
:101669000C72120CF6121DE4120D0F120D9D120DC3
:10167900C5120937120DD9120EFD120BFE120C59A3
:10168900120C72120CF6121DE4120D18120D9D1295
:101699000DC512099C120DD9120F3E120BFE120C28
:1016A90059120C72120CF6121DE4120D0F120A9443
:1016B900120D9D120DC5120A98120DD9120F7C1226
:1016C9000BFE120C59120C72120CF630632A855E4D
:1016D9005C855E5D756200756301C3E5389464409D
:1016E9000AC263D264753714021701C3E55894011D
:1016F900400302160B021737306419E537147005D9
:10170900C264021600F537C3E55894014003021676
:101719000B021737C3E55B94FA5013740F552E70FB
:1017290004E5286009C3E53C94F05002C10B120F8F
:10173900D67887E6FE760211BB7887EEF6E4F522C5
:10174900F523F524F525F55FC260120725120FD69A
:10175900740F552E7006E5287002419561E7901ABD
:101769000D7820121C00E520B4550CA3121C00E5CD
:1017790020B4AA03021788115212181602181590DC
:101789001A037880121C00A308121C00A308121C5B
:1017990000901A067883121C00A308121C00A308E3
:1017A900A308121C00A308121C00A308121C00A302
:1017B90008121C00A308A308A308121C00A308A36D
:1017C90008121C00A308121C00A308121C00A3087D
:1017D900A308121C00A308121C00A308A308121CCA
:1017E90000A308121C00A308121C00A308121C0065
:1017F900A308121C00A308121C00A308121C00A3B2
:1018090008121C00A308121C00901A2122C2AF1250
:101819001C3F121C19901A00740A121C05A37403A8
:10182900121C05A37410121C05901A037880121C4F
:1018390004A308121C04A308121C04901A06788336
:10184900121C04A308121C04A308A308121C04A355
:1018590008121C04A308121C04A308121C04A308E0
:0F186900A308A308121C04A308A308121C04A3BD
:1018780008121C04A308121C04A308A308121C04C1
:10188800A308121C04A308A308121C04A308121C12
:1018980004A308121C04A308121C04A308121C04A5
:1018A800A308121C04A308121C04A308121C04A3F6
:0E18B80008121C04121C52121C30901A21221D
:101A00000A03100909040103FF0B02020155AA0091
:101A1000FFFF0105FF0306FF0225D02850040D0239
:021A200000FFC5
:101A4000235475726E69677931324123202020203A
:101A500023424C48454C4923463333302320202031
:101A60002020202020202020202020202020202076
:101C0000E493F622E6438F01538FFD75EF0275B71B
:101C1000A575B7F1F0538FFE22438F02438F0175F4
:101C2000EF0275B7A575B7F1901A0DF0538FFC222E
:101C3000901A0D74559105901A0E74AA9105227A86
:101C40003079D07820901A409100E520F709A3DA86
:101C5000F7227A3079D0901A40E7910509A3DAF992
:101C600022AB6EA86FBB01057980021CE2BB0205A6
:101C70007981021CE2BB03057982021CE2BB0405E8
:101C80007984021CE2BB05057983021CE2BB0605D0
:101C90007995021CE2BB07057986021CE2BB0805A8
:101CA000798F021CE2BB09057990021CE2BB0A0590
:101CB0007992021CE2BB0B05799B021CE2BB0C056E
:101CC0007993021CE2BB0D057987021CE2BB0E056D
:101CD000799C021CE2BB0F057988021CE27989021B
:101CE0001CE2E8F7227C05120739DCFB22C2AF12A6
:101CF000074812074E12075412075A12072D1207EF
:101D00004812074E12075412075A12072D1207489D
:101D100012074E12075412075AD2AF22C2AF12074F
:101D20005A12075412074E12074812072D12075A6B
:101D300012075412074E12074812072D12075A12A3
:101D4000075412074E120748D2AF22AE6EAF6FC2D1
:101D5000AF12074812074812074812072DDEF21289
:101D6000075A12072DDFF8D2AF2291ED91E591E5E8
:101D7000756E01756F01757000B14B7C05AD581221
:101D80000739C3ED955870F5C3E55894014009C370
:101D9000E55894FF4032A1A6916112181691EDC248
:101DA000AF75EF1291E5DCD50570C3E57094035073
:101DB0000280C691E5056FE56E149000B193F808B6
:101DC000C3E56F98500280AE91E591E5056EC3E5DD
:101DD0006E94115002809C121052121816C2AF75E8
:101DE000EF1291E5E573C333F573E57433F5745081
:081DF000066373016374F8221D
:00000001FF
