:030000000211D218
:03000B000200C12F
:03002B000203E0ED
:03005B0002053269
:030073000205285B
:1000800002030406080C10182030406080020304AC
:1000900006080C101820304080FF0406080C1018C9
:1000A0002030406080A0C000000001010003020277
:1000B000010D0D040506020D0505050D06030502DB
:1000C00002C2AFC0D0C0E0205A0D302F02E473301E
:1000D000600280F90203CC306306C286C291C295E9
:1000E000C0F0E573541FF572F48525F0A485F07116
:1000F000E57225F0D0F0F58AC25AE525F4700221A8
:10010000BF0561306013206A19758B00D0E0D0D034
:10011000C286C291C295D2AF32C286C291C2950246
:1001200001AFD26EC26FE565601CC3E561149565D1
:100130004014C26ED26FC3E561956450030201AFF3
:100140007561000201AF206C14C286C291C2957421
:100150001AD5E0FDD290D292D2960201AFC286C2E9
:1001600091C295E53D20E22520E10D207402D29058
:10017000307402D2960201AF20E005D2920201AFA4
:10018000207402D296307402D2900201AF20E115A1
:1001900020E00D207402D290307402D2960201AF9A
:1001A000D2920201AF207402D296307402D29075BE
:1001B0008B00D0E0D0D0C286C291C295D2AF32D0EF
:1001C000E0D0D0D2AF3261CCE525600A207402D2F3
:1001D00086307402D295C29161CCE5256002D2913D
:1001E000207402C295307402C28661CCE525600A93
:1001F000207402D295307402D286207402C28630F6
:100200007402C29561CC207402C290307402C2960E
:10021000E525600A207402D286307402D2952074DB
:1002200002C296307402C290C29161CC207402C2A4
:1002300090307402C296207402C296307402C2904A
:10024000740ED5E0FDE525600A207402D286307474
:1002500002D295C29161CC207402C290307402C265
:1002600096E525600A207402D286307402D295C2C7
:1002700092C29161CC207402C290307402C296C2C4
:1002800092740ED5E0FDE525600A207402D2863016
:100290007402D295C29161CCC292E5256002D291DE
:1002A000207402C290307402C296207402C295304B
:1002B0007402C28661CCC292207402C29030740271
:1002C000C296740ED5E0FDE5256002D2912074023D
:1002D000C295307402C28661CCC292E5256002D21A
:1002E00091207402C296307402C290207402C295AA
:1002F000307402C28661CCC292207402C2963074FD
:1003000002C290740ED5E0FDE5256002D291207402
:1003100002C295307402C28661CC207402C296304B
:100320007402C290E525600A207402D295307402EE
:10033000D286C292207402C286307402C29561CC09
:10034000207402C296307402C290C292740ED5E03C
:10035000FDE525600A207402D295307402D2862011
:100360007402C286307402C29561CC207402C296B7
:10037000307402C290E525600A207402D295307470
:1003800002D286207402C290307402C29620740297
:10039000C286307402C29561CC207402C296307459
:1003A00002C290207402C290307402C296740ED5BC
:1003B000E0FDE525600A207402D295307402D286F1
:1003C000207402C286307402C29561CCE571F4F5E6
:1003D0008A758B00756000D25AD0E0D0D0D2AF328F
:1003E000C2AFC0D0C0E0D2D3C2CEE528600A740F3D
:1003F000552E60491528813D78007900E5803075DB
:1004000001F430E50278FF53DACF20750343DA2098
:1004100030750343DA10C2D8C269E580307501F443
:1004200030E50279FFC3E89970CE3059037528187A
:10043000740F552E60037528188858D268E5296016
:100440000415298150740F552E600543DA01C2D876
:1004500020680281E2E558F8C268740F552E6036B4
:100460007982B70431C3E894F0400374F0F8E8C42B
:0F047000540F28F87984B703028196C313C3137E
:10047F008721200802C313200A06C3C898F8819663
:10048F0028F8500374FFF8C3E8955F5003E55FF851
:10049F00E52C5406703D882230630AC3E522955C33
:1004AF004003855C227882B60429C3E52295244057
:1004BF001278A096400DE52426F52450097524FFE7
:1004CF000204D5852224852425C3E524955C4003A9
:1004DF00855C2520CF09D0E0D0D0C2D3D2AF32C2B5
:1004EF00CF7801E5286008740F552E70021528C3C8
:1004FF00E55894014005755B00A111E55B046002AE
:10050F00055BE55DC3240A5005755DFFA11FF55D11
:10051F00D0E0D0D0C2D3D2AF32C2AF53917FC25846
:10052F00D2AF32C2AFC0D0C0E0C0F0D2D3A8FBA9C7
:10053F00FCC2D8306902A19553DACF20750343DA94
:10054F001030750343DA20D269E580307501F4204D
:10055F00E502A16988268927E10E53DACF207503BA
:10056F0043DA2030750343DA10C2D8C269740F55CD
:10057F002E7002C1F47800E580307501F430E50289
:10058F00C1F48858C1F453DACF20750343DA203011
:10059F00750343DA10C269205902C13E53DACF20E6
:1005AF00750343DA1030750343DA20C2D8D2698855
:1005BF00538954C3E89551F8E99552F9E4FB7AFA57
:1005CF00C3E89468E994015008E4D2E3FB7A0FC1C1
:1005DF0011C3E894D0E994025008E4D2E2FB7A1EEA
:1005EF00C111C3E894A0E994055008E4D2E1FB7A65
:1005FF003CC111C3E89498E994085006E4D2E0FB9B
:10060F007A78C3E89555FCE99556FD30E708ECF488
:10061F002401FCEDF4FD7557007008C3EC9A5003EC
:10062F0075570188558956A853A95488518952C3C3
:10063F00E89526F8E99527F9307302C1D830720290
:10064F00C1D1E9C313F9E813F8307102C1D1E9C37D
:10065F0013F9E813F8307002C1D1E9C313FDE813A1
:10066F00FC205918C3EC941CED940240030206F4CD
:10067F00ED7009C3EC94C8500302070E7400207686
:10068F00037896E624FAFEE43400FFC3EC9EFCEDFB
:10069F009FFD500678007900C1D8C3EC94FFED940C
:1006AF0000400678FF7900C1D8EC856CF0A4C5F046
:1006BF00A2F733F8790040030206E378FF790002CE
:1006CF0006E3E9C313F9E813F8C3E894FFE99400CC
:1006DF00400278FF8858D268205902C1F4740FF491
:1006EF00552E4BF52E752818740F552E700375283F
:1006FF000A305902E10E740F552E600353DAFE755E
:10070F002906740F552E700375290AD0F0D0E0D04A
:10071F00D0C2D3D2AF327901E13D7903E13D790AFD
:10072F00E13D791EE13D7964E13D79C8E13D7817FE
:10073F00E4D5E0FDD8FAD9F6227A147B78E1607A15
:10074F00107B8CE1607A0D7BB4E1607A0B7BC8E1A2
:10075F0060AC257525017902B274E4C292D5E0FD33
:10076F00E5256002D291D5E0FDC291D5E0FDD29290
:10077F00D5E0FDE525600A207402D286307402D2DE
:10078F0095E56DD5E0FD207402C286307402C295E6
:10079F007496D5E0FDD9C1EAF8D5E0FDD8FBDBB101
:1007AF00C2928C2522C37C007D0075F00005F0EA13
:1007BF0033FAEB33FB50F6EB13FBEA13FAC3E9FF03
:1007CF00E8FEE89AF8E99BF95004EFF9EEF8B3EC7C
:1007DF0033FCED33FDD5F0DFEDF9ECF822E889F0CD
:1007EF008A20D2D4F8A9F07B0030F70B7BFFF424DA
:1007FF0001F8E9F43400F9E88520F0A4ADF0F8E948
:10080F008520F0A4AFF0FEED2EF974003FFA7C04C2
:10081F00C3EA13FAE913F9E813F8DCF48BF030F7B5
:10082F000AE8F42401F8E9F43400F9E889F0C2D4B5
:10083F00F8A9F0227882B604030208A0C3E5589401
:10084F00014003020868852224E4F53FF540F54195
:10085F00F542F543F5480208A07882E6FC75480199
:0F086F00E522F523783879C7AA3BAB3CC3EB13DE
:10087E00FBEA13FAEC146013C3EB13FBEA13FAEC66
:10088E0014146007C3EB13FBEA13FA1207B4883F84
:10089E00894022E5486034C3E53F9523F8E540944E
:1008AE0000F9500CC3E89480E994FF40160208D575
:1008BE00C3E8947FE9940050030208D5787F79004D
:1008CE000208D5788079FF8844894522E54860582A
:1008DE00E5442541F8E5453542F9854520E43007E4
:1008EE0001F43543FA30E709C3EA94F040150209E2
:1008FE0017C3EA940F500302091778FF79FF7A0F96
:10090E00020917780079007AF0C3E524955C500649
:10091E00E52460092130E54520E70D2130E545301D
:10092E00E706884189428A4322E548700302099B03
:10093E00789EE6FAC3E54433F8E54533F91207EC41
:10094E00E930E70BC3E89480E994FF40132172C3AA
:10095E00E8947FE9940050022172787F7900217229
:10096E00788079FFE820E715C3E52398F84009C39E
:10097E00E8940140030209997801020999E8F424E8
:10098E00012523F8400302099978FF884622E5489D
:10099E0070030209FE789FE6FAA842A9431207ECFB
:1009AE00E930E70CC3E89401E994FF40160209D53B
:1009BE00C3E894FFE9940050030209D578FF79004B
:1009CE000209D5780179FFE920E715C3E54698F8C5
:1009DE004009C3E8940140030209FC78000209FCB7
:1009EE00E8F424012546F840030209FC78FF882428
:1009FE00227883E6F520120F3F75E890E5E820ECAB
:100A0E00F0A8BDA9BE120FD7756855756900C374DD
:100A1E000013FD745513FC74552CFC74003DFDEC55
:100A2E00FAEDFBC3E89AE99B4014E5682455F56896
:100A3E00E5693400F569EA2CFAEB3DFB80E5AE681A
:100A4E00AF69C3E56913F9E56813F8C3E913F9E86B
:100A5E0013F8E56828F566E56939F5677A03C3E9A1
:100A6E0013F9E813F8DAF7AA201A700975680075F9
:100A7E006900020A931AEA6008EE28FEEF39FFDADF
:100A8E00F88E688F692275E890227883E6FFE5E894
:100A9E0020ECF7A8BDA9BE056AC3E56A94084052CA
:100AAE00756A00E97007E56B601B020AC7C3E8951B
:100ABE006B6010E56B5006600C14020AD30460F9EB
:100ACE00020AD3E56BF56BC3946DF84021755CC0DB
:100ADE00C3E89404F84017755C80C3E89404F840AA
:100AEE000D755C40C3E89404F84003755C0075BB5B
:100AFE000B22EFC39401601BC3E894FFE9940350EB
:100B0E0012C3E89568E995695009E55C600C155CBF
:100B1E00020B28E55CF46002055CA85CC3E5249832
:100B2E005002A8248825C3E525955D400B855D25DB
:100B3E00E55DF46003855D5CC3E56AB4070375BBD0
:100B4E00102230610278323062027878E52C540639
:100B5E006021E879A187F0A4C5F0A2F733F8C3E8C5
:100B6E00955C4002A85C882288248825306104C3E5
:100B7E00E8F55E22788FE6FFC3EF94055018C3EFB9
:100B8E0094045020C3EF94035028C3EF94025030C6
:100B9E00C3EF940150387533A075340F75353C751D
:100BAE00360561EA7533C0753412753540753606F3
:100BBE0061EA7533707534177535D075360761EA8D
:100BCE0075334C75341D7535C475360961EA753348
:100BDE00287534237535B875360B61EA85334F8524
:100BEE003450753B00753C0822A84FA950020C02E8
:100BFE00A849A94A759100C3E498F594E499F5952E
:100C0E00759104D25875C820A8CCA9CD75C824AA50
:100C1E0039AB3A8839893AC3E89AF8E99BF9AA3B85
:100C2E00AB3CC3EB13FDEA13FCC3ED13FDEC13FC5D
:100C3E00C3EA9CFAEB9DFBEA28FAEB39FB8A3B8B65
:100C4E003C400122753BFF753CFF22305802815912
:100C5E00759100C3E4954BF594E4954CF59575911B
:0F0C6E0004D258227892E6FF7E10305B027F0599
:100C7D003063047F037E00A93CA83B7A04C3E913CB
:100C8D00F9E813F8DAF7C3E89EF8E99400F940099A
:100C9D00C3E89402E9940050047802E4F9E9FBE812
:100CAD00FAC3E913FDE813FCC3EF9403602EEF20A4
:100CBD00E00DE82CF8E93DF9ECFAEDFB020CD6E875
:100CCD0028F8E939F97A02E4FBC3EF9403400D8A61
:100CDD004D8B4E8849894A8C4B8D4C22884D894EBF
:100CED008A498B4A8C4B8D4C2230580281F6759176
:100CFD0000C3E4953BF594E4953CF595759104D2CC
:100D0D005822753E00752000020D1E753E0075209F
:100D1D0040D2AF053E20580122759D00E53CC3131E
:100D2D00C313F8086030306A06C313C313F808C341
:100D3D00E8940A4002780A306D08C3E89404400232
:100D4D007804C3E53C9408400D759D02C3E53C94C1
:100D5D00104003759D03205803D2AF22790F206DEB
:100D6D00027905D2AF0000C2AF205A0A7932206D48
:100D7D00027910306FE03063027978C3E58B9940CA
:100D8D00D5E59BF4F45440B52002A11ED8C8D2AFCE
:100D9D0022C25B789CE6146007E53E147002D25BBC
:100DAD0030630B0538205810753800020DC52058DA
:100DBD00071581158102173822759100C3E4954DF1
:100DCD00F594E4954EF595759104D25822AE2530E3
:100DDD005B4F78A3E6FFBF010BD25C752500C28681
:100DED00C291C295915E305C03752500305802A109
:100DFD00F3BF020BD25C752500C286C291C29578F5
:100E0D00A2B6010D915E305C03752500305802C10C
:100E1D0013BF030BD25C752500C286C291C295B17A
:100E2D00C6305C03752500305802C12E305B04C2FC
:100E3D005C8E2522C2AFC292206A03020E6390031C
:100E4D001A206C12306E0F207402C296307402C2DA
:100E5D0090740ED5E0FD207402D290307402D296BB
:100E6D00759F56753D02D2AF22C2AF206A03020EA6
:100E7D00989002D9306E17C292207402C2963074C7
:100E8D0002C290740ED5E0FD020E9B9001DA207423
:100E9D0002C295307402C286305A06E5256002D230
:100EAD0091207403759F76307403759F36753D03DD
:100EBD00D2AF22C2AF207402C290307402C296200B
:100ECD006A03020EE2900298206C0A306E07C292FD
:100EDD00740ED5E0FD207402D296307402D29020AB
:100EED007403759F36307403759F76753D04D2AFCC
:100EFD0022C2AF206A03020F20900257306E1720D6
:100F0D007402C290307402C296C292740ED5E0FD86
:100F1D00020F239001C8C291305A0EE525600A20B8
:100F2D007402D286307402D295759F56753D05D2E6
:100F3D00AF22C2AF207402C296307402C290206AF2
:100F4D0003020F69900206206C12306E0F2074029E
:100F5D00C290307402C296740ED5E0FDD292207408
:100F6D0003759F76307403759F36753D06D2AF229B
:100F7D00C2AF206A03020FA790036B306E1F20745F
:100F8D0002C290307402C296207402C2963074026E
:100F9D00C290740ED5E0FD020FAA9001EC207402F0
:100FAD00C286307402C295305A0EE525600A20744F
:100FBD0002D295307402D286207403759F36307438
:100FCD0003759F76753D01D2AF229001C6C286C2D0
:100FDD0091C295C290C292C29622C3E54F9535E556
:100FED005095365001227890E6FFC3EF94055018C6
:100FFD00C3EF9404501BC3EF9403501EC3EF940230
:10100D005021C3EF94015024C3E54F943CF80210D6
:10101D0042C3E54F9428F8021042C3E54F941AF8E5
:10102D00021042C3E54F9412F8021042C3E54F94EB
:10103D000AF8021042E5509400F9884F8950223089
:10104D00580302104C2278807607788176077882D3
:10105D00760178847603788376017886760A788FA0
:0E106D00760178907605789576027892760373
:10107B00789B760D7893760678877602789C760245
:10108B00788876027889760178857600788C760078
:10109B00788D7600788E76B478967625789776D09C
:1010AB0078987678789976C8789A7604789D7600D1
:1010BB00227893E6FF756409756501C3BF02097554
:1010CB006405756501021101C3BF030975640575DC
:1010DB006502021101C3BF0409756405756503023E
:1010EB001101C3BF0506756409756507C3BF060605
:1010FB007564007565007887E6FFC26CC3BF030299
:10110B00D26CC26BC3BF0402D26BC26A7418552D6A
:10111B006002D26AC26E6002D26ED26F6002C26F80
:10112B00C2747888E630E102D274C2757889E630F1
:10113B00E102D275C3EF94026008758E01D26D0285
:10114B001152758E00C26D227880E6149000809348
:10115B00789EF67881E61490008093789FF6120FB4
:10116B00D722789BE61490008D9378A0F6120FD7B8
:10117B00227886E61490009A9378A1F6120FD72264
:10118B00789CE6149000A79378A2F6789CE61490CE
:10119B0000AC9378A3F6120FD722227896E6FA7852
:1011AB0097E6FB3076047A007BFFC3EB9AFCC39483
:1011BB008250027C82756C00056CEC856CF0A4C3CC
:1011CB00E5F0948040F222C2D353D9BF7581C0435E
:1011DB00FF8012072575EF0243B203E5B3240440E9
:1011EB0002F5B37580BF75A44075F17C75D4DF75BE
:1011FB00909875A56775F26775D50075A60175E2B0
:10120B0041120FD7E4F8F6D8FD115312176811BC31
:10121B003153316D317C318B31A531A67898866D88
:10122B008673120FD775885075890275C82475910E
:10123B000475D84012073912074812073112074EAE
:10124B00120731120754120731121CE5120739121B
:10125B00073912073575A82275B80275E69075F631
:10126B0010759B80759D0375D10E75BC5875BB0BA6
:10127B0075BA1175E880120725D2AF1209FF43DA50
:10128B0001C2D8C269120739753001D2597A05E506
:10129B005770027A05120729E558C3940240EEE510
:1012AB002E540F855A59F55AB559E2DAE2C2595301
:1012BB00DACF20750343DA2030750343DA10C2D836
:1012CB00C2691207351207297802740F552E700266
:1012DB007800C3E5589840EDC2AF12074812074893
:1012EB00120748D2AF120739754700120729788CBD
:1012FB00E6C3940150030213BFE530C394015003BE
:10130B000213BF740F552E6035C3E55894FF50037D
:10131B000213BFC2AF12075AD2AF120735C3E5583B
:10132B00940150EFC2AF12074812072D120748D293
:10133B00AF120735C3E55894FF40E9021D6A7F05DC
:10134B00D27631A6120735C2AFC27631A6C3E558A5
:10135B00947FD2AF4068C2AF12075AD2AFDFE1C35E
:10136B00E55894057897F6120739121817121CEDE9
:10137B007F0AD27631A6120735C2AFC27631A6C329
:10138B00E558947FD2AF50E8C2AF12074812072D31
:10139B00120748D2AFDFDBE55824057896F6120723
:1013AB0039121817121D1C120735C3E55894FF404C
:1013BB00F6021D6AC3E55895474003855847120747
:1013CB0035C3E5589401400241F6C2AF12075A12D9
:1013DB00075A12075AD2AF120739753000E4F531AC
:1013EB00F5320531E531F470360532789AE6782816
:1013FB00146012785014600D78A014600878F01403
:10140B006003753200C3E532984014153278998623
:10141B006DC2AF12075AD2AF7898866D120735128C
:10142B000729E5287008740F552E70024196C3E505
:10143B0058940640AD120735E52870030212961238
:10144B000FD7E4F522F523F524F525755CFF788598
:10145B00865FF53FF540F541F542F543F56AF548F2
:0F146B00F52BF52CF55B120B82756A0875BB101B
:10147A00120725120A94E5E820ECFBA8BDA9BEE9EB
:10148A007001F8886B120A98756A0875BB1078950E
:10149A00E630E0030214DD7887E6FE760211BC78B6
:1014AA0087EEF6D261C2AF120B5085225C85225DAF
:1014BA00D2AFC261752500756200756301D260D230
:1014CA0063753800120F3F120F7D120BFE120B824A
:1014DA0002160C7887E6FE76037893E6FD76051108
:1014EA00BC7887EEF67893EDF6D260D261D26E12AE
:1014FA000F3F120F7D120B50120725120E411207D1
:10150A0025120725120E76120729120EC012072974
:10151A00120729120EFE12072D120F3F1207291267
:10152A000725C261D262120A94120A98120B5075E8
:10153A006A0875BB10120F7D120BF7120C72120F8C
:10154A00E7114C120E41120BF7120C72120FE7112F
:10155A004C120E76120BF7120C72120FE7114C1284
:10156A000EC0120BF7120C72120FE7114C120EFE7C
:10157A00120BF7120C72120FE7114C120F3F120BDB
:10158A00F7120C72120FE7C3E54F9535E550953601
:10159A00400C114CC3E5589401508B021738114C7A
:1015AA00C2627887E6FE760211BC7887EEF685225B
:1015BA005C855E5D855E25756200756301D2637523
:1015CA003800C2AF207402C290307402C2962074EE
:1015DA0002C296307402C290742DD5E0FDD2AF12C9
:1015EA000F7D120BFE120C59120C72120CF6756A50
:1015FA000075BB0B02160C11BC120F7D756A0075C3
:10160A00BB0B121DE4120D18120D9E120DC6120804
:10161A0043120DDA120E41120BFE120C59120C7201
:10162A00120CF6121DE4120D0F120D9E120DC612A7
:10163A0008A1120DDA120E76120BFE120C59120CB8
:10164A0072120CF6121DE4120D18120D9E120DC61E
:10165A001208DA120DDA120EC0120BFE120C59120F
:10166A000C72120CF6121DE4120D0F120D9E120DC1
:10167A00C6120937120DDA120EFE120BFE120C599F
:10168A00120C72120CF6121DE4120D18120D9E1293
:10169A000DC612099C120DDA120F3F120BFE120C24
:1016AA0059120C72120CF6121DE4120D0F120A9442
:1016BA00120D9E120DC6120A98120DDA120F7D1221
:1016CA000BFE120C59120C72120CF630632A855E4C
:1016DA005C855E5D756200756301C3E5389464409C
:1016EA000AC263D264753714021702C3E55894011B
:1016FA00400302160C021738306419E537147005D6
:10170A00C264021601F537C3E55894014003021674
:10171A000C021738C3E55B94FA5013740F552E70F8
:10172A0004E5286009C3E53C94F05002C10C120F8D
:10173A00D77887E6FE760211BC7887EEF6E4F522C2
:10174A00F523F524F525F55FC260120725120FD798
:10175A00740F552E7006E5287002419661E8901ABA
:10176A000D7820121C00E520B4550CA3121C00E5CC
:10177A0020B4AA03021789115312181702181690D7
:10178A001A037880121C00A308121C00A308121C5A
:10179A0000901A067883121C00A308121C00A308E2
:1017AA00A308121C00A308121C00A308121C00A301
:1017BA0008121C00A308A308A308121C00A308A36C
:1017CA0008121C00A308121C00A308121C00A3087C
:1017DA00A308121C00A308121C00A308A308121CC9
:1017EA0000A308121C00A308121C00A308121C0064
:1017FA00A308121C00A308121C00A308121C00A3B1
:10180A0008121C00A308121C00901A2122C2AF124F
:10181A001C3F121C19901A00740A121C05A37403A7
:10182A00121C05A37410121C05901A037880121C4E
:10183A0004A308121C04A308121C04901A06788335
:10184A00121C04A308121C04A308A308121C04A354
:10185A0008121C04A308121C04A308121C04A308DF
:0F186A00A308A308121C04A308A308121C04A3BC
:1018790008121C04A308121C04A308A308121C04C0
:10188900A308121C04A308A308121C04A308121C11
:1018990004A308121C04A308121C04A308121C04A4
:1018A900A308121C04A308121C04A308121C04A3F5
:0E18B90008121C04121C52121C30901A21221C
:101A00000A03100909040103FF0A02020155AA0092
:101A1000FFFF0105FF0306FF0225D02850040D0239
:021A200000FFC5
:101A4000235475726E6967794145323041232020F5
:101A500023424C48454C4923463333302320202031
:101A60002020202020202020202020202020202076
:101C0000E493F622E6438F01538FFD75EF0275B71B
:101C1000A575B7F1F0538FFE22438F02438F0175F4
:101C2000EF0275B7A575B7F1901A0DF0538FFC222E
:101C3000901A0D74559105901A0E74AA9105227A86
:101C40003079D07820901A409100E520F709A3DA86
:101C5000F7227A3079D0901A40E7910509A3DAF992
:101C600022AB6EA86FBB01057980021CE2BB0205A6
:101C70007981021CE2BB03057982021CE2BB0405E8
:101C80007984021CE2BB05057983021CE2BB0605D0
:101C90007995021CE2BB07057986021CE2BB0805A8
:101CA000798F021CE2BB09057990021CE2BB0A0590
:101CB0007992021CE2BB0B05799B021CE2BB0C056E
:101CC0007993021CE2BB0D057987021CE2BB0E056D
:101CD000799C021CE2BB0F057988021CE27989021B
:101CE0001CE2E8F7227C05120739DCFB22C2AF12A6
:101CF000074812074E12075412075A12072D1207EF
:101D00004812074E12075412075A12072D1207489D
:101D100012074E12075412075AD2AF22C2AF12074F
:101D20005A12075412074E12074812072D12075A6B
:101D300012075412074E12074812072D12075A12A3
:101D4000075412074E120748D2AF22AE6EAF6FC2D1
:101D5000AF12074812074812074812072DDEF21289
:101D6000075A12072DDFF8D2AF2291ED91E591E5E8
:101D7000756E01756F01757000B14B7C05AD581221
:101D80000739C3ED955870F5C3E55894014009C370
:101D9000E55894FF4032A1A6916112181791EDC247
:101DA000AF75EF1291E5DCD50570C3E57094035073
:101DB0000280C691E5056FE56E149000B193F808B6
:101DC000C3E56F98500280AE91E591E5056EC3E5DD
:101DD0006E94115002809C121053121817C2AF75E6
:101DE000EF1291E5E573C333F573E57433F5745081
:081DF000066373016374F8221D
:00000001FF
