:030000000211B238
:03000B000200BE32
:03002B000203F5D8
:03005B0002053962
:0300730002052F54
:1000800002030406080C10182030406080020304AC
:1000900006080C101820304080FF0406080C1018C9
:1000A0002030406080A0C000000001010003020277
:1000B000010505020D0505050D0603050202C2AF87
:1000C000C0D0C0E0205A25302F02E47330601A05FA
:1000D00060C37405952540F2956040EE758A78E519
:1000E000257003758A000203EE0203E1306306C245
:1000F00095C294C293C0F0E573541FF572F4852540
:10010000F0A485F071E57225F0D0F0F58AC25AE5C9
:1001100025F4700221D40561306013206A19758BB3
:1001200000D0E0D0D0C295C294C293D2AF32C29573
:10013000C294C2930201C4D26EC26FE565601CC353
:10014000E5611495654014C26ED26FC3E561956494
:1001500050030201C47561000201C4206C14C295F1
:10016000C294C2937401D5E0FDC292C291C29002C2
:1001700001C4C295C294C293E53D20E22520E10D61
:10018000207402C292307402C2900201C420E005C1
:10019000C2910201C4207402C290307402C2920261
:1001A00001C420E11520E00D207402C292307402D7
:1001B000C2900201C4C2910201C4207402C29030F4
:1001C0007402C292758B00D0E0D0D0C295C294C2A6
:1001D00093D2AF32D0E0D0D0D2AF3261E1E525602A
:1001E0000A207402D295307402D293C29461E1E580
:1001F000256002D294207402C293307402C29561C9
:10020000E1E525600A207402D293307402D2952071
:100210007402C295307402C29361E1207402D292DA
:10022000307402D290E525600A207402D2953074B1
:1002300002D293207402D290307402D292C294619E
:10024000E1207402D292307402D290207402D290D3
:10025000307402D2927401D5E0FDE525600A207465
:1002600002D295307402D293C29461E1207402D21A
:1002700092307402D290E525600A207402D2953043
:100280007402D293D291C29461E1207402D292306E
:100290007402D290D2917401D5E0FDE525600A2068
:1002A0007402D295307402D293C29461E1D291E586
:1002B000256002D294207402D292307402D290202F
:1002C0007402C293307402C29561E1D2912074022B
:1002D000D292307402D2907401D5E0FDE52560021F
:1002E000D294207402C293307402C29561E1D2911B
:1002F000E5256002D294207402D290307402D2922A
:10030000207402C293307402C29561E1D2912074CC
:1003100002D290307402D2927401D5E0FDE52560DE
:1003200002D294207402C293307402C29561E1201B
:100330007402D290307402D292E525600A207402D1
:10034000D293307402D295D291207402C295307447
:1003500002C29361E1207402D290307402D292D230
:10036000917401D5E0FDE525600A207402D2933036
:100370007402D295207402C295307402C29361E176
:10038000207402D290307402D292E525600A207463
:1003900002D293307402D295207402D29230740249
:1003A000D290207402C295307402C29361E120742D
:1003B00002D290307402D292207402D2923074022F
:1003C000D2907401D5E0FDE525600A207402D29335
:1003D000307402D295207402C295307402C29361C7
:1003E000E1E571F4F58A758B00756000D25AD0E0B2
:1003F000D0D0D2AF32C2AFC0D0C0E0D2D3C2CEE5EF
:1004000028600A740F552E604915288152780079AA
:1004100000E580307501F430E70278FF53DACF2031
:10042000750343DA2030750343DA10C2D8C269E598
:1004300080307501F430E70279FFC3E89970CE305F
:100440005903752818740F552E600375281888589D
:10045000D268E529600415298165740F552E600561
:1004600043DA01C2D820680281F7E558F8C26874FF
:0E0470000F552E60367982B70431C3E894F040
:10047E00400374F0F8E8C4540F28F87984B70302E7
:10048E0081ABC313C3138721200802C313200A06AE
:10049E00C3C898F881AB28F8500374FFF8C3E895E9
:1004AE005F5003E55FF8E52C5406703D88223063FB
:1004BE000AC3E522955C4003855C227882B6042946
:1004CE00C3E5229524401278A096400DE52426F52A
:1004DE002450097524FF0204EA852224852425C3AD
:1004EE00E524955C4003855C2520CF09D0E0D0D073
:1004FE00C2D3D2AF32C2CF7801E5286008740F554F
:10050E002E70021528C3E55894014005755B00A1B5
:10051E0026E55B046002055BD0E0D0D0C2D3D2AF3B
:10052E0032C2AF53917FC258D2AF32C2AFC0D0C029
:10053E00E0C0F0D2D3A8FBA9FCC2D8306902A19CBE
:10054E0053DACF20750343DA1030750343DA20D225
:10055E0069E580307501F420E702A17088268927AD
:10056E00E11553DACF20750343DA2030750343DAF1
:10057E0010C2D8C269740F552E7002C1FB7800E507
:10058E0080307501F430E702C1FB8858C1FB53DAA5
:10059E00CF20750343DA2030750343DA10C2692089
:1005AE005902C14553DACF20750343DA1030750373
:1005BE0043DA20C2D8D26988538954C3E89551F8DA
:1005CE00E99552F9E4FB7AFAC3E89468E99401508C
:1005DE0008E4D2E3FB7A0FC118C3E894D0E9940281
:1005EE005008E4D2E2FB7A1EC118C3E894A0E99445
:1005FE00055008E4D2E1FB7A3CC118C3E89498E9AF
:10060E0094085006E4D2E0FB7A78C3E89555FCE9ED
:10061E009556FD30E708ECF42401FCEDF4FD75571A
:10062E00007008C3EC9A500375570188558956A877
:10063E0053A95488518952C3E89526F8E99527F9AC
:10064E00307302C1DF307202C1D8E9C313F9E81367
:10065E00F8307102C1D8E9C313F9E813F83070020B
:10066E00C1D8E9C313FDE813FC205918C3EC941C40
:10067E00ED940240030206FBED7009C3EC94C850E2
:10068E000302071574002076037896E624FAFEE43A
:10069E003400FFC3EC9EFCED9FFD50067800790000
:1006AE00C1DFC3EC94FFED9400400678FF7900C1E2
:1006BE00DFEC856CF0A4C5F0A2F733F879004003A7
:1006CE000206EA78FF79000206EAE9C313F9E81395
:1006DE00F8C3E894FFE99400400278FF8858D26886
:1006EE00205902C1FB740FF4552E4BF52E752818A8
:1006FE00740F552E700375280A305902E115740FC8
:10070E00552E600353DAFE752906740F552E7003AD
:10071E0075290AD0F0D0E0D0D0C2D3D2AF32790151
:10072E00E1447903E144790AE144791EE1447964B4
:10073E00E14479C8E1447817E4D5E0FDD8FAD9F65A
:10074E00227A147B78E1677A107B8CE1677A0D7BD5
:10075E00B4E1677A0B7BC8E167AC25752501790298
:10076E00B274E4D291D5E0FDE5256002D294D5E0D5
:10077E00FDC294D5E0FDC291D5E0FDE525600A20CD
:10078E007402D295307402D293E56DD5E0FD2074DB
:10079E0002C295307402C2937496D5E0FDD9C1EAB7
:1007AE00F8D5E0FDD8FBDBB1D2918C2522C37C00BD
:1007BE007D0075F00005F0EA33FAEB33FB50F6EBF3
:1007CE0013FBEA13FAC3E9FFE8FEE89AF8E99BF98E
:1007DE005004EFF9EEF8B3EC33FCED33FDD5F0DF5A
:1007EE00EDF9ECF822E889F08A20D2D4F8A9F07B52
:1007FE000030F70B7BFFF42401F8E9F43400F9E83C
:10080E008520F0A4ADF0F8E98520F0A4AFF0FEED60
:10081E002EF974003FFA7C04C3EA13FAE913F9E8DF
:10082E0013F8DCF48BF030F70AE8F42401F8E9F45D
:10083E003400F9E889F0C2D4F8A9F0227882B6041F
:10084E00030208C9C3E55894014018E548702A7898
:10085E0005C37994B702027812C3E53B9400E53CD8
:0F086E00984013852224E4F53FF540F541F5420B
:10087D00F543F5480208C9754801C37994E7940218
:10088D00601BE523F43333F913F8E9540104F9E857
:10089D0054FEC39440F8E99400F90208C5E523F429
:1008AD0033333333F913F8E954070404F9E854F8F2
:1008BD00C39440F8E99400F9883F894022E54860E7
:1008CD003BC3E53C13F9E53B13F8C3E53F98F8E569
:1008DD004099F9500CC3E89480E994FF4016020941
:1008ED0005C3E8947FE994005003020905787F79E8
:1008FD0000020905788079FF8844894522E5486022
:10090D0058E5442541F8E5453542F9854520E43063
:10091D000701F43543FA30E709C3EA94F0401502B4
:10092D000947C3EA940F500302094778FF79FF7A0C
:10093D000F020947780079007AF0C3E524955C50E1
:10094D0006E52460092160E54520E70D2160E545B8
:10095D0030E706884189428A4322E548700302093F
:10096D00CB789EE6FAC3E54433F8E54533F9120733
:10097D00F3E930E70BC3E89480E994FF401321A21B
:10098D00C3E8947FE99400500221A2787F79002179
:10099D00A2788079FFE820E715C3E52398F8400990
:1009AD00C3E8940140030209C978010209C9E8F4BA
:1009BD0024012523F840030209C978FF884622E562
:1009CD00487003020A2E789FE6FAA842A94312073F
:1009DD00F3E930E70CC3E89401E994FF4016020AED
:1009ED0005C3E894FFE994005003020A0578FF79E6
:1009FD0000020A05780179FFE920E715C3E546985D
:100A0D00F84009C3E894014003020A2C7800020A59
:100A1D002CE8F424012546F84003020A2C78FF88BF
:100A2D002422020AC67883E6F520120F2B75E89072
:100A3D00E5E820ECEDA8BDA9BE120FC3756855758C
:100A4D006900C3740013FD745513FC74552CFC74AC
:100A5D00003DFDECFAEDFBC3E89AE99B4014E56817
:100A6D002455F568E5693400F569EA2CFAEB3DFB90
:100A7D0080E5AE68AF69C3E56913F9E56813F8C39E
:100A8D00E913F9E813F8E56828F566E56939F567BE
:100A9D007A03C3E913F9E813F8DAF7AA201A7009F3
:100AAD00756800756900020AC61AEA6008EE28FE2C
:100ABD00EF39FFDAF88E688F692275E89022788316
:100ACD00E6FFE5E820ECF7A8BDA9BE056AC3E56A17
:100ADD0094084052756A00E97007E56B601B020AC5
:100AED00FAC3E8956B6010E56B5006600C14020BB1
:100AFD00060460F9020B06E56BF56BC3946DF840C7
:100B0D0021755CC0C3E89404F84017755C80C3E898
:100B1D009404F8400D755C40C3E89404F8400375E7
:100B2D005C0075BB0622C3E56AB4070375BB1022D2
:100B3D0030610278323062027878E52C54066021FB
:100B4D00E879A187F0A4C5F0A2F733F8C3E8955C66
:100B5D004002A85C882288248825306104C3E8F50A
:100B6D005E22788FE6FFC3EF94055018C3EF94040F
:100B7D005020C3EF94035028C3EF94025030C3EFBD
:100B8D00940150387533A075340F75353C753605A5
:100B9D0061D77533C075341275354075360661D71A
:100BAD007533707534177535D075360761D7753354
:100BBD004C75341D7535C475360961D77533287577
:100BCD0034237535B875360B61D785334F85345061
:100BDD00753B00753C0822A84FA950020BEFA849A0
:100BED00A94A759100C3E498F594E499F59575912A
:100BFD0004D25875C820A8CCA9CD75C824AA39AB84
:100C0D003A8839893AC3E89AF8E99BF9AA3BAB3C93
:100C1D00C3EB13FDEA13FCC3ED13FDEC13FCC3EAA8
:100C2D009CFAEB9DFBEA28FAEB39FB8A3B8B3C40A7
:100C3D000122753BFF753CFF2230580281467591AC
:100C4D0000C3E4954BF594E4954CF595759104D25C
:100C5D0058227892E6FF7E10305B027F05306304E8
:0F0C6D007F037E00A93CA83B7A04C3E913F9E892
:100C7C0013F8DAF7C3E89EF8E99400F94009C3E8E1
:100C8C009402E9940050047802E4F9E9FBE8FAC311
:100C9C00E913FDE813FCC3EF9403602EEF20E00D85
:100CAC00E82CF8E93DF9ECFAEDFB020CC3E828F866
:100CBC00E939F97A02E4FBC3EF9403400D8A4D8BBA
:100CCC004E8849894A8C4B8D4C22884D894E8A49D5
:100CDC008B4A8C4B8D4C2230580281E3759100C3AA
:100CEC00E4953BF594E4953CF595759104D2582226
:100CFC00753E00752000020D0B753E00752040D22C
:100D0C00AF053E20580122759D00E53CC313C3136B
:100D1C00F8086030306A06C313C313F808C3E894AC
:100D2C000A4002780A306D08C3E894044002780443
:100D3C00C3E53C9408400D759D02C3E53C941040FE
:100D4C0003759D03205803D2AF22790F206D0279D1
:100D5C0005D2AF0000C2AF205A0A7914206D027977
:100D6C0007306FE03063027978C3E58B9940D5E5A5
:100D7C009BF45440B52002A10BD8C9D2AF22C25B60
:100D8C00789CE6146007E53E147002D25B30630B6E
:100D9C000538205810753800020DB1205807158100
:100DAC00158102171822759100C3E4954DF594E452
:100DBC00954EF595759104D25822AE25305B4F783F
:100DCC00A3E6FFBF010BD25C752500C295C294C28D
:100DDC0093914B305C03752500305802A1DFBF02A4
:100DEC000BD25C752500C295C294C29378A2B60151
:100DFC000D914B305C03752500305802A1FFBF03E9
:100E0C000BD25C752500C295C294C293B1B2305C12
:100E1C0003752500305802C11A305B04C25C8E2564
:100E2C0022C2AFD291206A03020E4F90032F206C86
:100E3C0012306E0F207402D290307402D292740170
:100E4C00D5E0FD207402C292307402C290759F11DD
:100E5C00753D02D2AF22C2AF206A03020E8490020B
:100E6C00EE306E17D291207402D290307402D2926E
:100E7C007401D5E0FD020E879001EF207402C2933D
:100E8C00307402C295305A06E5256002D294207463
:100E9C0003759F01307403759F21753D03D2AF22FA
:100EAC00C2AF207402D292307402D290206A030234
:100EBC000ECE9002AD206C0A306E07D2917401D523
:100ECC00E0FD207402C290307402C292207403754B
:100EDC009F21307403759F01753D04D2AF22C2AFC0
:100EEC00206A03020F0C90026C306E17207402D231
:100EFC0092307402D290D2917401D5E0FD020F0FA2
:100F0C009001DDC294305A0EE525600A207402D29D
:100F1C0095307402D293759F11753D05D2AF22C2E4
:100F2C00AF207402D290307402D292206A03020F66
:100F3C005590021B206C12306E0F207402D292302E
:100F4C007402D2907401D5E0FDC291207403759F98
:100F5C0001307403759F21753D06D2AF22C2AF20BC
:100F6C006A03020F93900380306E1F207402D2929A
:100F7C00307402D290207402D290307402D29274E7
:100F8C0001D5E0FD020F96900201207402C295304B
:100F9C007402C293305A0EE525600A207402D29373
:100FAC00307402D295207403759F21307403759FA1
:100FBC0001753D01D2AF229001DBC295C294C29360
:100FCC00D292D291D29022C3E54F9535E550953609
:100FDC005001227890E6FFC3EF94055018C3EF94AC
:100FEC0004501BC3EF9403501EC3EF94025021C353
:100FFC00EF94015024C3E54F943CF802102EC3E546
:10100C004F9428F802102EC3E54F941AF802102EB4
:10101C00C3E54F9412F802102EC3E54F940AF80260
:10102C00102EE5509400F9884F8950223058030255
:10103C0010382278847603788576047886760A7858
:10104C008F76037890760578957602789276037889
:10105C009B760D7893760578877603789C76017865
:0F106C008876017889760178827604788C760010
:10107B00788D7600788E76B478967625789776D0BC
:10108B0078987678789976C8789A7604789D7600F1
:10109B00227893E6FF756409756501C3BF02097574
:1010AB0064057565010210E1C3BF0309756405751D
:1010BB0065020210E1C3BF0409756405756503027F
:1010CB0010E1C3BF0506756409756507C3BF060646
:1010DB007564007565007887E6FFC26CC3BF0302B9
:1010EB00D26CC26BC3BF0402D26BC26A7418552D8B
:1010FB006002D26AC26E6002D26ED26F6002C26FA1
:10110B00C2747888E630E102D274C2757889E63011
:10111B00E102D275C3EF94026008758E01D26D02A5
:10112B001132758E00C26D227880E6149000809388
:10113B00789EF67881E61490008093789FF6120FD4
:10114B00C322789BE61490008D9378A0F6120FC300
:10115B00227886E61490009A9378A1F6120FC32298
:10116B00789CE6149000A79378A2F6789CE61490EE
:10117B0000AC9378A3F6120FC322227896E6FA7886
:10118B0097E6FB3076047A007BFFC3EB9AFCC394A3
:10119B008250027C82756C00056CEC856CF0A4C3EC
:1011AB00E5F0948040F222C2D353D9BF7581C0437E
:1011BB00FF8012072C75EF0243B203E5B324044002
:1011CB0002F5B37580FF75A40075F19075D47F752A
:1011DB00908775A5BF75F2BF75D50075A60175E231
:1011EB0041120FC3E4F8F6D8FD113F121748119CBA
:1011FB003133314D315C316B318531867898866D69
:10120B008673120FC375885075890275C824759142
:10121B000475D84012074012074F120738120755B2
:10122B0012073812075B120738121CCD1207401237
:10123B00074012073C75A82275B80275E69075F643
:10124B0010759B80759D0375D10E75BC5875BB06CB
:10125B0075BA1175E88012072CD2AF120A2F43DA38
:10126B0001C2D8C269120740753001D2597A05E51F
:10127B005770027A05120730E558C3940240EEE529
:10128B002E540F855A59F55AB559E2DAE2C2595321
:10129B00DACF20750343DA2030750343DA10C2D856
:1012AB00C26912073C1207307802740F552E700278
:1012BB007800C3E5589840EDC2AF12074F12074FA5
:1012CB0012074FD2AF120740754700120730788CC8
:1012DB00E6C39401500302139FE530C394015003FE
:1012EB0002139F740F552E6035C3E55894FF5003BE
:1012FB0002139FC2AF120761D2AF12073CC3E5586E
:10130B00940150EFC2AF12074F12073412074FD29E
:10131B00AF12073CC3E55894FF40E9021D527F050D
:10132B00D276318612073CC2AFC2763186C3E558FE
:10133B00947FD2AF4068C2AF120761D2AFDFE1C377
:10134B00E55894057897F61207401217E4121CD54E
:10135B007F0AD276318612073CC2AFC2763186C382
:10136B00E558947FD2AF50E8C2AF12074F12073443
:10137B0012074FD2AFDFDBE55824057896F612073C
:10138B00401217E4121D0412073CC3E55894FF40AA
:10139B00F6021D52C3E5589547400385584712077F
:1013AB003CC3E5589401400241D6C2AF120761120B
:1013BB000761120761D2AF120740753000E4F531B7
:1013CB00F5320531E531F470360532789AE6782836
:1013DB00146012785014600D78A014600878F01423
:1013EB006003753200C3E532984014153278998644
:1013FB006DC2AF120761D2AF7898866D12073C129F
:10140B000730E5287008740F552E70024176C3E53E
:10141B0058940640AD12073CE52870030212761271
:10142B000FC3E4F522F523F524F525755CFF7885CC
:10143B00865FF53FF540F541F542F543F56AF54812
:10144B00F52BF52CF55B120B6F756A0875BB10123B
:10145B00072C120AC7E5E820ECFBA8BDA9BEE97072
:0F146B0001F8886B120ACB756A0875BB1078956B
:10147A00E630E0030214BD7887E6FE7602119C7816
:10148A0087EEF6D261C2AF120B3D85225C85225DE2
:10149A00D2AFC261752500756200756301D260D250
:1014AA0063753800120F2B120F69120BEB120B6FB8
:1014BA000215EC7887E6FE76037893E6FD76051149
:1014CA009C7887EEF67893EDF6D260D261D26E12EE
:1014DA000F2B120F69120B3D12072C120E2D120739
:1014EA002C12072C120E62120730120EAC120730A1
:1014FA00120730120EEA120734120F2B120730129B
:10150A00072CC261D262120AC7120ACB120B3D75AE
:10151A006A0875BB10120F69120BE4120C5F120FE6
:10152A00D31138120E2D120BE4120C5F120FD311C5
:10153A0038120E62120BE4120C5F120FD31138121A
:10154A000EAC120BE4120C5F120FD31138120EEA12
:10155A00120BE4120C5F120FD31138120F2B120B5D
:10156A00E4120C5F120FD3C3E54F9535E55095365B
:10157A00400C1138C3E5589401508B0217181138E2
:10158A00C2627887E6FE7602119C7887EEF685229B
:10159A005C855E5D855E25756200756301D2637543
:1015AA003800C2AF207402D292307402D2902074F2
:1015BA0002D290307402D292742DD5E0FDD2AF12CD
:1015CA000F69120BEB120C46120C5F120CE3756AD0
:1015DA000075BB060215EC119C120F69756A00753D
:1015EA00BB06121DCC120D05120D8A120DB212087D
:1015FA004A120DC6120E2D120BEB120C46120C5F7C
:10160A00120CE3121DCC120CFC120D8A120DB2122E
:10161A0008CA120DC6120E62120BEB120C46120CFD
:10162A005F120CE3121DCC120D05120D8A120DB2B7
:10163A0012090A120DC6120EAC120BEB120C46124C
:10164A000C5F120CE3121DCC120CFC120D8A120D47
:10165A00B2120967120DC6120EEA120BEB120C46F1
:10166A00120C5F120CE3121DCC120D05120D8A1218
:10167A000DB21209CC120DC6120F2B120BEB120C63
:10168A0046120C5F120CE3121DCC120CFC120AC794
:10169A00120D8A120DB2120ACB120DC6120F69125E
:1016AA000BEB120C46120C5F120CE330632A755CCA
:1016BA00FF755DFF756200756301C3E53894644088
:1016CA000AC263D2647537140216E2C3E55894015C
:1016DA0040030215EC021718306419E53714700537
:1016EA00C2640215E1F537C3E558940140030215B7
:1016FA00EC021718C3E55B94825013740F552E70D1
:10170A0004E5286009C3E53C94F05002A1EC120FED
:10171A00C37887E6FE7602119C7887EEF6E4F52216
:10172A00F523F524F525F55FC26012072C120FC3C5
:10173A00740F552E7006E5287002417661C8901A1A
:10174A000D7820121C00E520B45A0CA3121C00E5E7
:10175A0020B4A503021769113F1217E40217E378B0
:10176A00827604901A077884121C00A308121C00BF
:10177A00A308121C00A308121C00A308121C00A331
:10178A0008121C00A308A308A308121C00A308A39C
:10179A0008A308121C00A308121C00A308A308121D
:1017AA001C00A308121C00A308A308121C00A3080B
:1017BA00121C00A308121C00A308121C00A3081282
:1017CA001C00A308121C00A308121C00A308121C68
:1017DA0000A308121C00901A2122C2AF121C3F1249
:1017EA001C19901A00740A121C05A37403121C0512
:1017FA00A37410121C05901A077884121C04A308FB
:10180A00121C04A308121C04A308121C04A3081225
:10181A001C04A308121C04A308A308A308121C048E
:10182A00A308A308A308121C04A308121C04A308F3
:10183A00A308121C04A308121C04A308A308121C60
:10184A0004A308121C04A308121C04A308121C04F3
:10185A00A308121C04A308121C04A308121C04A344
:0F186A0008121C04A308121C04121C52121C307A
:04187900901A21227E
:101A00000A0310FFFFFFFF03040A0301015AA500A8
:101A1000FFFF0305FF0305FF0225D0FAFA040D01BD
:021A200000FFC5
:101A400023585031384123202020202020202020DE
:101A500023424C48454C4923463333302320202031
:101A60002020202020202020202020202020202076
:101C0000E493F622E6438F01538FFD75EF0275B71B
:101C1000A575B7F1F0538FFE22438F02438F0175F4
:101C2000EF0275B7A575B7F1901A0DF0538FFC222E
:101C3000901A0D745A9105901A0E74A59105227A86
:101C40003079D07820901A409100E520F709A3DA86
:101C5000F7227A3079D0901A40E7910509A3DAF992
:101C600022AB6EA86FBB01057984021CCABB0205BA
:101C70007985021CCABB03057995021CCABB040501
:101C80007986021CCABB0505798F021CCABB0605F2
:101C90007990021CCABB07057992021CCABB0805D1
:101CA000799B021CCABB09057993021CCABB0A05B1
:101CB0007987021CCABB0B05799C021CCABB0C05A8
:101CC0007988021CCA7989021CCAE8F7227C0512AD
:101CD0000740DCFB22C2AF12074F12075512075B09
:101CE00012076112073412074F12075512075B12D1
:101CF000076112073412074F12075512075B1207CC
:101D000061D2AF22C2AF12076112075B12075512F0
:101D1000074F12073412076112075B1207551207AB
:101D20004F12073412076112075B12075512074F53
:101D3000D2AF22AE6EAF6FC2AF12074F12074F1273
:101D4000074F120734DEF2120761120734DFF8D2B0
:101D5000AF2291D591CD91CD756E01756F017570E2
:101D600000B1337C05AD58120740C3ED955870F5AE
:101D7000C3E55894014009C3E55894FF4032A18E51
:101D800091611217E491D5C2AF75EF1291CDDCD5F8
:101D90000570C3E5709403500280C691CD056FE5D0
:101DA0006E149000B193F808C3E56F98500280AEAE
:101DB00091CD91CD056EC3E56E940E5002809C12BC
:101DC000103F1217E4C2AF75EF1291CDE573C33324
:101DD000F573E57433F57450066373016374F82288
:00000001FF
