:030000000211B337
:03000B000200BE32
:03002B000203F5D8
:03005B0002053962
:0300730002052F54
:1000800002030406080C10182030406080020304AC
:1000900006080C101820304080FF0406080C1018C9
:1000A0002030406080A0C000000001010003020277
:1000B000010505020D0505050D0603050202C2AF87
:1000C000C0D0C0E0205A25302F02E47330601A05FA
:1000D00060C37405952540F2956040EE758A78E519
:1000E000257003758A000203EE0203E1306306C245
:1000F00092C291C290C0F0E573541FF572F4852549
:10010000F0A485F071E57225F0D0F0F58AC25AE5C9
:1001100025F4700221D40561306013206A19758BB3
:1001200000D0E0D0D0C292C291C290D2AF32C2927F
:10013000C291C2900201C4D26EC26FE565601CC359
:10014000E5611495654014C26ED26FC3E561956494
:1001500050030201C47561000201C4206C14C292F4
:10016000C291C2907401D5E0FDD295D294D293028F
:1001700001C4C292C291C290E53D20E22520E10D6A
:10018000207402D295307402D2930201C420E0059B
:10019000D2940201C4207402D293307402D2950228
:1001A00001C420E11520E00D207402D295307402C4
:1001B000D2930201C4D2940201C4207402D29330BB
:1001C0007402D295758B00D0E0D0D0C292C291C299
:1001D00090D2AF32D0E0D0D0D2AF3261E1E525602D
:1001E0000A207402D292307402D290C29161E1E589
:1001F000256002D291207402C290307402C29261D2
:10020000E1E525600A207402D290307402D2922077
:100210007402C292307402C29061E1207402C295ED
:10022000307402C293E525600A207402D2923074C1
:1002300002D290207402C293307402C295C29161BE
:10024000E1207402C295307402C293207402C293FA
:10025000307402C2957446D5E0FDE525600A20742D
:1002600002D292307402D290C29161E1207402C233
:1002700095307402C293E525600A207402D2923050
:100280007402D290C294C29161E1207402C295308E
:100290007402C293C2947446D5E0FDE525600A203D
:1002A0007402D292307402D290C29161E1C294E59C
:1002B000256002D291207402C295307402C293204C
:1002C0007402C290307402C29261E1C2942074023E
:1002D000C295307402C2937446D5E0FDE5256002F4
:1002E000D291207402C290307402C29261E1C29431
:1002F000E5256002D291207402C293307402C29547
:10030000207402C290307402C29261E1C2942074DF
:1003100002C293307402C2957446D5E0FDE52560B3
:1003200002D291207402C290307402C29261E12024
:100330007402C293307402C295E525600A207402EB
:10034000D290307402D292C294207402C29230745D
:1003500002C29061E1207402C293307402C295C25D
:10036000947446D5E0FDE525600A207402D29030F1
:100370007402D292207402C292307402C29061E17F
:10038000207402C293307402C295E525600A20747D
:1003900002D290307402D292207402C2953074025C
:1003A000C293207402C292307402C29061E1207440
:1003B00002C293307402C295207402C29530740256
:1003C000C2937446D5E0FDE525600A207402D29000
:1003D000307402D292207402C292307402C29061D0
:1003E000E1E571F4F58A758B00756000D25AD0E0B2
:1003F000D0D0D2AF32C2AFC0D0C0E0D2D3C2CEE5EF
:1004000028600A740F552E604915288152780079AA
:1004100000E580307501F430E70278FF53DACF2031
:10042000750343DA2030750343DA10C2D8C269E598
:1004300080307501F430E70279FFC3E89970CE305F
:100440005903752818740F552E600375281888589D
:10045000D268E529600415298165740F552E600561
:1004600043DA01C2D820680281F7E558F8C26874FF
:0E0470000F552E60367982B70431C3E894F040
:10047E00400374F0F8E8C4540F28F87984B70302E7
:10048E0081ABC313C3138721200802C313200A06AE
:10049E00C3C898F881AB28F8500374FFF8C3E895E9
:1004AE005F5003E55FF8E52C5406703D88223063FB
:1004BE000AC3E522955C4003855C227882B6042946
:1004CE00C3E5229524401278A096400DE52426F52A
:1004DE002450097524FF0204EA852224852425C3AD
:1004EE00E524955C4003855C2520CF09D0E0D0D073
:1004FE00C2D3D2AF32C2CF7801E5286008740F554F
:10050E002E70021528C3E55894014005755B00A1B5
:10051E0026E55B046002055BD0E0D0D0C2D3D2AF3B
:10052E0032C2AF53917FC258D2AF32C2AFC0D0C029
:10053E00E0C0F0D2D3A8FBA9FCC2D8306902A19CBE
:10054E0053DACF20750343DA1030750343DA20D225
:10055E0069E580307501F420E702A17088268927AD
:10056E00E11553DACF20750343DA2030750343DAF1
:10057E0010C2D8C269740F552E7002C1FB7800E507
:10058E0080307501F430E702C1FB8858C1FB53DAA5
:10059E00CF20750343DA2030750343DA10C2692089
:1005AE005902C14553DACF20750343DA1030750373
:1005BE0043DA20C2D8D26988538954C3E89551F8DA
:1005CE00E99552F9E4FB7AFAC3E89468E99401508C
:1005DE0008E4D2E3FB7A0FC118C3E894D0E9940281
:1005EE005008E4D2E2FB7A1EC118C3E894A0E99445
:1005FE00055008E4D2E1FB7A3CC118C3E89498E9AF
:10060E0094085006E4D2E0FB7A78C3E89555FCE9ED
:10061E009556FD30E708ECF42401FCEDF4FD75571A
:10062E00007008C3EC9A500375570188558956A877
:10063E0053A95488518952C3E89526F8E99527F9AC
:10064E00307302C1DF307202C1D8E9C313F9E81367
:10065E00F8307102C1D8E9C313F9E813F83070020B
:10066E00C1D8E9C313FDE813FC205918C3EC941C40
:10067E00ED940240030206FBED7009C3EC94C850E2
:10068E000302071574002076037896E624FAFEE43A
:10069E003400FFC3EC9EFCED9FFD50067800790000
:1006AE00C1DFC3EC94FFED9400400678FF7900C1E2
:1006BE00DFEC856CF0A4C5F0A2F733F879004003A7
:1006CE000206EA78FF79000206EAE9C313F9E81395
:1006DE00F8C3E894FFE99400400278FF8858D26886
:1006EE00205902C1FB740FF4552E4BF52E752818A8
:1006FE00740F552E700375280A305902E115740FC8
:10070E00552E600353DAFE752906740F552E7003AD
:10071E0075290AD0F0D0E0D0D0C2D3D2AF32790151
:10072E00E1447903E144790AE144791EE1447964B4
:10073E00E14479C8E1447817E4D5E0FDD8FAD9F65A
:10074E00227A147B78E1677A107B8CE1677A0D7BD5
:10075E00B4E1677A0B7BC8E167AC25752501790298
:10076E00B274E4C294D5E0FDE5256002D291D5E0E5
:10077E00FDC291D5E0FDD294D5E0FDE525600A20BD
:10078E007402D292307402D290E56DD5E0FD2074E1
:10079E0002C292307402C2907496D5E0FDD9C1EABD
:1007AE00F8D5E0FDD8FBDBB1C2948C2522C37C00CA
:1007BE007D0075F00005F0EA33FAEB33FB50F6EBF3
:1007CE0013FBEA13FAC3E9FFE8FEE89AF8E99BF98E
:1007DE005004EFF9EEF8B3EC33FCED33FDD5F0DF5A
:1007EE00EDF9ECF822E889F08A20D2D4F8A9F07B52
:1007FE000030F70B7BFFF42401F8E9F43400F9E83C
:10080E008520F0A4ADF0F8E98520F0A4AFF0FEED60
:10081E002EF974003FFA7C04C3EA13FAE913F9E8DF
:10082E0013F8DCF48BF030F70AE8F42401F8E9F45D
:10083E003400F9E889F0C2D4F8A9F0227882B6041F
:10084E00030208C9C3E55894014018E548702A7898
:10085E0005C37994B702027812C3E53B9400E53CD8
:0F086E00984013852224E4F53FF540F541F5420B
:10087D00F543F5480208C9754801C37994E7940218
:10088D00601BE523F43333F913F8E9540104F9E857
:10089D0054FEC39440F8E99400F90208C5E523F429
:1008AD0033333333F913F8E954070404F9E854F8F2
:1008BD00C39440F8E99400F9883F894022E54860E7
:1008CD003BC3E53C13F9E53B13F8C3E53F98F8E569
:1008DD004099F9500CC3E89480E994FF4016020941
:1008ED0005C3E8947FE994005003020905787F79E8
:1008FD0000020905788079FF8844894522E5486022
:10090D0058E5442541F8E5453542F9854520E43063
:10091D000701F43543FA30E709C3EA94F0401502B4
:10092D000947C3EA940F500302094778FF79FF7A0C
:10093D000F020947780079007AF0C3E524955C50E1
:10094D0006E52460092160E54520E70D2160E545B8
:10095D0030E706884189428A4322E548700302093F
:10096D00CB789EE6FAC3E54433F8E54533F9120733
:10097D00F3E930E70BC3E89480E994FF401321A21B
:10098D00C3E8947FE99400500221A2787F79002179
:10099D00A2788079FFE820E715C3E52398F8400990
:1009AD00C3E8940140030209C978010209C9E8F4BA
:1009BD0024012523F840030209C978FF884622E562
:1009CD00487003020A2E789FE6FAA842A94312073F
:1009DD00F3E930E70CC3E89401E994FF4016020AED
:1009ED0005C3E894FFE994005003020A0578FF79E6
:1009FD0000020A05780179FFE920E715C3E546985D
:100A0D00F84009C3E894014003020A2C7800020A59
:100A1D002CE8F424012546F84003020A2C78FF88BF
:100A2D002422020AC67883E6F520120F2C75E89071
:100A3D00E5E820ECEDA8BDA9BE120FC4756855758B
:100A4D006900C3740013FD745513FC74552CFC74AC
:100A5D00003DFDECFAEDFBC3E89AE99B4014E56817
:100A6D002455F568E5693400F569EA2CFAEB3DFB90
:100A7D0080E5AE68AF69C3E56913F9E56813F8C39E
:100A8D00E913F9E813F8E56828F566E56939F567BE
:100A9D007A03C3E913F9E813F8DAF7AA201A7009F3
:100AAD00756800756900020AC61AEA6008EE28FE2C
:100ABD00EF39FFDAF88E688F692275E89022788316
:100ACD00E6FFE5E820ECF7A8BDA9BE056AC3E56A17
:100ADD0094084052756A00E97007E56B601B020AC5
:100AED00FAC3E8956B6010E56B5006600C14020BB1
:100AFD00060460F9020B06E56BF56BC3946DF840C7
:100B0D0021755CC0C3E89404F84017755C80C3E898
:100B1D009404F8400D755C40C3E89404F8400375E7
:100B2D005C0075BB0622C3E56AB4070375BB1022D2
:100B3D0030610278323062027878E52C54066021FB
:100B4D00E879A187F0A4C5F0A2F733F8C3E8955C66
:100B5D004002A85C882288248825306104C3E8F50A
:100B6D005E22788FE6FFC3EF94055018C3EF94040F
:100B7D005020C3EF94035028C3EF94025030C3EFBD
:100B8D00940150387533A075340F75353C753605A5
:100B9D0061D77533C075341275354075360661D71A
:100BAD007533707534177535D075360761D7753354
:100BBD004C75341D7535C475360961D77533287577
:100BCD0034237535B875360B61D785334F85345061
:100BDD00753B00753C0822A84FA950020BEFA849A0
:100BED00A94A759100C3E498F594E499F59575912A
:100BFD0004D25875C820A8CCA9CD75C824AA39AB84
:100C0D003A8839893AC3E89AF8E99BF9AA3BAB3C93
:100C1D00C3EB13FDEA13FCC3ED13FDEC13FCC3EAA8
:100C2D009CFAEB9DFBEA28FAEB39FB8A3B8B3C40A7
:100C3D000122753BFF753CFF2230580281467591AC
:100C4D0000C3E4954BF594E4954CF595759104D25C
:100C5D0058227892E6FF7E10305B027F05306304E8
:0F0C6D007F037E00A93CA83B7A04C3E913F9E892
:100C7C0013F8DAF7C3E89EF8E99400F94009C3E8E1
:100C8C009402E9940050047802E4F9E9FBE8FAC311
:100C9C00E913FDE813FCC3EF9403602EEF20E00D85
:100CAC00E82CF8E93DF9ECFAEDFB020CC3E828F866
:100CBC00E939F97A02E4FBC3EF9403400D8A4D8BBA
:100CCC004E8849894A8C4B8D4C22884D894E8A49D5
:100CDC008B4A8C4B8D4C2230580281E3759100C3AA
:100CEC00E4953BF594E4953CF595759104D2582226
:100CFC00753E00752000020D0B753E00752040D22C
:100D0C00AF053E20580122759D00E53CC313C3136B
:100D1C00F8086030306A06C313C313F808C3E894AC
:100D2C000A4002780A306D08C3E894044002780443
:100D3C00C3E53C9408400D759D02C3E53C941040FE
:100D4C0003759D03205803D2AF22791E206D0279C2
:100D5C000AD2AF0000C2AF205A0A790F206D027977
:100D6C0005306FE03063027978C3E58B9940D5E5A7
:100D7C009BF4F45440B52002A10BD8C8D2AF22C2C8
:100D8C005B789CE6146007E53E147002D25B30631E
:100D9C000B0538205810753800020DB22058071575
:100DAC0081158102171922759100C3E4954DF594B4
:100DBC00E4954EF595759104D25822AE25305B4FD3
:100DCC0078A3E6FFBF010BD25C752500C292C291DD
:100DDC00C290914B305C03752500305802A1E0BFE6
:100DEC00020BD25C752500C292C291C29078A2B659
:100DFC00010D914B305C03752500305802C100BFCA
:100E0C00030BD25C752500C292C291C290B1B33073
:100E1C005C03752500305802C11B305B04C25C8E2C
:100E2C002522C2AFC294206A03020E5090032F20D9
:100E3C006C12306E0F207402C293307402C295741F
:100E4C0046D5E0FD207402D295307402D293759F82
:100E5C0011753D02D2AF22C2AF206A03020E8590FB
:100E6C0002EE306E17C294207402C293307402C228
:100E7C00957446D5E0FD020E889001EF207402C2F5
:100E8C0090307402C292305A06E5256002D291204D
:100E9C007403759F01307403759F21753D03D2AFA8
:100EAC0022C2AF207402C295307402C293206A032E
:100EBC00020ECF9002AD206C0A306E07C2947446BD
:100ECC00D5E0FD207402D293307402D295207403C5
:100EDC00759F21307403759F01753D04D2AF22C2FA
:100EEC00AF206A03020F0D90026C306E1720740253
:100EFC00C295307402C293C2947446D5E0FD020FC1
:100F0C00109001DDC291305A0EE525600A20740262
:100F1C00D292307402D290759F11753D05D2AF22DA
:100F2C00C2AF207402C293307402C295206A0302CD
:100F3C000F5690021B206C12306E0F207402C2955B
:100F4C00307402C2937446D5E0FDD29420740375BC
:100F5C009F01307403759F21753D06D2AF22C2AF3D
:100F6C00206A03020F94900380306E1F207402C21B
:100F7C0095307402C293207402C293307402C295ED
:100F8C007446D5E0FD020F97900201207402C292C4
:100F9C00307402C290305A0EE525600A207402D2D9
:100FAC0090307402D292207403759F2130740375B3
:100FBC009F01753D01D2AF229001DBC292C291C25A
:100FCC0090C295C294C29322C3E54F9535E55095D6
:100FDC00365001227890E6FFC3EF94055018C3EF0A
:100FEC009404501BC3EF9403501EC3EF9402502182
:100FFC00C3EF94015024C3E54F943CF802102FC367
:10100C00E54F9428F802102FC3E54F941AF80210FC
:10101C002FC3E54F9412F802102FC3E54F940AF832
:10102C0002102FE5509400F9884F89502230580354
:10103C000210392278847603788576047886760BCC
:10104C00788F76037890760578957601789276038A
:10105C00789B760D7893760578877603789C760165
:0E106C00788876017889760178827604788C0F
:10107A007600788D7600788E76B47896762578978D
:10108A0076D078987678789976C8789A7604789D22
:10109A007600227893E6FF756409756501C3BF027D
:1010AA00097564057565010210E2C3BF0309756419
:1010BA00057565020210E2C3BF040975640575650A
:1010CA00030210E2C3BF0506756409756507C3BF4D
:1010DA0006067564007565007887E6FFC26CC3BFB3
:1010EA000302D26CC26BC3BF0402D26BC26A741809
:1010FA00552D6002D26AC26E6002D26ED26F600251
:10110A00C26FC2747888E630E102D274C2757889F7
:10111A00E630E102D275C3EF94026008758E01D2FF
:10112A006D021133758E00C26D227880E61490002C
:10113A008093789EF67881E61490008093789FF6E3
:10114A00120FC422789BE61490008D9378A0F612B1
:10115A000FC4227886E61490009A9378A1F6120FAB
:10116A00C422789CE6149000A79378A2F6789CE6AD
:10117A00149000AC9378A3F6120FC422227896E654
:10118A00FA7897E6FB3076047A007BFFC3EB9AFC89
:10119A00C3948250027C82756C00056CEC856CF0FD
:1011AA00A4C3E5F0948040F222C2D353D9BF75811B
:1011BA00C043FF8012072C75EF0043B203E5B32446
:1011CA00044002F5B37580FF75A40075F19075D4DB
:1011DA007F75900075A53F75F23F75D50075A6011C
:1011EA0075E241120FC4E4F8F6D8FD11401217490E
:1011FA00119D3134314E315D316C318631877898A9
:10120A00866D8673120FC475885075890275C82455
:10121A0075910475D84012074012074F1207381209
:10122A00075512073812075B120738121CCD12072E
:10123A004012074012073C75A82275B80275E6905D
:10124A0075F610759B80759D0375D10E75BC587522
:10125A00BB0675BA1175E88012072CD2AF120A2F95
:10126A0043DA01C2D8C269120740753001D2597AED
:10127A0005E55770027A05120730E558C394024013
:10128A00EEE52E540F855A59F55AB559E2DAE2C2FB
:10129A005953DACF20750343DA2030750343DA1045
:1012AA00C2D8C26912073C1207307802740F552E51
:1012BA0070027800C3E5589840EDC2AF12074F128A
:1012CA00074F12074FD2AF12074075470012073077
:1012DA00788CE6C3940150030213A0E530C394014D
:1012EA0050030213A0740F552E6035C3E55894FFBE
:1012FA0050030213A0C2AF120761D2AF12073CC358
:10130A00E558940150EFC2AF12074F120734120783
:10131A004FD2AF12073CC3E55894FF40E9021D5271
:10132A007F05D276318712073CC2AFC2763187C3B6
:10133A00E558947FD2AF4068C2AF120761D2AFDFDF
:10134A00E1C3E55894057897F61207401217E5129B
:10135A001CD57F0AD276318712073CC2AFC27631DA
:10136A0087C3E558947FD2AF50E8C2AF12074F1235
:10137A00073412074FD2AFDFDBE55824057896F61B
:10138A001207401217E5121D0412073CC3E55894D0
:10139A00FF40F6021D52C3E558954740038558475A
:1013AA0012073CC3E5589401400241D7C2AF120765
:1013BA0061120761120761D2AF120740753000E46B
:1013CA00F531F5320531E531F470360532789AE6B1
:1013DA007828146012785014600D78A01460087888
:1013EA00F0146003753200C3E53298401415327860
:1013FA0099866DC2AF120761D2AF7898866D1207CF
:10140A003C120730E5287008740F552E7002417798
:10141A00C3E558940640AD12073CE5287003021252
:10142A0077120FC4E4F522F523F524F525755CFF40
:10143A007885865FF53FF540F541F542F543F56A53
:10144A00F548F52BF52CF55B120B6F756A0875BB21
:10145A001012072C120AC7E5E820ECFBA8BDA9BEAA
:0F146A00E97001F8886B120ACB756A0875BB1020
:101479007895E630E0030214BE7887E6FE7602111D
:101489009D7887EEF6D261C2AF120B3D85225C854D
:10149900225DD2AFC261752500756200756301D204
:1014A90060D263753800120F2C120F6A120BEB12FF
:1014B9000B6F0215ED7887E6FE76037893E6FD76E5
:1014C90005119D7887EEF67893EDF6D260D261D258
:1014D9006E120F2C120F6A120B3D12072C120E2ED0
:1014E90012072C12072C120E63120730120EAD12BE
:1014F9000730120730120EEB120734120F2C1207A5
:101509003012072CC261D262120AC7120ACB120B1F
:101519003D756A0875BB10120F6A120BE4120C5F55
:10152900120FD41139120E2E120BE4120C5F120F86
:10153900D41139120E63120BE4120C5F120FD4117D
:1015490039120EAD120BE4120C5F120FD4113912BD
:101559000EEB120BE4120C5F120FD41139120F2C7F
:10156900120BE4120C5F120FD4C3E54F9535E55009
:101579009536400C1139C3E5589401508B0217195F
:101589001139C2627887E6FE7602119D7887EEF6F8
:1015990085225C855E5D855E25756200756301D275
:1015A90063753800C2AF207402C295307402C293C9
:1015B900207402C293307402C295742DD5E0FDD215
:1015C900AF120F6A120BEB120C46120C5F120CE3EE
:1015D900756A0075BB060215ED119D120F6A756AD1
:1015E9000075BB06121DCC120D05120D8B120DB321
:1015F90012084A120DC7120E2E120BEB120C4612CC
:101609000C5F120CE3121DCC120CFC120D8B120D87
:10161900B31208CA120DC7120E63120BEB120C4655
:10162900120C5F120CE3121DCC120D05120D8B1258
:101639000DB312090A120DC7120EAD120BEB120CE3
:1016490046120C5F120CE3121DCC120CFC120D8B0E
:10165900120DB3120967120DC7120EEB120BEB1222
:101669000C46120C5F120CE3121DCC120D05120D63
:101679008B120DB31209CC120DC7120F2C120BEBE2
:10168900120C46120C5F120CE3121DCC120CFC1248
:101699000AC7120D8B120DB3120ACB120DC7120F06
:1016A9006A120BEB120C46120C5F120CE330632A20
:1016B900755CFF755DFF756200756301C3E538945C
:1016C90064400AC263D2647537140216E3C3E5584D
:1016D900940140030215ED021719306419E5371416
:1016E9007005C2640215E2F537C3E5589401400359
:1016F9000215ED021719C3E55B94825013740F5557
:101709002E7004E5286009C3E53C94F05002A1ED70
:10171900120FC47887E6FE7602119D7887EEF6E40B
:10172900F522F523F524F525F55FC26012072C1281
:101739000FC4740F552E7006E5287002417761C9F0
:10174900901A0D7820121C00E520B45A0CA3121C23
:1017590000E520B4A50302176A11401217E5021724
:10176900E478827604901A077884121C00A3081280
:101779001C00A308121C00A308121C00A308121CB9
:1017890000A308121C00A308A308A308121C00A3A5
:1017990008A308A308121C00A308121C00A308A38D
:1017A90008121C00A308121C00A308A308121C009D
:1017B900A308121C00A308121C00A308121C00A3F2
:1017C90008121C00A308121C00A308121C00A3087D
:1017D900121C00A308121C00901A2122C2AF121C6D
:1017E9003F121C19901A00740A121C05A3740312E3
:1017F9001C05A37410121C05901A077884121C0486
:10180900A308121C04A308121C04A308121C04A395
:1018190008121C04A308121C04A308A308A3081295
:101829001C04A308A308A308121C04A308121C047F
:10183900A308A308121C04A308121C04A308A308E4
:10184900121C04A308121C04A308121C04A30812E6
:101859001C04A308121C04A308121C04A308121CCC
:0E18690004A308121C04A308121C04121C5233
:07187700121C30901A21221F
:101A00000A0310FFFFFFFF03040B0301015AA500A7
:101A1000FFFF0305FF0305FF0125D0FAFA040D01BE
:021A200000FFC5
:101A400023585031324123202020202020202020E4
:101A500023424C48454C4923463333302320202031
:101A60002020202020202020202020202020202076
:101C0000E493F622E6438F01538FFD75EF0275B71B
:101C1000A575B7F1F0538FFE22438F02438F0175F4
:101C2000EF0275B7A575B7F1901A0DF0538FFC222E
:101C3000901A0D745A9105901A0E74A59105227A86
:101C40003079D07820901A409100E520F709A3DA86
:101C5000F7227A3079D0901A40E7910509A3DAF992
:101C600022AB6EA86FBB01057984021CCABB0205BA
:101C70007985021CCABB03057995021CCABB040501
:101C80007986021CCABB0505798F021CCABB0605F2
:101C90007990021CCABB07057992021CCABB0805D1
:101CA000799B021CCABB09057993021CCABB0A05B1
:101CB0007987021CCABB0B05799C021CCABB0C05A8
:101CC0007988021CCA7989021CCAE8F7227C0512AD
:101CD0000740DCFB22C2AF12074F12075512075B09
:101CE00012076112073412074F12075512075B12D1
:101CF000076112073412074F12075512075B1207CC
:101D000061D2AF22C2AF12076112075B12075512F0
:101D1000074F12073412076112075B1207551207AB
:101D20004F12073412076112075B12075512074F53
:101D3000D2AF22AE6EAF6FC2AF12074F12074F1273
:101D4000074F120734DEF2120761120734DFF8D2B0
:101D5000AF2291D591CD91CD756E01756F017570E2
:101D600000B1337C05AD58120740C3ED955870F5AE
:101D7000C3E55894014009C3E55894FF4032A18E51
:101D800091611217E591D5C2AF75EF1091CDDCD5F9
:101D90000570C3E5709403500280C691CD056FE5D0
:101DA0006E149000B193F808C3E56F98500280AEAE
:101DB00091CD91CD056EC3E56E940E5002809C12BC
:101DC00010401217E5C2AF75EF1091CDE573C33324
:101DD000F573E57433F57450066373016374F82288
:00000001FF
